:100000000C9434000C9451000C9451000C94510049
:100010000C9451000C9451000C9451000C94540118
:100020000C9451000C9451000C9456000C94C70091
:100030000C94FE000C94B6000C9451000C945100EA
:100040000C9451000C9451000C9451000C945100EC
:100050000C9451000C9451000C9451000C945100DC
:100060000C9451000C94510011241FBECFEFD8E026
:10007000DEBFCDBF12E0A0E0B1E0EAE8F0E102C0EF
:1000800005900D92A83DB107D9F722E0A8EDB2E0A6
:1000900001C01D92AB3FB207E1F70E9427020C940A
:1000A00043080C9400000E944B0508951F920F9284
:1000B0000FB60F9211242F933F938F939F93AF937B
:1000C000BF93EF93FF938091F102823019F0833058
:1000D00019F13FC08091F00284FF3BC0209186005F
:1000E000309187008091DD0290E0A0E0B0E0DC017B
:1000F00099278827820F931FA11DB11D8093E402C9
:100100009093E502A093E602B093E702E0EFF2E0FD
:1001100080818F7E80831DC0209186003091870072
:100120008091DD0290E0A0E0B0E0DC019927882713
:10013000820F931FA11DB11D8093E8029093E902E5
:10014000A093EA02B093EB02E0EFF2E080818064DA
:100150008083FF91EF91BF91AF919F918F913F91DC
:100160002F910F900FBE0F901F9018951F920F9216
:100170000FB60F9211248F938091DD028F5F8093D1
:10018000DD028F910F900FBE0F901F9018951F9258
:100190000F920FB60F9211242F933F938F939F933B
:1001A000AF93BF93EF93FF93E8E8F0E080819181F4
:1001B000805C93469183808385B1826085B920916C
:1001C00084003091850080911C0190911D01A091C7
:1001D0001E01B0911F01820F931F90938B0080939B
:1001E0008A00FF91EF91BF91AF919F918F913F91C5
:1001F0002F910F900FBE0F901F9018951F920F9286
:100200000FB60F9211248F9385B18D7F85B98F9191
:100210000F900FBE0F901F901895A4E8B0E01196B4
:100220001C921E9286B3806286BBEFE6F0E080816E
:1002300087628083E1E8F0E0808180648083808150
:10024000826080838D919C91805C9346909389001D
:10025000809388000895E1EBF0E0808187608083DF
:100260008BE98093B300E0E7F0E0808182608083D7
:100270001092B200089584B1806284B985B1806221
:1002800085B98AB188608AB984B18E7F84B98AB110
:100290008F7E8AB98BB18F7E8BB984B1826084B92D
:1002A0008BB1877F8BB908951F920F920FB60F9273
:1002B00011242F933F934F935F936F937F938F936B
:1002C0009F93AF93BF93EF93FF938091DF0281FFE2
:1002D000ADC08091F102813051F58091D902811138
:1002E0000BC00E947A03E0EFF2E08081816080839E
:1002F00081E08093D9021BC00E947E03E0EFF2E010
:100300008081826080831092D9028091E0028D7F8B
:1003100088608093E00280818F7D808382E080937B
:10032000F10280818061808380818D7F80838091D4
:10033000F1028230D1F48091F00284FF16C08091E6
:10034000E0028970883089F48091D802811106C05A
:100350008091D8028F5F8093D80207C08091E0021D
:1003600081608093E0021092D8028091F00285FDB6
:1003700022C08091E00284FD1EC08091DC028730A3
:1003800030F48091DC028F5F8093DC0207C08091A3
:10039000E00280618093E0021092DC028091F00222
:1003A00083FF09C06091E00265FB662760F984EE77
:1003B00092E00E9455048091DA028A3030F48091F4
:1003C000DA028F5F8093DA0207C08091DF028860D3
:1003D0008093DF021092DA028091DF0286FF0EC066
:1003E0008091DB028F3F29F48091DF02846080934B
:1003F000DF028091DB028F5F8093DB028091DF025E
:1004000085FF14C08091DE028E3130F48091DE02CF
:100410008F5F8093DE020AC01092DE028091DF02BD
:100420008F7D8093DF028AE50E945C03FF91EF914C
:10043000BF91AF919F918F917F916F915F914F91FC
:100440003F912F910F900FBE0F901F90189582E84B
:100450008093DF021092E00288E090E00E948E0319
:10046000E5EFF2E08EE091E09383828380E091E01B
:10047000918380831092DA020E943B010E940D0159
:100480000E942B0163E570E084EE92E00E94360446
:100490006091E00265FB662760F984EE92E00E94BD
:1004A000B903E1EEF2E084EE92E0918380838281F1
:1004B0008F7082838091E00282608093E0028BEBF8
:1004C00091E00E944B0578948091E1029091E202C4
:1004D0000E94CE024C9B0AC08091DF0286FD06C0BE
:1004E0001092DB0280648093DF0228C08091DF02DB
:1004F00086FF24C04C9922C08F7B8093DF0282FF4D
:1005000004C080E291E00E944B058091DB028A30BA
:1005100030F48091DF02982F947082FF06C08091A2
:10052000DF0281608093DF0209C01092DB02992311
:1005300029F08091DF028B7F8093DF028091E002BF
:1005400084FF08C08F7E8093E002E0EFF2E08081BC
:10055000806280838091DF0283FF08C0877F809361
:10056000DF028091E00282608093E0028091DF02EE
:1005700080FF04C08E7F80618093DF028091DF0264
:1005800084FFA2CF8F7E8093DF0280E00E945C0315
:100590008091DF0280628093DF0296CFCF93DF935A
:1005A000EC018091DF02882384F58C8585FF2DC0C6
:1005B0008091E00281FF29C0CE010E94720488234D
:1005C000B1F08091E00285FF04C084E391E00E94D5
:1005D0004B058091DF028F778093DF028091E002EC
:1005E0008D7F8093E0028C858F7D8C870EC08091FB
:1005F000E00285FF04C08FE291E00E944B058091EC
:10060000E00284608D7F8093E002CE010E94A0040E
:100610008D85853011F58C858823FCF4CE010E94F0
:1006200001049F938F937F936F938FE391E09F9348
:100630008F930E9435058C858F778C87CE010E9421
:1006400011041D868091DF0280688093DF020F9085
:100650000F900F900F900F900F908091E00280FF0D
:1006600028C085FF04C084E591E00E944B0580917D
:10067000E0028E7F877F8093E0028C8588608C8784
:1006800086E08D876091E00265FB662760F9CE0108
:100690000E945504882341F08091E00285FF04C048
:1006A00087E691E00E944B058091DF02806880938D
:1006B000DF02DF91CF910895853B08F084EB282F6E
:1006C00030E0A0EDB7E00E94260524EB30E040E0EA
:1006D00050E00E940405DA01C9018053984FAF4FE2
:1006E000BF4F80931C0190931D01A0931E01B093F6
:1006F0001F0108958BB188608BB908958BB1877FF6
:100700008BB90895E1E8F0E08081806480830895EA
:10071000E1E8F0E080818F7B808308959093C500AD
:100720008093C40088E18093C10086E08093C2007A
:1007300008959091C00095FFFCCF8093C600089566
:100740008091C0008823E4F78091C6000895CF937C
:10075000C82F8A3019F48DE00E9499038C2F0E94D3
:10076000990380E090E0CF9108950E94A00390E06B
:100770000895FC01668708950F931F93CF93DF932D
:10078000EC018C819D81AE81BF81488159816A8154
:100790007B818C019D01041B150B260B370BB901C6
:1007A000A801D901C801880F991FAA1FBB1F880F74
:1007B000991FAA1FBB1F880F991FAA1FBB1F880F55
:1007C000991FAA1FBB1F8C019D01040F151F261F17
:1007D000371FC901B801660F771F881F991F20E9CD
:1007E00031E040E050E00E940405288739874A87BD
:1007F0005B878C8580688C87DF91CF911F910F91EB
:100800000895FC0160857185828593850895DC01DA
:100810001F96ED91FC915097309711F0CB010995FF
:100820000895CF93DF93EC01188219821A821B82FC
:100830001C821D821E821F82188619861A861B86BC
:100840001C868C8580628C871D860E9482038F8522
:100850009889892B41F08E85882329F069E871E019
:10086000CE010E940704DF91CF9108950F931F934B
:10087000CF93DF93EC018B010E94110481E08E87FE
:100880000115110519F4188A1F860AC0188B0F87E5
:100890008E85882329F068EA71E0CE010E94070462
:1008A000DF91CF911F910F9108951F93CF93DF9305
:1008B000FC012585263071F4162FEC010E941104ED
:1008C0001E871E85112341F067E671E0CE010E946C
:1008D000070403C010E001C011E0812FDF91CF9128
:1008E0001F910895CF93FC018585882319F0858594
:1008F0008530C1F4848585FF0BC081E08587C6857E
:10090000CC23D1F064EC71E0CF010E94070415C044
:10091000C685CC2391F063EF71E0CF010E940704FC
:10092000C0E00BC0C685CC2341F06AE272E0CF0183
:100930000E940704C0E001C0C1E08C2FCF91089550
:10094000CF93DF93EC018D85833071F128F48130F2
:1009500049F08230A1F055C08430E1F1863009F4CD
:100960004DC04FC08C8581FF4CC08E85882309F413
:1009700048C067E572E0CE010E94070442C08C8542
:1009800084FD0CC083E08D870E9488038E858823B8
:1009900029F066E772E0CE010E9407048C8583FF90
:1009A00030C086E08D872DC08C8586FF0DC084E029
:1009B0008D878E85882329F063E972E0CE010E943D
:1009C00007048C8584608C878C8583FF1AC086E041
:1009D0008D8717C08C8582FF14C0CE010E94BC0396
:1009E0008C858B7F8C878E85882329F06AEA72E05C
:1009F000CE010E94070485E08D8703C08C85886046
:100A00008C87DF91CF910895A1E21A2EAA1BBB1B00
:100A1000FD010DC0AA1FBB1FEE1FFF1FA217B307CA
:100A2000E407F50720F0A21BB30BE40BF50B661FE0
:100A3000771F881F991F1A9469F7609570958095A4
:100A400090959B01AC01BD01CF010895A29FB0011B
:100A5000B39FC001A39F700D811D1124911DB29FF2
:100A6000700D811D1124911D0895A0E0B0E0EBE30D
:100A7000F5E00C941C08AE014B5F5F4FFA016191E9
:100A80007191AF018091F7029091F8020E947B056D
:100A9000E2E00C9438080F931F93CF93DF93E0911B
:100AA000F702F091F802238121FF1BC08C01D0E0F6
:100AB000C0E0F80181918F016091F7027091F80216
:100AC000DB011896ED91FC911997882331F0099577
:100AD000892B79F3DFEFCFEFECCF8AE00995892BF3
:100AE00019F08FEF9FEF02C08D2F9C2FDF91CF91D8
:100AF0001F910F910895ABE0B0E0E1E8F5E00C94B0
:100B00000C086C017B018A01FC011782168283812B
:100B100081FFCCC1CE0101963C01F6019381F70122
:100B200093FD859193FF81917F01882309F4BAC1D8
:100B3000853239F493FD859193FF81917F01853250
:100B400029F4B60190E00E947207E7CF912C212C86
:100B5000312CFFE1F315D8F08B3279F038F4803284
:100B600079F08332A1F4232D20611DC08D3261F014
:100B7000803369F4232D216016C0832D8260382EC6
:100B8000E32DE4603E2E2AC0F32DF8601DC037FC33
:100B90002DC020ED280F2A3040F08E32B9F436FCFB
:100BA00081C1232D2064322E19C036FE06C08AE092
:100BB000989E200D1124922E11C0EAE02E9E200D49
:100BC0001124222EF32DF0623F2E08C08C3621F422
:100BD000832D8068382E02C0883641F4F70193FDDA
:100BE000859193FF81917F018111B3CF982F9F7DD4
:100BF0009554933028F40C5F1F4F9FE399830DC0E9
:100C0000833631F0833771F0833509F059C021C044
:100C1000F801808189830E5F1F4F88248394912C73
:100C2000530113C02801F2E04F0E511CF801A080BF
:100C3000B18036FE03C0692D70E002C06FEF7FEF18
:100C4000C5010E9467074C018201F32DFF773F2EFB
:100C500016C0280122E0420E511CF801A080B1808C
:100C600036FE03C0692D70E002C06FEF7FEFC50153
:100C70000E945C074C01F32DF0683F2E820133FC8B
:100C80001BC0822D90E088169906B0F4B60180E270
:100C900090E00E9472072A94F4CFF50137FC859109
:100CA00037FE81915F01B60190E00E94720721102A
:100CB0002A9421E0821A91088114910471F7E8C006
:100CC000843611F0893641F5F80137FE07C060819E
:100CD0007181828193810C5F1F4F08C06081718197
:100CE000072E000C880B990B0E5F1F4FF32DFF761C
:100CF0003F2E97FF09C090958095709561957F4F25
:100D00008F4F9F4FF0683F2E2AE030E0A3010E94F2
:100D1000AE07882E861845C0853731F4232D2F7EE7
:100D2000B22E2AE030E025C0932D997FB92E8F3660
:100D3000C1F018F4883579F0B5C0803719F08837DC
:100D400021F0B0C0E92FE061BE2EB4FE0DC0FB2D36
:100D5000F460BF2E09C034FE0AC0292F2660B22ECF
:100D600006C028E030E005C020E130E002C020E10C
:100D700032E0F801B7FE07C0608171818281938102
:100D80000C5F1F4F06C06081718180E090E00E5FB4
:100D90001F4FA3010E94AE07882E8618FB2DFF77F8
:100DA0003F2E36FE0DC0232D2E7FA22E891458F41F
:100DB00034FE0BC032FC09C0832D8E7EA82E05C0E8
:100DC000B82CA32C03C0B82C01C0B92CA4FE0FC0B2
:100DD000FE01E80DF11D8081803321F49A2D997E6A
:100DE000A92E09C0A2FE06C0B394B39404C08A2DF4
:100DF000867809F0B394A3FC11C0A0FE06C0B2141B
:100E000088F4280C922C9B180EC0B21460F4B60122
:100E100080E290E00E947207B394F7CFB21418F406
:100E20002B1802C0982C212CA4FE10C0B60180E320
:100E300090E00E947207A2FE17C0A1FC03C088E7E1
:100E400090E002C088E590E0B6010CC08A2D86785B
:100E500059F0A1FE02C08BE201C080E2A7FC8DE246
:100E6000B60190E00E947207891438F4B60180E35D
:100E700090E00E9472079A94F7CF8A94F301E80DEC
:100E8000F11D8081B60190E00E9472078110F5CFBC
:100E9000222009F442CEB60180E290E00E9472075F
:100EA0002A94F6CFF6018681978102C08FEF9FEFDB
:100EB0002B96E2E10C942808FC01059061507040EB
:100EC0000110D8F7809590958E0F9F1F0895FC0113
:100ED0006150704001900110D8F7809590958E0F69
:100EE0009F1F08950F931F93CF93DF93FB012381DF
:100EF00021FD03C08FEF9FEF2CC022FF16C046815B
:100F00005781248135814217530744F4A081B18170
:100F10009D012F5F3F4F318320838C932681378142
:100F20002F5F3F4F3783268314C08B01EC01FB01F9
:100F30000084F185E02D0995892BE1F6D8011696FC
:100F40008D919C911797019617969C938E93169767
:100F5000CE01DF91CF911F910F910895FA01AA2739
:100F6000283051F1203181F1E8946F936E7F6E5FEC
:100F70007F4F8F4F9F4FAF4FB1E03ED0B4E03CD09A
:100F8000670F781F891F9A1FA11D680F791F8A1F7D
:100F9000911DA11D6A0F711D811D911DA11D20D0E4
:100FA00009F468943F912AE0269F11243019305D9E
:100FB0003193DEF6CF010895462F4770405D41938F
:100FC000B3E00FD0C9F7F6CF462F4F70405D4A33DC
:100FD00018F0495D31FD4052419302D0A9F7EACFA4
:100FE000B4E0A6959795879577956795BA95C9F7D3
:100FF00000976105710508959B01AC010A2E0694C6
:101000005795479537952795BA95C9F7620F731F7E
:10101000841F951FA01D08952F923F924F925F92BB
:101020006F927F928F929F92AF92BF92CF92DF92F8
:10103000EF92FF920F931F93CF93DF93CDB7DEB75D
:10104000CA1BDB0B0FB6F894DEBF0FBECDBF0994F1
:101050002A88398848885F846E847D848C849B8448
:10106000AA84B984C884DF80EE80FD800C811B8156
:10107000AA81B981CE0FD11D0FB6F894DEBF0FBE85
:0A108000CDBFED010895F894FFCFF5
:10108A0000000001000000000000B503000000009D
:10109A00000200000000A70300000000B80B0000D7
:1010AA0042746E206F766572666C6F776564004570
:1010BA0072726F72496E69744843535230340048F1
:1010CA00435352303420446973745B6D6D5D20253F
:1010DA006C750A0048435352303420706572646953
:1010EA006F204543484F004C4942204445425547EA
:1010FA00202D2048435352303420544D444F5554E8
:10110A0020436C6561726564004C49422044454243
:10111A005547202D2048435352303420466C61678E
:10112A0073205265736574004C4942204445425508
:10113A0047202D2048435352303420496E69636951
:10114A0061646F004C4942204445425547202D2096
:10115A004843535230342053746172743A205452C3
:10116A0049474745525F414C4C4F5745442074729A
:10117A007565004C4942204445425547202D204878
:10118A004353523034205374617274206661696C1F
:10119A0065643A20545249474745525F414C4C4F87
:1011AA005745442066616C7365004C4942204445AA
:1011BA00425547202D2048435352303420537461FE
:1011CA007274206661696C65643A2077726F6E6723
:1011DA00207374617465004C494220444542554766
:1011EA00202D20545249474745525F46494E49539C
:1011FA0048206C6962004C494220444542554720C8
:10120A002D204543484F20524953494E4720626199
:10121A006A6F004C4942204445425547202D2043DD
:10122A00414C43554C414E444F004C4942204445A1
:10123A00425547202D2043616C63756C61646F2CA5
:10124A0020706173616E646F2061206573746164DC
:08125A006F206C6973746F00D2
:00000001FF
