:100000000C9434000C9451000C9451000C94510049
:100010000C9451000C9451000C9451000C940D035D
:100020000C9451000C9451000C9456000C94C70091
:100030000C947A010C94B6000C9451000C9451006D
:100040000C9451000C9451000C9451000C945100EC
:100050000C9451000C9451000C9451000C945100DC
:100060000C9451000C94510011241FBECFEFD8E026
:10007000DEBFCDBF15E0A0E0B1E0EEE5FCE102C0DF
:1000800005900D92A23CB107D9F726E0A2ECB5E0AD
:1000900001C01D92AD35B207E1F70E94DA030C945E
:1000A0002D0E0C9400000E94350B08951F920F92A4
:1000B0000FB60F9211242F933F938F939F93AF937B
:1000C000BF93EF93FF9380914A06823019F08330FB
:1000D00019F13FC08091490684FF3BC02091860002
:1000E000309187008091C80590E0A0E0B0E0DC018D
:1000F00099278827820F931FA11DB11D80933D066C
:1001000090933E06A0933F06B0934006E9E4F6E0E4
:1001100080818F7E80831DC0209186003091870072
:100120008091C80590E0A0E0B0E0DC019927882725
:10013000820F931FA11DB11D80934106909342062B
:10014000A0934306B0934406E9E4F6E0808180641E
:100150008083FF91EF91BF91AF919F918F913F91DC
:100160002F910F900FBE0F901F9018951F920F9216
:100170000FB60F9211248F938091C8058F5F8093E3
:10018000C8058F910F900FBE0F901F9018951F926A
:100190000F920FB60F921124EF92FF920F931F93BD
:1001A0002F933F934F935F936F937F938F939F937F
:1001B000AF93BF93CF93EF93FF93E8E8F0E0808194
:1001C0009181805C93469183808380911806826040
:1001D00080931806C0E075C0EC2EF12CF701EE0FED
:1001E000FF1FEC5CF94F00811181D80111968C91B1
:1001F000119780FF65C011968C91119781FF33C0D4
:1002000011968C91119782FD2EC080EA9FE0139683
:100210009C938E9312978F010190F081E02D808145
:100220001F928F9382E291E09F938F930E941F0B06
:10023000D801ED91FC911197818184608183ED91CA
:10024000FC9180811F928F9388E391E09F938F931D
:100250000E941F0BEDB7FEB738960FB6F894FEBF9D
:100260000FBEEDBF08C0D80114968C910E940B08F8
:10027000F80193838283C11123C0F701EE0FFF1FA2
:10028000EC5CF94FA081B1812C9181E090E002C03B
:10029000880F991F2A95E2F795B1892B85B920918E
:1002A0008400309185000190F081E02D828193815E
:1002B000820F931F90938B0080938A001092C30546
:1002C000CF5FC33008F488CFFF91EF91CF91BF91FA
:1002D000AF919F918F917F916F915F914F913F91DE
:1002E0002F911F910F91FF90EF900F900FBE0F90E5
:1002F0001F9018951F920F920FB60F9211242F93F3
:100300003F934F935F936F937F938F939F93AF939D
:10031000BF93CF93DF93EF93FF93E091C305F0E09A
:10032000EE0FFF1FEC5CF94F0190F081E02D208172
:1003300081E090E002C0880F991F2A95E2F780952E
:10034000909595B1892385B9E091C305F0E0EE0F52
:10035000FF1FEC5CF94F0190F081E02D818181FF5E
:100360005FC0E091C305F0E0EE0FFF1FEC5CF94FBA
:100370000190F081E02D818182FF52C0E091C305A0
:10038000F0E0EE0FFF1FEC5CF94F0190F081E02DE3
:1003900081818B7F8183E091C305F0E0EE0FFF1F29
:1003A000EC5CF94F0190F081E02D81818D7F81839C
:1003B000E091C305F0E0EE0FFF1FEC5CF94F0190F8
:1003C000F081E02D80811F928F9380E691E09F93D2
:1003D0008F930E941F0BE091C305F0E0EE0FFF1F0B
:1003E000EC5CF94F0190F081E02D8AE58483E09187
:1003F000C305F0E0EE0FFF1FEC5CF94FC081D18127
:10040000E091C305F0E0EE0FFF1FEC5CF94F808137
:100410000E940B089B838A830F900F900F900F9080
:100420008091C3058F5F8093C3058091C30583309E
:1004300008F091C0E091C305F0E0EE0FFF1FEC5C07
:10044000F94F0190F081E02D818180FF2CC0E09177
:10045000C305F0E0EE0FFF1FEC5CF94F0190F08157
:10046000E02D208181E090E002C0880F991F2A953D
:10047000E2F795B1892B85B92091840030918500F0
:10048000E091C305F0E0EE0FFF1FEC5CF94F019027
:10049000F081E02D82819381820F931F90938B00D6
:1004A00080938A0058C0E091C305F0E0EE0FFF1F73
:1004B000EC5CF94F0190F081E02D208181E090E02B
:1004C00002C0880F991F2A95E2F78095909595B103
:1004D000892385B98091C3058F5F8093C30580917F
:1004E000C3058330C0F5E091C305F0E0EE0FFF1FB8
:1004F000EC5CF94F0190F081E02D818180FF2BC0F1
:10050000E091C305F0E0EE0FFF1FEC5CF94F0190A6
:10051000F081E02D208181E090E002C0880F991FDA
:100520002A95E2F795B1892B85B920918400309105
:100530008500E091C305F0E0EE0FFF1FEC5CF94F82
:100540000190F081E02D82819381820F931F90931F
:100550008B0080938A00FF91EF91DF91CF91BF9143
:10056000AF919F918F917F916F915F914F913F914B
:100570002F910F900FBE0F901F901895A4E8B0E038
:1005800011961C921E9286B3806286BBEFE6F0E065
:10059000808187628083E1E8F0E0808180648083ED
:1005A0008081826080838D919C91805C9346909342
:1005B0008900809388000895E1EBF0E080818760F6
:1005C00080838BE98093B300E0E7F0E08081826074
:1005D00080831092B200089584B1806284B985B19D
:1005E000806285B98AB188608AB984B18E7F84B906
:1005F0008AB18F7E8AB984B1826084B984B1846003
:1006000084B984B1886084B90E9442088BB1877F25
:100610008BB98BB18F7E8BB908951F920F920FB655
:100620000F9211242F933F934F935F936F937F9378
:100630008F939F93AF93BF93EF93FF938091F005B8
:1006400081FFA7C080914A06813051F5809119063B
:1006500085FD0DC00E945F09E9E4F6E080818160BC
:1006600080838091190680628093190619C00E94C8
:100670006309E9E4F6E08081826080838091190655
:100680008D7D88608093190680818F7D808382E0D4
:1006900080934A0680818061808380818D7F808302
:1006A00080914A068230D1F48091490684FF16C0B9
:1006B000809119068970883089F48091C405811170
:1006C00006C08091C4058F5F8093C40507C08091E8
:1006D00019068160809319061092C405809149061D
:1006E00085FD22C08091190684FD1EC08091C7053A
:1006F000873030F48091C7058F5F8093C70507C0AE
:10070000809119068061809319061092C705809127
:10071000490683FF09C06091190666FB662760F9E8
:100720008DE396E00E94340A8091C5058A3030F44A
:100730008091C5058F5F8093C50507C08091F00546
:1007400088608093F0051092C5058091F00586FFC2
:100750000EC08091C6058F3F29F48091F00584601A
:100760008093F0058091C6058F5F8093C6058091C8
:10077000200680FF05C083FD03C0886080932006AB
:100780008091C90580FF05C083FD03C08860809308
:10079000C905FF91EF91BF91AF919F918F917F918B
:1007A0006F915F914F913F912F910F900FBE0F90DE
:1007B0001F90189582E88093F00580E880931906D1
:1007C0001092180688E090E00E947309E7E5F6E0D1
:1007D0008EE091E09383828380E091E09183808337
:1007E0001092C5050E94EC020E94BE020E94DC022B
:1007F0000E94680863E570E08DE396E00E94150AA8
:100800006091190666FB662760F98DE396E00E9409
:100810009E0941EE55E06DE376E08FE296E00E949E
:10082000200580E096E00E9487058091190682608D
:100830008093190684EA94E00E94350B78948091A5
:10084000180680FF05C080E096E00E94690769C035
:100850008091C205811123C087E791E00E94350B8A
:100860008091200680FF03C08460809320068091E1
:10087000C90580FF03C084608093C9058091F1059C
:1008800080FF03C084608093F1058091E10580FFC3
:1008900003C084608093E10581E08093C20580916C
:1008A000200682FF04C080E296E00E94A1088091A9
:1008B000C90582FF04C089EC95E00E94A1088091DF
:1008C000C90582FF04C089EC95E00E94A1088091CF
:1008D000C90582FF04C089EC95E00E94A1088091BF
:1008E000200682FD06C08091C90582FF04C080E019
:1008F00003C080E001C081E0882399F081E991E0A4
:100900000E94350B80911806816080931806109222
:1009100029061092D2051092FA051092EA050E945B
:100920003A0560E076E08FE296E00E9437060E948A
:100930000A084C9B0AC08091F00586FD06C0109203
:10094000C60580648093F00528C08091F00586FF7D
:1009500024C04C9922C08F7B8093F00582FF04C095
:1009600083EB91E00E94350B8091C6058A3030F40C
:100970008091F005982F947082FF06C08091F00559
:1009800081608093F00509C01092C605992329F073
:100990008091F0058B7F8093F0058091190684FF8C
:1009A00008C08F7E80931906E9E4F6E080818062BA
:1009B00080838091F00583FF08C0877F8093F005D6
:1009C000809119068260809319068091F00580FF5E
:1009D00003C08E7F8093F0058091180681FF2FCF92
:1009E0008D7F809318068091200680FF07C082FFCC
:1009F00005C083FD03C08860809320068091C905EF
:100A000080FF07C082FF05C083FD03C0886080931C
:100A1000C9058091F10580FF07C082FF05C083FDF5
:100A200003C088608093F1058091E10580FF07CFC6
:100A300082FF05CF83FD03CF88608093E105FFCE61
:100A4000CF93DF9300D0CDB7DEB7FC015A83498343
:100A50008DE396E091838083CE0101969383828318
:100A6000148282EC91E00E94350B0F900F90DF9181
:100A7000CF910895CF93DF932AE530E041E050E035
:100A800060E070E088ED95E00E941E082AE530E005
:100A900042E050E061E070E08EE496E00E941E08C3
:100AA000E4E3F6E088ED95E0918380838EE496E0C0
:100AB000938382838AE196E0958384831092C305B1
:100AC00083EE91E00E94350BCEEDD5E081E0898385
:100AD000809128068883A4E5B6E082E011968C9385
:100AE00011978091D1058C93EAE3F6E083E081834E
:100AF0008091F905808388E08A8312968C938283A3
:100B00008FEE91E00E94350BDF91CF910895FC01AB
:100B10008CE191E0918380838EED95E093838283D5
:100B200084E596E0958384838AE396E097838683C1
:100B300080911906882344F48CEF91E00E94350BD4
:100B40008EE292E00E94350B08958E3B98F09091D2
:100B5000190699230CF083C01F928F9383E592E0CE
:100B60009F938F930E941F0B0F900F900F900F90E9
:100B700084E008959EEB981B973398F480911906B2
:100B8000807809F473C01F929F9383E892E09F934B
:100B90008F930E941F0B0F900F900F900F9080E08B
:100BA0000895DB01ED91FC9180819817B0F081816F
:100BB000891798F08091190688230CF052C01F9273
:100BC0009F938CEA92E09F938F930E941F0B0F904C
:100BD0000F900F900F9081E0089582819817A8F0F0
:100BE0008381891790F0809119068823E4F51F927C
:100BF0009F9381EC92E09F938F930E941F0B0F9025
:100C00000F900F900F9082E0089584819817A8F0BC
:100C10008581891790F080911906882334F51F92F9
:100C20009F9386ED92E09F938F930E941F0B0F90EE
:100C30000F900F900F9083E00895809119068078AF
:100C4000A9F01F929F938BEE92E09F938F930E9447
:100C50001F0B0F900F900F900F9080E0089584E08D
:100C6000089581E0089582E0089583E00895FF9259
:100C70000F931F93CF93DF93EC018B018091F005CD
:100C80008823A4F5E881F981848585FF2FC08091B0
:100C9000190681FF2BC0CF010E94510A8823C1F0A1
:100CA0008091190686FF04C089E193E00E94350B0C
:100CB0008091F0058F778093F005809119068D7FE4
:100CC00080931906E881F98184858F7D84870EC021
:100CD0008091190686FF04C084E193E00E94350BE1
:100CE0008091190684608D7F80931906888199818F
:100CF0000E947F0AE881F9818585853009F0B2C0BC
:100D0000848588230CF0AEC084858F778487E88142
:100D1000F98180859185A285B3858F3B9105A105D9
:100D2000B105B0F08C8181608C83982F92959F7073
:100D3000923051F48F708C8380911906882324F4AB
:100D400084E293E00E94350B8C818F708C837EC08F
:100D50008C81982F92959F7009F078C08F70806178
:100D60008C8380859185A285B385B8010E94A505F5
:100D7000F82E84E0F81609F465C0E881F9818085D1
:100D80009185A285B385E1E0FE1649F0FE16B0F02C
:100D9000F2E0FF1649F083E0F81659F014C08DE335
:100DA00093E00E94350B13C088E493E00E94350B5A
:100DB0000EC083E593E00E94350B09C08EE593E0F9
:100DC0000E94350B04C08CE693E00E94350BF110B5
:100DD0000DC0F80180899189A289B3890196A11D6E
:100DE000B11D808B918BA28BB38B0CC0F8018485D5
:100DF0009585A685B7850196A11DB11D8487958728
:100E0000A687B787F80180859185A285B38501966D
:100E1000A11DB11D80879187A287B387EF2DF0E0D8
:100E20003596EE0FFF1FEE0FFF1FE00FF11F8081C1
:100E30009181A281B3810196A11DB11D808391830F
:100E4000A283B3838C818F7080628C838881998127
:100E50000E94F009E881F98115868091F00580688B
:100E60008093F0058091190680FF2DC086FF04C095
:100E70008FE793E00E94350B809119068E7F877F64
:100E800080931906E881F981848588608487E881E8
:100E9000F98186E085876091190666FB662760F90F
:100EA000888199810E94340A882341F08091190633
:100EB00086FF04C082E993E00E94350B8091F00523
:100EC00080688093F005DF91CF911F910F91FF9083
:100ED00008958091200680FF09C083FF07C0877FA7
:100EE0008093200680E296E00E94E00880E296E08F
:100EF0000E941109892B01F18091200682958F7043
:100F00008230D1F48091E00583FF0DC0877F80930C
:100F1000E005E8EDF5E0818182608183158284EB54
:100F200093E00E94350BE0E2F6E080818F708083D1
:100F300089ED93E00E94350B8091C90580FF09C0BF
:100F400083FF07C0877F8093C90589EC95E00E94E5
:100F5000E00889EC95E00E941109892B71F08091DD
:100F6000C905982F92959F70923039F48F708093B5
:100F7000C90589EE93E00E94350B8091F10580FF51
:100F800009C083FF07C0877F8093F10581EF95E05B
:100F90000E94E00881EF95E00E941109892B99F0E9
:100FA0008091F105982F92959F70923061F4E4E55D
:100FB000F6E09281926092838F708093F10589EFC1
:100FC00093E00E94350B8091E10580FF09C083FF0B
:100FD00007C0877F8093E10581EE95E00E94E008DD
:100FE00081EE95E00E941109892B99F08091E1052D
:100FF000982F92959F70923061F4E4E5F6E092812B
:10100000926092838F708093E10589E094E00E9462
:10101000350B08950895853B08F084EB282F30E0C8
:10102000A0EDB7E00E94050B24EB30E040E050E07B
:101030000E94E30AC9018053984F08950F931F93AC
:10104000CF93DF93EC01042F122F1F926F9389E14E
:1010500094E09F938F930E941F0B1982812F0E940F
:101060000B089B838A8308831C831D82898181608E
:1010700089830F900F900F900F90DF91CF911F9168
:101080000F91089587B1807F87B988B1807F88B933
:1010900080E480937C0086E880937A000895843011
:1010A000A0F4ECE7F0E09081907F892B8083EAE761
:1010B000F0E080818064808380917A0086FDFCCF9F
:1010C0008091780090917900089580E090E00895F3
:1010D000CF93DF93E0E2F6E017821086128211824E
:1010E00016821582C4E1C687D1E0D08388E294E0FD
:1010F0000E94350BE9ECF5E0D783D087128211828C
:1011000016821582C687D08387E394E00E94350B50
:10111000E1EFF5E0108282E08783808712821182FE
:1011200016821582C687E1EEF5E0108283E08783A0
:1011300080871282118216821582C687DF91CF9135
:101140000895CF93DF93EC01888183FF36C0877FBA
:1011500088838985811102C01E821D828F810E9431
:101160004F082D813E81280F391F3E832D8399859D
:101170009F5F99879A3008F1ADECBCEC0E94050B9B
:101180009695879596958795969587959C838B835D
:10119000198628812B7F28832F819F938F931F92FD
:1011A0002F9386E494E09F938F930E941F0B0F90E0
:1011B0000F900F900F900F900F90DF91CF910895A7
:1011C0000F931F93CF93DF93EC018F810E944F0801
:1011D0009E838D834A855B856C857D858A019B0115
:1011E000080F191F211D311DC901B8010A871B876E
:1011F0002C873D8729852F5F29872A3068F02AE0D0
:1012000030E040E050E00E94E30A3A8329831A86E6
:101210001B861C861D861986DF91CF911F910F9129
:101220000895CF92DF92EF92FF92CF93DF93EC017C
:10123000AB81BC818E850F2EF4E6CF2ED12CE12C14
:10124000F12CF02DA7019601281B31094109510904
:101250000E94140BA70196010E94E30A89819A81DA
:101260006C01E12CF12C81E0C216D306E406F506F0
:1012700008F080E0C216D306E406F50650F4988123
:10128000E92FE295EF7029F49A609F70906198833E
:101290000FC0C216D306E406F50650F09881292F38
:1012A00022952F70213021F498609D709062988370
:1012B000DF91CF91FF90EF90DF90CF9008958BB1A9
:1012C00088608BB908958BB1877F8BB90895E1E869
:1012D000F0E08081806480830895E1E8F0E080811F
:1012E0008F7B808308959093C5008093C40088E12C
:1012F0008093C10086E08093C20008959091C00061
:1013000095FFFCCF8093C60008958091C00088238C
:10131000E4F78091C6000895CF93C82F8A3019F45E
:101320008DE00E947E098C2F0E947E0980E090E073
:10133000CF9108950E94850990E00895FC01668789
:1013400008950F931F93CF93DF93EC018C819D81C0
:10135000AE81BF81488159816A817B818C019D0169
:10136000041B150B260B370BB901A801D901C801C5
:10137000880F991FAA1FBB1F880F991FAA1FBB1F89
:10138000880F991FAA1FBB1F880F991FAA1FBB1F79
:101390008C019D01040F151F261F371FC901B801BD
:1013A000660F771F881F991F20E931E040E050E069
:1013B0000E94E30A288739874A875B878C85806883
:1013C0008C87DF91CF911F910F910895DC011F96BB
:1013D000ED91FC915097309711F0CB01099508954C
:1013E000CF93DF93EC01188219821A821B821C8230
:1013F0001D821E821F82188619861A861B861C86ED
:101400008C8580628C871D860E9467098F859889EC
:10141000892B41F08E85882329F062E774E0CE01A4
:101420000E94E609DF91CF9108950F931F93CF9308
:10143000DF93EC018B010E94F00981E08E8701159A
:10144000110519F4188A1F860AC0188B0F878E851C
:10145000882329F061E974E0CE010E94E609DF915A
:10146000CF911F910F9108951F93CF93DF93FC01AC
:101470002585263071F4162FEC010E94F0091E8795
:101480001E85112341F062E973E0CE010E94E60956
:1014900003C010E001C011E0812FDF91CF911F91B7
:1014A0000895CF93FC018585882319F085858530C3
:1014B000C1F4848585FF0BC081E08587C685CC2378
:1014C000D1F06DEA74E0CF010E94E60915C0C6852F
:1014D000CC2391F06CED74E0CF010E94E609C0E0EE
:1014E0000BC0C685CC2341F063E175E0CF010E94BB
:1014F000E609C0E001C0C1E08C2FCF910895CF93E1
:10150000DF93EC018D85833071F128F4813049F04F
:101510008230A1F055C08430E1F1863009F44DC02D
:101520004FC08C8581FF4CC08E85882309F448C04C
:1015300060E475E0CE010E94E60942C08C8584FD1E
:101540000CC083E08D870E946D098E85882329F069
:101550006FE575E0CE010E94E6098C8583FF30C0FF
:1015600086E08D872DC08C8586FF0DC084E08D8739
:101570008E85882329F06CE775E0CE010E94E6098C
:101580008C8584608C878C8583FF1AC086E08D876C
:1015900017C08C8582FF14C0CE010E94A1098C85E2
:1015A0008B7F8C878E85882329F063E975E0CE01D7
:1015B0000E94E60985E08D8703C08C8588608C8752
:1015C000DF91CF910895A1E21A2EAA1BBB1BFD014A
:1015D0000DC0AA1FBB1FEE1FFF1FA217B307E40712
:1015E000F50720F0A21BB30BE40BF50B661F771F6A
:1015F000881F991F1A9469F760957095809590954A
:101600009B01AC01BD01CF010895A29FB001B39F22
:10161000C001A39F700D811D1124911DB29F700DFB
:10162000811D1124911D08950E94050BA59F900D09
:10163000B49F900DA49F800D911D11240895A0E0EA
:10164000B0E0E5E2FBE00C94060EAE014B5F5F4FAD
:10165000FA0161917191AF018091590690915A06FA
:101660000E94650BE2E00C94220E0F931F93CF9320
:10167000DF93E0915906F0915A06238121FF1BC0A8
:101680008C01D0E0C0E0F80181918F016091590692
:1016900070915A06DB011896ED91FC9119978823F9
:1016A00031F00995892B79F3DFEFCFEFECCF8AE0AA
:1016B0000995892B19F08FEF9FEF02C08D2F9C2F7A
:1016C000DF91CF911F910F910895ABE0B0E0EBE671
:1016D000FBE00C94F60D6C017B018A01FC01178282
:1016E0001682838181FFCCC1CE0101963C01F601B7
:1016F0009381F70193FD859193FF81917F01882369
:1017000009F4BAC1853239F493FD859193FF819133
:101710007F01853229F4B60190E00E945C0DE7CF8D
:10172000912C212C312CFFE1F315D8F08B3279F07C
:1017300038F4803279F08332A1F4232D20611DC06A
:101740008D3261F0803369F4232D216016C0832D22
:101750008260382EE32DE4603E2E2AC0F32DF8601F
:101760001DC037FC2DC020ED280F2A3040F08E32EE
:10177000B9F436FC81C1232D2064322E19C036FE07
:1017800006C08AE0989E200D1124922E11C0EAE036
:101790002E9E200D1124222EF32DF0623F2E08C024
:1017A0008C3621F4832D8068382E02C0883641F4AF
:1017B000F70193FD859193FF81917F018111B3CF53
:1017C000982F9F7D9554933028F40C5F1F4F9FE313
:1017D00099830DC0833631F0833771F0833509F07A
:1017E00059C021C0F801808189830E5F1F4F882472
:1017F0008394912C530113C02801F2E04F0E511C29
:10180000F801A080B18036FE03C0692D70E002C0EF
:101810006FEF7FEFC5010E94510D4C018201F32D46
:10182000FF773F2E16C0280122E0420E511CF8011E
:10183000A080B18036FE03C0692D70E002C06FEF5A
:101840007FEFC5010E94460D4C01F32DF0683F2E3D
:10185000820133FC1BC0822D90E088169906B0F4FB
:10186000B60180E290E00E945C0D2A94F4CFF5016D
:1018700037FC859137FE81915F01B60190E00E94AF
:101880005C0D21102A9421E0821A910881149104A0
:1018900071F7E8C0843611F0893641F5F80137FE5A
:1018A00007C060817181828193810C5F1F4F08C0E6
:1018B00060817181072E000C880B990B0E5F1F4F02
:1018C000F32DFF763F2E97FF09C090958095709578
:1018D00061957F4F8F4F9F4FF0683F2E2AE030E099
:1018E000A3010E94980D882E861845C0853731F4D3
:1018F000232D2F7EB22E2AE030E025C0932D997F34
:10190000B92E8F36C1F018F4883579F0B5C080371C
:1019100019F0883721F0B0C0E92FE061BE2EB4FE87
:101920000DC0FB2DF460BF2E09C034FE0AC0292F64
:101930002660B22E06C028E030E005C020E130E08D
:1019400002C020E132E0F801B7FE07C0608171817A
:10195000828193810C5F1F4F06C06081718180E09E
:1019600090E00E5F1F4FA3010E94980D882E8618ED
:10197000FB2DFF773F2E36FE0DC0232D2E7FA22E8E
:10198000891458F434FE0BC032FC09C0832D8E7EBE
:10199000A82E05C0B82CA32C03C0B82C01C0B92CAC
:1019A000A4FE0FC0FE01E80DF11D8081803321F4FB
:1019B0009A2D997EA92E09C0A2FE06C0B394B394B5
:1019C00004C08A2D867809F0B394A3FC11C0A0FE50
:1019D00006C0B21488F4280C922C9B180EC0B214C6
:1019E00060F4B60180E290E00E945C0DB394F7CF02
:1019F000B21418F42B1802C0982C212CA4FE10C08D
:101A0000B60180E390E00E945C0DA2FE17C0A1FC2D
:101A100003C088E790E002C088E590E0B6010CC002
:101A20008A2D867859F0A1FE02C08BE201C080E2C7
:101A3000A7FC8DE2B60190E00E945C0D891438F499
:101A4000B60180E390E00E945C0D9A94F7CF8A94EF
:101A5000F301E80DF11D8081B60190E00E945C0D5C
:101A60008110F5CF222009F442CEB60180E290E049
:101A70000E945C0D2A94F6CFF6018681978102C000
:101A80008FEF9FEF2B96E2E10C94120EFC01059074
:101A9000615070400110D8F7809590958E0F9F1F70
:101AA0000895FC016150704001900110D8F78095B5
:101AB00090958E0F9F1F08950F931F93CF93DF93E1
:101AC000FB01238121FD03C08FEF9FEF2CC022FF7C
:101AD00016C046815781248135814217530744F44B
:101AE000A081B1819D012F5F3F4F318320838C9373
:101AF000268137812F5F3F4F3783268314C08B01A8
:101B0000EC01FB010084F185E02D0995892BE1F6BC
:101B1000D80116968D919C911797019617969C93D4
:101B20008E931697CE01DF91CF911F910F9108955B
:101B3000FA01AA27283051F1203181F1E8946F93FE
:101B40006E7F6E5F7F4F8F4F9F4FAF4FB1E03ED0A4
:101B5000B4E03CD0670F781F891F9A1FA11D680F42
:101B6000791F8A1F911DA11D6A0F711D811D911D75
:101B7000A11D20D009F468943F912AE0269F1124EA
:101B80003019305D3193DEF6CF010895462F47704E
:101B9000405D4193B3E00FD0C9F7F6CF462F4F70A9
:101BA000405D4A3318F0495D31FD4052419302D007
:101BB000A9F7EACFB4E0A6959795879577956795AD
:101BC000BA95C9F700976105710508959B01AC01AD
:101BD0000A2E06945795479537952795BA95C9F7D4
:101BE000620F731F841F951FA01D08952F923F92AF
:101BF0004F925F926F927F928F929F92AF92BF921D
:101C0000CF92DF92EF92FF920F931F93CF93DF93C8
:101C1000CDB7DEB7CA1BDB0B0FB6F894DEBF0FBE25
:101C2000CDBF09942A88398848885F846E847D8472
:101C30008C849B84AA84B984C884DF80EE80FD8074
:101C40000C811B81AA81B981CE0FD11D0FB6F894EA
:0E1C5000DEBF0FBECDBFED010895F894FFCFAB
:101C5E00000000010000000000009A0900000000D2
:101C6E000002000000008C090000000037414B55B7
:101C7E005F6949535220434F4D50412050555348B0
:101C8E002025642E2E2E0A00434F4D50413A2053EC
:101C9E00657474696E6720524553455420666C61B5
:101CAE006720666F7220736572766F2025640A0056
:101CBE0049535220434F4D504220524553455420D4
:101CCE0025642E2E2E0A0043616C696272616E6469
:101CDE006F2073656E736F7265732049522E2E2EB0
:101CEE0000546F646F73206C6F732073656E736F27
:101CFE007265732049522063616C69627261646F10
:101D0E00732E0042746E206F766572666C6F776507
:101D1E006400496E6974206863737230344465746C
:101D2E006563746F722C2073656E736F72206964B5
:101D3E006C6500496E697420736572766F73004925
:101D4E006E6974206F7574707574730053595320D7
:101D5E00534F52544552204445425547202D204D55
:101D6E00617472697A2064652064696D656E736949
:101D7E006F6E657320696E696369616461005359A2
:101D8E005320534F52544552204445425547202D1F
:101D9E002053616C69646173206167726567616469
:101DAE006173004E6F206861792063616A612070F3
:101DBE00726573656E746520287061726564206447
:101DCE0065746563746164612061202575206D6D95
:101DDE00290A0043616A612064656D6173696164FB
:101DEE006F2062616A6120282575206D6D292C2077
:101DFE00646573636172746164610A0043616A6150
:101E0E00207469706F204120282575206D6D290A78
:101E1E000043616A61207469706F20422028257525
:101E2E00206D6D290A0043616A61207469706F200C
:101E3E004320282575206D6D290A0043616A6120B3
:101E4E0066756572612064652072616E676F202809
:101E5E002575206D6D292C20646573636172746124
:101E6E0064610A004572726F72496E697448435319
:101E7E005230340053656E736F72206C69626572F6
:101E8E0061646F206465206E7565766F00424F58F1
:101E9E005F53495A455F4100424F585F53495A4577
:101EAE005F4200424F585F53495A455F4300424FCD
:101EBE00585F444953434152444544005469706F3E
:101ECE00206E6F207265636F6E6F6369646F00487A
:101EDE0043535230342070657264696F2045434815
:101EEE004F004C4942204445425547202D2048433F
:101EFE005352303420544D444F555420436C656139
:101F0E007265640050757368656420736572766FD0
:101F1E00204120616E64207A65726F65642073744F
:101F2E006174652074696D65004465746563746FD2
:101F3E0020656E2049522041004465746563746FBC
:101F4E0020656E2049522042004465746563746FAB
:101F5E0020656E2049522043004465746563746F9A
:101F6E0020656E204952205500496E6974205365D4
:101F7E0072766F2025750A00544352542041204535
:101F8E004E41424C45440054435254204220454E4B
:101F9E0041424C45440053656E736F722063616E0F
:101FAE00616C2025752063616C69627261646F20BB
:101FBE00636F6E207468726573686F6C642025752C
:101FCE000A004C4942204445425547202D204843A3
:101FDE005352303420466C616773205265736574BA
:101FEE00004C4942204445425547202D204843533A
:101FFE0052303420496E69636961646F004C494206
:10200E00204445425547202D20484353523034201A
:10201E0053746172743A20545249474745525F4196
:10202E004C4C4F5745442074727565004C49422004
:10203E004445425547202D204843535230342053B7
:10204E0074617274206661696C65643A20545249F9
:10205E00474745525F414C4C4F5745442066616C93
:10206E007365004C4942204445425547202D204877
:10207E004353523034205374617274206661696C1C
:10208E0065643A2077726F6E6720737461746500B1
:10209E004C4942204445425547202D205452494731
:1020AE004745525F46494E495348206C6962004C81
:1020BE004942204445425547202D204543484F2054
:1020CE00524953494E472062616A6F004C49422083
:1020DE004445425547202D2043414C43554C414EDB
:1020EE00444F004C4942204445425547202D204341
:1020FE00616C63756C61646F2C20706173616E64CA
:10210E006F20612065737461646F206C6973746FE6
:02211E000000BF
:00000001FF
