:100000000C9434000C9451000C9451000C94510049
:100010000C9451000C9451000C9451000C940D015F
:100020000C9451000C9451000C9456000C94C70091
:100030000C94FE000C94B6000C9451000C945100EA
:100040000C9451000C9451000C9451000C945100EC
:100050000C9451000C9451000C9451000C945100DC
:100060000C9451000C94510011241FBECFEFD8E026
:10007000DEBFCDBF12E0A0E0B1E0E6E0F0E102C0FB
:1000800005900D92A03EB107D9F723E0A0EEB2E0B3
:1000900001C01D92AF30B207E1F70E9408020C9434
:1000A00001080C9400000E94090508951F920F9208
:1000B0000FB60F9211242F933F938F939F93AF937B
:1000C000BF93EF93FF9380910603823019F0833042
:1000D00019F13FC08091050384FF3BC02091860049
:1000E000309187008091E50290E0A0E0B0E0DC0173
:1000F00099278827820F931FA11DB11D8093F902B4
:100100009093FA02A093FB02B093FC02E5E0F3E0C7
:1001100080818F7E80831DC0209186003091870072
:100120008091E50290E0A0E0B0E0DC01992788270B
:10013000820F931FA11DB11D8093FD029093FE02BB
:10014000A093FF02B0930003E5E0F3E080818064B8
:100150008083FF91EF91BF91AF919F918F913F91DC
:100160002F910F900FBE0F901F9018951F920F9216
:100170000FB60F9211248F938091E5028F5F8093C9
:10018000E5028F910F900FBE0F901F9018951F9250
:100190000F920FB60F9211242F933F938F939F933B
:1001A000AF93BF93EF93FF93E8E8F0E080819181F4
:1001B000805C93469183808385B1826085B920916C
:1001C00084003091850080911C0190911D01A091C7
:1001D0001E01B0911F01820F931F90938B0080939B
:1001E0008A00FF91EF91BF91AF919F918F913F91C5
:1001F0002F910F900FBE0F901F9018951F920F9286
:100200000FB60F9211248F9385B18D7F85B98F9191
:100210000F900FBE0F901F9018951F920F920FB660
:100220000F9211242F933F934F935F936F937F937C
:100230008F939F93AF93BF93EF93FF938091EB02C4
:1002400081FF8EC0809106038130E9F4809105031F
:1002500085FD19C080E291E00E9409058091E002CD
:10026000823030F48091E0028F5F8093E0020BC017
:10027000E5E0F3E080818260808385E291E00E9486
:1002800009051092E002809106038230D1F490912A
:10029000050394FF16C09091F40290FD12C0809166
:1002A000E102823030F48091E1028F5F8093E102BD
:1002B00021C08091F40281608093F4021092E102E7
:1002C00019C0882311F08530A9F48091050385FDBC
:1002D0000AC08091E402873030F48091E4028F5F9D
:1002E0008093E40207C0E5E0F3E0808180628083D0
:1002F0001092E4028091E202843130F48091E202B3
:100300008F5F8093E20202C01092E2028091EB02C2
:1003100086FF0EC08091E3028F3F29F48091EB02AB
:1003200084608093EB028091E3028F5F8093E3020D
:100330008091EB0285FF14C08091E6028E3130F48B
:100340008091E6028F5F8093E6020AC01092E60277
:100350008091EB028F7D8093EB028AE50E941A0365
:10036000FF91EF91BF91AF919F918F917F916F918D
:100370005F914F913F912F910F900FBE0F901F9063
:100380001895A4E8B0E011961C921E9286B3806284
:1003900086BBEFE6F0E0808187628083E1E8F0E0F1
:1003A0008081806480838081826080838D919C9134
:1003B000805C934690938900809388000895E1EBD8
:1003C000F0E08081876080838BE98093B300E0E771
:1003D000F0E08081826080831092B200089584B141
:1003E000806284B985B1806285B98AB188608AB932
:1003F00084B18E7F84B98AB18F7E8AB98BB18F7EAA
:100400008BB984B1826084B98BB1877F8BB9089531
:100410001092F40282E88093EB0288E090E00E9460
:100420008403E9E0F3E08EE091E09383828380E04F
:1004300091E0918380831092E2021092F502109273
:10044000F6021092F7021092F8021092E702109250
:10045000E8021092E9021092EA021092F002109261
:10046000F1021092F2021092F3021092EC0210923A
:10047000ED021092EE021092EF020E94EF010E9434
:10048000C1010E94DF0189EF92E00E94AF0363E5A2
:1004900070E089EF92E00E940A048091F402826089
:1004A0008093F4028BE292E00E9409057894809197
:1004B000EB028823E4F48091050385FF18C0809146
:1004C000F40281FF14C089EF92E00E94180488238F
:1004D00029F08EE391E00E94090509C089E391E0CB
:1004E0000E9409058091F40284608093F40289EFF0
:1004F00092E00E94340480910603813089F4809157
:100500000503817269F48091F40281FF09C089E4D6
:1005100091E00E9409058091F4028D7F8093F4029E
:10052000809105038271823121F48AE591E00E9475
:100530000905809106038530A1F489EF92E00E94BD
:1005400004049F938F937F936F938AE691E09F9328
:100550008F930E94F3040F900F900F900F900F90C5
:100560000F908091F40280FF0DC089EF92E00E940D
:100570005A038FE791E00E9409058091F4028E7F73
:100580008093F4024C9B0AC08091EB0286FD06C06A
:100590001092E30280648093EB0228C08091EB020A
:1005A00086FF24C04C9922C08F7B8093EB0282FF90
:1005B00004C082E991E00E9409058091E3028A303B
:1005C00030F48091EB02982F947082FF06C08091E6
:1005D000EB0281608093EB0209C01092E302992341
:1005E00029F08091EB028B7F8093EB028091F402E3
:1005F00083FF08C080E291E09F938F930E94F304F1
:100600000F900F908091EB0280FF04C08E7F80617D
:100610008093EB028091EB0284FF49CF8F7E809321
:10062000EB0280E00E941A038091EB0280628093CB
:10063000EB023DCF853B08F084EB282F30E0A0EDA6
:10064000B7E00E94E40424EB30E040E050E00E9478
:10065000C204DA01C9018053984FAF4FBF4F809356
:100660001C0190931D01A0931E01B0931F010895DA
:100670002BB128602BB961EA71E00E940E04089545
:100680002BB1277F2BB96EEA71E00E940E0408950A
:10069000CF93DF9300D0CDB7DEB79A8389836AEB1F
:1006A00071E0CE0101960E940E040F900F90DF9131
:1006B000CF910895CF93DF9300D0CDB7DEB79A8363
:1006C0008983FC0124852860248766ED71E0CE01D2
:1006D00001960E940E040F900F90DF91CF91089524
:1006E000E1E8F0E020812064208363EE71E00E9465
:1006F0000E040895E1E8F0E020812F7B20836DEF68
:1007000071E00E940E0408959093C5008093C40088
:1007100088E18093C10086E08093C20008959091A3
:10072000C00095FFFCCF8093C60008958091C00063
:100730008823E4F78091C6000895CF93C82F8A30AC
:1007400019F48DE00E948F038C2F0E948F0380E0AC
:1007500090E0CF9108950E94960390E00895FC01E7
:1007600010821182128213821482158216821782DD
:100770001086118612861386158680E28487178676
:10078000168608950F931F93CF93DF93EC018C810E
:100790009D81AE81BF81488159816A817B818C01B5
:1007A0009D01041B150B260B370BB901A801D901BC
:1007B000C801880F991FAA1FBB1F880F991FAA1F66
:1007C000BB1F880F991FAA1FBB1F880F991FAA1F45
:1007D000BB1F8C019D01040F151F261F371FC90168
:1007E000B801660F771F881F991F20E931E040E0AC
:1007F00050E00E94C204288739874A875B87DF91CF
:10080000CF911F910F910895FC01608571858285BC
:1008100093850895FC01778766870895DC011E960D
:10082000ED91FC911F97309711F0CB010995089538
:10083000CF93DF93FC012585222321F0253011F091
:10084000263071F4EC0181E091E29C878D870E9453
:10085000700368E172E0CE010E940E0481E001C0E5
:1008600080E0DF91CF910895CF93DF9300D0CDB793
:10087000DEB79A838983FC0195859230D9F130F4F3
:10088000992309F47AC0913051F074C0943009F47E
:100890005CC008F443C0953009F46FC06BC0848518
:1008A00080FF16C00E9438034AE050E060E070E02C
:1008B000CE0101960E944803E981FA8194859E7FCA
:1008C0009F7D948764E372E0CF010E940E0455C0BF
:1008D00081FF53C00E9440036DE472E089819A81D8
:1008E0000E940E04E981FA8182E085878485806117
:1008F000848743C0848584FD09C083E085876EE7D3
:1009000072E0CF010E940E040E947A03E981FA810D
:10091000848583FF32C086E085872FC0848586FF6B
:100920000CC084E085876BE972E0CF010E940E0461
:10093000E981FA81848584608487E981FA818485EC
:1009400083FF1BC086E0858718C0848582FF15C0A1
:10095000CF010E94C20389819A81FC0124852B7FEB
:10096000248762EB72E00E940E04E981FA8185E03F
:10097000858703C08485886084870F900F90DF91FE
:10098000CF910895A1E21A2EAA1BBB1BFD010DC039
:10099000AA1FBB1FEE1FFF1FA217B307E407F5072F
:1009A00020F0A21BB30BE40BF50B661F771F881F0B
:1009B000991F1A9469F760957095809590959B01A1
:1009C000AC01BD01CF010895A29FB001B39FC0014A
:1009D000A39F700D811D1124911DB29F700D811D6B
:1009E0001124911D0895A0E0B0E0E9EFF4E00C942B
:1009F000DA07AE014B5F5F4FFA0161917191AF0170
:100A000080910B0390910C030E943905E2E00C9455
:100A1000F6070F931F93CF93DF93E0910B03F091B1
:100A20000C03238121FF1BC08C01D0E0C0E0F80142
:100A300081918F0160910B0370910C03DB0118967B
:100A4000ED91FC911997882331F00995892B79F361
:100A5000DFEFCFEFECCF8AE00995892B19F08FEF0C
:100A60009FEF02C08D2F9C2FDF91CF911F910F918F
:100A70000895ABE0B0E0EFE3F5E00C94CA076C0139
:100A80007B018A01FC0117821682838181FFCCC120
:100A9000CE0101963C01F6019381F70193FD85910A
:100AA00093FF81917F01882309F4BAC1853239F41B
:100AB00093FD859193FF81917F01853229F4B601E1
:100AC00090E00E943007E7CF912C212C312CFFE1E0
:100AD000F315D8F08B3279F038F4803279F0833224
:100AE000A1F4232D20611DC08D3261F0803369F4A3
:100AF000232D216016C0832D8260382EE32DE46003
:100B00003E2E2AC0F32DF8601DC037FC2DC020ED0D
:100B1000280F2A3040F08E32B9F436FC81C1232DE3
:100B20002064322E19C036FE06C08AE0989E200D41
:100B30001124922E11C0EAE02E9E200D1124222EA7
:100B4000F32DF0623F2E08C08C3621F4832D80688F
:100B5000382E02C0883641F4F70193FD859193FF4A
:100B600081917F018111B3CF982F9F7D9554933050
:100B700028F40C5F1F4F9FE399830DC0833631F03B
:100B8000833771F0833509F059C021C0F8018081A5
:100B900089830E5F1F4F88248394912C530113C0C7
:100BA0002801F2E04F0E511CF801A080B18036FE02
:100BB00003C0692D70E002C06FEF7FEFC5010E9496
:100BC00025074C018201F32DFF773F2E16C0280127
:100BD00022E0420E511CF801A080B18036FE03C015
:100BE000692D70E002C06FEF7FEFC5010E941A0708
:100BF0004C01F32DF0683F2E820133FC1BC0822D87
:100C000090E088169906B0F4B60180E290E00E9468
:100C100030072A94F4CFF50137FC859137FE819196
:100C20005F01B60190E00E94300721102A9421E074
:100C3000821A91088114910471F7E8C0843611F08A
:100C4000893641F5F80137FE07C0608171818281E4
:100C500093810C5F1F4F08C060817181072E000CCB
:100C6000880B990B0E5F1F4FF32DFF763F2E97FFDA
:100C700009C090958095709561957F4F8F4F9F4FDC
:100C8000F0683F2E2AE030E0A3010E946C07882E16
:100C9000861845C0853731F4232D2F7EB22E2AE0E9
:100CA00030E025C0932D997FB92E8F36C1F018F40E
:100CB000883579F0B5C0803719F0883721F0B0C099
:100CC000E92FE061BE2EB4FE0DC0FB2DF460BF2EF7
:100CD00009C034FE0AC0292F2660B22E06C028E0C3
:100CE00030E005C020E130E002C020E132E0F80150
:100CF000B7FE07C060817181828193810C5F1F4FB5
:100D000006C06081718180E090E00E5F1F4FA301FB
:100D10000E946C07882E8618FB2DFF773F2E36FE2B
:100D20000DC0232D2E7FA22E891458F434FE0BC043
:100D300032FC09C0832D8E7EA82E05C0B82CA32CB2
:100D400003C0B82C01C0B92CA4FE0FC0FE01E80DF1
:100D5000F11D8081803321F49A2D997EA92E09C03E
:100D6000A2FE06C0B394B39404C08A2D867809F01D
:100D7000B394A3FC11C0A0FE06C0B21488F4280CE2
:100D8000922C9B180EC0B21460F4B60180E290E081
:100D90000E943007B394F7CFB21418F42B1802C096
:100DA000982C212CA4FE10C0B60180E390E00E9494
:100DB0003007A2FE17C0A1FC03C088E790E002C084
:100DC00088E590E0B6010CC08A2D867859F0A1FE26
:100DD00002C08BE201C080E2A7FC8DE2B60190E088
:100DE0000E943007891438F4B60180E390E00E9435
:100DF00030079A94F7CF8A94F301E80DF11D8081B2
:100E0000B60190E00E9430078110F5CF222009F44E
:100E100042CEB60180E290E00E9430072A94F6CFDD
:100E2000F6018681978102C08FEF9FEF2B96E2E15A
:100E30000C94E607FC010590615070400110D8F752
:100E4000809590958E0F9F1F0895FC016150704012
:100E500001900110D8F7809590958E0F9F1F0895EF
:100E60000F931F93CF93DF93FB01238121FD03C0D9
:100E70008FEF9FEF2CC022FF16C04681578124813F
:100E800035814217530744F4A081B1819D012F5F42
:100E90003F4F318320838C93268137812F5F3F4FD3
:100EA0003783268314C08B01EC01FB010084F1859C
:100EB000E02D0995892BE1F6D80116968D919C912C
:100EC0001797019617969C938E931697CE01DF91F4
:100ED000CF911F910F910895FA01AA27283051F15F
:100EE000203181F1E8946F936E7F6E5F7F4F8F4F5B
:100EF0009F4FAF4FB1E03ED0B4E03CD0670F781FBA
:100F0000891F9A1FA11D680F791F8A1F911DA11D9E
:100F10006A0F711D811D911DA11D20D009F46894D7
:100F20003F912AE0269F11243019305D3193DEF67F
:100F3000CF010895462F4770405D4193B3E00FD035
:100F4000C9F7F6CF462F4F70405D4A3318F0495D20
:100F500031FD4052419302D0A9F7EACFB4E0A69503
:100F60009795879577956795BA95C9F70097610525
:100F7000710508959B01AC010A2E0694579547957B
:100F800037952795BA95C9F7620F731F841F951F70
:100F9000A01D08952F923F924F925F926F927F9281
:100FA0008F929F92AF92BF92CF92DF92EF92FF9279
:100FB0000F931F93CF93DF93CDB7DEB7CA1BDB0B25
:100FC0000FB6F894DEBF0FBECDBF09942A883988CA
:100FD00048885F846E847D848C849B84AA84B984D1
:100FE000C884DF80EE80FD800C811B81AA81B981DD
:100FF000CE0FD11D0FB6F894DEBF0FBECDBFED01F1
:061000000895F894FFCFF3
:1010060000000001000000000000AB03000000002B
:101016000002000000009D0300000000B80B000065
:101026004171756900545249474745522046494E19
:1010360049534820616C746F004572726F72496E35
:101046006974484353523034005472696767657255
:10105600206C616E7A61646F200045737065726101
:101066006E646F204543484F200048435352303446
:1010760020446973745B6D6D5D2025756C0A0048AC
:1010860043535230342070657264696F204543487B
:101096004F0042746E206F766572666C6F7765647A
:1010A6000054726967676572204849474800547260
:1010B6006967676572204C4F570054696D656F7597
:1010C60074207472696767657220636F6E666967FC
:1010D600757261646F004563686F2074696D656F32
:1010E6007574004361707475726120666C616E631D
:1010F6006F20617363656E64656E7465004361702D
:101106007475726120666C616E636F2064657363CB
:10111600656E64656E7465004C49422044454255CF
:1011260047202D2048435352303420496E69636965
:1011360061646F004C4942204445425547202D20AA
:1011460048697A6F2074726967676572004C494214
:10115600204445425547202D205452494747455281
:101166005F46494E49534820616C746F206465742C
:1011760065637461646F20656E206C6962004C491A
:1011860042204445425547202D204543484F205292
:101196004953494E472062616A6F004C49422044D8
:1011A60045425547202D2043414C43554C414E4422
:1011B6004F004C4942204445425547202D2043616B
:1011C6006C63756C61646F2C20706173616E646F03
:1011D60020612065737461646F206C6973746F009D
:00000001FF
