S01700004763634170706C69636174696F6E312E737265635B
S11300000C9434000C9451000C9451000C94510045
S11300100C9451000C9451000C9451000C94E60281
S11300200C9451000C9451000C9456000C94C7008D
S11300300C944A010C94B6000C9451000C94510099
S11300400C9451000C9451000C9451000C945100E8
S11300500C9451000C9451000C9451000C945100D8
S11300600C9451000C94510011241FBECFEFD8E022
S1130070DEBFCDBF15E0A0E0B1E0E4E5FDE102C0E4
S113008005900D92AA3BB107D9F726E0AAEBB5E09B
S113009001C01D92A535B207E1F70E94FA030C9442
S11300A0A80E0C9400000E94B00B08951F920F92AA
S11300B00FB60F9211242F933F938F939F93AF9377
S11300C0BF93EF93FF9380914206823019F08330FF
S11300D019F13FC08091410684FF3BC02091860006
S11300E0309187008091C00590E0A0E0B0E0DC0191
S11300F099278827820F931FA11DB11D8093350670
S113010090933606A0933706B0933806E1E4F6E000
S113011080818F7E80831DC020918600309187006E
S11301208091C00590E0A0E0B0E0DC019927882729
S1130130820F931FA11DB11D8093390690933A0637
S1130140A0933B06B0933C06E1E4F6E08081806432
S11301508083FF91EF91BF91AF919F918F913F91D8
S11301602F910F900FBE0F901F9018951F920F9212
S11301700FB60F9211248F938091C0058F5F8093E7
S1130180C0058F910F900FBE0F901F9018951F926E
S11301900F920FB60F921124EF92FF920F931F93B9
S11301A02F933F934F935F936F937F938F939F937B
S11301B0AF93BF93CF93EF93FF93E8E8F0E0808190
S11301C09181805C9346918380838091E80580616E
S11301D08093E805C0E045C0EC2EF12CF701EE0F4A
S11301E0FF1FE45DF94F00811181F801818180FFD7
S11301F037C0818181FF08C0818182FD05C080EA0A
S11302009FE09383828307C0F80184810E9486085B
S1130210F80193838283C11123C0F701EE0FFF1FFE
S1130220E45DF94FA081B1812C9181E090E002C09E
S1130230880F991F2A95E2F795B1892B85B92091EA
S11302408400309185000190F081E02D82819381BA
S1130250820F931F90938B0080938A001092BB05AA
S1130260CF5FC33008F4B8CFFF91EF91CF91BF9126
S1130270AF919F918F917F916F915F914F913F913A
S11302802F911F910F91FF90EF900F900FBE0F9041
S11302901F9018951F920F920FB60F9211242F934F
S11302A03F934F935F936F937F938F939F93AF93FA
S11302B0BF93CF93DF93EF93FF93E091BB05F0E0FF
S11302C0EE0FFF1FE45DF94F0190F081E02D2081D6
S11302D081E090E002C0880F991F2A95E2F780958B
S11302E0909595B1892385B9E091BB05F0E0EE0FB7
S11302F0FF1FE45DF94F0190F081E02D818181FFC2
S113030068C0E091BB05F0E0EE0FFF1FE45DF94F1C
S11303100190F081E02D818182FF5BC0E091BB05FB
S1130320F0E0EE0FFF1FE45DF94F0190F081E02D46
S113033081818B7F8183E091BB05F0E0EE0FFF1F8D
S1130340E45DF94F0190F081E02D81818D7F8183FF
S1130350E091BB05F0E0EE0FFF1FE45DF94F019063
S1130360F081E02D8AE58483E091BB05F0E0EE0F97
S1130370FF1FE45DF94FC081D181E091BB05F0E03E
S1130380EE0FFF1FE45DF94F80810E9486089B8376
S11303908A838091BB05811107C0E6EDF5E0828177
S11303A088608E7F828315C08091BB05813039F4CB
S11303B0ECE4F6E0828188608E7F82830AC08091BB
S11303C0BB05823031F4E2E3F6E0828188608E7FFF
S11303D082838091BB058F5F8093BB058091BB05B1
S11303E0833008F091C0E091BB05F0E0EE0FFF1FF1
S11303F0E45DF94F0190F081E02D818180FF2CC0F4
S1130400E091BB05F0E0EE0FFF1FE45DF94F0190B2
S1130410F081E02D208181E090E002C0880F991FD7
S11304202A95E2F795B1892B85B920918400309102
S11304308500E091BB05F0E0EE0FFF1FE45DF94F8E
S11304400190F081E02D82819381820F931F90931C
S11304508B0080938A0058C0E091BB05F0E0EE0F5A
S1130460FF1FE45DF94F0190F081E02D208181E0D0
S113047090E002C0880F991F2A95E2F78095909525
S113048095B1892385B98091BB058F5F8093BB05A6
S11304908091BB058330C0F5E091BB05F0E0EE0F21
S11304A0FF1FE45DF94F0190F081E02D818180FF11
S11304B02BC0E091BB05F0E0EE0FFF1FE45DF94FA8
S11304C00190F081E02D208181E090E002C0880F4E
S11304D0991F2A95E2F795B1892B85B9209184005B
S11304E030918500E091BB05F0E0EE0FFF1FE45D65
S11304F0F94F0190F081E02D82819381820F931F47
S113050090938B0080938A00FF91EF91DF91CF91BC
S1130510BF91AF919F918F917F916F915F914F9117
S11305203F912F910F900FBE0F901F901895A4E844
S1130530B0E011961C921E9286B3806286BBEFE6F1
S1130540F0E0808187628083E1E8F0E0808180646C
S113055080838081826080838D919C91805C9346AE
S113056090938900809388000895E1EBF0E0808106
S1130570876080838BE98093B300E0E7F0E08081BB
S1130580826080831092B200089584B1806284B93D
S113059085B1806285B98AB188608AB984B18E7F59
S11305A084B98AB18F7E8AB984B1826084B984B1F6
S11305B0846084B984B1886084B90E94BD088BB119
S11305C0877F8BB98BB18F7E8BB908951F920F9261
S11305D00FB60F9211242F933F934F935F936F9312
S11305E07F938F939F93AF93BF93EF93FF938091E8
S11305F0E80581FFEEC080914206813051F580917B
S1130600110685FD0DC00E94DA09E1E4F6E080815F
S1130610816080838091110680628093110619C0E5
S11306200E94DE09E1E4F6E08081826080838091AB
S113063011068D7D88608093110680818F7D808373
S113064082E08093420680818061808380818D7FF7
S11306508083809142068230D1F48091410684FFE8
S113066016C0809111068970883089F48091BC0588
S1130670811106C08091BC058F5F8093BC0507C0C3
S1130680809111068160809311061092BC058091BF
S1130690410685FD22C08091110684FD1EC0809113
S11306A0BF05873030F48091BF058F5F8093BF050D
S11306B007C0809111068061809311061092BF05D6
S11306C08091410683FF09C06091110666FB66278D
S11306D060F985E396E00E94AF0A8091BD058A30F7
S11306E030F48091BD058F5F8093BD0507C0809174
S11306F0E80588608093E8051092BD058091E805BF
S113070086FF0EC08091BE058F3F29F48091E805D5
S113071084608093E8058091BE058F5F8093BE0559
S11307208091D10581FF0DC09091D5059A3020F4B8
S11307309F5F9093D50505C0E0EDF5E015828460D8
S113074081838091470681FF0DC090914B069A30BA
S113075020F49F5F90934B0605C0E6E4F6E0158213
S1130760846081838091130681FF0DC090911706E8
S11307709A3020F49F5F9093170605C0E2E1F6E0FB
S11307801582846081838091180680FF05C083FDF3
S113079003C08860809318068091C10580FF05C05E
S11307A083FD03C088608093C1058091E90580FFC3
S11307B007C083FD05C0E9EDF5E080818860808392
S11307C08091D90580FF05C083FD03C088608093B4
S11307D0D905FF91EF91BF91AF919F918F917F9137
S11307E06F915F914F913F912F910F900FBE0F909A
S11307F01F9018951092100680E88093110682E8E5
S11308008093E80588E090E00E94EE09EFE4F6E0CA
S11308108EE091E09383828380E091E091838083F2
S11308201092BD050E94C5020E9497020E94B50263
S11308300E94E30863E570E085E396E00E94900A75
S11308406091110666FB662760F985E396E00E94D5
S1130850190A49ED55E065E376E087E296E00E94E7
S11308604C0588EF95E00E94AB05809111068260EB
S1130870809311068CE994E00E94B00B78948091E7
S1130880E80585FF05C088EF95E00E949F0775C0C5
S11308908091BA05811123C082E291E00E94B00BDD
S11308A08091180680FF03C08460809318068091AD
S11308B0C10580FF03C084608093C1058091E90570
S11308C080FF03C084608093E9058091D90580FF8F
S11308D003C084608093D90581E08093BA05809138
S11308E0180682FF04C088E196E00E941C098091EA
S11308F0C10582FF04C081EC95E00E941C0980912F
S1130900E90582FF04C089EE95E00E941C098091EC
S1130910D90582FF04C089ED95E00E941C098091ED
S1130920180682FD0EC08091C10582FD0CC0809125
S1130930E90582FD0AC08091D90582FF08C080E0E4
S113094007C080E005C080E003C080E001C081E012
S1130950882399F08CE391E00E94B00B8091E80524
S113096080628093E805109221061092CA051092C5
S1130970F2051092E2050E94660568EF75E087E2D1
S113098096E00E945B060E9485084C9B0AC08091F9
S1130990E80586FD06C01092BE0580648093E805D4
S11309A028C08091E80586FF24C04C9922C08F7B23
S11309B08093E80582FF04C08EE591E00E94B00BAD
S11309C08091BE058A3030F48091E805982F9470A8
S11309D082FF06C08091E80581608093E80509C024
S11309E01092BE05992329F08091E8058B7F8093AE
S11309F0E8058091110684FF08C08F7E809311065C
S1130A00E1E4F6E08081806280838091E80583FFE1
S1130A1008C0877F8093E8058091110682608093E7
S1130A2011068091E80580FF03C08E7F8093E8055E
S1130A308091E80584FF23CF8F7E8093E805809121
S1130A40180680FF07C082FF05C083FD03C08860CD
S1130A50809318068091C10580FF07C082FF05C0FE
S1130A6083FD03C088608093C1058091E90580FF00
S1130A7007C082FF05C083FD03C088608093E90539
S1130A808091D90580FFFBCE82FFF9CE83FDF7CE9E
S1130A9088608093D905F3CECF93DF9300D0CDB790
S1130AA0DEB7FC015A83498385E396E09183808312
S1130AB0CE0101969383828314828DE691E00E9495
S1130AC0B00B0F900F90DF91CF910895CF93DF93E8
S1130AD02AE530E041E050E060E070E080ED95E030
S1130AE00E9499082AE530E042E050E061E070E0BD
S1130AF086E496E00E949908ECE2F6E080ED95E049
S1130B009183808386E496E09383828382E196E0F6
S1130B10958384831092BB05C6EDD5E081E089837B
S1130B20809120068883ACE4B6E082E011968C9331
S1130B3011978091C9058C93E2E3F6E083E0818309
S1130B408091F105808388E08A8312968C93828356
S1130B50DF91CF910895FC018CE191E09183808332
S1130B6086ED95E0938382838CE496E09583848379
S1130B7082E396E09783868380911106882344F468
S1130B808EE891E00E94B00B80EC91E00E94B00BE3
S1130B9008958E3B98F09091110699230CF083C030
S1130BA01F928F9385EE91E09F938F930E949A0BEF
S1130BB00F900F900F900F9084E008959EEB981B78
S1130BC0973398F480911106807809F473C01F92CA
S1130BD09F9385E192E09F938F930E949A0B0F90CD
S1130BE00F900F900F9080E00895DB01ED91FC9140
S1130BF080819817B0F08181891798F0809111064F
S1130C0088230CF052C01F929F938EE392E09F932F
S1130C108F930E949A0B0F900F900F900F9081E08A
S1130C20089582819817A8F08381891790F08091A4
S1130C3011068823E4F51F929F9383E592E09F9326
S1130C408F930E949A0B0F900F900F900F9082E059
S1130C50089584819817A8F08581891790F0809170
S1130C601106882334F51F929F9388E692E09F93A0
S1130C708F930E949A0B0F900F900F900F9083E028
S1130C800895809111068078A9F01F929F938DE7B3
S1130C9092E09F938F930E949A0B0F900F900F9066
S1130CA00F9080E0089584E0089581E0089582E043
S1130CB0089583E00895FF920F931F93CF93DF93DA
S1130CC0EC018B018091E8058823BCF5E881F9816A
S1130CD0848585FF32C08091110681FF2EC08C81EE
S1130CE081FF2BC0CF010E94CC0A8823C1F08091E0
S1130CF0110686FF04C08BEA92E00E94B00B80913B
S1130D00E8058F778093E805809111068D7F8093A5
S1130D101106E881F98184858F7D84870EC08091D6
S1130D20110686FF04C086EA92E00E94B00B80910F
S1130D30110684608D7F80931106888199810E94B9
S1130D40FA0AE881F9818585853009F0C1C0848576
S1130D5088230CF0BDC084858F778487E881F9816E
S1130D6080859185A285B3858F3B9105A105B10549
S1130D70B0F08C8181608C83982F92959F70923013
S1130D8051F48F708C8380911106882324F486EBB0
S1130D9092E00E94B00B8C818F708C838DC08C810B
S1130DA0982F92959F7009F087C08F7080618C8313
S1130DB080859185A285B385B8010E94C905F82E66
S1130DC084E0F81609F474C0E881F981808591857E
S1130DD0A285B385E1E0FE1649F0FE1628F1F2E0A3
S1130DE0FF1671F083E0F816A9F023C08FEC92E0AF
S1130DF00E94B00BE6EDF5E08281816082831DC024
S1130E008AED92E00E94B00BECE4F6E0828181600E
S1130E10828313C085EE92E00E94B00BE2E3F6E019
S1130E2082818160828309C080EF92E00E94B00BCE
S1130E3004C08EEF92E00E94B00BF1100DC0F801D7
S1130E4080899189A289B3890196A11DB11D808BE6
S1130E50918BA28BB38B0CC0F80184859585A685F4
S1130E60B7850196A11DB11D84879587A687B7878D
S1130E70F80180859185A285B3850196A11DB11DD8
S1130E8080879187A287B387EF2DF0E03596EE0F28
S1130E90FF1FEE0FFF1FE00FF11F80819181A281E0
S1130EA0B3810196A11DB11D80839183A283B38375
S1130EB08C818F7080628C83888199810E946B0AF7
S1130EC0E881F98115868091E80580688093E805BA
S1130ED08091110680FF2DC086FF04C081E193E05C
S1130EE00E94B00B809111068E7F877F809311063C
S1130EF0E881F981848588608487E881F98186E0C6
S1130F0085876091110666FB662760F9888199815F
S1130F100E94AF0A882341F08091110686FF04C025
S1130F2084E293E00E94B00B8091E805806880938E
S1130F30E805DF91CF911F910F91FF900895809163
S1130F40180680FF09C083FF07C0877F80931806B7
S1130F5088E196E00E945B0988E196E00E948C0992
S1130F60892B11F18091180682958F708230E1F4FB
S1130F708091D80583FF0FC080FF0DC0877F8093C9
S1130F80D805E0EDF5E0818182608183158286E4F5
S1130F9093E00E94B00BE8E1F6E080818F708083DB
S1130FA08BE693E00E94B00B8091C10580FF09C0DD
S1130FB083FF07C0877F8093C10581EC95E00E9481
S1130FC05B0981EC95E00E948C09892B11F18091D9
S1130FD0C10582958F708230E1F480914E0683FFC3
S1130FE00FC080FF0DC0877F80934E06E6E4F6E0D5
S1130FF081818260818315828BE793E00E94B00B2C
S1131000E1ECF5E080818F70808380EA93E00E94B8
S1131010B00B8091E90580FF09C083FF07C0877F7B
S11310208093E90589EE95E00E945B0989EE95E0DD
S11310300E948C09892B11F18091E90582958F70AA
S11310408230E1F48091340683FF0FC080FF0DC02D
S1131050877F80933406E2E1F6E0818182608183B8
S1131060158280EB93E00E94B00BE9EEF5E08081FD
S11310708F70808385ED93E00E94B00B8091D90539
S113108080FF09C083FF07C0877F8093D90589ED5E
S113109095E00E945B0989ED95E00E948C09892BFB
S11310A019F18091D90582958F70813041F4909126
S11310B02B0691FD04C0926090932B060895823014
S11310C019F580912B0681FF1FC085EE93E00E94E5
S11310D0B00BE7E2F6E084818D7F8483E9EDF5E0EF
S11310E080818F708083089580912B0681FF0CC0CE
S11310F08D7F80932B06E9EDF5E080818F708083EE
S113110081E094E00E94B00B08950895853B08F0B7
S113111084EB282F30E0A0EDB7E00E94800B24EB95
S113112030E040E050E00E945E0BC9018053984FCC
S113113008950F931F93CF93DF93EC01042F122F85
S11311401F926F9381E194E09F938F930E949A0B77
S11311501982812F0E9486089B838A8308831C83BB
S11311601D828981816089830F900F900F900F9069
S1131170DF91CF911F910F91089587B1807F87B937
S113118088B1807F88B980E480937C0086E880936E
S11311907A0008958430A0F4ECE7F0E09081907F29
S11311A0892B8083EAE7F0E08081806480838091EA
S11311B07A0086FDFCCF80917800909179000895A3
S11311C080E090E00895CF93DF93E8E1F6E01782A2
S11311D010861282118216821582D4E1D687C1E06C
S11311E0C08380E294E00E94B00BE1ECF5E0108251
S11311F0C783C0871282118216821582D687E9EED0
S1131200F5E0108282E08783808712821182168241
S11312101582D687E9EDF5E083E087838087128223
S1131220118216821582D687C0838FE294E00E94D1
S1131230B00BDF91CF910895CF93DF93EC018881B8
S113124083FF36C0877F88838985811102C01E820F
S11312501D828F810E94CA082D813E81280F391F6B
S11312603E832D8399859F5F99879A3008F1ADEC71
S1131270BCEC0E94800B96958795969587959695DC
S113128087959C838B83198628812B7F28832F81C4
S11312909F938F931F922F938EE394E09F938F934A
S11312A00E949A0B0F900F900F900F900F900F9039
S11312B0DF91CF9108950F931F93CF93DF93EC01A8
S11312C08F810E94CA089E838D834A855B856C85C5
S11312D07D858A019B01080F191F211D311DC9013C
S11312E0B8010A871B872C873D8729852F5F2987AB
S11312F02A3068F02AE030E040E050E00E945E0BC3
S11313003A8329831A861B861C861D861986DF91DB
S1131310CF911F910F910895CF92DF92EF92FF9298
S1131320CF93DF93EC01AB81BC818E850F2EF4E665
S1131330CF2ED12CE12CF12CF02DA7019601281BE6
S11313403109410951090E948F0BA70196010E949E
S11313505E0B89819A816C01E12CF12C81E0C2162B
S1131360D306E406F50608F080E0C216D306E406C8
S1131370F50650F49881E92FE295EF7029F49A600C
S11313809F70906198830FC0C216D306E406F506D9
S113139050F09881292F22952F70213021F49860E4
S11313A09D7090629883DF91CF91FF90EF90DF90D2
S11313B0CF9008958BB188608BB908958BB1877FE6
S11313C08BB90895E1E8F0E080818064808308951A
S11313D0E1E8F0E080818F7B808308959093C500DD
S11313E08093C40088E18093C10086E08093C200AA
S11313F008959091C00095FFFCCF8093C600089596
S11314008091C0008823E4F78091C6000895CF93AB
S1131410C82F8A3019F48DE00E94F9098C2F0E949C
S1131420F90980E090E0CF9108950E94000A90E0CD
S11314300895FC01668708950F931F93CF93DF935C
S1131440EC018C819D81AE81BF81488159816A8183
S11314507B818C019D01041B150B260B370BB901F5
S1131460A801D901C801880F991FAA1FBB1F880FA3
S1131470991FAA1FBB1F880F991FAA1FBB1F880F84
S1131480991FAA1FBB1F8C019D01040F151F261F46
S1131490371FC901B801660F771F881F991F20E9FC
S11314A031E040E050E00E945E0B288739874A878C
S11314B05B878C8580688C87DF91CF911F910F911A
S11314C00895DC011F96ED91FC915097309711F02F
S11314D0CB0109950895CF93DF93EC01188219820B
S11314E01A821B821C821D821E821F821886198604
S11314F01A861B861C868C8580628C871D860E94BA
S1131500E2098F859889892B41F08E85882329F0FB
S11315106AE674E0CE010E94610ADF91CF910895DA
S11315200F931F93CF93DF93EC018B010E946B0AFF
S113153081E08E870115110519F4188A1F860AC0E7
S1131540188B0F878E85882329F069E874E0CE0113
S11315500E94610ADF91CF911F910F9108951F930B
S1131560CF93DF93FC012585263071F4162FEC010F
S11315700E946B0A1E871E85112341F064E273E00A
S1131580CE010E94610A03C010E001C011E0812F66
S1131590DF91CF911F910895CF93FC018585882316
S11315A019F085858530C1F4848585FF0BC081E001
S11315B08587C685CC23D1F065EA74E0CF010E940B
S11315C0610A15C0C685CC2391F064ED74E0CF01A7
S11315D00E94610AC0E00BC0C685CC2341F06BE0D9
S11315E075E0CF010E94610AC0E001C0C1E08C2F08
S11315F0CF910895CF93DF93EC018D85833071F102
S113160028F4813049F08230A1F055C08430E1F1F2
S1131610863009F44DC04FC08C8581FF4CC08E8547
S1131620882309F448C068E375E0CE010E94610A8A
S113163042C08C8584FD0CC083E08D870E94E8093C
S11316408E85882329F067E575E0CE010E94610A42
S11316508C8583FF30C086E08D872DC08C8586FF06
S11316600DC084E08D878E85882329F064E775E0BA
S1131670CE010E94610A8C8584608C878C8583FFEF
S11316801AC086E08D8717C08C8582FF14C0CE01F6
S11316900E941C0A8C858B7F8C878E85882329F079
S11316A06BE875E0CE010E94610A85E08D8703C076
S11316B08C8588608C87DF91CF910895A1E21A2EE2
S11316C0AA1BBB1BFD010DC0AA1FBB1FEE1FFF1FE2
S11316D0A217B307E407F50720F0A21BB30BE40B32
S11316E0F50B661F771F881F991F1A9469F7609579
S11316F07095809590959B01AC01BD01CF01089533
S1131700A29FB001B39FC001A39F700D811D11243E
S1131710911DB29F700D811D1124911D08950E9489
S1131720800BA59F900DB49F900DA49F800D911DDB
S113173011240895A0E0B0E0E0EAFBE00C94810EEF
S1131740AE014B5F5F4FFA0161917191AF018091DE
S11317505106909152060E94E00BE2E00C949D0E1B
S11317600F931F93CF93DF93E0915106F0915206AC
S1131770238121FF1BC08C01D0E0C0E0F8018191DE
S11317808F016091510670915206DB011896ED911C
S1131790FC911997882331F00995892B79F3DFEFB0
S11317A0CFEFECCF8AE00995892B19F08FEF9FEFEB
S11317B002C08D2F9C2FDF91CF911F910F9108951F
S11317C0ABE0B0E0E6EEFBE00C94710E6C017B0143
S11317D08A01FC0117821682838181FFCCC1CE016C
S11317E001963C01F6019381F70193FD859193FFE6
S11317F081917F01882309F4BAC1853239F493FDBC
S1131800859193FF81917F01853229F4B60190E09F
S11318100E94D70DE7CF912C212C312CFFE1F31539
S1131820D8F08B3279F038F4803279F08332A1F435
S1131830232D20611DC08D3261F0803369F4232D86
S1131840216016C0832D8260382EE32DE4603E2E85
S11318502AC0F32DF8601DC037FC2DC020ED280FE1
S11318602A3040F08E32B9F436FC81C1232D206435
S1131870322E19C036FE06C08AE0989E200D11242F
S1131880922E11C0EAE02E9E200D1124222EF32D5B
S1131890F0623F2E08C08C3621F4832D8068382EE8
S11318A002C0883641F4F70193FD859193FF81913D
S11318B07F018111B3CF982F9F7D9554933028F4E5
S11318C00C5F1F4F9FE399830DC0833631F083373C
S11318D071F0833509F059C021C0F80180818983F2
S11318E00E5F1F4F88248394912C530113C0280149
S11318F0F2E04F0E511CF801A080B18036FE03C007
S1131900692D70E002C06FEF7FEFC5010E94CC0D1E
S11319104C018201F32DFF773F2E16C0280122E0EF
S1131920420E511CF801A080B18036FE03C0692D1F
S113193070E002C06FEF7FEFC5010E94C10D4C0142
S1131940F32DF0683F2E820133FC1BC0822D90E002
S113195088169906B0F4B60180E290E00E94D70D93
S11319602A94F4CFF50137FC859137FE81915F010C
S1131970B60190E00E94D70D21102A9421E0821A2A
S113198091088114910471F7E8C0843611F0893606
S113199041F5F80137FE07C060817181828193812E
S11319A00C5F1F4F08C060817181072E000C880BEB
S11319B0990B0E5F1F4FF32DFF763F2E97FF09C043
S11319C090958095709561957F4F8F4F9F4FF068EC
S11319D03F2E2AE030E0A3010E94130E882E8618C1
S11319E045C0853731F4232D2F7EB22E2AE030E016
S11319F025C0932D997FB92E8F36C1F018F4883500
S1131A0079F0B5C0803719F0883721F0B0C0E92FDC
S1131A10E061BE2EB4FE0DC0FB2DF460BF2E09C0E4
S1131A2034FE0AC0292F2660B22E06C028E030E01A
S1131A3005C020E130E002C020E132E0F801B7FE49
S1131A4007C060817181828193810C5F1F4F06C042
S1131A506081718180E090E00E5F1F4FA3010E94BE
S1131A60130E882E8618FB2DFF773F2E36FE0DC0F1
S1131A70232D2E7FA22E891458F434FE0BC032FC81
S1131A8009C0832D8E7EA82E05C0B82CA32C03C0BC
S1131A90B82C01C0B92CA4FE0FC0FE01E80DF11D45
S1131AA08081803321F49A2D997EA92E09C0A2FE4B
S1131AB006C0B394B39404C08A2D867809F0B39415
S1131AC0A3FC11C0A0FE06C0B21488F4280C922C0A
S1131AD09B180EC0B21460F4B60180E290E00E943C
S1131AE0D70DB394F7CFB21418F42B1802C0982C66
S1131AF0212CA4FE10C0B60180E390E00E94D70D13
S1131B00A2FE17C0A1FC03C088E790E002C088E5EC
S1131B1090E0B6010CC08A2D867859F0A1FE02C06F
S1131B208BE201C080E2A7FC8DE2B60190E00E9446
S1131B30D70D891438F4B60180E390E00E94D70DE4
S1131B409A94F7CF8A94F301E80DF11D8081B601D0
S1131B5090E00E94D70D8110F5CF222009F442CEE7
S1131B60B60180E290E00E94D70D2A94F6CFF601E8
S1131B708681978102C08FEF9FEF2B96E2E10C9450
S1131B808D0EFC010590615070400110D8F78095CE
S1131B9090958E0F9F1F0895FC0161507040019035
S1131BA00110D8F7809590958E0F9F1F08950F937D
S1131BB01F93CF93DF93FB01238121FD03C08FEF9C
S1131BC09FEF2CC022FF16C04681578124813581A6
S1131BD04217530744F4A081B1819D012F5F3F4F09
S1131BE0318320838C93268137812F5F3F4F378346
S1131BF0268314C08B01EC01FB010084F185E02DE8
S1131C000995892BE1F6D80116968D919C91179729
S1131C10019617969C938E931697CE01DF91CF91E0
S1131C201F910F910895FA01AA27283051F120310C
S1131C3081F1E8946F936E7F6E5F7F4F8F4F9F4F5C
S1131C40AF4FB1E03ED0B4E03CD0670F781F891F9E
S1131C509A1FA11D680F791F8A1F911DA11D6A0F6C
S1131C60711D811D911DA11D20D009F468943F911F
S1131C702AE0269F11243019305D3193DEF6CF011E
S1131C800895462F4770405D4193B3E00FD0C9F7E4
S1131C90F6CF462F4F70405D4A3318F0495D31FD51
S1131CA04052419302D0A9F7EACFB4E0A6959795A4
S1131CB0879577956795BA95C9F70097610571057A
S1131CC008959B01AC010A2E0694579547953795C4
S1131CD02795BA95C9F7620F731F841F951FA01D1E
S1131CE008952F923F924F925F926F927F928F92BC
S1131CF09F92AF92BF92CF92DF92EF92FF920F9397
S1131D001F93CF93DF93CDB7DEB7CA1BDB0B0FB6A0
S1131D10F894DEBF0FBECDBF09942A88398848885D
S1131D205F846E847D848C849B84AA84B984C884F3
S1131D30DF80EE80FD800C811B81AA81B981CE0FEA
S1131D40D11D0FB6F894DEBF0FBECDBFED010895CF
S1071D50F894FFCF31
S1131D5400000001000000000000150A000000005B
S1131D64000200000000070A0000000037414B5540
S1131D745F6943616C696272616E646F2073656E3E
S1131D84736F7265732049522E2E2E00546F646F44
S1131D9473206C6F732073656E736F72657320495F
S1131DA4522063616C69627261646F732E004274C1
S1131DB46E206F766572666C6F77656400496E6930
S1131DC474206863737230344465746563746F7229
S1131DD42C2073656E736F722069646C65005359AB
S1131DE45320534F52544552204445425547202DC5
S1131DF4204D617472697A2064652064696D656E2E
S1131E0473696F6E657320696E69636961646100E7
S1131E1453595320534F5254455220444542554735
S1131E24202D2053616C6964617320616772656756
S1131E3461646173004E6F206861792063616A6133
S1131E442070726573656E746520287061726564B0
S1131E542064657465637461646120612025752060
S1131E646D6D290A0043616A612064656D6173695B
S1131E7461646F2062616A6120282575206D6D2973
S1131E842C20646573636172746164610A00436144
S1131E946A61207469706F204120282575206D6D56
S1131EA4290A0043616A61207469706F2042202802
S1131EB42575206D6D290A0043616A612074697077
S1131EC46F204320282575206D6D290A0043616A1B
S1131ED4612066756572612064652072616E676F46
S1131EE420282575206D6D292C2064657363617227
S1131EF4746164610A004572726F72496E69744850
S1131F0443535230340053656E736F72206C6962AC
S1131F14657261646F206465206E7565766F004236
S1131F244F585F53495A455F4100424F585F5349E4
S1131F345A455F4200424F585F53495A455F430034
S1131F44424F585F44495343415244454400546901
S1131F54706F206E6F207265636F6E6F6369646F58
S1131F64004843535230342070657264696F2045CD
S1131F7443484F004C4942204445425547202D20B4
S1131F8448435352303420544D444F555420436CE9
S1131F946561726564005075736865642073657265
S1131FA4766F204120616E64207A65726F656420C7
S1131FB473746174652074696D6500446574656344
S1131FC4746F20656E204952204100507573686512
S1131FD46420736572766F204220616E64207A6592
S1131FE4726F65642073746174652074696D65002F
S1131FF44465746563746F20656E20495220420001
S113200450757368656420736572766F204320612C
S11320146E64207A65726F656420737461746520DC
S113202474696D65004465746563746F20656E201E
S113203449522043004952205520646574656374F1
S11320446F3A206C612063616A612073616C69F387
S113205400495220552049646C6520616761696EAA
S113206400496E697420536572766F2025750A00E1
S113207454435254204120454E41424C454400545B
S1132084435254205520454E41424C454400536527
S11320946E736F722063616E616C202575206361B9
S11320A46C69627261646F20636F6E207468726518
S11320B473686F6C642025750A004C4942204445BA
S11320C4425547202D2048435352303420466C61F6
S11320D46773205265736574004C49422044454239
S11320E45547202D2048435352303420496E6963A8
S11320F46961646F004C4942204445425547202D90
S1132104204843535230342053746172743A205437
S11321145249474745525F414C4C4F5745442074FC
S1132124727565004C4942204445425547202D2090
S11321344843535230342053746172742066616985
S11321446C65643A20545249474745525F414C4CAC
S11321544F5745442066616C7365004C49422044E2
S113216445425547202D204843535230342053745C
S1132174617274206661696C65643A2077726F6E6B
S113218467207374617465004C4942204445425588
S113219447202D20545249474745525F46494E49EA
S11321A45348206C6962004C4942204445425547D7
S11321B4202D204543484F20524953494E4720621D
S11321C4616A6F004C4942204445425547202D2002
S11321D443414C43554C414E444F004C49422044E6
S11321E445425547202D2043616C63756C61646FCF
S11321F42C20706173616E646F2061206573746157
S10D2204646F206C6973746F0000AE
S9030000FC
