S01700004763634170706C69636174696F6E312E737265635B
S11300000C9434000C9451000C9451000C94510045
S11300100C9451000C9451000C9451000C94540114
S11300200C9451000C9451000C9456000C94C7008D
S11300300C94FE000C94B6000C9451000C945100E6
S11300400C9451000C9451000C9451000C945100E8
S11300500C9451000C9451000C9451000C945100D8
S11300600C9451000C94510011241FBECFEFD8E022
S1130070DEBFCDBF13E0A0E0B1E0E4E5F2E102C0F1
S113008005900D92AE3DB107D9F724E0AEEDB3E093
S113009001C01D92AB31B207E1F70E9427020C9414
S11300A028090C9400000E94300608951F920F92B4
S11300B00FB60F9211242F933F938F939F93AF9377
S11300C0BF93EF93FF9380911104823019F0833032
S11300D019F13FC08091100484FF3BC02091860039
S11300E0309187008091E20390E0A0E0B0E0DC0171
S11300F099278827820F931FA11DB11D80930404A3
S113010090930504A0930604B0930704E0E1F4E09F
S113011080818F7E80831DC020918600309187006E
S11301208091E20390E0A0E0B0E0DC019927882709
S1130130820F931FA11DB11D80930804909309049D
S1130140A0930A04B0930B04E0E1F4E0808180649E
S11301508083FF91EF91BF91AF919F918F913F91D8
S11301602F910F900FBE0F901F9018951F920F9212
S11301700FB60F9211248F938091E2038F5F8093C7
S1130180E2038F910F900FBE0F901F9018951F924E
S11301900F920FB60F9211242F933F938F939F9337
S11301A0AF93BF93EF93FF93E8E8F0E080819181F0
S11301B0805C93469183808385B1826085B9209168
S11301C084003091850080911C0190911D01A091C3
S11301D01E01B0911F01820F931F90938B00809397
S11301E08A00FF91EF91BF91AF919F918F913F91C1
S11301F02F910F900FBE0F901F9018951F920F9282
S11302000FB60F9211248F9385B18D7F85B98F918D
S11302100F900FBE0F901F901895A4E8B0E01196B0
S11302201C921E9286B3806286BBEFE6F0E080816A
S113023087628083E1E8F0E080818064808380814C
S1130240826080838D919C91805C93469093890019
S1130250809388000895E1EBF0E0808187608083DB
S11302608BE98093B300E0E7F0E0808182608083D3
S11302701092B200089584B1806284B985B180621D
S113028085B98AB188608AB984B18E7F84B98AB10C
S11302908F7E8AB98BB18F7E8BB984B1826084B929
S11302A08BB1877F8BB908951F920F920FB60F926F
S11302B011242F933F934F935F936F937F938F9367
S11302C09F93AF93BF93EF93FF938091E40381FFD8
S11302D0ADC080911104813051F58091000485FDF9
S11302E00DC00E945F04E0E1F4E0808181608083BE
S11302F08091000480628093000419C00E9463040A
S1130300E0E1F4E0808182608083809100048D7D4F
S113031088608093000480818F7D808382E0809355
S1130320110480818061808380818D7F80838091AE
S113033011048230D1F48091100484FF16C080919E
S113034000048970883089F48091DE03811106C02D
S11303508091DE038F5F8093DE0307C080910004E9
S11303608160809300041092DE038091100485FD67
S113037022C08091000484FD1EC08091E103873077
S113038030F48091E1038F5F8093E10307C0809193
S113039000048061809300041092E10380911004B2
S11303A083FF09C06091000466FB662760F984E05E
S11303B094E00E943A058091DF038A3030F4809102
S11303C0DF038F5F8093DF0307C08091E4038860BD
S11303D08093E4031092DF038091E40386FF0EC050
S11303E08091E0038F3F29F48091E403846080933B
S11303F0E4038091E0038F5F8093E0038091E40342
S113040085FF14C08091E3038E3130F48091E303BF
S11304108F5F8093E3030AC01092E3038091E403A7
S11304208F7D8093E4038AE50E944104FF91EF915C
S1130430BF91AF919F918F917F916F915F914F91F8
S11304403F912F910F900FBE0F901F90189582E847
S11304508093E40380E88093000488E090E00E94A5
S11304607304E5E1F4E08EE091E09383828380E01D
S113047091E0918380831092DF030E943B010E94EC
S11304800D010E942B0163E570E084E094E00E947A
S11304901B056091000466FB662760F984E094E024
S11304A00E949E04E1E0F4E084E094E09183808380
S11304B082818F70828385EE93E00E94D3028091C3
S11304C0000482608093000480EC92E00E94300675
S11304D0789465EE73E081E094E00E9441034C9BC4
S11304E00AC08091E40386FD06C01092E003806494
S11304F08093E40328C08091E40386FF24C04C99D0
S113050022C08F7B8093E40382FF04C086E291E0E3
S11305100E9430068091E0038A3030F48091E40335
S1130520982F947082FF06C08091E40381608093C9
S1130530E40309C01092E003992329F08091E403B5
S11305408B7F8093E4038091000484FF08C08F7E36
S113055080930004E0E1F4E08081806280838091F4
S1130560E40383FF08C0877F8093E4038091000441
S11305708260809300048091E40380FF04C08E7F36
S113058080618093E4038091E40384FFA2CF8F7E93
S11305908093E40380E00E9441048091E40380623C
S11305A08093E40396CF20E231E0FC013183208381
S11305B080910004882324F485E391E00E943006AE
S11305C00895873958F08091000488230CF051C0B5
S11305D084E591E00E94300684E00895873358F45E
S11305E080910004807809F44BC089E691E00E9470
S11305F0300680E00895E091E503F091E6039081F0
S1130600891768F09181981750F08091000488232D
S113061094F584E991E00E94300681E00895928186
S1130620891768F09381981750F08091000488230B
S113063024F580EA91E00E94300682E008959481D6
S1130640891768F09581981750F0809100048823E9
S1130650B4F48CEA91E00E94300683E0089580911E
S11306600004807869F088EB91E00E94300680E015
S1130670089584E0089581E0089582E0089583E078
S113068008950F931F93CF93DF93EC018B01809117
S1130690E4038823A4F5E881F981848585FF2FC0CC
S11306A08091000481FF2BC0CF010E94570588234D
S11306B0C1F08091000486FF04C08EED91E00E9499
S11306C030068091E4038F778093E40380910004E3
S11306D08D7F80930004E881F98184858F7D8487F0
S11306E00EC08091000486FF04C089ED91E00E9451
S11306F030068091000484608D7F8093000488819B
S113070099810E948505E881F9818585853009F004
S113071082C0848588230CF07EC0CF010E94E60449
S11307209F938F937F936F9389EE91E09F938F9321
S11307300E941A06E881F98184858F778487E8818D
S1130740F98180859185A285B3850F900F900F90D4
S11307500F900F900F9087399105A105B105B0F066
S11307608A8181608A83982F92959F70923051F488
S11307708F708A8380910004882324F48EEF91E0A3
S11307800E9430068A818F708A8339C08A818F7073
S113079080618A83D8016D917C9180859185A28541
S11307A0B3850E94E102843031F1E881F98140850A
S11307B0518562857385813031F0A0F0823041F03B
S11307C0833059F014C087E192E00E94300613C0D0
S11307D082E292E00E9430060EC08DE292E00E9416
S11307E0300609C088E392E00E94300604C086E423
S11307F092E00E9430068A818F7080628A838881A9
S113080099810E94F604E881F98115868091E403B8
S113081080688093E4038091000480FF2DC086FFEC
S113082004C089E592E00E943006809100048E7F26
S1130830877F80930004E881F981848588608487B8
S1130840E881F98186E085876091000466FB66276C
S113085060F9888199810E943A05882341F080914A
S1130860000486FF04C08CE692E00E94300680916A
S1130870E40380688093E403DF91CF911F910F918B
S11308800895853B08F084EB282F30E0A0EDB7E015
S11308900E940B0624EB30E040E050E00E94E905A2
S11308A0DA01C9018053984FAF4FBF4F80931C01A9
S11308B090931D01A0931E01B0931F0108958BB165
S11308C088608BB908958BB1877F8BB90895E1E86F
S11308D0F0E08081806480830895E1E8F0E0808125
S11308E08F7B808308959093C5008093C40088E132
S11308F08093C10086E08093C20008959091C00067
S113090095FFFCCF8093C60008958091C000882392
S1130910E4F78091C6000895CF93C82F8A3019F464
S11309208DE00E947E048C2F0E947E0480E090E083
S1130930CF9108950E94850490E00895FC01668794
S113094008950F931F93CF93DF93EC018C819D81C6
S1130950AE81BF81488159816A817B818C019D016F
S1130960041B150B260B370BB901A801D901C801CB
S1130970880F991FAA1FBB1F880F991FAA1FBB1F8F
S1130980880F991FAA1FBB1F880F991FAA1FBB1F7F
S11309908C019D01040F151F261F371FC901B801C3
S11309A0660F771F881F991F20E931E040E050E06F
S11309B00E94E905288739874A875B878C85806888
S11309C08C87DF91CF911F910F910895FC01608571
S11309D07185828593850895DC011F96ED91FC91C4
S11309E05097309711F0CB0109950895CF93DF9379
S11309F0EC01188219821A821B821C821D821E82BB
S1130A001F82188619861A861B861C868C8580622E
S1130A108C871D860E9467048F859889892B41F0F5
S1130A208E85882329F06EE872E0CE010E94EC04E2
S1130A30DF91CF9108950F931F93CF93DF93EC0130
S1130A408B010E94F60481E08E870115110519F4CB
S1130A50188A1F860AC0188B0F878E85882329F071
S1130A606DEA72E0CE010E94EC04DF91CF911F91F8
S1130A700F9108951F93CF93DF93FC0125852630B2
S1130A8071F4162FEC010E94F6041E871E851123B3
S1130A9041F06CE672E0CE010E94EC0403C010E069
S1130AA001C011E0812FDF91CF911F910895CF9361
S1130AB0FC018585882319F085858530C1F48485FA
S1130AC085FF0BC081E08587C685CC23D1F069EC16
S1130AD072E0CF010E94EC0415C0C685CC2391F0CE
S1130AE068EF72E0CF010E94EC04C0E00BC0C68541
S1130AF0CC2341F06FE273E0CF010E94EC04C0E02C
S1130B0001C0C1E08C2FCF910895CF93DF93EC0106
S1130B108D85833071F128F4813049F08230A1F061
S1130B2055C08430E1F1863009F44DC04FC08C8546
S1130B3081FF4CC08E85882309F448C06CE573E0BE
S1130B40CE010E94EC0442C08C8584FD0CC083E07D
S1130B508D870E946D048E85882329F06BE773E0EE
S1130B60CE010E94EC048C8583FF30C086E08D8723
S1130B702DC08C8586FF0DC084E08D878E858823EB
S1130B8029F068E973E0CE010E94EC048C8584604E
S1130B908C878C8583FF1AC086E08D8717C08C856F
S1130BA082FF14C0CE010E94A1048C858B7F8C87A8
S1130BB08E85882329F06FEA73E0CE010E94EC044D
S1130BC085E08D8703C08C8588608C87DF91CF9109
S1130BD00895A1E21A2EAA1BBB1BFD010DC0AA1F7A
S1130BE0BB1FEE1FFF1FA217B307E407F50720F092
S1130BF0A21BB30BE40BF50B661F771F881F991F0D
S1130C001A9469F760957095809590959B01AC0155
S1130C10BD01CF010895A29FB001B39FC001A39F5E
S1130C20700D811D1124911DB29F700D811D112421
S1130C30911D0895A0E0B0E0E0E2F6E00C94010913
S1130C40AE014B5F5F4FFA0161917191AF018091E9
S1130C501704909118040E946006E2E00C941D09A8
S1130C600F931F93CF93DF93E0911704F09118042F
S1130C70238121FF1BC08C01D0E0C0E0F8018191E9
S1130C808F016091170470911804DB011896ED919F
S1130C90FC911997882331F00995892B79F3DFEFBB
S1130CA0CFEFECCF8AE00995892B19F08FEF9FEFF6
S1130CB002C08D2F9C2FDF91CF911F910F9108952A
S1130CC0ABE0B0E0E6E6F6E00C94F1086C017B01E1
S1130CD08A01FC0117821682838181FFCCC1CE0177
S1130CE001963C01F6019381F70193FD859193FFF1
S1130CF081917F01882309F4BAC1853239F493FDC7
S1130D00859193FF81917F01853229F4B60190E0AA
S1130D100E945708E7CF912C212C312CFFE1F315C9
S1130D20D8F08B3279F038F4803279F08332A1F440
S1130D30232D20611DC08D3261F0803369F4232D91
S1130D40216016C0832D8260382EE32DE4603E2E90
S1130D502AC0F32DF8601DC037FC2DC020ED280FEC
S1130D602A3040F08E32B9F436FC81C1232D206440
S1130D70322E19C036FE06C08AE0989E200D11243A
S1130D80922E11C0EAE02E9E200D1124222EF32D66
S1130D90F0623F2E08C08C3621F4832D8068382EF3
S1130DA002C0883641F4F70193FD859193FF819148
S1130DB07F018111B3CF982F9F7D9554933028F4F0
S1130DC00C5F1F4F9FE399830DC0833631F0833747
S1130DD071F0833509F059C021C0F80180818983FD
S1130DE00E5F1F4F88248394912C530113C0280154
S1130DF0F2E04F0E511CF801A080B18036FE03C012
S1130E00692D70E002C06FEF7FEFC5010E944C08AE
S1130E104C018201F32DFF773F2E16C0280122E0FA
S1130E20420E511CF801A080B18036FE03C0692D2A
S1130E3070E002C06FEF7FEFC5010E9441084C01D2
S1130E40F32DF0683F2E820133FC1BC0822D90E00D
S1130E5088169906B0F4B60180E290E00E94570823
S1130E602A94F4CFF50137FC859137FE81915F0117
S1130E70B60190E00E94570821102A9421E0821ABA
S1130E8091088114910471F7E8C0843611F0893611
S1130E9041F5F80137FE07C0608171818281938139
S1130EA00C5F1F4F08C060817181072E000C880BF6
S1130EB0990B0E5F1F4FF32DFF763F2E97FF09C04E
S1130EC090958095709561957F4F8F4F9F4FF068F7
S1130ED03F2E2AE030E0A3010E949308882E861852
S1130EE045C0853731F4232D2F7EB22E2AE030E021
S1130EF025C0932D997FB92E8F36C1F018F488350B
S1130F0079F0B5C0803719F0883721F0B0C0E92FE7
S1130F10E061BE2EB4FE0DC0FB2DF460BF2E09C0EF
S1130F2034FE0AC0292F2660B22E06C028E030E025
S1130F3005C020E130E002C020E132E0F801B7FE54
S1130F4007C060817181828193810C5F1F4F06C04D
S1130F506081718180E090E00E5F1F4FA3010E94C9
S1130F609308882E8618FB2DFF773F2E36FE0DC082
S1130F70232D2E7FA22E891458F434FE0BC032FC8C
S1130F8009C0832D8E7EA82E05C0B82CA32C03C0C7
S1130F90B82C01C0B92CA4FE0FC0FE01E80DF11D50
S1130FA08081803321F49A2D997EA92E09C0A2FE56
S1130FB006C0B394B39404C08A2D867809F0B39420
S1130FC0A3FC11C0A0FE06C0B21488F4280C922C15
S1130FD09B180EC0B21460F4B60180E290E00E9447
S1130FE05708B394F7CFB21418F42B1802C0982CF6
S1130FF0212CA4FE10C0B60180E390E00E945708A3
S1131000A2FE17C0A1FC03C088E790E002C088E5F7
S113101090E0B6010CC08A2D867859F0A1FE02C07A
S11310208BE201C080E2A7FC8DE2B60190E00E9451
S11310305708891438F4B60180E390E00E945708F9
S11310409A94F7CF8A94F301E80DF11D8081B601DB
S113105090E00E9457088110F5CF222009F442CE77
S1131060B60180E290E00E9457082A94F6CFF60178
S11310708681978102C08FEF9FEF2B96E2E10C945B
S11310800D09FC010590615070400110D8F780955E
S113109090958E0F9F1F0895FC0161507040019040
S11310A00110D8F7809590958E0F9F1F08950F9388
S11310B01F93CF93DF93FB01238121FD03C08FEFA7
S11310C09FEF2CC022FF16C04681578124813581B1
S11310D04217530744F4A081B1819D012F5F3F4F14
S11310E0318320838C93268137812F5F3F4F378351
S11310F0268314C08B01EC01FB010084F185E02DF3
S11311000995892BE1F6D80116968D919C91179734
S1131110019617969C938E931697CE01DF91CF91EB
S11311201F910F910895FA01AA27283051F1203117
S113113081F1E8946F936E7F6E5F7F4F8F4F9F4F67
S1131140AF4FB1E03ED0B4E03CD0670F781F891FA9
S11311509A1FA11D680F791F8A1F911DA11D6A0F77
S1131160711D811D911DA11D20D009F468943F912A
S11311702AE0269F11243019305D3193DEF6CF0129
S11311800895462F4770405D4193B3E00FD0C9F7EF
S1131190F6CF462F4F70405D4A3318F0495D31FD5C
S11311A04052419302D0A9F7EACFB4E0A6959795AF
S11311B0879577956795BA95C9F700976105710585
S11311C008959B01AC010A2E0694579547953795CF
S11311D02795BA95C9F7620F731F841F951FA01D29
S11311E008952F923F924F925F926F927F928F92C7
S11311F09F92AF92BF92CF92DF92EF92FF920F93A2
S11312001F93CF93DF93CDB7DEB7CA1BDB0B0FB6AB
S1131210F894DEBF0FBECDBF09942A883988488868
S11312205F846E847D848C849B84AA84B984C884FE
S1131230DF80EE80FD800C811B81AA81B981CE0FF5
S1131240D11D0FB6F894DEBF0FBECDBFED010895DA
S1071250F894FFCF3C
S1131254000000010000000000009A0400000000E7
S11312640002000000008C0400000000B80B000021
S113127437414B555F6942746E206F766572666CB4
S11312846F776564004D617472697A2064652064C3
S1131294696D656E73696F6E657320696E696369E0
S11312A4616461004E6F206861792063616A612022
S11312B470726573656E74650043616A6120667556
S11312C46572612064652072616E676F20286D7594
S11312D4792062616A61292C206465736361727484
S11312E46164610043616A61207469706F20410024
S11312F443616A61207469706F20420043616A61CA
S1131304207469706F20430043616A6120667565C7
S113131472612064652072616E676F20286465734E
S11313246361727461646129004572726F72496EFB
S11313346974484353523034004843535230342080
S1131344446973745B6D6D5D20256C750A00536587
S11313546E736F72206C6962657261646F20646578
S1131364206E7565766F00424F585F53495A455F46
S11313744100424F585F53495A455F4200424F5817
S11313845F53495A455F4300424F585F44495343AE
S11313944152444544005469706F206E6F20726555
S11313A4636F6E6F6369646F004843535230342033
S11313B470657264696F204543484F004C4942206C
S11313C44445425547202D20484353523034205439
S11313D44D444F555420436C6561726564004C4917
S11313E442204445425547202D204843535230342B
S11313F420466C616773205265736574004C4942DE
S1131404204445425547202D20484353523034202C
S1131414496E69636961646F004C494220444542E2
S11314245547202D2048435352303420537461725D
S1131434743A20545249474745525F414C4C4F57E4
S113144445442074727565004C4942204445425514
S113145447202D204843535230342053746172740E
S1131464206661696C65643A205452494747455281
S11314745F414C4C4F5745442066616C7365004C86
S11314844942204445425547202D20484353523075
S113149434205374617274206661696C65643A2003
S11314A477726F6E67207374617465004C494220CF
S11314B44445425547202D20545249474745525FDD
S11314C446494E495348206C6962004C49422044C1
S11314D445425547202D204543484F2052495349FE
S11314E44E472062616A6F004C494220444542558C
S11314F447202D2043414C43554C414E444F004C0E
S11315044942204445425547202D2043616C63756C
S11315146C61646F2C20706173616E646F20612050
S111152465737461646F206C6973746F0000EA
S9030000FC
