S01700004763634170706C69636174696F6E312E737265635B
S11300000C94C0000C94DD000C94DD000C94DD0015
S11300100C94DD000C94DD000C94DD000C940F04B2
S11300200C94DD000C94DD000C94E2000C9453015C
S11300300C94D6010C9442010C94DD000C94DD0068
S11300400C94DD000C94DD000C9426030C948003C6
S11300500C94DD000C94DD000C94DD000C94DD00A8
S11300600C94DD000C94DD00370D370D420D420D6C
S1130070300D920D750D890D42746E206F76657288
S1130080666C6F7765640A0043616C696272616EC5
S1130090646F2073656E736F7265732049522E2EE0
S11300A02E0A0053656E6420646F6E650050726F93
S11300B0636573617220696E666F0A00546F646FC2
S11300C073206C6F732073656E736F726573204950
S11300D0522063616C69627261646F732E0A004915
S11300E06E69636961646F0A00436B732076616CA7
S11300F069646F0A00436B7320696E76616C69648E
S11301006F0A004C656E677468206D61796F7220A8
S1130110612032342C2073652070657264657269C5
S11301206120646174612064656C20627566666533
S1130130720A00436F6D616E646F20696E76616C44
S113014069646F0A00546F6B656E20696E76616C2A
S113015069646F0A00436B7320696E76616C69642D
S11301606F0A00436B732076616C69646F0A0050F8
S113017061796C6F616420656E204865783A0A0085
S113018011241FBECFEFD8E0DEBFCDBF17E0A0E043
S1130190B1E0EEEDF7E202C005900D92A030B10798
S11301A0D9F727E0A0E0B7E001C01D92A53EB20751
S11301B0E1F70E9423050C94ED130C9400000E94B7
S11301C0F51008951F920F920FB60F9211242F93DA
S11301D03F938F939F93AF93BF93EF93FF9380913C
S11301E08407823019F0833019F13FC0809183076E
S11301F084FF3BC0209186003091870080910607E0
S113020090E0A0E0B0E0DC0199278827820F931FDB
S1130210A11DB11D8093770790937807A093790768
S1130220B0937A07E3E8F7E080818F7E80831DC076
S113023020918600309187008091060790E0A0E02D
S1130240B0E0DC0199278827820F931FA11DB11DFF
S113025080937B0790937C07A0937D07B0937E07E0
S1130260E3E8F7E0808180648083FF91EF91BF91A0
S1130270AF919F918F913F912F910F900FBE0F904F
S11302801F9018951F920F920FB60F9211248F93FF
S1130290809106078F5F809306078F910F900FBEA2
S11302A00F901F9018951F920F920FB60F92112462
S11302B0EF92FF920F931F932F933F934F935F936C
S11302C06F937F938F939F93AF93BF93CF93EF934A
S11302D0FF93E8E8F0E080819181805C934691830C
S11302E0808380912F07806180932F07C0E045C0F1
S11302F0EC2EF12CF701EE0FFF1FE359F84F0081AC
S11303001181F801818180FF37C0818181FF08C09C
S1130310818182FD05C080EA9FE09383828307C0C8
S1130320F80184810E94940DF80193838283C111A2
S113033023C0F701EE0FFF1FE359F84FA081B181ED
S11303402C9181E090E002C0880F991F2A95E2F772
S113035095B1892B85B92091840030918500019055
S1130360F081E02D82819381820F931F90938B0003
S113037080938A0010920107CF5FC33008F4B8CF8E
S1130380FF91EF91CF91BF91AF919F918F917F9109
S11303906F915F914F913F912F911F910F91FF901A
S11303A0EF900F900FBE0F901F9018951F920F9211
S11303B00FB60F9211242F933F934F935F936F9334
S11303C07F938F939F93AF93BF93CF93DF93EF93D9
S11303D0FF93E0910107F0E0EE0FFF1FE359F84FA0
S11303E00190F081E02D208181E090E002C0880F2F
S11303F0991F2A95E2F78095909595B1892385B93F
S1130400E0910107F0E0EE0FFF1FE359F84F019070
S1130410F081E02D818181FF6BC0E0910107F0E064
S1130420EE0FFF1FE359F84F0190F081E02D818119
S113043082FF5EC0E0910107F0E0EE0FFF1FE35979
S1130440F84F0190F081E02D81818B7F8183E091D1
S11304500107F0E0EE0FFF1FE359F84F0190F08120
S1130460E02D81818D7F8183E0910107F0E0EE0F23
S1130470FF1FE359F84F0190F081E02D8AE5848352
S1130480E0910107F0E0EE0FFF1FE359F84FC08140
S1130490D181E0910107F0E0EE0FFF1FE359F84F1F
S11304A00190F081E02D84810E94940D9B838A83C6
S11304B080910107811107C0ECE1F7E08281886037
S11304C08E7F828315C080910107813039F4EBED72
S11304D0F7E0828188608E7F82830AC08091010761
S11304E0823031F4E3E7F7E0828188608E7F828393
S11304F0809101078F5F809301078091010783300A
S113050008F091C0E0910107F0E0EE0FFF1FE359FE
S1130510F84F0190F081E02D818180FF2CC0E091A3
S11305200107F0E0EE0FFF1FE359F84F0190F0814F
S1130530E02D208181E090E002C0880F991F2A9568
S1130540E2F795B1892B85B920918400309185001B
S1130550E0910107F0E0EE0FFF1FE359F84F01901F
S1130560F081E02D82819381820F931F90938B0001
S113057080938A0058C0E0910107F0E0EE0FFF1F5E
S1130580E359F84F0190F081E02D208181E090E063
S113059002C0880F991F2A95E2F78095909595B12E
S11305A0892385B9809101078F5F8093010780912A
S11305B001078330C0F5E0910107F0E0EE0FFF1F63
S11305C0E359F84F0190F081E02D818180FF2BC029
S11305D0E0910107F0E0EE0FFF1FE359F84F01909F
S11305E0F081E02D208181E090E002C0880F991F06
S11305F02A95E2F795B1892B85B920918400309131
S11306008500E0910107F0E0EE0FFF1FE359F84F7A
S11306100190F081E02D82819381820F931F90934A
S11306208B0080938A00FF91EF91DF91CF91BF916E
S1130630AF919F918F917F916F915F914F913F9176
S11306402F910F900FBE0F901F9018951F920F922D
S11306500FB60F9211242F933F938F939F93AF93D1
S1130660BF93EF93FF933091C60080918E0790E083
S113067001968F739078992324F40197806C9F6F6F
S1130680019620918F0728130AC08091D00781FD1D
S11306902AC0E0EDF7E080818260808324C0AEE868
S11306A0B7E0EC91F0E0E257F84F32838C939C91E1
S11306B011968C911197981728F0FD0180819181F2
S11306C0891B06C0EEE8F7E080819181891B805C7C
S11306D0863048F08091D00781FD05C0E0EDF7E059
S11306E0808182608083FF91EF91BF91AF919F9150
S11306F08F913F912F910F900FBE0F901F901895DF
S11307001F920F920FB60F9211248F939F93AF9362
S1130710BF93EF93FF93EEE8F7E091818081981700
S1130720B9F0DF01E181F0E0E257F84F8281809374
S1130730C60011968C9190E001968F73907899235E
S113074024F40197806C9F6F019680938F070DC0EE
S1130750E1ECF0E080818F7D808380915107877F79
S113076080935107808180688083FF91EF91BF91CE
S1130770AF919F918F910F900FBE0F901F9018957E
S1130780A4E8B0E011961C921E9286B3806286BBE8
S1130790EFE6F0E0808187628083E1E8F0E0808129
S11307A0806480838081826080838D919C91805C51
S11307B0934690938900809388000895E1EBF0E0DC
S11307C08081876080838BE98093B300E0E7F0E069
S11307D08081826080831092B200089584B1806227
S11307E084B985B1806285B98AB188608AB984B1D7
S11307F08E7F84B98AB18F7E8AB984B1826084B9CC
S113080084B1846084B984B1886084B90E94CB0DBA
S11308108BB1877F8BB98BB18F7E8BB908951F9273
S11308200F920FB60F9211242F933F934F935F9320
S11308306F937F938F939F93AF93BF93EF93FF93A4
S113084080912F0781FFEEC080918407813051F59C
S11308508091520785FD0DC00E94E80EE3E8F7E0A1
S113086080818160808380915207806280935207E7
S113087019C00E94EC0EE3E8F7E080818260808377
S1130880809152078D7D88608093520780818F7D8F
S1130890808382E08093840780818061808380816B
S11308A08D7F8083809184078230D1F48091830787
S11308B084FF16C0809152078970883089F4809132
S11308C00207811106C0809102078F5F809302079F
S11308D007C08091520781608093520710920207EB
S11308E08091830785FD22C08091520784FD1EC03C
S11308F080910507873030F4809105078F5F8093DE
S1130900050707C0809152078061809352071092B7
S113091005078091830783FF09C06091520766FB36
S1130920662760F987E797E00E94C80F8091030764
S11309308A3030F4809103078F5F8093030707C0E8
S113094080912F07886080932F071092030780916E
S11309502F0786FF0EC0809104078F3F29F48091F2
S11309602F07846080932F07809104078F5F809303
S113097004078091170781FF0DC090911B079A30DF
S113098020F49F5F90931B0705C0E6E1F7E0158212
S1130990846081838091890781FF0DC090918D07C8
S11309A09A3020F49F5F90938D0705C0E8E8F7E044
S11309B01582846081838091540781FF0DC09091DA
S11309C058079A3020F49F5F9093580705C0E3E5D9
S11309D0F7E01582846081838091590780FF05C008
S11309E083FD03C08860809359078091070780FFC7
S11309F005C083FD03C0886080930707809130079A
S1130A0080FF07C083FD05C0E0E2F7E080818860D5
S1130A1080838091200780FF05C083FD03C0886028
S1130A2080932007FF91EF91BF91AF919F918F9198
S1130A307F916F915F914F913F912F910F900FBED6
S1130A400F901F90189580E88093520782E8809356
S1130A502F071092510788E090E00E94FC0EEFED02
S1130A60F7E08EE091E09383828380E091E09183CC
S1130A7080838EE897E00E949A0B109203070E94ED
S1130A80EE030E94C0030E94DE030E94F10D6FED8D
S1130A9070E087E797E00E94A90F6091520766FB18
S1130AA0662760F987E797E00E94320F40E257E03B
S1130AB067E777E088E697E00E9449078FE397E0CD
S1130AC00E94D807809152078260809352078FED6D
S1130AD090E09F938F930E94CF1078940F900F9083
S1130AE080912F0785FF05C08FE397E00E94D4090A
S1130AF07DC080910007811127C088E890E09F9312
S1130B008F930E94CF10809159070F900F9080FF10
S1130B1003C08460809359078091070780FF03C056
S1130B208460809307078091300780FF03C084604E
S1130B30809330078091200780FF03C084608093F6
S1130B40200781E0809300078091590782FF04C049
S1130B5089E597E00E942A0E8091070782FF04C06E
S1130B6087E097E00E942A0E8091300782FF04C03C
S1130B7080E397E00E942A0E8091200782FF04C040
S1130B8080E297E00E942A0E8091590782FD0EC0F0
S1130B908091070782FD0CC08091300782FD0AC056
S1130BA08091200782FF08C080E007C080E005C074
S1130BB080E003C080E001C081E08823B9F08CEBC1
S1130BC090E09F938F930E94CF1080912F078062B3
S1130BD080932F0710926207109210071092390722
S1130BE0109229070E9463070F900F906FE377E03C
S1130BF088E697E00E9488080E94AF0A4C9B0AC0CE
S1130C0080912F0786FD06C01092040780648093AC
S1130C102F072CC080912F0786FF28C04C9926C02F
S1130C208F7B80932F0782FF08C088E790E09F9313
S1130C308F930E94CF100F900F90809104078A30F9
S1130C4030F480912F07982F947082FF06C0809112
S1130C502F07816080932F0709C0109204079923FE
S1130C6029F080912F078B7F80932F078091D007E5
S1130C7081FF1FC08091D00780FD1BC08DEA90E0EA
S1130C809F938F930E94CF100E94280B0F900F9078
S1130C90882351F0E0EDF7E080818F7080618083DC
S1130CA080818160808305C0E0EDF7E0808184600D
S1130CB080838091D00782FF14C0EEE8F7E0808142
S1130CC08183E0EDF7E080818E7F808380818B7F5C
S1130CD0808380818D7F808380818F7080830E9458
S1130CE0860B8091D00780FF1BC00E94690C88236B
S1130CF079F0E0EDF7E080818F70806880838081F7
S1130D008E7F80838091510780618093510708C052
S1130D10E0EDF7E080818E7F808380818460808332
S1130D208091510784FF32C08F7E809351070F2E2C
S1130D30FEE8EF2EF7E0FF2EF02D07ED17E0F801A7
S1130D40808190E00E944C0BF8018083C0EDD7E0D5
S1130D50888188608883808160E977E090E00E94E0
S1130D60220D482FF7019081940F9F739083608127
S1130D7070E06057784FF80180810E94170C8881D9
S1130D80877F888388818F70806988838091D0076A
S1130D9082958F708930B9F48091510783FD0DC01D
S1130DA0E1ECF0E080818F77808380915107886047
S1130DB080935107808180628083E0EDF7E0808139
S1130DC08F70806A80838091D00782958F708A307B
S1130DD069F483EA90E09F938F930E94CF10E0ED33
S1130DE0F7E080818F7080830F900F90809152077D
S1130DF084FF08C08F7E80935207E3E8F7E0808188
S1130E008062808380912F0783FF08C0877F80934F
S1130E102F078091520782608093520780912F0799
S1130E2080FF03C08E7F80932F0780912F0784FF5C
S1130E3057CE8F7E80932F078091590780FF07C07C
S1130E4082FF05C083FD03C08860809359078091A9
S1130E50070780FF07C082FF05C083FD03C08860C9
S1130E60809307078091300780FF07C082FF05C089
S1130E7083FD03C08860809330078091200780FF42
S1130E802FCE82FF2DCE83FD2BCE8860809320074A
S1130E9027CECF93DF9300D0CDB7DEB7FC015A83C2
S1130EA0498387E797E091838083CE0101969383FA
S1130EB08283148282E291E00E94F5100F900F90D9
S1130EC0DF91CF910895CF93DF932AE530E041E09D
S1130ED050E060E070E086E197E00E94A70D2AE50B
S1130EE030E042E050E061E070E088E897E00E9482
S1130EF0A70DEDE6F7E086E197E09183808388E82B
S1130F0097E09383828383E597E0958384831092AB
S1130F1001078091510780FF05C083E491E00E949E
S1130F20F51007C089E591E00E94F51082E08093F6
S1130F301F078091510781FF05C08DE691E00E9453
S1130F40F51007C083E891E00E94F51081E08093DA
S1130F50DE078091510782FF05C087E991E00E9476
S1130F60F51007C08DEA91E00E94F51083E08093AC
S1130F707607CCE1D7E081E089838091610788839B
S1130F80ABEDB7E082E011968C93119780910F0737
S1130F908C93E3E7F7E083E08183809138078083D3
S1130FA088E08A8312968C938283DF91CF9108958F
S1130FB0FC018CE191E0918380838CE197E0938341
S1130FC082838BED97E09583848383E797E097830F
S1130FD0868380915207882344F481EC91E00E9437
S1130FE0F51083EF91E00E94F51008958E3B98F080
S1130FF09091520799230CF083C01F928F9388E13C
S113100092E09F938F930E94B9100F900F900F90CE
S11310100F9084E008959EEB981B973398F4809189
S11310205207807809F473C01F929F9388E492E07A
S11310309F938F930E94B9100F900F900F900F9071
S113104080E00895DB01ED91FC9180819817B0F068
S11310508181891798F08091520788230CF052C03F
S11310601F929F9381E792E09F938F930E94B91000
S11310700F900F900F900F9081E008958281981740
S1131080A8F08381891790F0809152078823E4F5B2
S11310901F929F9386E892E09F938F930E94B910CA
S11310A00F900F900F900F9082E00895848198170D
S11310B0A8F08581891790F080915207882334F530
S11310C01F929F938BE992E09F938F930E94B91094
S11310D00F900F900F900F9083E008958091520726
S11310E08078A9F01F929F9380EB92E09F938F9357
S11310F00E94B9100F900F900F900F9080E0089508
S113110084E0089581E0089582E0089583E00895DD
S1131110FF920F931F93CF93DF93EC018B01809188
S11311202F078823BCF5E881F981848585FF32C0C7
S11311308091520781FF2EC08C8181FF2BC0CF018B
S11311400E94E50F8823C1F08091520786FF04C0F6
S11311508EED92E00E94F51080912F078F77809397
S11311602F07809152078D7F80935207E881F98180
S113117084858F7D84870EC08091520786FF04C0CA
S113118089ED92E00E94F5108091520784608D7F72
S113119080935207888199810E941310E881F98114
S11311A08585853009F0C9C0848588230CF0C5C0C5
S11311B084858F778487E881F98180859185A285EC
S11311C0B3858F3B9105A105B105B0F08C81816099
S11311D08C83982F92959F70923051F48F708C83EA
S11311E080915207882324F489EE92E00E94F5103E
S11311F08C818F708C8395C08C81982F92959F7071
S113120009F08FC08F7080618C8380859185A28561
S1131210B385B8010E94F607F82E84E0F81609F4A5
S11312207CC080911F07F8120AC0ECE1F7E08281CC
S11312308160828382E093E00E94F51020C0809157
S1131240DE07F8120AC0EBEDF7E082818160828349
S113125080E193E00E94F51012C080917607F812A5
S11312600AC0E3E7F7E08281816082838EE193E044
S11312700E94F51004C08CE293E00E94F510E1E0B6
S1131280FE1649F0FE1640F1F2E0FF1679F083E015
S1131290F816B9F02CC08AE393E00E94F510F80127
S11312A08285938501969387828725C085E493E0A0
S11312B00E94F510F80184859585019695878487A9
S11312C01AC080E593E00E94F510F80186859785A1
S11312D00196978786870FC08CE293E00E94F510F1
S11312E0F801808991890196918B808B04C08BE5EC
S11312F093E00E94F510F80180859185019691870D
S113130080879F938F938EE693E09F938F930E94A1
S1131310B9100F900F900F900F908C818F70806296
S11313208C83888199810E94840FE881F9811586D4
S113133080912F07806880932F078091520780FF48
S11313402DC086FF04C08CE793E00E94F5108091C5
S113135052078E7F877F80935207E881F9818485C5
S113136088608487E881F98186E0858760915207E7
S113137066FB662760F9888199810E94C80F8823DB
S113138041F08091520786FF04C08FE893E00E94E9
S1131390F51080912F07806880932F07DF91CF91FC
S11313A01F910F91FF9008958091590780FF09C004
S11313B083FF07C0877F8093590789E597E00E94E0
S11313C0690E89E597E00E949A0E892B11F18091AC
S11313D0590782958F708230E1F480911E0783FF54
S11313E00FC080FF0DC0877F80931E07E6E1F7E002
S11313F0818182608183158281EB93E00E94F510E4
S1131400E9E5F7E080818F70808386ED93E00E94A8
S1131410F5108091070780FF09C083FF07C0877F0D
S11314208093070787E097E00E94690E87E097E0C2
S11314300E949A0E892B11F18091070782958F7073
S11314408230E1F48091DD0783FF0FC080FF0DC07F
S1131450877F8093DD07E8E8F7E0818182608183FC
S1131460158286EE93E00E94F510E7E0F7E08081B4
S11314708F7080838BE094E00E94F5108091300798
S113148080FF09C083FF07C0877F8093300780E314
S113149097E00E94690E80E397E00E949A0E892BE0
S11314A011F18091300782958F708230E1F4809140
S11314B0750783FF0FC080FF0DC0877F809375077A
S11314C0E3E5F7E081818260818315828BE194E01A
S11314D00E94F510E0E3F7E080818F70808380E460
S11314E094E00E94F5108091200780FF09C083FFDB
S11314F007C0877F8093200780E297E00E94690EEF
S113150080E297E00E949A0E892BE1F090912007E7
S1131510892F82958F70813041F420916C0721FDD1
S113152004C0226020936C0708958230B9F480913E
S11315306C0781FF13C08D7F80936C079F7090931D
S11315402007089580916C0781FF08C08D7F8093E8
S11315506C07E0E2F7E080818F708083089508953E
S1131560CF93DF93EEE8F7E090818181981718F02C
S11315708081818104C0EEE8F7E080818181E0917F
S11315808F07F0E0E257F84F8281853509F05AC0A1
S1131590EEE8F7E0A181818190E001968F73907865
S11315A0992324F40197806C9F6F0196EC0180913C
S11315B08F0790E002968F739078992324F4019713
S11315C0806C9F6F0196FC0160918F0770E06D5FE6
S11315D07F4F6F737078772334F461507109606CB6
S11315E07F6F6F5F7F4FB0E0A257B84F12964C9158
S11315F050E0DA01AA0FBB1FAA0FBB1FDD27C25799
S1131600D84F9A81292F30E0A901440F551F240F88
S1131610351FAD01420F531FFF27E257F84F2281B8
S113162030E0220F331FCA01820F931FFB01FF27F3
S1131630E257F84F9281890F8A3131F460938F0712
S113164081E003C080E001C080E0DF91CF91089584
S1131650EEE8F7E090818181981720F080819181F4
S1131660891B06C0EEE8F7E080819181891B805CCC
S1131670863078F41F9286E08F9380E594E09F9300
S11316808F930E94B9100F900F900F900F9080E0ED
S113169008950E94B00A0895CF93803CA9F038F4CD
S11316A0813B81F0823BF1F0803AD1F417C0803F56
S11316B099F018F4813C51F013C0813F49F0823F06
S11316C049F00EC0C1E00FC0C3E00DC0C4E00BC0C0
S11316D0C6E009C0C5E007C0C7E005C0C9E003C053
S11316E0C0EE01C0C2E01F92CF931F928F938DE68C
S11316F094E09F938F930E94B9100F900F900F90D6
S11317000F900F900F908C2FCF9108951092DA07BD
S11317101092D7071092D5071092D607E091D807F8
S1131720F091D90710821092D10785E994E00E94C4
S1131730F5100895FC01128211821082EE5BFF4FB6
S113174010820E94860B8AEA94E00E94F5100895A4
S11317500F931F93CF93DF930091D50786E3082758
S11317608091D70708278FE691E09F938F930E947B
S1131770CF100F900F90C0E0D0E01DC0E091D807CB
S1131780F091D907EC0FFD1F10811F921F931F9238
S11317901F93DF93CF9380EC94E09F938F930E94E9
S11317A0B910012721968DB79EB708960FB6F89405
S11317B09EBF0FBE8DBF8091D50790E0C817D90793
S11317C0ECF21F920F938FED94E09F938F930E94FE
S11317D0B910CAEDD7E088811F928F9383EF94E00C
S11317E09F938F930E94B91088812DB73EB7285FCD
S11317F03F4F0FB6F8943EBF0FBE2DBF081309C06C
S113180083E691E09F938F930E94CF100F900F90E7
S113181008C085E591E09F938F930E94CF100F90AD
S11318200F90802FDF91CF911F910F91089595E52F
S11318309093D1079EE49093D20795E49093D307B5
S113184092E59093D4074093D5079AE39093D607F3
S11318508093D7076115710521F07093D9076093C0
S1131860D8074091D1078091D20748278091D307A8
S113187048278091D40748278091D507482780912D
S1131880D60748278091D707482720E030E00AC0D0
S1131890E091D807F091D907E20FF31F8081482720
S11318A02F5F3F4F8091D50790E02817390784F3C5
S11318B04093DA078091D7071F928F938CE095E0CD
S11318C09F938F930E94B9100F900F900F900F90D9
S11318D00895CF93DF93EEE8F7E0C0EDD7E0888179
S11318E08F708062888381818F5F8183A181B0E062
S11318F0A257B84F12968C918093D50788818F7028
S11319008063888381818F5F8183E181F0E0E25786
S1131910F84F82818A3351F085E491E09F938F934D
S11319200E94CF100F900F9080E089C0EEE8F7E09E
S1131930A0EDB7E08C918F7080648C9381818F5F70
S11319408183E181F0E0E257F84F8281E7EDF7E02F
S113195080838081803E51F483E391E09F938F9351
S11319600E94CF100F900F9080E069C0C5EDD7E0C2
S113197088811F928F938AE295E09F938F930E94B0
S1131980B91088810F900F900F900F90893150F00B
S113199083E091E09F938F930E94CF100F900F905C
S11319A080E04DC0EEE8F7E0A0EDB7E08C918F70D9
S11319B080658C9381818F5F8183818190E08057E2
S11319C0984F9093D9078093D8078091D50788239F
S11319D039F08091D50790E001979181890F818337
S11319E0EEE8F7E081818F5F8183A0EDB7E08C9111
S11319F08F7080668C93E181F0E0E257F84F82812A
S1131A00CAEDD7E088838C918F7080678C930E9495
S1131A10A80B9881891751F085EF90E09F938F93DD
S1131A200E94CF100F900F9080E009C089EE90E0E3
S1131A309F938F930E94CF100F900F9081E0DF91BE
S1131A40CF91089590918E07482F50E0FA01319775
S1131A50E830F10508F066C0EC5CFF4F0C94991077
S1131A60E92FF0E0E257F84F81E082830895E92FEF
S1131A70F0E091E0813009F090E0E257F84F928372
S1131A8081E00895892F90E0FC01E257F84F12821B
S1131A909C012F5F3F4F2F733078332334F4215050
S1131AA03109206C3F6F2F5F3F4FF901E257F84F28
S1131AB04AE3428302968F739078992324F4019722
S1131AC0806C9F6F0196FC01E257F84F21E022835E
S1131AD083E00895E82FF0E0E90FF11DEF73FF278D
S1131AE0E257F84F22838F5F01C080E0E82FF0E0D7
S1131AF0EC5CFA4F20812111EDCF0895E82FF0E03E
S1131B00E90FF11DEF73FF27E257F84F22838F5F30
S1131B1001C080E0E82FF0E0E55CFA4F208121115C
S1131B20EDCF089580E00895853B08F084EB282FDD
S1131B3030E0A0EDB7E00E949F1024EB30E040E0DD
S1131B4050E00E947710C9018053984F08950F9375
S1131B501F93CF93DF93EC01042F122F1F926F93E7
S1131B6087E595E09F938F930E94B9101982812F86
S1131B700E94940D9B838A8308831C831D82898120
S1131B80816089830F900F900F900F90DF91CF9118
S1131B901F910F91089587B1807F87B988B1807FA5
S1131BA088B980E480937C0086E880937A00089565
S1131BB08430A0F4ECE7F0E09081907F892B80835F
S1131BC0EAE7F0E080818064808380917A0086FD7A
S1131BD0FCCF8091780090917900089580E090E0A6
S1131BE00895CF93DF93E9E5F7E017821086128218
S1131BF0118216821582D4E1D687C1E0C08386E6BD
S1131C0095E00E94F510E7E0F7E01082C783C087F3
S1131C101282118216821582D687E0E3F7E01082E1
S1131C2082E0878380871282118216821582D6878A
S1131C30E0E2F7E083E087838087128211821682D4
S1131C401582D687C08385E795E00E94F510DF9161
S1131C50CF910895CF93DF93EC01888183FF36C041
S1131C60877F88838985811102C01E821D828F81AE
S1131C700E94D80D2D813E81280F391F3E832D836C
S1131C8099859F5F99879A3008F1ADECBCEC0E946E
S1131C909F109695879596958795969587959C839D
S1131CA08B83198628812B7F28832F819F938F9381
S1131CB01F922F9384E895E09F938F930E94B9100D
S1131CC00F900F900F900F900F900F90DF91CF9186
S1131CD008950F931F93CF93DF93EC018F810E949C
S1131CE0D80D9E838D834A855B856C857D858A01AD
S1131CF09B01080F191F211D311DC901B8010A8755
S1131D001B872C873D8729852F5F29872A3068F018
S1131D102AE030E040E050E00E9477103A832983C3
S1131D201A861B861C861D861986DF91CF911F910A
S1131D300F910895CF92DF92EF92FF92CF93DF93AA
S1131D40EC01AB81BC818E850F2EF4E6CF2ED12C15
S1131D50E12CF12CF02DA7019601281B3109410932
S1131D6051090E94AE10A70196010E947710898143
S1131D709A816C01E12CF12C81E0C216D306E406B1
S1131D80F50608F080E0C216D306E406F50650F422
S1131D909881E92FE295EF7029F49A609F70906121
S1131DA098830FC0C216D306E406F50650F0988156
S1131DB0292F22952F70213021F498609D70906214
S1131DC09883DF91CF91FF90EF90DF90CF900895AB
S1131DD08BB188608BB908958BB1877F8BB90895D7
S1131DE0E1E8F0E08081806480830895E1E8F0E038
S1131DF080818F7B808308959093C5008093C40075
S1131E0088E98093C10086E08093C2000895909190
S1131E10C00095FFFCCF8093C60080E090E0089559
S1131E20EEE8F7E0918180819817C9F0DF01E18144
S1131E30F0E0E257F84F828111962C9130E02F5F49
S1131E403F4F2F733078332334F421503109206C01
S1131E503F6F2F5F3F4F20938F0790E008958FEFE0
S1131E609FEF0895FC01668708950F931F93CF9306
S1131E70DF93EC018C819D81AE81BF8148815981C2
S1131E806A817B818C019D01041B150B260B370B8A
S1131E90B901A801D901C801880F991FAA1FBB1F46
S1131EA0880F991FAA1FBB1F880F991FAA1FBB1F4A
S1131EB0880F991FAA1FBB1F8C019D01040F151FBA
S1131EC0261F371FC901B801660F771F881F991F86
S1131ED020E931E040E050E00E94771028873987FC
S1131EE04A875B878C8580688C87DF91CF911F91AF
S1131EF00F910895DC011F96ED91FC915097309756
S1131F0011F0CB0109950895CF93DF93EC0118826A
S1131F1019821A821B821C821D821E821F821886CD
S1131F2019861A861B861C868C8580628C871D8682
S1131F300E94F00E8F859889892B41F08E85882325
S1131F4029F060EB75E0CE010E947A0FDF91CF910A
S1131F5008950F931F93CF93DF93EC018B010E949D
S1131F60840F81E08E870115110519F4188A1F86E4
S1131F700AC0188B0F878E85882329F06FEC75E0D3
S1131F80CE010E947A0FDF91CF911F910F91089596
S1131F901F93CF93DF93FC012585263071F4162F10
S1131FA0EC010E94840F1E871E85112341F06FE807
S1131FB073E0CE010E947A0F03C010E001C011E06B
S1131FC0812FDF91CF911F910895CF93FC018585D7
S1131FD0882319F085858530C1F4848585FF0BC07D
S1131FE081E08587C685CC23D1F06BEE75E0CF0107
S1131FF00E947A0F15C0C685CC2391F06AE176E081
S1132000CF010E947A0FC0E00BC0C685CC2341F0FB
S113201061E576E0CF010E947A0FC0E001C0C1E023
S11320208C2FCF910895CF93DF93EC018D8583306E
S113203071F128F4813049F08230A1F055C0843028
S1132040E1F1863009F44DC04FC08C8581FF4CC04E
S11320508E85882309F448C06EE776E0CE010E949D
S11320607A0F42C08C8584FD0CC083E08D870E946A
S1132070F60E8E85882329F06DE976E0CE010E9464
S11320807A0F8C8583FF30C086E08D872DC08C85C8
S113209086FF0DC084E08D878E85882329F06AEB46
S11320A076E0CE010E947A0F8C8584608C878C85C3
S11320B083FF1AC086E08D8717C08C8582FF14C009
S11320C0CE010E94350F8C858B7F8C878E8588236B
S11320D029F061ED76E0CE010E947A0F85E08D87CC
S11320E003C08C8588608C87DF91CF910895A1E22D
S11320F01A2EAA1BBB1BFD010DC0AA1FBB1FEE1F7E
S1132100FF1FA217B307E407F50720F0A21BB30BC8
S1132110E40BF50B661F771F881F991F1A9469F744
S113212060957095809590959B01AC01BD01CF01A0
S11321300895EE0FFF1F0590F491E02D0994A29FDE
S1132140B001B39FC001A39F700D811D1124911D87
S1132150B29F700D811D1124911D08950E949F103E
S1132160A59F900DB49F900DA49F800D911D1124E7
S11321700895A0E0B0E0EFEBF0E10C94C613AE01DB
S11321804B5F5F4FFA0161917191AF018091E1075B
S11321909091E2070E942511E2E00C94E213A0E082
S11321A0B0E0E5EDF0E10C94C413AE01495F5F4F7C
S11321B0DA016D917D91AD010FED17E0F801828197
S11321C09381DC0113962C911397286013962C931A
S11321D00E942511D8011296ED91FC911397238149
S11321E0277F2383E4E00C94E0130F931F93CF9392
S11321F0DF93E091E107F091E207238121FF1BC007
S11322008C01D0E0C0E0F80181918F016091E10779
S11322107091E207DB011896ED91FC9119978823E0
S113222031F00995892B79F3DFEFCFEFECCF8AE01A
S11322300995892B19F08FEF9FEF02C08D2F9C2FEA
S1132240DF91CF911F910F910895ABE0B0E0EBE2E5
S1132250F1E10C94B6136C017B018A01FC01178235
S11322601682838181FFCCC1CE0101963C01F60127
S11322709381F70193FD859193FF81917F018823D9
S113228009F4BAC1853239F493FD859193FF8191A4
S11322907F01853229F4B60190E00E941C13E7CF38
S11322A0912C212C312CFFE1F315D8F08B3279F0ED
S11322B038F4803279F08332A1F4232D20611DC0DB
S11322C08D3261F0803369F4232D216016C0832D93
S11322D08260382EE32DE4603E2E2AC0F32DF86090
S11322E01DC037FC2DC020ED280F2A3040F08E325F
S11322F0B9F436FC81C1232D2064322E19C036FE78
S113230006C08AE0989E200D1124922E11C0EAE0A6
S11323102E9E200D1124222EF32DF0623F2E08C094
S11323208C3621F4832D8068382E02C0883641F41F
S1132330F70193FD859193FF81917F018111B3CFC3
S1132340982F9F7D9554933028F40C5F1F4F9FE383
S113235099830DC0833631F0833771F0833509F0EA
S113236059C021C0F801808189830E5F1F4F8824E2
S11323708394912C530113C02801F2E04F0E511C99
S1132380F801A080B18036FE03C0692D70E002C060
S11323906FEF7FEFC5010E9411134C018201F32DF1
S11323A0FF773F2E16C0280122E0420E511CF8018F
S11323B0A080B18036FE03C0692D70E002C06FEFCB
S11323C07FEFC5010E9406134C01F32DF0683F2EE8
S11323D0820133FC1BC0822D90E088169906B0F46C
S11323E0B60180E290E00E941C132A94F4CFF50118
S11323F037FC859137FE81915F01B60190E00E9420
S11324001C1321102A9421E0821A9108811491044A
S113241071F7E8C0843611F0893641F5F80137FECA
S113242007C060817181828193810C5F1F4F08C056
S113243060817181072E000C880B990B0E5F1F4F72
S1132440F32DFF763F2E97FF09C0909580957095E8
S113245061957F4F8F4F9F4FF0683F2E2AE030E009
S1132460A3010E945813882E861845C0853731F47D
S1132470232D2F7EB22E2AE030E025C0932D997FA4
S1132480B92E8F36C1F018F4883579F0B5C080378D
S113249019F0883721F0B0C0E92FE061BE2EB4FEF8
S11324A00DC0FB2DF460BF2E09C034FE0AC0292FD5
S11324B02660B22E06C028E030E005C020E130E0FE
S11324C002C020E132E0F801B7FE07C060817181EB
S11324D0828193810C5F1F4F06C06081718180E00F
S11324E090E00E5F1F4FA3010E945813882E861898
S11324F0FB2DFF773F2E36FE0DC0232D2E7FA22EFF
S1132500891458F434FE0BC032FC09C0832D8E7E2E
S1132510A82E05C0B82CA32C03C0B82C01C0B92C1C
S1132520A4FE0FC0FE01E80DF11D8081803321F46B
S11325309A2D997EA92E09C0A2FE06C0B394B39425
S113254004C08A2D867809F0B394A3FC11C0A0FEC0
S113255006C0B21488F4280C922C9B180EC0B21436
S113256060F4B60180E290E00E941C13B394F7CFAC
S1132570B21418F42B1802C0982C212CA4FE10C0FD
S1132580B60180E390E00E941C13A2FE17C0A1FCD8
S113259003C088E790E002C088E590E0B6010CC073
S11325A08A2D867859F0A1FE02C08BE201C080E238
S11325B0A7FC8DE2B60190E00E941C13891438F444
S11325C0B60180E390E00E941C139A94F7CF8A949A
S11325D0F301E80DF11D8081B60190E00E941C1307
S11325E08110F5CF222009F442CEB60180E290E0BA
S11325F00E941C132A94F6CFF6018681978102C0AB
S11326008FEF9FEF2B96E2E10C94D213FC0105901F
S1132610615070400110D8F7809590958E0F9F1FE0
S11326200895FC016150704001900110D8F7809525
S113263090958E0F9F1F08950F931F93CF93DF9351
S1132640FB01238121FD03C08FEF9FEF2CC022FFEC
S113265016C046815781248135814217530744F4BB
S1132660A081B1819D012F5F3F4F318320838C93E3
S1132670268137812F5F3F4F3783268314C08B0118
S1132680EC01FB010084F185E02D0995892BE1F62D
S1132690D80116968D919C911797019617969C9345
S11326A08E931697CE01DF91CF911F910F910895CC
S11326B0FA01AA27283051F1203181F1E8946F936F
S11326C06E7F6E5F7F4F8F4F9F4FAF4FB1E03ED015
S11326D0B4E03CD0670F781F891F9A1FA11D680FB3
S11326E0791F8A1F911DA11D6A0F711D811D911DE6
S11326F0A11D20D009F468943F912AE0269F11245B
S11327003019305D3193DEF6CF010895462F4770BE
S1132710405D4193B3E00FD0C9F7F6CF462F4F7019
S1132720405D4A3318F0495D31FD4052419302D077
S1132730A9F7EACFB4E0A69597958795779567951D
S1132740BA95C9F700976105710508959B01AC011D
S11327500A2E06945795479537952795BA95C9F744
S1132760620F731F841F951FA01D08952F923F921F
S11327704F925F926F927F928F929F92AF92BF928D
S1132780CF92DF92EF92FF920F931F93CF93DF9339
S1132790CDB7DEB7CA1BDB0B0FB6F894DEBF0FBE96
S11327A0CDBF09942A88398848885F846E847D84E3
S11327B08C849B84AA84B984C884DF80EE80FD80E5
S11327C00C811B81AA81B981CE0FD11D0FB6F8945B
S11127D0DEBF0FBECDBFED010895F894FFCF1C
S11327DE00000001000000000000100F00000000C7
S11327EE000200000000070F0000000037414B55A7
S11327FE5F69496E6974206863737230344465741A
S113280E6563746F722C2073656E736F72206964C6
S113281E6C650053616C69646120412066696E6465
S113282E2073657474696E670053616C696461200A
S113283E41206E6F2073657474696E670053616C0A
S113284E69646120422066696E64207365747469DC
S113285E6E670053616C6964612042206E6F207351
S113286E657474696E670053616C696461204320FA
S113287E66696E642073657474696E670053616C67
S113288E6964612043206E6F2073657474696E678A
S113289E0053595320534F525445522044454255E8
S11328AE47202D204D617472697A20646520646915
S11328BE6D656E73696F6E657320696E69636961A8
S11328CE64610053595320534F525445522044458A
S11328DE425547202D2053616C69646173206167F2
S11328EE72656761646173004E6F2068617920635D
S11328FE616A612070726573656E746520287061FB
S113290E726564206465746563746164612061201A
S113291E2575206D6D290A0043616A612064656D19
S113292E61736961646F2062616A61202825752074
S113293E6D6D292C20646573636172746164610A20
S113294E0043616A61207469706F204120282575E7
S113295E206D6D290A0043616A61207469706F20CD
S113296E4220282575206D6D290A0043616A612075
S113297E7469706F204320282575206D6D290A0017
S113298E43616A61206675657261206465207261B7
S113299E6E676F20282575206D6D292C2064657354
S11329AE636172746164610A004572726F72496E7A
S11329BE69744843535230340053656E736F7220FA
S11329CE6C6962657261646F206465206E756576EC
S11329DE6F0053616C6964612041206275737900E4
S11329EE53616C696461204220627573790053618E
S11329FE6C6964612043206275737900424F585F9D
S1132A0E44495343415244454400424F585F53494D
S1132A1E5A455F4100424F585F53495A455F420041
S1132A2E424F585F53495A455F43005469706F20B3
S1132A3E6E6F207265636F6E6F6369646F00436FB0
S1132A4E6E74616461733A2025750A0048435352CB
S1132A5E30342070657264696F204543484F004CD2
S1132A6E4942204445425547202D20484353523075
S1132A7E3420544D444F555420436C656172656443
S1132A8E0050757368656420736572766F204120FB
S1132A9E616E64207A65726F656420737461746507
S1132AAE2074696D65004465746563746F20656E8A
S1132ABE2049522041005075736865642073657215
S1132ACE766F204220616E64207A65726F65642091
S1132ADE73746174652074696D650044657465630F
S1132AEE746F20656E2049522042005075736865DC
S1132AFE6420736572766F204320616E64207A655C
S1132B0E726F65642073746174652074696D6500F9
S1132B1E4465746563746F20656E204952204300CA
S1132B2E4D656E6F7320646520257520627974651A
S1132B3E7320656E206275666665720A00444542AE
S1132B4E55473A20526571756573743A203078256D
S1132B5E58202D3E20526573706F6E73653A203087
S1132B6E7825580A00506171756574652052435674
S1132B7E20636C65617265642000496E697420700F
S1132B8E726F746F636F6C20736572766963650020
S1132B9E427974652025643A2030782530325820E5
S1132BAE28446563696D616C3A202564290A0043E3
S1132BBE4845434B53554D2043414C432025303219
S1132BCE580A00434845434B53554D2045535045F1
S1132BDE5241444F3A20253032580A0056616C6FE8
S1132BEE7220434D44207061717565746520637263
S1132BFE6561646F202578200A004C656E677468E1
S1132C0E2025750076312E322E330068747470735D
S1132C1E3A2F2F6769746875622E636F6D2F796F03
S1132C2E75727265706F00496E69742053657276A1
S1132C3E6F2025750A0054435254204120454E41BD
S1132C4E424C45440054435254205520454E414273
S1132C5E4C45440053656E736F722063616E616CF4
S1132C6E2025752063616C69627261646F20636FE5
S1132C7E6E207468726573686F6C642025750A0023
S1132C8E4C4942204445425547202D204843535237
S1132C9E303420466C616773205265736574004C42
S1132CAE4942204445425547202D20484353523033
S1132CBE3420496E69636961646F004C4942204453
S1132CCE45425547202D20484353523034205374E7
S1132CDE6172743A20545249474745525F414C4CF5
S1132CEE4F5745442074727565004C494220444543
S1132CFE425547202D20484353523034205374619B
S1132D0E7274206661696C65643A2054524947476F
S1132D1E45525F414C4C4F5745442066616C736578
S1132D2E004C4942204445425547202D20484353E8
S1132D3E523034205374617274206661696C656418
S1132D4E3A2077726F6E67207374617465004C4914
S1132D5E42204445425547202D2054524947474569
S1132D6E525F46494E495348206C6962004C4942B1
S1132D7E204445425547202D204543484F20524973
S1132D8E53494E472062616A6F004C4942204445C4
S1132D9E425547202D2043414C43554C414E444F00
S1132DAE004C4942204445425547202D2043616C36
S1132DBE63756C61646F2C20706173616E646F2037
S1132DCE612065737461646F206C6973746F0000A5
S9030000FC
