S01700004763634170706C69636174696F6E312E737265635B
S11300000C94BB000C94D8000C94D8000C94D80029
S11300100C94D8000C94D8000C94D8000C94F503DC
S11300200C94D8000C94D8000C94DD000C944E0170
S11300300C94D1010C943D010C94D8000C94D8007C
S11300400C94D8000C94D8000C9421030C946E03E7
S11300500C94D8000C94D8000C94D8000C94D800BC
S11300600C94D8000C94D80042746E206F7665729C
S1130070666C6F7765640A0043616C696272616ED5
S1130080646F2073656E736F7265732049522E2EF0
S11300902E0A0053656E6420646F6E650053656EAE
S11300A0640050726F636573617220696E666F0AD3
S11300B000546F646F73206C6F732073656E736F7D
S11300C07265732049522063616C69627261646F66
S11300D0732E0A00496E69636961646F0A00436B99
S11300E0732076616C69646F0A00436B7320696ED8
S11300F076616C69646F0A004C656E677468206D84
S113010061796F7220612032342C20736520706510
S113011072646572696120646174612064656C2035
S11301206275666665720A00436F6D616E646F2066
S1130130696E76616C69646F0A00546F6B656E203A
S1130140696E76616C69646F0A00436B7320696E33
S113015076616C69646F0A00436B732076616C6925
S1130160646F0A005061796C6F616420656E204889
S113017065783A0A000011241FBECFEFD8E0DEBF35
S1130180CDBF16E0A0E0B1E0EAE7F5E202C00590D9
S11301900D92AC3DB107D9F727E0ACEDB6E001C054
S11301A01D92A93AB207E1F70E9409050C94BB120B
S11301B00C9400000E94C30F08951F920F920FB673
S11301C00F9211242F933F938F939F93AF93BF93D9
S11301D0EF93FF9380916007823019F0833019F117
S11301E03FC080915F0784FF3BC02091860030911F
S11301F087008091E20690E0A0E0B0E0DC0199275E
S11302008827820F931FA11DB11D809353079093DC
S11302105407A0935507B0935607EFE5F7E08081A4
S11302208F7E80831DC0209186003091870080914D
S1130230E20690E0A0E0B0E0DC0199278827820F75
S1130240931FA11DB11D8093570790935807A09346
S11302505907B0935A07EFE5F7E080818064808303
S1130260FF91EF91BF91AF919F918F913F912F910A
S11302700F900FBE0F901F9018951F920F920FB6FC
S11302800F9211248F938091E2068F5F8093E20690
S11302908F910F900FBE0F901F9018951F920F9281
S11302A00FB60F921124EF92FF920F931F932F9387
S11302B03F934F935F936F937F938F939F93AF93EA
S11302C0BF93CF93EF93FF93E8E8F0E080819181AF
S11302D0805C93469183808380910B078061809337
S11302E00B07C0E045C0EC2EF12CF701EE0FFF1F09
S11302F0E75BF84F00811181F801818180FF37C0ED
S1130300818181FF08C0818182FD05C080EA9FE070
S11303109383828307C0F80184810E94640CF801EE
S113032093838283C11123C0F701EE0FFF1FE75BA4
S1130330F84FA081B1812C9181E090E002C0880F38
S1130340991F2A95E2F795B1892B85B920918400EC
S1130350309185000190F081E02D82819381820F9C
S1130360931F90938B0080938A001092DD06CF5FD9
S1130370C33008F4B8CFFF91EF91CF91BF91AF9103
S11303809F918F917F916F915F914F913F912F91A9
S11303901F910F91FF90EF900F900FBE0F901F9041
S11303A018951F920F920FB60F9211242F933F931B
S11303B04F935F936F937F938F939F93AF93BF9369
S11303C0CF93DF93EF93FF93E091DD06F0E0EE0F20
S11303D0FF1FE75BF84F0190F081E02D208181E061
S11303E090E002C0880F991F2A95E2F780959095B6
S11303F095B1892385B9E091DD06F0E0EE0FFF1F8A
S1130400E75BF84F0190F081E02D818181FF6BC0A3
S1130410E091DD06F0E0EE0FFF1FE75BF84F01907F
S1130420F081E02D818182FF5EC0E091DD06F0E085
S1130430EE0FFF1FE75BF84F0190F081E02D818103
S11304408B7F8183E091DD06F0E0EE0FFF1FE75B19
S1130450F84F0190F081E02D81818D7F8183E091BF
S1130460DD06F0E0EE0FFF1FE75BF84F0190F0812F
S1130470E02D8AE58483E091DD06F0E0EE0FFF1FB6
S1130480E75BF84FC081D181E091DD06F0E0EE0F2B
S1130490FF1FE75BF84F0190F081E02D84810E94FB
S11304A0640C9B838A838091DD06811107C0E8EF89
S11304B0F6E0828188608E7F828315C08091DD069C
S11304C0813039F4EFE9F7E0828188608E7F82839E
S11304D00AC08091DD06823031F4EFE4F7E08281D6
S11304E088608E7F82838091DD068F5F8093DD0636
S11304F08091DD06833008F091C0E091DD06F0E0E4
S1130500EE0FFF1FE75BF84F0190F081E02D818132
S113051080FF2CC0E091DD06F0E0EE0FFF1FE75BEB
S1130520F84F0190F081E02D208181E090E002C03D
S1130530880F991F2A95E2F795B1892B85B92091E7
S1130540840030918500E091DD06F0E0EE0FFF1F9E
S1130550E75BF84F0190F081E02D82819381820F57
S1130560931F90938B0080938A0058C0E091DD061E
S1130570F0E0EE0FFF1FE75BF84F0190F081E02DF4
S1130580208181E090E002C0880F991F2A95E2F74C
S11305908095909595B1892385B98091DD068F5F0B
S11305A08093DD068091DD068330C0F5E091DD06A1
S11305B0F0E0EE0FFF1FE75BF84F0190F081E02DB4
S11305C0818180FF2BC0E091DD06F0E0EE0FFF1F7C
S11305D0E75BF84F0190F081E02D208181E090E00D
S11305E002C0880F991F2A95E2F795B1892B85B926
S11305F02091840030918500E091DD06F0E0EE0F5B
S1130600FF1FE75BF84F0190F081E02D8281938119
S1130610820F931F90938B0080938A00FF91EF9138
S1130620DF91CF91BF91AF919F918F917F916F9106
S11306305F914F913F912F910F900FBE0F901F909C
S113064018951F920F920FB60F9211242F933F9378
S11306504F935F936F938F939F93EF93FF93609167
S1130660C60020916A0730E0C90101968F71907825
S1130670992324F40197806E9F6F0196482F50911F
S11306806B07851308C08091940781FD19C08260AF
S11306908093940715C0F901E659F84F628380935B
S11306A06A07851710F0451B02C0451B405E4630A3
S11306B038F08091940781FD03C082608093940791
S11306C0FF91EF919F918F916F915F914F913F9126
S11306D02F910F900FBE0F901F9018951F920F929D
S11306E00FB60F9211248F939F93AF93BF93EF9301
S11306F0FF93AAE6B7E01196EC9111978C91E81755
S1130700A9F0F0E0E659F84F82818093C600809109
S11307106B0790E001968F719078992324F40197E8
S1130720806E9F6F019680936B0705C0E1ECF0E04B
S113073080818F7D8083FF91EF91BF91AF919F91D5
S11307408F910F900FBE0F901F901895A4E8B0E002
S113075011961C921E9286B3806286BBEFE6F0E08F
S1130760808187628083E1E8F0E080818064808317
S11307708081826080838D919C91805C934690936C
S11307808900809388000895E1EBF0E08081876020
S113079080838BE98093B300E0E7F0E0808182609E
S11307A080831092B200089584B1806284B985B1C7
S11307B0806285B98AB188608AB984B18E7F84B930
S11307C08AB18F7E8AB984B1826084B984B184602D
S11307D084B984B1886084B90E949B0C8BB1877FF3
S11307E08BB98BB18F7E8BB908951F920F920FB680
S11307F00F9211242F933F934F935F936F937F93A3
S11308008F939F93AF93BF93EF93FF9380910B07C5
S113081081FFEEC080916007813051F580912E07F1
S113082085FD0DC00E94B80DEFE5F7E08081816081
S1130830808380912E07806280932E0719C00E94C6
S1130840BC0DEFE5F7E080818260808380912E0704
S11308508D7D886080932E0780818F7D808382E0E8
S11308608093600780818061808380818D7F808315
S1130870809160078230D1F480915F0784FF16C0B5
S113088080912E078970883089F48091DE06811169
S113089006C08091DE068F5F8093DE0607C08091DC
S11308A02E07816080932E071092DE0680915F07E9
S11308B085FD22C080912E0784FD1EC08091E10633
S11308C0873030F48091E1068F5F8093E10607C0A2
S11308D080912E07806180932E071092E10680910B
S11308E05F0783FF09C060912E0766FB662760F9E6
S11308F083E597E00E949C0E8091DF068A3030F4F5
S11309008091DF068F5F8093DF0607C080910B071D
S1130910886080930B071092DF0680910B0786FF97
S11309200EC08091E0068F3F29F480910B0784600C
S113093080930B078091E0068F5F8093E00680919F
S1130940F30681FF0DC09091F7069A3020F49F5F63
S11309509093F70605C0E2EFF6E015828460818388
S11309608091650781FF0DC0909169079A3020F44A
S11309709F5F9093690705C0E4E6F7E01582846001
S113098081838091300781FF0DC0909134079A30A4
S113099020F49F5F9093340705C0EFE2F7E01582DF
S11309A0846081838091350780FF05C083FD03C087
S11309B08860809335078091E30680FF05C083FD3E
S11309C003C088608093E30680910C0780FF07C012
S11309D083FD05C0ECEFF6E0808188608083809120
S11309E0FC0680FF05C083FD03C088608093FC067D
S11309F0FF91EF91BF91AF919F918F917F916F91F3
S1130A005F914F913F912F910F900FBE0F901F90C8
S1130A10189580E880932E0782E880930B07109244
S1130A202D0788E090E00E94CC0DE3EAF7E08EE029
S1130A3091E09383828380E091E0918380838AE6CE
S1130A4097E00E940D0B1092DF060E94D4030E94CF
S1130A50A6030E94C4030E94C10C6AED70E083E502
S1130A6097E00E947D0E60912E0766FB662760F971
S1130A7083E597E00E94060E4CEF56E063E577E0CD
S1130A8084E497E00E94E6068BE197E00E947507F4
S1130A9080912E07826080932E0784ED90E09F93CF
S1130AA08F930E949D0F78940F900F9080910B0765
S1130AB085FF05C08BE197E00E9471097DC080919C
S1130AC0DC06811127C088E790E09F938F930E94F2
S1130AD09D0F809135070F900F9080FF03C08460B5
S1130AE0809335078091E30680FF03C08460809380
S1130AF0E30680910C0780FF03C0846080930C0799
S1130B008091FC0680FF03C084608093FC0681E032
S1130B108093DC068091350782FF04C085E397E06B
S1130B200E94FA0C8091E30682FF04C083EE96E0F3
S1130B300E94FA0C80910C0782FF04C08CE097E0BD
S1130B400E94FA0C8091FC0682FF04C08CEF96E0B0
S1130B500E94FA0C8091350782FD0EC08091E30655
S1130B6082FD0CC080910C0782FD0AC08091FC06B6
S1130B7082FF08C080E007C080E005C080E003C0B9
S1130B8080E001C081E08823B9F081EB90E09F937D
S1130B908F930E949D0F80910B07806280930B07B7
S1130BA010923E071092EC0610921507109205075A
S1130BB00E9400070F900F906BE177E084E497E0C8
S1130BC00E9425080E944C0A4C9B0AC080910B0786
S1130BD086FD06C01092E006806480930B072CC04B
S1130BE080910B0786FF28C04C9926C08F7B809389
S1130BF00B0782FF08C088E690E09F938F930E94C2
S1130C009D0F0F900F908091E0068A3030F4809110
S1130C100B07982F947082FF06C080910B078160A8
S1130C2080930B0709C01092E006992329F0809164
S1130C300B078B7F80930B078091940781FF1AC069
S1130C4080FD18C082EA90E09F938F930E949D0FCD
S1130C500E94A60A0F900F90882339F0EAE6F7E085
S1130C6082A58F70816182A705C0EAE6F7E082A5BC
S1130C70846082A78091940782FF08C0EAE6F7E0C7
S1130C8090819183887082A70E94FE0A80919407C4
S1130C9080FF22C00E94C30B8823C1F0CAE6D7E0BC
S1130CA08AA58F7080688AA789A990E00E94C40AE7
S1130CB089AB9AA598609AA740E060E070E00E9432
S1130CC0880B8AA5867080698AA706C0EAE6F7E0E1
S1130CD082A58E7F846082A78091940782958F700D
S1130CE0893071F48DE990E09F938F930E949D0F5A
S1130CF0EAE6F7E082A58F70806A82A70F900F90D2
S1130D008091940782958F708A3069F483E990E02A
S1130D109F938F930E949D0FEAE6F7E082A58F7060
S1130D2082A70F900F9080912E0784FF08C08F7EBA
S1130D3080932E07EFE5F7E08081806280838091C5
S1130D400B0783FF08C0877F80930B0780912E07D2
S1130D50826080932E0780910B0780FF03C08E7FF3
S1130D6080930B0780910B0784FFA0CE8F7E809326
S1130D700B078091350780FF07C082FF05C083FD04
S1130D8003C08860809335078091E30680FF07C025
S1130D9082FF05C083FD03C088608093E3068091D1
S1130DA00C0780FF07C082FF05C083FD03C0886075
S1130DB080930C078091FC0680FF78CE82FF76CE6C
S1130DC083FD74CE88608093FC0670CECF93DF934E
S1130DD000D0CDB7DEB7FC015A83498383E597E0A1
S1130DE091838083CE01019693838283148282E26D
S1130DF091E00E94C30F0F900F90DF91CF9108955F
S1130E00CF93DF932AE530E041E050E060E070E00A
S1130E1082EF96E00E94770C2AE530E042E050E051
S1130E2061E070E084E697E00E94770CE9E4F7E083
S1130E3082EF96E09183808384E697E093838283B4
S1130E408FE297E0958384831092DD0680912D07CD
S1130E5080FF05C083E491E00E94C30F07C089E5C9
S1130E6091E00E94C30F82E08093FB0680912D07DE
S1130E7081FF05C08DE691E00E94C30F07C083E89F
S1130E8091E00E94C30F81E08093A20780912D0717
S1130E9083FF05C087E991E00E94C30F07C08DEA74
S1130EA091E00E94C30F83E080935207C8EFD6E01D
S1130EB081E0898380913D078883AFE9B7E082E0D0
S1130EC011968C9311978091EB068C93EFE4F7E0E5
S1130ED083E0818380911407808388E08A8312965B
S1130EE08C938283DF91CF910895FC018CE191E092
S1130EF09183808388EF96E0938382838FE997E0E0
S1130F00958384838FE497E09783868380912E076B
S1130F10882344F481EC91E00E94C30F83EF91E0B5
S1130F200E94C30F08958E3B98F090912E07992349
S1130F300CF083C01F928F9388E192E09F938F936C
S1130F400E94870F0F900F900F900F9084E00895E8
S1130F509EEB981B973398F480912E07807809F4C0
S1130F6073C01F929F9388E492E09F938F930E9493
S1130F70870F0F900F900F900F9080E00895DB0182
S1130F80ED91FC9180819817B0F08181891798F0D8
S1130F9080912E0788230CF052C01F929F9381E703
S1130FA092E09F938F930E94870F0F900F900F9062
S1130FB00F9081E0089582819817A8F083818917A2
S1130FC090F080912E078823E4F51F929F9386E882
S1130FD092E09F938F930E94870F0F900F900F9032
S1130FE00F9082E0089584819817A8F0858189176D
S1130FF090F080912E07882334F51F929F938BE9FC
S113100092E09F938F930E94870F0F900F900F9001
S11310100F9083E0089580912E078078A9F01F92A5
S11310209F9380EB92E09F938F930E94870F0F9082
S11310300F900F900F9080E0089584E0089581E070
S1131040089582E0089583E00895FF920F931F931B
S1131050CF93DF93EC018B0180910B078823BCF5C0
S1131060E881F981848585FF32C080912E0781FF54
S11310702EC08C8181FF2BC0CF010E94B90E882322
S1131080C1F080912E0786FF04C08EED92E00E948D
S1131090C30F80910B078F7780930B0780912E07E6
S11310A08D7F80932E07E881F98184858F7D8487E5
S11310B00EC080912E0786FF04C089ED92E00E9445
S11310C0C30F80912E0784608D7F80932E078881C3
S11310D099810E94E70EE881F9818585853009F0C0
S11310E0C9C0848588230CF0C5C084858F77848724
S11310F0E881F98180859185A285B3858F3B91052F
S1131100A105B105B0F08C8181608C83982F9295F4
S11311109F70923051F48F708C8380912E078823B6
S113112024F489EE92E00E94C30F8C818F708C832B
S113113095C08C81982F92959F7009F08FC08F7005
S113114080618C8380859185A285B385B8010E94D6
S11311509307F82E84E0F81609F47CC08091FB060E
S1131160F8120AC0E8EFF6E082818160828382E0AF
S113117093E00E94C30F20C08091A207F8120AC016
S1131180EFE9F7E082818160828380E193E00E944D
S1131190C30F12C080915207F8120AC0EFE4F7E0BF
S11311A08281816082838EE193E00E94C30F04C038
S11311B08CE293E00E94C30FE1E0FE1649F0FE16B4
S11311C040F1F2E0FF1679F083E0F816B9F02CC094
S11311D08AE393E00E94C30FF80182859385019608
S11311E09387828725C085E493E00E94C30FF801AA
S11311F0848595850196958784871AC080E593E058
S11312000E94C30FF8018685978501969787868784
S11312100FC08CE293E00E94C30FF801808991898A
S11312200196918B808B04C08BE593E00E94C30FE1
S1131230F801808591850196918780879F938F938C
S11312408EE693E09F938F930E94870F0F900F90E9
S11312500F900F908C818F7080628C83888199812C
S11312600E94580EE881F981158680910B078068E9
S113127080930B0780912E0780FF2DC086FF04C04A
S11312808CE793E00E94C30F80912E078E7F877FA7
S113129080932E07E881F981848588608487E881BA
S11312A0F98186E0858760912E0766FB662760F9E1
S11312B0888199810E949C0E882341F080912E0799
S11312C086FF04C08FE893E00E94C30F80910B0750
S11312D0806880930B07DF91CF911F910F91FF904E
S11312E008958091350780FF09C083FF07C0877F79
S11312F08093350785E397E00E94390D85E397E0F5
S11313000E946A0D892B11F18091350782958F70A7
S11313108230E1F48091FA0683FF0FC080FF0DC094
S1131320877F8093FA06E2EFF6E081818260818311
S1131330158281EB93E00E94C30FE5E3F7E080811F
S11313408F70808386ED93E00E94C30F8091E30643
S113135080FF09C083FF07C0877F8093E30683EE85
S113136096E00E94390D83EE96E00E946A0D892B67
S113137011F18091E30682958F708230E1F48091BF
S1131380A10783FF0FC080FF0DC0877F8093A10753
S1131390E4E6F7E0818182608183158286EE93E042
S11313A00E94C30FE3EEF6E080818F7080838BE0B0
S11313B094E00E94C30F80910C0780FF09C083FF53
S11313C007C0877F80930C078CE097E00E94390D5B
S11313D08CE097E00E946A0D892B11F180910C0733
S11313E082958F708230E1F48091510783FF0FC0A2
S11313F080FF0DC0877F80935107EFE2F7E0818182
S11314008260818315828BE194E00E94C30FECE03B
S1131410F7E080818F70808380E494E00E94C30FA2
S11314208091FC0680FF09C083FF07C0877F8093FB
S1131430FC068CEF96E00E94390D8CEF96E00E943A
S11314406A0D892BE1F09091FC06892F82958F70AB
S1131450813041F42091480721FD04C0226020938B
S1131460480708958230B9F48091480781FF13C07A
S11314708D7F809348079F709093FC060895809118
S1131480480781FF08C08D7F80934807ECEFF6E0A2
S113149080818F7080830895089580916B0790E018
S11314A0FC01E659F84F4281453509F04BC09C01D7
S11314B02F5F3F4F2F713078332334F4215031099B
S11314C0206E3F6F2F5F3F4FF9019C012E5F3F4F0E
S11314D02F713078332334F421503109206E3F6F5B
S11314E02F5F3F4F03968F719078992324F40197CF
S11314F0806E9F6F019650E0440F551F440F551F97
S1131500FF27E659F84F628170E0FB01EE0FFF1FE1
S11315106E0F7F1F460F571F3327F901E659F84F07
S1131520228130E0220F331F420F531FFC01FF279B
S1131530E659F84F2281420F4A3131F480936B0708
S113154081E0089580E0089580E00895EAE6F7E0F8
S113155080819181891710F0891B02C0891B805EEC
S1131560863078F41F9286E08F9380E594E09F9311
S11315708F930E94870F0F900F900F900F9080E031
S113158008950E944D0A0895CF93803CA9F038F441
S1131590813B81F0823BF1F0803AD1F417C0803F67
S11315A099F018F4813C51F013C0813F49F0823F17
S11315B049F00EC0C1E00FC0C3E00DC0C4E00BC0D1
S11315C0C6E009C0C5E007C0C7E005C0C9E003C064
S11315D0C0EE01C0C2E01F92CF931F928F938DE69D
S11315E094E09F938F930E94870F0F900F900F901A
S11315F00F900F900F908C2FCF910895EAE6F7E0AB
S113160014AA11AA17A610AAA2A9B3A91C9213A6D8
S113161085E994E00E94C30F0895FC0112821182AF
S1131620108212A60E94FE0A8AEA94E00E94C30F66
S113163008950F931F93CF93DF93EAE6F7E007A58E
S113164086E3082781A9082784E691E09F938F9376
S11316500E949D0F0F900F90C0E0D0E01DC0E0915C
S11316609C07F0919D07EC0FFD1F10811F921F93A3
S11316701F921F93DF93CF9380EC94E09F938F93FB
S11316800E94870F012721968DB79EB708960FB643
S1131690F8949EBF0FBE8DBF8091990790E0C81744
S11316A0D907ECF21F920F938FED94E09F938F93E1
S11316B00E94870FCAE6D7E08CA91F928F9383EF0D
S11316C094E09F938F930E94870F8CA92DB73EB708
S11316D0285F3F4F0FB6F8943EBF0FBE2DBF0813CF
S11316E009C088E591E09F938F930E949D0F0F900E
S11316F00F9008C08AE491E09F938F930E949D0FFE
S11317000F900F90802FDF91CF911F910F9108952B
S1131710EAE6F7E095E593A79EE494A795E495A7F8
S113172092E596A747A79AE390AB81AB6115710543
S113173021F070939D0760939C079CE094272AE313
S11317409227982720E030E00AC0E0919C07F091AE
S11317509D07E20FF31F508195272F5F3F4F642FA2
S113176070E0261737078CF390939E071F928F9390
S11317708CE095E09F938F930E94870F0F900F90BA
S11317800F900F900895CF93DF93AAE6B7E09A964F
S11317908C919A971196EC911197EF5FCE2FD0E030
S11317A0C659D84F9A819F969C939F978F70806358
S11317B09A968C939A97EF5F1196EC93AE2FB0E0C4
S11317C0A659B84F12962C912A3351F08AE391E02E
S11317D09F938F930E949D0F0F900F9080E071C094
S11317E0AAE6B7E08F7080649A968C939A97EF5F1D
S11317F01196EC931197F0E0E659F84F8281D19657
S11318008C93803E51F488E291E09F938F930E94E1
S11318109D0F0F900F9080E054C01F929F938AE217
S113182095E09F938F930E94870F209199070F90C3
S11318300F900F900F90293150F088EF90E09F9314
S11318408F930E949D0F0F900F9080E03AC0EAE6BC
S1131850F7E082A58F70806582A791819F5F918355
S1131860492F50E04459584F53AB42AB222321F047
S1131870920F915090936B07CAE6D7E0E981EF5F2E
S1131880E983F0E0E659F84F92819CAB8F70806752
S11318908AA70E94190B9CA9891751F08AEE90E03F
S11318A09F938F930E949D0F0F900F9080E009C02B
S11318B08EED90E09F938F930E949D0F0F900F9059
S11318C081E0DF91CF910895853B08F084EB282FC8
S11318D030E0A0EDB7E00E946D0F24EB30E040E073
S11318E050E00E944B0FC9018053984F08950F9305
S11318F01F93CF93DF93EC01042F122F1F926F934A
S113190084E395E09F938F930E94870F1982812F20
S11319100E94640C9B838A8308831C831D828981B3
S1131920816089830F900F900F900F90DF91CF917A
S11319301F910F91089587B1807F87B988B1807F07
S113194088B980E480937C0086E880937A000895C7
S11319508430A0F4ECE7F0E09081907F892B8083C1
S1131960EAE7F0E080818064808380917A0086FDDC
S1131970FCCF8091780090917900089580E090E008
S11319800895CF93DF93E5E3F7E017821086128280
S1131990118216821582D4E1D687C1E0C08383E424
S11319A095E00E94C30FE3EEF6E01082C783C08780
S11319B01282118216821582D687ECE0F7E010823B
S11319C082E0878380871282118216821582D687ED
S11319D0ECEFF6E083E0878380871282118216821F
S11319E01582D687C08382E595E00E94C30FDF91FC
S11319F0CF910895CF93DF93EC01888183FF36C0A4
S1131A00877F88838985811102C01E821D828F8110
S1131A100E94A80C2D813E81280F391F3E832D83FF
S1131A2099859F5F99879A3008F1ADECBCEC0E94D0
S1131A306D0F9695879596958795969587959C8332
S1131A408B83198628812B7F28832F819F938F93E3
S1131A501F922F9381E695E09F938F930E94870FA7
S1131A600F900F900F900F900F900F90DF91CF91E8
S1131A7008950F931F93CF93DF93EC018F810E94FE
S1131A80A80C9E838D834A855B856C857D858A0140
S1131A909B01080F191F211D311DC901B8010A87B7
S1131AA01B872C873D8729852F5F29872A3068F07B
S1131AB02AE030E040E050E00E944B0F3A83298353
S1131AC01A861B861C861D861986DF91CF911F916D
S1131AD00F910895CF92DF92EF92FF92CF93DF930D
S1131AE0EC01AB81BC818E850F2EF4E6CF2ED12C78
S1131AF0E12CF12CF02DA7019601281B3109410995
S1131B0051090E947C0FA70196010E944B0F898105
S1131B109A816C01E12CF12C81E0C216D306E40613
S1131B20F50608F080E0C216D306E406F50650F484
S1131B309881E92FE295EF7029F49A609F70906183
S1131B4098830FC0C216D306E406F50650F09881B8
S1131B50292F22952F70213021F498609D70906276
S1131B609883DF91CF91FF90EF90DF90CF9008950D
S1131B708BB188608BB908958BB1877F8BB9089539
S1131B80E1E8F0E08081806480830895E1E8F0E09A
S1131B9080818F7B808308959093C5008093C400D7
S1131BA088E98093C10086E08093C2000895CF93B2
S1131BB0C82F8A3019F48DE00E94D70D8091C0009F
S1131BC085FFFCCFC093C60080E090E0CF910895DC
S1131BD0EAE6F7E0218180812817A9F030E0F901D5
S1131BE0E659F84F82812F5F3F4F2F7130783323AE
S1131BF034F421503109206E3F6F2F5F3F4F209303
S1131C006B0790E008958FEF9FEF0895FC016687BE
S1131C1008950F931F93CF93DF93EC018C819D81E3
S1131C20AE81BF81488159816A817B818C019D018C
S1131C30041B150B260B370BB901A801D901C801E8
S1131C40880F991FAA1FBB1F880F991FAA1FBB1FAC
S1131C50880F991FAA1FBB1F880F991FAA1FBB1F9C
S1131C608C019D01040F151F261F371FC901B801E0
S1131C70660F771F881F991F20E931E040E050E08C
S1131C800E944B0F288739874A875B878C85806839
S1131C908C87DF91CF911F910F910895DC011F96DE
S1131CA0ED91FC915097309711F0CB01099508956F
S1131CB0CF93DF93EC01188219821A821B821C8253
S1131CC01D821E821F82188619861A861B861C8610
S1131CD08C8580628C871D860E94C00D8F859889B3
S1131CE0892B41F08E85882329F06DE875E0CE01BB
S1131CF00E944E0EDF91CF9108950F931F93CF93BF
S1131D00DF93EC018B010E94580E81E08E87011550
S1131D10110519F4188A1F860AC0188B0F878E853F
S1131D20882329F06CEA75E0CE010E944E0EDF9103
S1131D30CF911F910F9108951F93CF93DF93FC01CF
S1131D402585263071F4162FEC010E94580E1E874B
S1131D501E85112341F06FE873E0CE010E944E0E00
S1131D6003C010E001C011E0812FDF91CF911F91DA
S1131D700895CF93FC018585882319F085858530E6
S1131D80C1F4848585FF0BC081E08587C685CC239B
S1131D90D1F068EC75E0CF010E944E0E15C0C685E7
S1131DA0CC2391F067EF75E0CF010E944E0EC0E0A6
S1131DB00BC0C685CC2341F06EE276E0CF010E94D1
S1131DC04E0EC0E001C0C1E08C2FCF910895CF9397
S1131DD0DF93EC018D85833071F128F4813049F073
S1131DE08230A1F055C08430E1F1863009F44DC051
S1131DF04FC08C8581FF4CC08E85882309F448C070
S1131E006BE576E0CE010E944E0E42C08C8584FDC7
S1131E100CC083E08D870E94C60D8E85882329F02F
S1131E206AE776E0CE010E944E0E8C8583FF30C0B7
S1131E3086E08D872DC08C8586FF0DC084E08D875C
S1131E408E85882329F067E976E0CE010E944E0E44
S1131E508C8584608C878C8583FF1AC086E08D878F
S1131E6017C08C8582FF14C0CE010E94090E8C8598
S1131E708B7F8C878E85882329F06EEA76E0CE01ED
S1131E800E944E0E85E08D8703C08C8588608C8708
S1131E90DF91CF910895A1E21A2EAA1BBB1BFD016D
S1131EA00DC0AA1FBB1FEE1FFF1FA217B307E40735
S1131EB0F50720F0A21BB30BE40BF50B661F771F8D
S1131EC0881F991F1A9469F760957095809590956D
S1131ED09B01AC01BD01CF010895A29FB001B39F46
S1131EE0C001A39F700D811D1124911DB29F700D1F
S1131EF0811D1124911D08950E946D0FA59F900DC1
S1131F00B49F900DA49F800D911D11240895A0E00D
S1131F10B0E0EDE8FFE00C949412AE014B5F5F4F2C
S1131F20FA0161917191AF018091A5079091A60783
S1131F300E94F30FE2E00C94B012A0E0B0E0E3EAF8
S1131F40FFE00C949212AE01495F5F4FDA016D918C
S1131F507D91AD0103EA17E0F80182819381DC01F0
S1131F6013962C911397286013962C930E94F30FC9
S1131F70D8011296ED91FC9113972381277F238337
S1131F80E4E00C94AE120F931F93CF93DF93E09190
S1131F90A507F091A607238121FF1BC08C01D0E087
S1131FA0C0E0F80181918F016091A5077091A607A7
S1131FB0DB011896ED91FC911997882331F009956E
S1131FC0892B79F3DFEFCFEFECCF8AE00995892BEA
S1131FD019F08FEF9FEF02C08D2F9C2FDF91CF91CF
S1131FE01F910F910895ABE0B0E0E9EFFFE00C948E
S1131FF084126C017B018A01FC01178216828381A1
S113200081FFCCC1CE0101963C01F6019381F70119
S113201093FD859193FF81917F01882309F4BAC1CF
S1132020853239F493FD859193FF81917F01853247
S113203029F4B60190E00E94EA11E7CF912C212CFB
S1132040312CFFE1F315D8F08B3279F038F480327B
S113205079F08332A1F4232D20611DC08D3261F00B
S1132060803369F4232D216016C0832D8260382EBD
S1132070E32DE4603E2E2AC0F32DF8601DC037FC2A
S11320802DC020ED280F2A3040F08E32B9F436FCF2
S113209081C1232D2064322E19C036FE06C08AE089
S11320A0989E200D1124922E11C0EAE02E9E200D40
S11320B01124222EF32DF0623F2E08C08C3621F419
S11320C0832D8068382E02C0883641F4F70193FDD1
S11320D0859193FF81917F018111B3CF982F9F7DCB
S11320E09554933028F40C5F1F4F9FE399830DC0E0
S11320F0833631F0833771F0833509F059C021C03C
S1132100F801808189830E5F1F4F88248394912C6A
S1132110530113C02801F2E04F0E511CF801A080B6
S1132120B18036FE03C0692D70E002C06FEF7FEF0F
S1132130C5010E94DF114C018201F32DFF773F2E70
S113214016C0280122E0420E511CF801A080B18083
S113215036FE03C0692D70E002C06FEF7FEFC5014A
S11321600E94D4114C01F32DF0683F2E820133FC00
S11321701BC0822D90E088169906B0F4B60180E267
S113218090E00E94EA112A94F4CFF50137FC85917E
S113219037FE81915F01B60190E00E94EA1121109F
S11321A02A9421E0821A91088114910471F7E8C0FD
S11321B0843611F0893641F5F80137FE07C0608195
S11321C07181828193810C5F1F4F08C0608171818E
S11321D0072E000C880B990B0E5F1F4FF32DFF7613
S11321E03F2E97FF09C090958095709561957F4F1C
S11321F08F4F9F4FF0683F2E2AE030E0A3010E94EA
S11322002612882E861845C0853731F4232D2F7E5B
S1132210B22E2AE030E025C0932D997FB92E8F3657
S1132220C1F018F4883579F0B5C0803719F08837D3
S113223021F0B0C0E92FE061BE2EB4FE0DC0FB2D2D
S1132240F460BF2E09C034FE0AC0292F2660B22EC6
S113225006C028E030E005C020E130E002C020E103
S113226032E0F801B7FE07C06081718182819381F9
S11322700C5F1F4F06C06081718180E090E00E5FAB
S11322801F4FA3010E942612882E8618FB2DFF776C
S11322903F2E36FE0DC0232D2E7FA22E891458F416
S11322A034FE0BC032FC09C0832D8E7EA82E05C0DF
S11322B0B82CA32C03C0B82C01C0B92CA4FE0FC0A9
S11322C0FE01E80DF11D8081803321F49A2D997E61
S11322D0A92E09C0A2FE06C0B394B39404C08A2DEB
S11322E0867809F0B394A3FC11C0A0FE06C0B21412
S11322F088F4280C922C9B180EC0B21460F4B6011A
S113230080E290E00E94EA11B394F7CFB21418F47B
S11323102B1802C0982C212CA4FE10C0B60180E317
S113232090E00E94EA11A2FE17C0A1FC03C088E756
S113233090E002C088E590E0B6010CC08A2D867852
S113234059F0A1FE02C08BE201C080E2A7FC8DE23D
S1132350B60190E00E94EA11891438F4B60180E3D2
S113236090E00E94EA119A94F7CF8A94F301E80D61
S1132370F11D8081B60190E00E94EA118110F5CF31
S1132380222009F442CEB60180E290E00E94EA11D4
S11323902A94F6CFF6018681978102C08FEF9FEFD2
S11323A02B96E2E10C94A012FC0105906150704060
S11323B00110D8F7809590958E0F9F1F0895FC010A
S11323C06150704001900110D8F7809590958E0F60
S11323D09F1F08950F931F93CF93DF93FB012381D6
S11323E021FD03C08FEF9FEF2CC022FF16C0468152
S11323F05781248135814217530744F4A081B18168
S11324009D012F5F3F4F318320838C932681378139
S11324102F5F3F4F3783268314C08B01EC01FB01F0
S11324200084F185E02D0995892BE1F6D8011696F3
S11324308D919C911797019617969C938E9316975E
S1132440CE01DF91CF911F910F910895FA01AA2730
S1132450283051F1203181F1E8946F936E7F6E5FE3
S11324607F4F8F4F9F4FAF4FB1E03ED0B4E03CD091
S1132470670F781F891F9A1FA11D680F791F8A1F74
S1132480911DA11D6A0F711D811D911DA11D20D0DB
S113249009F468943F912AE0269F11243019305D95
S11324A03193DEF6CF010895462F4770405D419386
S11324B0B3E00FD0C9F7F6CF462F4F70405D4A33D3
S11324C018F0495D31FD4052419302D0A9F7EACF9B
S11324D0B4E0A6959795879577956795BA95C9F7CA
S11324E000976105710508959B01AC010A2E0694BD
S11324F05795479537952795BA95C9F7620F731F76
S1132500841F951FA01D08952F923F924F925F92B2
S11325106F927F928F929F92AF92BF92CF92DF92EF
S1132520EF92FF920F931F93CF93DF93CDB7DEB754
S1132530CA1BDB0B0FB6F894DEBF0FBECDBF0994E8
S11325402A88398848885F846E847D848C849B843F
S1132550AA84B984C884DF80EE80FD800C811B814D
S1132560AA81B981CE0FD11D0FB6F894DEBF0FBE7C
S10D2570CDBFED010895F894FFCFEC
S113257A00000001000000000000E80D0000000057
S113258A000200000000D70D0000000037414B553F
S113259A5F69496E69742068637372303444657480
S11325AA6563746F722C2073656E736F722069642D
S11325BA6C650053616C69646120412066696E64CC
S11325CA2073657474696E670053616C6964612071
S11325DA41206E6F2073657474696E670053616C71
S11325EA69646120422066696E6420736574746943
S11325FA6E670053616C6964612042206E6F2073B8
S113260A657474696E670053616C69646120432060
S113261A66696E642073657474696E670053616CCD
S113262A6964612043206E6F2073657474696E67F0
S113263A0053595320534F5254455220444542554E
S113264A47202D204D617472697A2064652064697B
S113265A6D656E73696F6E657320696E696369610E
S113266A64610053595320534F52544552204445F0
S113267A425547202D2053616C6964617320616758
S113268A72656761646173004E6F206861792063C3
S113269A616A612070726573656E74652028706161
S11326AA7265642064657465637461646120612081
S11326BA2575206D6D290A0043616A612064656D80
S11326CA61736961646F2062616A612028257520DB
S11326DA6D6D292C20646573636172746164610A87
S11326EA0043616A61207469706F2041202825754E
S11326FA206D6D290A0043616A61207469706F2034
S113270A4220282575206D6D290A0043616A6120DB
S113271A7469706F204320282575206D6D290A007D
S113272A43616A612066756572612064652072611D
S113273A6E676F20282575206D6D292C20646573BA
S113274A636172746164610A004572726F72496EE0
S113275A69744843535230340053656E736F722060
S113276A6C6962657261646F206465206E75657652
S113277A6F0053616C69646120412062757379004A
S113278A53616C69646120422062757379005361F4
S113279A6C6964612043206275737900424F585F03
S11327AA44495343415244454400424F585F5349B4
S11327BA5A455F4100424F585F53495A455F4200A8
S11327CA424F585F53495A455F43005469706F201A
S11327DA6E6F207265636F6E6F6369646F00436F17
S11327EA6E74616461733A2025750A004843535232
S11327FA30342070657264696F204543484F004C39
S113280A4942204445425547202D204843535230DB
S113281A3420544D444F555420436C6561726564A9
S113282A0050757368656420736572766F20412061
S113283A616E64207A65726F65642073746174656D
S113284A2074696D65004465746563746F20656EF0
S113285A204952204100507573686564207365727B
S113286A766F204220616E64207A65726F656420F7
S113287A73746174652074696D6500446574656375
S113288A746F20656E204952204200507573686542
S113289A6420736572766F204320616E64207A65C2
S11328AA726F65642073746174652074696D650060
S11328BA4465746563746F20656E20495220430031
S11328CA4D656E6F73206465202575206279746581
S11328DA7320656E206275666665720A0044454215
S11328EA55473A20526571756573743A20307825D4
S11328FA58202D3E20526573706F6E73653A2030EE
S113290A7825580A005061717565746520524356DA
S113291A20636C65617265642000496E6974207075
S113292A726F746F636F6C20736572766963650086
S113293A427974652025643A20307825303258204B
S113294A28446563696D616C3A202564290A004349
S113295A4845434B53554D2043414C43202530327F
S113296A580A00434845434B53554D204553504557
S113297A5241444F3A20253032580A0056616C6F4E
S113298A7220434D442070617175657465206372C9
S113299A6561646F202578200A004C656E67746847
S11329AA20257500496E697420536572766F202557
S11329BA750A0054435254204120454E41424C4525
S11329CA440054435254205520454E41424C4544F8
S11329DA0053656E736F722063616E616C20257596
S11329EA2063616C69627261646F20636F6E207424
S11329FA68726573686F6C642025750A004C4942D5
S1132A0A204445425547202D204843535230342010
S1132A1A466C616773205265736574004C494220A1
S1132A2A4445425547202D204843535230342049C7
S1132A3A6E69636961646F004C494220444542559A
S1132A4A47202D2048435352303420537461727402
S1132A5A3A20545249474745525F414C4C4F5745D7
S1132A6A442074727565004C4942204445425547D6
S1132A7A202D2048435352303420537461727420F9
S1132A8A6661696C65643A20545249474745525F06
S1132A9A414C4C4F5745442066616C7365004C4960
S1132AAA42204445425547202D204843535230344E
S1132ABA205374617274206661696C65643A207784
S1132ACA726F6E67207374617465004C49422044C6
S1132ADA45425547202D20545249474745525F469F
S1132AEA494E495348206C6962004C494220444586
S1132AFA425547202D204543484F20524953494EB9
S1132B0A472062616A6F004C494220444542554756
S1132B1A202D2043414C43554C414E444F004C49CF
S1132B2A42204445425547202D2043616C63756C0D
S1132B3A61646F2C20706173616E646F206120651B
S10F2B4A737461646F206C6973746F0015
S9030000FC
