S01700004763634170706C69636174696F6E312E737265635B
S11300000C9496030C94B3030C94B3030C94B303B1
S11300100C94B3030C94B3030C94B3030C94F20642
S11300200C94B3030C94B3030C94B8030C942904F8
S11300300C94C5040C9418040C94B3030C94B303EB
S11300400C94B3030C94B3030C9439060C949C06DF
S11300500C94B3030C94B3030C94B3030C94B30344
S11300600C94B3030C94B303E80FEA10EA10EA10FB
S1130070EA10EA10EA10EA10EA10EA10EA10EA10AC
S1130080EA10EA10EA10EA10EA10F60FF60FEA1086
S1130090EA10EA10EA10EA10EA10EA10EA10EA108C
S11300A0EA10EA10EA10EA1025100D10EA10EA101E
S11300B0EA10EA10EA10EA10EA10EA10EA10EA106C
S11300C0EA10EA10EA10EA10EA10EA10EA10EA105C
S11300D0EA10EA10EA10EA10EA10EA10EA10EA104C
S11300E0EA10EA10EA10EA10EA10EA10EA10EA103C
S11300F0EA10EA10EA10EA10EA10EA10EA10EA102C
S1130100EA10EA10EA10EA10A310A910B710CD10F3
S1130110D310B51118121812181218121812181236
S1130120181218121812181218121812181218127B
S113013018121812BE11C711181218121812181218
S1130140181218121812181218121812181218125B
S11301501812D011D91118121812181218121812D4
S1130160181218121812181218121812181218123B
S1130170181218121812181218121812181218122B
S1130180181218121812181218121812181218121B
S113019018120F1218121812181218121812181214
S11301A018121812181218121812181218121812FB
S11301B01812E211EB11F411FD11061242746E20B3
S11301C06F766572666C6F7765640A0043616C696B
S11301D06272616E646F2073656E736F72657320F3
S11301E049522E2E2E0A00436F6D616E646F20619A
S11301F06365707461646F200A00546F646F7320C8
S11302006C6F732073656E736F726573204952202F
S113021063616C69627261646F732E0A00496E696E
S1130220636961646F0A00536572766F20432052DC
S11302304553455400536572766F204320505553FF
S1130240483A2073746174655F74696D65203D205C
S113025025640A00536572766F2042205245534547
S11302605400536572766F204220505553483A200B
S113027073746174655F74696D65203D2025640A3B
S113028000536572766F2041205245534554005304
S11302906572766F204120505553483A207374613B
S11302A074655F74696D65203D2025640A00566F8E
S11302B06C76696F206120706F736963696F6E205B
S11302C049444C4520430A00566F6C76696F20619F
S11302D020706F736963696F6E2049444C452042F6
S11302E00A00566F6C76696F206120706F736963C2
S11302F0696F6E2049444C4520410A0049535220FD
S1130300434F4D504120505553482025642E2E2EE6
S11303100A00436F6E6669677572616369F36E20E4
S113032076E16C69646120656E20454550524F4DFD
S11303300A00436865636B73756D20454550524FE1
S11303404D20696E76616C69646F0A00436F6E6656
S1130350696720636172676164613A2053616C6903
S113036064612030203D2025632C2053616C696436
S1130370612031203D2025632C2053616C69646128
S11303802032203D2025630A00436F6E6669672092
S1130390677561726461646120656E2045455052E1
S11303A04F4D0A0053616C69646120432062757388
S11303B0790A0053616C6964612042206275737923
S11303C00A0053616C696461204120627573790A83
S11303D000424F585F4449534341524445440A0044
S11303E053656E736F72206C6962657261646F200D
S11303F06465206E7565766F0A004572726F724986
S11304006E69744843535230340A00496E69744823
S113041043535230340A0043616A61206675657241
S1130420612064652072616E676F20282575206DD8
S11304306D292C20646573636172746164610A00C0
S113044043616A61207469706F20432028257520F8
S11304506D6D290A0043616A61207469706F2042DE
S113046020282575206D6D290A0043616A61207476
S113047069706F204120282575206D6D290A00437D
S1130480616A612064656D61736961646F20626192
S11304906A6120282575206D6D292C20646573639D
S11304A06172746164610A004E6F2068617920632F
S11304B0616A612070726573656E7465202870616D
S11304C0726564206465746563746164612061208D
S11304D02575206D6D290A0053595320534F5254EA
S11304E04552204445425547202D2053616C696490
S11304F06173206167726567616461730A005359AF
S11305005320534F52544552204445425547202DC1
S1130510204D617472697A2064652064696D656E2A
S113052073696F6E657320696E696369616C697A5A
S11305306164610A0053696E20636F6E6669677552
S1130540726163696F6E2067756172646164610AC8
S113055000436F6D616E646F20646573636F6E6FCB
S11305606369646F0A00436F6D616E646F20696E26
S113057076616C69646F0A005265736574656172B3
S113058020636F6E66696775726163696F6E0A00D6
S11305904F6274656E6572207265706F7369746FF3
S11305A072696F0A004C696D7069617220657374B9
S11305B06164697374696361730A004F6274656E80
S11305C06572206573746164697374696361730A25
S11305D0004F6274656E6572206669726D77617230
S11305E0650A004F6274656E657220636F6E66699A
S11305F06775726163696F6E0A0053657465617231
S1130600206E7565766120636F6E666967757261C9
S113061063696F6E0A00446574656E6572206F705D
S11306206572616369F36E0A00496E696369617298
S1130630206F706572616369F36E0A00436F6D61C8
S11306406E646F20414C4956452072656369626946
S1130650646F0A00436F6D616E646F207265636836
S1130660617A61646F0A005061796C6F616420671C
S1130670656E657269636F3A2025730A004F627470
S1130680656E65722073746174730A00466F726DCF
S113069061746F20646520746F6B656E20696E767B
S11306A0616C69646F3A2025730A0053616C696454
S11306B0612025643A2043616A61207469706F2067
S11306C03D2025630A005374617475733A202575BF
S11306D00A00414C4956450A004C656E677468200F
S11306E06D61796F7220612025752C2073652070EF
S11306F06572646572696120646174612064656C0B
S1130700206275666665720A00436F6D616E646F80
S113071020696E76616C69646F0A00546F6B656E54
S113072020696E76616C69646F0A000011241FBE33
S1130730CFEFD8E0DEBFCDBF14E0A0E0B1E0EEEF34
S1130740F1E302C005900D92A833B107D9F725E073
S1130750A8E3B4E001C01D92A532B207E1F70E94FC
S11307608C080C94FD180C9400000E94D315089575
S11307701F920F920FB60F9211242F933F938F93D2
S11307809F93AF93BF93EF93FF938091C404823000
S113079019F0833019F13FC08091C30484FF3BC03A
S11307A020918600309187008091400490E0A0E081
S11307B0B0E0DC0199278827820F931FA11DB11D8A
S11307C08093B7049093B804A093B904B093BA0487
S11307D0E3ECF4E080818F7E80831DC0209186004D
S11307E0309187008091400490E0A0E0B0E0DC010B
S11307F099278827820F931FA11DB11D8093BB04E5
S11308009093BC04A093BD04B093BE04E3ECF4E065
S1130810808180648083FF91EF91BF91AF919F911C
S11308208F913F912F910F900FBE0F901F901895AD
S11308301F920F920FB60F9211248F938091400450
S11308408F5F809340048F910F900FBE0F901F9085
S113085018951F920F920FB60F921124EF92FF92E8
S11308600F931F932F933F934F935F936F937F93B4
S11308708F939F93AF93BF93CF93EF93FF93E8E846
S1130880F0E080819181805C9346918380838091A4
S11308906A04806180936A04C0E05EC0EC2EF12C8F
S11308A0F701EE0FFF1FE355FB4F00811181F801A3
S11308B0818180FF50C0818181FF21C0818182FDBF
S11308C01EC080EA9FE0938382838091910480FF1D
S11308D01DC0F701EE0FFF1FE355FB4F0190F081A0
S11308E0E02D80811F928F938CEF92E09F938F93E2
S11308F00E94AD150F900F900F900F9007C0F80154
S113090084810E942112F80193838283C11123C040
S1130910F701EE0FFF1FE355FB4FA081B1812C912E
S113092081E090E002C0880F991F2A95E2F795B103
S1130930892B85B920918400309185000190F08144
S1130940E02D82819381820F931F90938B0080937B
S11309508A0010923B04CF5FC33008F49FCFFF910D
S1130960EF91CF91BF91AF919F918F917F916F91B3
S11309705F914F913F912F911F910F91FF90EF90B5
S11309800F900FBE0F901F9018951F920F920FB6E5
S11309900F9211242F933F934F935F936F937F9301
S11309A08F939F93AF93BF93CF93DF93EF93FF9373
S11309B0E0913B04F0E0EE0FFF1FE355FB4F019085
S11309C0F081E02D208181E090E002C0880F991F22
S11309D02A95E2F78095909595B1892385B9E091A0
S11309E03B04F0E0EE0FFF1FE355FB4F0190F08155
S11309F0E02D818181FF8FC0E0913B04F0E0EE0F98
S1130A00FF1FE355FB4F0190F081E02D818182FFB0
S1130A1082C0E0913B04F0E0EE0FFF1FE355FB4F73
S1130A200190F081E02D81818B7F8183E0913B04F3
S1130A30F0E0EE0FFF1FE355FB4F0190F081E02D36
S1130A4081818D7F8183E0913B04F0E0EE0FFF1FF5
S1130A50E355FB4F0190F081E02D8AE58483E0911A
S1130A603B04F0E0EE0FFF1FE355FB4FC081D18143
S1130A70E0913B04F0E0EE0FFF1FE355FB4F0190C4
S1130A80F081E02D84810E9421129B838A838091CE
S1130A903B04811113C0E7E5F4E0828188608E7F16
S1130AA082838091910480FF36C082EE92E09F930E
S1130AB08F930E94AD150F900F902DC080913B0431
S1130AC0813099F4EBE1F5E0828188608E7F828346
S1130AD08091910480FF1FC088EC92E09F938F93D4
S1130AE00E94AD150F900F9016C080913B04823088
S1130AF091F4E3EBF4E0828188608E7F82838091BD
S1130B00910480FF08C08EEA92E09F938F930E9425
S1130B10AD150F900F9080913B048F5F80933B0441
S1130B2080913B04833008F091C0E0913B04F0E0F5
S1130B30EE0FFF1FE355FB4F0190F081E02D818103
S1130B4080FF2CC0E0913B04F0E0EE0FFF1FE35563
S1130B50FB4F0190F081E02D208181E090E002C004
S1130B60880F991F2A95E2F795B1892B85B92091B1
S1130B70840030918500E0913B04F0E0EE0FFF1F0C
S1130B80E355FB4F0190F081E02D82819381820F28
S1130B90931F90938B0080938A0058C0E0913B048C
S1130BA0F0E0EE0FFF1FE355FB4F0190F081E02DC5
S1130BB0208181E090E002C0880F991F2A95E2F716
S1130BC08095909595B1892385B980913B048F5F79
S1130BD080933B0480913B048330C0F5E0913B0457
S1130BE0F0E0EE0FFF1FE355FB4F0190F081E02D85
S1130BF0818180FF2BC0E0913B04F0E0EE0FFF1FEA
S1130C00E355FB4F0190F081E02D208181E090E0DD
S1130C1002C0880F991F2A95E2F795B1892B85B9EF
S1130C202091840030918500E0913B04F0E0EE0FC8
S1130C30FF1FE355FB4F0190F081E02D82819381EA
S1130C40820F931F90938B0080938A00FF91EF9102
S1130C50DF91CF91BF91AF919F918F917F916F91D0
S1130C605F914F913F912F910F900FBE0F901F9066
S1130C7018951F920F920FB60F9211242F933F9342
S1130C804F938F939F93AF93BF93EF93FF934091B1
S1130C90C6008091CE0490E001968F7390789923DA
S1130CA024F40197806C9F6F01969091CF0489136F
S1130CB011C02091CF0430E02F5F3F4F2F73307865
S1130CC0332334F421503109206C3F6F2F5F3F4FA1
S1130CD02093CF04AEECB4E0EC91F0E0E253FB4F90
S1130CE042838C939C9111968C911197981728F0BC
S1130CF0FD0180819181891B06C0EEECF4E08081C6
S1130D009181891B805C863048F08091100581FDBB
S1130D1005C0E0E1F5E0808182608083FF91EF917E
S1130D20BF91AF919F918F914F913F912F910F90D0
S1130D300FBE0F901F9018951F920F920FB60F922F
S1130D4011242F933F938F939F93AF93BF93EF936C
S1130D50FF932091560430E08091150590E00896A9
S1130D6028173907FCF4809156048F5F809356044A
S1130D70AEECB4E01196EC911197F0E0E253FB4F26
S1130D8082818093C60011968C9190E001968F73B6
S1130D909078992324F40197806C9F6F0196809337
S1130DA0CF0413C0E0E1F5E080818F70806B808315
S1130DB0E1ECF0E080818F7D808380919104877FD6
S1130DC080939104808180688083FF91EF91BF912B
S1130DD0AF919F918F913F912F910F900FBE0F90E4
S1130DE01F9018951F920F920FB60F9211242F93F4
S1130DF03F934F935F936F937F938F939F93AF939F
S1130E00BF93EF93FF9380916A0481FF46C1809161
S1130E10C404813051F58091920485FD0DC00E9477
S1130E206913E3ECF4E08081816080838091920413
S1130E3080628093920419C00E946D13E3ECF4E085
S1130E4080818260808380818F7D808382E0809333
S1130E50C40480818061808380818D7F80838091C0
S1130E6092048D7D8860809392048091C4048230C2
S1130E70D1F48091C30484FF16C0809192048970D8
S1130E80883089F480913C04811106C080913C042F
S1130E908F5F80933C0407C08091920481608093AB
S1130EA0920410923C048091C30485FD22C0809179
S1130EB0920484FD1EC080913F04863030F48091FA
S1130EC03F048F5F80933F0407C080919204806148
S1130ED08093920410923F048091C30483FF09C05D
S1130EE06091920466FB662760F987EB94E00E94A8
S1130EF0491480913D048A3030F480913D048F5F21
S1130F0080933D0407C080916A04886080936A04DA
S1130F1010923D0480916A0486FF0EC080913E04C5
S1130F208F3F29F480916A04846080936A048091DD
S1130F303E048F5F80933E048091510481FF29C059
S1130F40909155049A30A0F49F5F9093550480913A
S1130F50910480FF1EC01F929F938FE892E09F939D
S1130F608F930E94AD150F900F900F900F9011C0AA
S1130F70E0E5F4E01582846081838091910480FF30
S1130F8008C081E892E09F938F930E94AD150F9063
S1130F900F908091C90481FF2BC09091CD049A30A9
S1130FA0B0F49F5F9093CD048091910480FF20C0A2
S1130FB0809155041F928F9382E692E09F938F93C2
S1130FC00E94AD150F900F900F900F9011C0E8EC98
S1130FD0F4E01582846081838091910480FF08C0CD
S1130FE084E592E09F938F930E94AD150F900F902C
S1130FF08091940481FF2BC0909198049A30B0F4AE
S11310009F5F909398048091910480FF20C0809109
S113101055041F928F9385E392E09F938F930E94D0
S1131020AD150F900F900F900F9011C0E3E9F4E00D
S11310301582846081838091910480FF08C087E2D7
S113104092E09F938F930E94AD150F900F90809123
S1131050990480FF05C083FD03C0886080939904D0
S11310608091410480FF05C083FD03C088608093A4
S1131070410480916F0480FF07C083FD05C0EBE548
S1131080F4E080818860808380915B0480FF05C0E8
S113109083FD03C0886080935B04FF91EF91BF914F
S11310A0AF919F918F917F916F915F914F913F91FC
S11310B02F910F900FBE0F901F901895A4E8B0E0E9
S11310C011961C921E9286B3806286BBEFE6F0E016
S11310D0808187628083E1E8F0E08081806480839E
S11310E08081826080838D919C91805C93469093F3
S11310F08900809388000895E1EBF0E080818760A7
S113110080838BE98093B300E0E7F0E08081826024
S113111080831092B200089510923D0482E8809377
S11311206A0480E88093920483E08093910488E0C9
S113113090E00E947D13EFE1F5E08EE091E093836F
S1131140828380E091E0918380838EEC94E00E941E
S1131150E20E84B1806284B985B1806285B98AB1B6
S113116088608AB984B18E7F84B98AB18F7E8AB946
S113117084B1826084B984B1846084B984B18860A4
S113118084B90E944C128BB1877F8BB98BB18F7E4F
S11311908BB90E945E080E947C080E94721265EB63
S11311A073E087EB94E00E942A146091920466FB3A
S11311B0662760F987EB94E00E94B3134BE554E093
S11311C067EB74E088EA94E00E94D10A8EE794E029
S11311D00E94440B809192048260809392048DE17A
S11311E092E09F938F930E94AD1578940F900F9087
S11311F080916A0485FF05C08EE794E00E94670D24
S11312007DC080913A04811127C08CEC91E09F93BA
S11312108F930E94AD15809199040F900F9080FFD9
S113122003C08460809399048091410480FF03C0CB
S113123084608093410480916F0480FF03C08460C4
S113124080936F0480915B0480FF03C0846080936B
S11312505B0481E080933A048091990482FF04C086
S113126089E994E00E94AB128091410482FF04C09A
S113127081E494E00E94AB1280916F0482FF04C069
S11312808FE694E00E94AB1280915B0482FF04C05D
S11312908BE594E00E94AB128091990482FD0EC00C
S11312A08091410482FD0CC080916F0482FD0AC0CC
S11312B080915B0482FF08C080E007C080E005C025
S11312C080E003C080E001C081E08823B9F08AEFA8
S11312D091E09F938F930E94AD1580916A04806280
S11312E080936A041092A20410924A041092780423
S11312F0109264040E94E50A0F900F906EE774E068
S113130088EA94E00E94FC0B0E944A0E4C9B0AC09F
S113131080916A0486FD06C010923E048064809326
S11313206A042CC080916A0486FF28C04C9926C0A8
S11313308F7B80936A0482FF08C08CEB91E09F93BB
S11313408F930E94AD150F900F9080913E048A30C8
S113135030F480916A04982F947082FF06C08091C3
S11313606A04816080936A0409C010923E04992340
S113137029F080916A048B7F80936A040E9408118B
S11313808091910485FF13C08F7D8093910487EE33
S113139091E09F938F930E94AD15809190040E94D9
S11313A0A911809190040E94CD0F0F900F9080910D
S11313B0910486FF11C08F7B8093910480915A041D
S11313C0EBE6F4E0808380911E0581838091B6046E
S11313D08283CF010E94460A8091920484FF08C050
S11313E08F7E80939204E3ECF4E0808180628083BA
S11313F080916A0483FF08C0877F80936A04809188
S1131400920482608093920480916A0480FF03C0F6
S11314108E7F80936A0480916A0484FFE9CE8F7E74
S113142080936A048091990480FF07C082FF05C0FD
S113143083FD03C08860809399048091410480FFF8
S113144007C082FF05C083FD03C088608093410408
S113145080916F0480FF07C082FF05C083FD03C035
S1131460886080936F0480915B0480FFC1CE82FF0B
S1131470BFCE83FDBDCE886080935B04B9CEFC01F2
S1131480808191812281892782270895CF93DF93D8
S113149000D000D0CDB7DEB7FC0180819181A2815C
S11314A0B38189839A83AB83BC83CE0101960E9466
S11314B03F0A8C8344E050E060E070E0CE01019686
S11314C00E94A4188091910481FF04C089E893E0EC
S11314D00E94AD150F900F900F900F90DF91CF9158
S11314E00895CF93DF930097D9F0EC0144E050E0E6
S11314F060E070E00E9494188091910481FF10C014
S11315002A814981688130E02F5B3F4F50E04F5B77
S11315105F4F70E06F5B7F4F8CE493E00E94AD15EA
S1131520DF91CF910895CF93DF9300D000D0CDB752
S1131530DEB744E050E060E070E0CE0101960E9426
S1131540941889818F3F31F48A818F3F19F48B81FC
S11315508F3FD9F0CE0101960E943F0A9C818917E2
S113156051F08091910481FF12C082E393E00E94C4
S1131570AD1580E00FC08091910481FF0AC082E123
S113158093E00E94AD1581E005C080E003C080E0D7
S113159001C081E00F900F900F900F90DF91CF91D9
S11315A00895CF93DF9300D0CDB7DEB7FC0187EB6E
S11315B094E091838083CE01019693838283148285
S11315C00F900F90DF91CF910895CF93DF932AE589
S11315D030E041E050E060E070E080E594E00E949B
S11315E034122AE530E042E050E061E070E088EC3B
S11315F094E00E943412EDEAF4E080E594E09183F3
S1131600808388EC94E09383828383E994E09583D8
S1131610848310923B040E94930A892B29F08BE661
S113162094E00E94710A11C081E080935A0482E020
S113163080931E0583E08093B60485E395E09F9331
S11316408F930E94AD150F900F90C7E5D4E081E011
S113165089838091A1048883ABE1B5E082E011968F
S11316608C931197809149048C93E3EBF4E083E02D
S1131670818380917704808388E08A8312968C9397
S11316808283DF91CF910895FC018CE191E09183F5
S1131690808387E594E0938382838BE195E095834F
S11316A0848383EB94E097838683809192048823D8
S11316B084F48EEF94E09F938F930E94AD1588ED90
S11316C094E09F938F930E94AD150F900F900F900D
S11316D00F9008958E3B98F09091920499230CF00A
S11316E083C01F928F9388EA94E09F938F930E9404
S11316F0AD150F900F900F900F9084E008959EEB1E
S1131700981B973398F480919204807809F473C0FD
S11317101F929F938FE794E09F938F930E94AD1540
S11317200F900F900F900F9080E00895DB01ED91E2
S1131730FC9180819817B0F08181891798F080918D
S1131740920488230CF052C01F929F938AE694E07F
S11317509F938F930E94AD150F900F900F900F9051
S113176081E0089582819817A8F08381891790F009
S1131770809192048823E4F51F929F9385E594E079
S11317809F938F930E94AD150F900F900F900F9021
S113179082E0089584819817A8F08581891790F0D4
S11317A080919204882334F51F929F9380E494E0FF
S11317B09F938F930E94AD150F900F900F900F90F1
S11317C083E00895809192048078A9F01F929F93FA
S11317D087E194E09F938F930E94AD150F900F9033
S11317E00F900F9080E0089584E0089581E00895BB
S11317F082E0089583E00895FF920F931F93CF939F
S1131800DF93EC018B0180916A0488230CF03FC0C4
S1131810E881F981848585FF3AC08091920481FF33
S113182036C08C8181FF33C0CF010E9466148823A7
S1131830E1F08091920486FF08C08BE094E09F93CE
S11318408F930E94AD150F900F9080916A048F774B
S113185080936A04809192048D7F80939204E8813E
S1131860F98184858F7D848712C08091920486FFDC
S113187008C08AEF93E09F938F930E94AD150F9059
S11318800F908091920484608D7F8093920488816C
S113189099810E949414E881F9818585853009F045
S11318A0DFC0848588230CF0DBC084858F77848730
S11318B0E881F98180859185A285B3858F3B910567
S11318C0A105B105D0F08C8181608C83982F92950D
S11318D09F70923071F48F708C838091920488236E
S11318E044F480EE93E09F938F930E94AD150F9084
S11318F00F908C818F708C83A7C08C81982F9295C8
S11319009F7009F0A1C08F7080618C838085918560
S1131910A285B385B8010E946A0BF82E84E0F816FC
S113192009F48EC0F11009C081ED93E09F938F9369
S11319300E94AD150F900F9035C080915A04F81293
S11319400EC0E7E5F4E082818160828382EC93E05B
S11319509F938F930E94AD150F900F9023C0809199
S11319601E05F8120EC0EBE1F5E0828181608283EE
S113197083EB93E09F938F930E94AD150F900F908C
S113198011C08091B604F8120DC0E3EBF4E082813B
S11319908160828384EA93E09F938F930E94AD15C4
S11319A00F900F90E1E0FE1649F0FE1640F1F2E0D0
S11319B0FF1679F083E0F816B9F02CC082E291E0CA
S11319C00E94D315F80182859385019693878287B7
S11319D025C08DE291E00E94D315F8018485958598
S11319E00196958784871AC088E391E00E94D315F5
S11319F0F801868597850196978786870FC083E4CB
S1131A0091E00E94D315F801808991890196918B08
S1131A10808B04C081E591E00E94D315F801808594
S1131A2091850196918780879F938F9384E691E0B7
S1131A309F938F930E9497150F900F900F900F9084
S1131A408C818F7080628C83888199810E940514B7
S1131A50E881F981158680916A04806880936A041C
S1131A608091920480FF2DC086FF04C082E791E03C
S1131A700E94D315809192048E7F877F8093920475
S1131A80E881F981848588608487E881F98186E02A
S1131A9085876091920466FB662760F98881998145
S1131AA00E944914882341F08091920486FF04C067
S1131AB085E891E00E94D31580916A048068809340
S1131AC06A04DF91CF911F910F91FF900895809147
S1131AD0990480FF09C083FF07C0877F809399041E
S1131AE089E994E00E94EA1289E994E00E941B13B8
S1131AF0892B11F18091990482958F708230E1F4E1
S1131B008091590483FF0FC080FF0DC0877F8093AD
S1131B105904E0E5F4E0818182608183158287EADB
S1131B2091E00E94D315E9E9F4E080818F7080830D
S1131B308CEC91E00E94D3158091410480FF09C090
S1131B4083FF07C0877F8093410481E494E00E946F
S1131B50EA1281E494E00E941B13892B11F1809115
S1131B60410482958F708230E1F480911D0583FFDA
S1131B700FC080FF0DC0877F80931D05E8ECF4E063
S1131B8081818260818315828CED91E00E94D3155E
S1131B90E1E4F4E080818F70808381E092E00E9430
S1131BA0D31580916F0480FF09C083FF07C0877F2E
S1131BB080936F048FE694E00E94EA128FE694E02B
S1131BC00E941B13892B11F180916F0482958F70F1
S1131BD08230E1F48091B50483FF0FC080FF0DC013
S1131BE0877F8093B504E3E9F4E081818260818397
S1131BF0158281E192E00E94D315EFE6F4E0808142
S1131C008F70808386E392E00E94D31580915B04F9
S1131C1080FF09C083FF07C0877F80935B048BE547
S1131C2094E00E94EA128BE594E00E941B13892B36
S1131C30E1F090915B04892F82958F70813041F49B
S1131C402091AC0421FD04C022602093AC040895CB
S1131C508230F9F48091AC0481FF1BC08D7F8093A6
S1131C60AC049F7090935B0408958091AC0481FF51
S1131C7010C08D7F8093AC04EBE5F4E080818F701D
S1131C8080838091910480FF04C086E492E00E94E6
S1131C90D31508950895CF93DF93EEECF4E090818B
S1131CA08181981718F08081818104C0EEECF4E002
S1131CB080818181E091CF04F0E0E253FB4F828187
S1131CC0853509F05AC0EEECF4E0A181818190E001
S1131CD001968F739078992324F40197806C9F6FF9
S1131CE00196EC018091CF0490E002968F73907876
S1131CF0992324F40197806C9F6F0196FC016091F5
S1131D00CF0470E06D5F7F4F6F737078772334F486
S1131D1061507109606C7F6F6F5F7F4FB0E0A253B9
S1131D20BB4F12964C9150E0DA01AA0FBB1FAA0FC9
S1131D30BB1FDD27C253DB4F9A81292F30E0A90155
S1131D40440F551F240F351FAD01420F531FFF27AA
S1131D50E253FB4F228130E0220F331FCA01820F6E
S1131D60931FFB01FF27E253FB4F9281890F8A31B6
S1131D7031F46093CF0481E003C080E001C080E0CF
S1131D80DF91CF910895EEECF4E090818181981772
S1131D9020F080819181891B06C0EEECF4E0808103
S1131DA09181891B805C863018F00E944B0E089547
S1131DB080E008958AE0E1E1F5E0DF011D928A9573
S1131DC0E9F70895FC01128211821082EE5BFF4F45
S1131DD010820E94DA0E08950F931F93CF93DF931E
S1131DE00091150586E30827809117050827C0E0B0
S1131DF0D0E01DC0E0911805F0911905EC0FFD1F0E
S1131E0010811F921F931F921F93DF93CF9386E538
S1131E1092E09F938F930E949715012721968DB787
S1131E209EB708960FB6F8949EBF0FBE8DBF8091E3
S1131E30150590E0C817D907ECF2E0911805F09168
S1131E40190580911505E80FF11D808180931A050D
S1131E50802FDF91CF911F910F910895CF93DF933E
S1131E60EEECF4E0C0E1D5E088818F708062888375
S1131E7081818F5F8183A181B0E0A253BB4F129611
S1131E808C918093150588818F708063888381810C
S1131E908F5F8183E181F0E0E253FB4F82818A33DB
S1131EA051F08BE197E09F938F930E94AD150F90B3
S1131EB00F9080E06FC0EEECF4E0A0E1B5E08C910F
S1131EC08F7080648C9381818F5F8183E181F0E0E6
S1131ED0E253FB4F8281E7E1F5E080838081803E1D
S1131EE051F489E097E09F938F930E94AD150F9072
S1131EF00F9080E04FC080911505893178F01F92D2
S1131F0088E18F9389ED96E09F938F930E94AD159E
S1131F100F900F900F900F9080E03CC0AEECB4E0B7
S1131F20E0E1F5E080818F708065808311968C916B
S1131F3011978F5F11968C93119711968C9111972D
S1131F4090E080539B4F90931905809318059091CE
S1131F50150511968C911197890F11968C931197F1
S1131F6080818F70806680831196AC91B0E0A2531B
S1131F70BB4F12968C91CAE1D5E0888380818F7023
S1131F80806780830E94EC0E9881891711F080E0AD
S1131F9001C081E0DF91CF910895CF92DF92EF925B
S1131FA0FF921F93CF93DF93CDB7DEB769970FB638
S1131FB0F894DEBF0FBECDBF90E0FC01E05AF109FA
S1131FC0E535F10508F006C1EC5CFF4F0C941A15D9
S1131FD082ED96E09F938F930E94AD1580919104BA
S1131FE08061809391040F900F9004C1E0911805D3
S1131FF0F091190580811F928F9386EC96E09F9350
S11320008F930E94AD158091910480618093910417
S11320100F900F900F900F90EDC08091910480610C
S113202080939104E7C0282F30E0E0911805F091E7
S11320301905E20FF31F9081E1E0F0E0EC0FFD1FC2
S1132040E20FF31F90838F5F01C080E0909115052C
S1132050891710F4883138F3E1E0F0E0EC0FFD1F4C
S1132060E80FF11D108265E772E0CE0101960E942F
S113207058157C0163C06AE370E0C7010E945D15D6
S11320806C01009709F441C0FC011082C7010E9451
S11320903A15F6012181223451F0233421F0213400
S11320A021F421E005C023E003C020E001C022E0C8
S11320B08130910541F08230910541F0009741F45F
S11320C020935A0405C020931E0502C02093B60431
S11320D0223029F0233029F0213031F404C012E4F5
S11320E003C013E401C011E41F921F939F938F93C5
S11320F08BEA96E09F938F930E94AD150F900F90FB
S11321000F900F900F900F900CC0FF92EF928CE8FD
S113211096E09F938F930E94AD150F900F900F90B0
S11321200F9065E772E080E090E00E9458157C0112
S1132130809191048061806480939104E114F1049E
S113214009F099CF57C080919104806180939104E4
S113215051C08DE796E09F938F930E94AD158091B7
S113216091048061809391040F900F9043C08FE994
S113217091E00E94D315EEE7F4E0138612861586EB
S1132180148617861686118A108A11861086809105
S113219091048061809391042DC0809191048061A9
S11321A08093910427C081E080935A04EBE6F4E025
S11321B0808382E080931E05818383E08093B6044C
S11321C08283CF010E94460A8091910480618093AA
S11321D0910410C080911805909119059F938F93D5
S11321E087E696E09F938F930E94AD150F900F9012
S11321F00F900F9069960FB6F894DEBF0FBECDBF57
S1132200DF91CF911F91FF90EF90DF90CF900895D1
S11322108091100582958F70D9F48091100581FF0B
S113222017C08091100580FD13C00E94C30E88233F
S113223051F0E0E1F5E080818F70806180838081DE
S11322408160808305C0E0E1F5E080818460808363
S11322508091100582FF20C0EEECF4E09181808132
S1132260891718F48091CF0402C08091CE048F7333
S1132270EEECF4E0818380830E94DA0EE0E1F5E085
S113228080818E7F808380818B7F808380818D7F1E
S1132290808380818F7080838091100580FF2AC0A5
S11322A00E942E0F8823B1F0809191048062809364
S11322B091048091170580939004E0E1F5E080811A
S11322C08F708069808380818E7F80838081846029
S11322D0808310C084E596E09F938F930E94AD1590
S11322E0E0E1F5E080818E7F80838081846080835B
S11322F00F900F908091910484FF03C08F7E809390
S113230091048091100582958F708A3099F48091A0
S1132310910483FD0FC010925604E1ECF0E080813B
S11323208F77808380919104886080939104808169
S1132330806280838091100582958F708B3041F488
S1132340E0E1F5E080818460808380818F70808308
S1132350089590E0FC01E05AF109E535F10508F033
S113236067C0E757FF4F0C941A158CE396E09F93D0
S11323708F930E94AD150F900F90089589E296E017
S11323809F938F930E94AD150F900F90089586E14F
S113239096E09F938F930E94AD150F900F90089530
S11323A08AEF95E09F938F930E94AD150F900F9045
S11323B0089583EE95E09F938F930E94AD150F903F
S11323C00F90089581ED95E09F938F930E94AD1532
S11323D00F900F9008958BEB95E09F938F930E943D
S11323E0AD150F900F90089585EA95E09F938F9314
S11323F00E94AD150F900F90089580E995E09F938A
S11324008F930E94AD150F900F90089588E795E083
S11324109F938F930E94AD150F900F90089586E6B9
S113242095E09F938F930E94AD150F900F900895A0
S113243081E595E09F938F930E94AD150F900F90C7
S11324400895853B08F084EB282F30E0A0EDB7E039
S11324500E94201524EB30E040E050E00E94F81484
S1132460C9018053984F08950F931F93CF93DF931F
S1132470EC01042F122F1982822F0E9421129B83B8
S11324808A8308831C831D82898181608983DF910B
S1132490CF911F910F91089587B1807F87B988B13B
S11324A0807F88B980E480937C0086E880937A00FA
S11324B008958430A0F4ECE7F0E09081907F892BBC
S11324C08083EAE7F0E080818064808380917A00F1
S11324D086FDFCCF8091780090917900089580E08A
S11324E090E00895CF93DF93E9E9F4E01782108632
S11324F01282118216821582D4E1D687C1E0C0838C
S11325008FE992E00E94D315E1E4F4E01082C783DE
S1132510C0871282118216821582D687EFE6F4E014
S1132520108282E08783808712821182168215824C
S1132530D687EBE5F4E083E08783808712821182FB
S113254016821582D687C0838EEA92E00E94D31544
S1132550DF91CF910895CF93DF93EC01888183FFBE
S113256036C0877F88838985811102C01E821D82BF
S11325708F810E9459122D813E81280F391F3E837D
S11325802D8399859F5F99879A3008F1ADECBCEC57
S11325900E9420159695879596958795969587958B
S11325A09C838B83198628812B7F28832F819F937B
S11325B08F931F922F938DEB92E09F938F930E94A2
S11325C097150F900F900F900F900F900F90DF9131
S11325D0CF9108950F931F93CF93DF93EC018F81D5
S11325E00E9459129E838D834A855B856C857D8507
S11325F08A019B01080F191F211D311DC901B80152
S11326000A871B872C873D8729852F5F29872A30D6
S113261068F02AE030E040E050E00E94F8143A8389
S113262029831A861B861C861D861986DF91CF9105
S11326301F910F910895CF92DF92EF92FF92CF9363
S1132640DF93EC01AB81BC818E850F2EF4E6CF2E97
S1132650D12CE12CF12CF02DA7019601281B310976
S1132660410951090E942F15A70196010E94F814EF
S113267089819A816C01E12CF12C81E0C216D30688
S1132680E406F50608F080E0C216D306E406F50673
S113269050F49881E92FE295EF7029F49A609F70C5
S11326A0906198830FC0C216D306E406F50650F075
S11326B09881292F22952F70213021F498609D70E4
S11326C090629883DF91CF91FF90EF90DF90CF904D
S11326D008958BB188608BB908958BB1877F8BB9CE
S11326E00895E1E8F0E08081806480830895E1E862
S11326F0F0E080818F7B808308959093C500809360
S1132700C40088E98093C10086E08093C2000895E4
S11327109091C00095FFFCCF8093C60080E090E0CC
S11327200895EEECF4E0918180819817C9F0DF01FF
S1132730E181F0E0E253FB4F828111962C9130E06D
S11327402F5F3F4F2F733078332334F421503109F6
S1132750206C3F6F2F5F3F4F2093CF0490E008958C
S11327608FEF9FEF0895FC01668708950F931F93E1
S1132770CF93DF93EC018C819D81AE81BF81488131
S113278059816A817B818C019D01041B150B260BE9
S1132790370BB901A801D901C801880F991FAA1FD5
S11327A0BB1F880F991FAA1FBB1F880F991FAA1F41
S11327B0BB1F880F991FAA1FBB1F8C019D01040F0B
S11327C0151F261F371FC901B801660F771F881F01
S11327D0991F20E931E040E050E00E94F814288776
S11327E039874A875B878C8580688C87DF91CF9196
S11327F01F910F910895DC011F96ED91FC91509764
S1132800309711F0CB0109950895CF93DF93EC0134
S1132810188219821A821B821C821D821E821F82C8
S1132820188619861A861B861C868C8580628C877E
S11328301D860E9471138F859889892B41F08E859E
S1132840882329F069EE72E0CE010E94FB13DF9128
S1132850CF9108950F931F93CF93DF93EC018B01D6
S11328600E94051481E08E870115110519F4188A58
S11328701F860AC0188B0F878E85882329F068E08D
S113288073E0CE010E94FB13DF91CF911F910F9152
S113289008951F93CF93DF93FC012585263071F4AF
S11328A0162FEC010E9405141E871E85112341F08A
S11328B065E871E0CE010E94FB1303C010E001C083
S11328C011E0812FDF91CF911F910895CF93FC01E7
S11328D08585882319F085858530C1F4848585FF35
S11328E00BC081E08587C685CC23D1F064E273E018
S11328F0CF010E94FB1315C0C685CC2391F063E57C
S113290073E0CF010E94FB13C0E00BC0C685CC234B
S113291041F06AE873E0CF010E94FB13C0E001C0FC
S1132920C1E08C2FCF910895CF93DF93EC018D8577
S1132930833071F128F4813049F08230A1F055C020
S11329408430E1F1863009F44DC04FC08C8581FF9D
S11329504CC08E85882309F448C067EB73E0CE0130
S11329600E94FB1342C08C8584FD0CC083E08D87DC
S11329700E9477138E85882329F066ED73E0CE01DB
S11329800E94FB138C8583FF30C086E08D872DC0A9
S11329908C8586FF0DC084E08D878E85882329F081
S11329A063EF73E0CE010E94FB138C8584608C87F7
S11329B08C8583FF1AC086E08D8717C08C8582FFC3
S11329C014C0CE010E94B6138C858B7F8C878E85B4
S11329D0882329F06AE074E0CE010E94FB1385E0AD
S11329E08D8703C08C8588608C87DF91CF91089593
S11329F0A1E21A2EAA1BBB1BFD010DC0AA1FBB1FFF
S1132A00EE1FFF1FA217B307E407F50720F0A21B70
S1132A10B30BE40BF50B661F771F881F991F1A94DD
S1132A2069F760957095809590959B01AC01BD0107
S1132A30CF010895EE0FFF1F0590F491E02D099446
S1132A40A29FB001B39FC001A39F700D811D1124EB
S1132A50911DB29F700D811D1124911D08950E9436
S1132A602015A59F900DB49F900DA49F800D911DDE
S1132A7011240895FC0188279927E8942191203294
S1132A80E9F3293010F02E30C8F32B3241F02D3207
S1132A9039F4689404C00E948F15820F911D21910E
S1132AA020532A30C0F31EF4909581959F4F0895CA
S1132AB048E354E00E9468150895FC01819186174B
S1132AC021F08823D9F7992708953197CF010895E4
S1132AD0FA01A191B081009719F41097E1F0CD01AA
S1132AE0DC01CD010D90002011F4C00113C0FB01E5
S1132AF02191222319F02015D9F7F3CFFB0121915D
S1132B00201519F41E92119606C02223C1F70D90C8
S1132B100020A1F7D001FA01A193B08308957AE0CF
S1132B20979F902D879F802D910D11240895A0E0EB
S1132B30B0E0EDE9F5E10C94D618AE014B5F5F4FC0
S1132B40FA0161917191AF01809121059091220563
S1132B500E940316E2E00C94F218A0E0B0E0E3EB6C
S1132B60F5E10C94D418AE01495F5F4FDA016D9121
S1132B707D91AD010FE115E0F80182819381DC01C3
S1132B8013962C911397286013962C930E94031686
S1132B90D8011296ED91FC9113972381277F23830B
S1132BA0E4E00C94F0180F931F93CF93DF93E0911C
S1132BB02105F0912205238121FF1BC08C01D0E067
S1132BC0C0E0F80181918F01609121057091220587
S1132BD0DB011896ED91FC911997882331F0099542
S1132BE0892B79F3DFEFCFEFECCF8AE00995892BBE
S1132BF019F08FEF9FEF02C08D2F9C2FDF91CF91A3
S1132C001F910F910895ABE0B0E0E9E0F6E10C9478
S1132C10C6186C017B018A01FC011782168283812C
S1132C2081FFCCC1CE0101963C01F6019381F701ED
S1132C3093FD859193FF81917F01882309F4BAC1A3
S1132C40853239F493FD859193FF81917F0185321B
S1132C5029F4B60190E00E94FA17E7CF912C212CB9
S1132C60312CFFE1F315D8F08B3279F038F480324F
S1132C7079F08332A1F4232D20611DC08D3261F0DF
S1132C80803369F4232D216016C0832D8260382E91
S1132C90E32DE4603E2E2AC0F32DF8601DC037FCFE
S1132CA02DC020ED280F2A3040F08E32B9F436FCC6
S1132CB081C1232D2064322E19C036FE06C08AE05D
S1132CC0989E200D1124922E11C0EAE02E9E200D14
S1132CD01124222EF32DF0623F2E08C08C3621F4ED
S1132CE0832D8068382E02C0883641F4F70193FDA5
S1132CF0859193FF81917F018111B3CF982F9F7D9F
S1132D009554933028F40C5F1F4F9FE399830DC0B3
S1132D10833631F0833771F0833509F059C021C00F
S1132D20F801808189830E5F1F4F88248394912C3E
S1132D30530113C02801F2E04F0E511CF801A0808A
S1132D40B18036FE03C0692D70E002C06FEF7FEFE3
S1132D50C5010E94EF174C018201F32DFF773F2E2E
S1132D6016C0280122E0420E511CF801A080B18057
S1132D7036FE03C0692D70E002C06FEF7FEFC5011E
S1132D800E94E4174C01F32DF0683F2E820133FCBE
S1132D901BC0822D90E088169906B0F4B60180E23B
S1132DA090E00E94FA172A94F4CFF50137FC85913C
S1132DB037FE81915F01B60190E00E94FA1721105D
S1132DC02A9421E0821A91088114910471F7E8C0D1
S1132DD0843611F0893641F5F80137FE07C0608169
S1132DE07181828193810C5F1F4F08C06081718162
S1132DF0072E000C880B990B0E5F1F4FF32DFF76E7
S1132E003F2E97FF09C090958095709561957F4FEF
S1132E108F4F9F4FF0683F2E2AE030E0A3010E94BD
S1132E203618882E861845C0853731F4232D2F7E19
S1132E30B22E2AE030E025C0932D997FB92E8F362B
S1132E40C1F018F4883579F0B5C0803719F08837A7
S1132E5021F0B0C0E92FE061BE2EB4FE0DC0FB2D01
S1132E60F460BF2E09C034FE0AC0292F2660B22E9A
S1132E7006C028E030E005C020E130E002C020E1D7
S1132E8032E0F801B7FE07C06081718182819381CD
S1132E900C5F1F4F06C06081718180E090E00E5F7F
S1132EA01F4FA3010E943618882E8618FB2DFF772A
S1132EB03F2E36FE0DC0232D2E7FA22E891458F4EA
S1132EC034FE0BC032FC09C0832D8E7EA82E05C0B3
S1132ED0B82CA32C03C0B82C01C0B92CA4FE0FC07D
S1132EE0FE01E80DF11D8081803321F49A2D997E35
S1132EF0A92E09C0A2FE06C0B394B39404C08A2DBF
S1132F00867809F0B394A3FC11C0A0FE06C0B214E5
S1132F1088F4280C922C9B180EC0B21460F4B601ED
S1132F2080E290E00E94FA17B394F7CFB21418F439
S1132F302B1802C0982C212CA4FE10C0B60180E3EB
S1132F4090E00E94FA17A2FE17C0A1FC03C088E714
S1132F5090E002C088E590E0B6010CC08A2D867826
S1132F6059F0A1FE02C08BE201C080E2A7FC8DE211
S1132F70B60190E00E94FA17891438F4B60180E390
S1132F8090E00E94FA179A94F7CF8A94F301E80D1F
S1132F90F11D8081B60190E00E94FA178110F5CFEF
S1132FA0222009F442CEB60180E290E00E94FA1792
S1132FB02A94F6CFF6018681978102C08FEF9FEFA6
S1132FC02B96E2E10C94E218FC01059061507040EC
S1132FD00110D8F7809590958E0F9F1F0895FC01DE
S1132FE06150704001900110D8F7809590958E0F34
S1132FF09F1F08950F931F93CF93DF93FB012381AA
S113300021FD03C08FEF9FEF2CC022FF16C0468125
S11330105781248135814217530744F4A081B1813B
S11330209D012F5F3F4F318320838C93268137810D
S11330302F5F3F4F3783268314C08B01EC01FB01C4
S11330400084F185E02D0995892BE1F6D8011696C7
S11330508D919C911797019617969C938E93169732
S1133060CE01DF91CF911F910F910895FA01AA2704
S1133070283051F1203181F1E8946F936E7F6E5FB7
S11330807F4F8F4F9F4FAF4FB1E03ED0B4E03CD065
S1133090670F781F891F9A1FA11D680F791F8A1F48
S11330A0911DA11D6A0F711D811D911DA11D20D0AF
S11330B009F468943F912AE0269F11243019305D69
S11330C03193DEF6CF010895462F4770405D41935A
S11330D0B3E00FD0C9F7F6CF462F4F70405D4A33A7
S11330E018F0495D31FD4052419302D0A9F7EACF6F
S11330F0B4E0A6959795879577956795BA95C9F79E
S113310000976105710508959B01AC010A2E069490
S11331105795479537952795BA95C9F7620F731F49
S1133120841F951FA01D0895DC01CB01FC01F999B2
S1133130FECF06C0F2BDE1BDF89A319600B40D92FF
S113314041505040B8F70895DC01A40FB51F415019
S1133150504048F0CB01840F951F2E910E94B51862
S113316041505040D0F70895262FF999FECF92BDD3
S113317081BDF89A019700B4021639F01FBA20BD38
S11331800FB6F894FA9AF99A0FBE08952F923F92C7
S11331904F925F926F927F928F929F92AF92BF9263
S11331A0CF92DF92EF92FF920F931F93CF93DF930F
S11331B0CDB7DEB7CA1BDB0B0FB6F894DEBF0FBE6C
S11331C0CDBF09942A88398848885F846E847D84B9
S11331D08C849B84AA84B984C884DF80EE80FD80BB
S11331E00C811B81AA81B981CE0FD11D0FB6F89431
S11131F0DEBF0FBECDBFED010895F894FFCFF2
S11331FE0000000100000000000091130000000018
S113320E00020000000088130000000037414B55F7
S113321E5F69424F585F53495A455F4100424F58C8
S113322E5F53495A455F4200424F585F53495A45CE
S113323E5F4300424F585F4449534341524445440F
S113324E005469706F206E6F207265636F6E6F63CA
S113325E69646F00436F6E74616461733A202575FF
S113326E0A004843535230342070657264696F20EB
S113327E4543484F004C4942204445425547202D72
S113328E2048435352303420544D444F5554204318
S113329E6C6561726564005075736865642073654E
S11332AE72766F204120616E64207A65726F656458
S11332BE2073746174652074696D6500446574656A
S11332CE63746F20656E20495220410050757368F7
S11332DE656420736572766F204220616E64207A75
S11332EE65726F65642073746174652074696D65AD
S11332FE004465746563746F20656E2049522042E4
S113330E0050757368656420736572766F20432070
S113331E616E64207A65726F65642073746174657E
S113332E2074696D65004465746563746F20656E01
S113333E204952204300495220552049646C65208F
S113334E616761696E00427974652025643A2030A4
S113335E78253032582028446563696D616C3A20B3
S113336E2564290A002D00312E302E300067697431
S113337E6875622E636F6D2F6B6F62616368616A2D
S113338E636869722F484353523034656E43005458
S113339E435254204120454E41424C45440054432F
S11333AE5254205520454E41424C45440053656EBF
S11333BE736F722063616E616C2025752063616C7E
S11333CE69627261646F20636F6E207468726573D4
S11333DE686F6C642025750A004C494220444542AE
S11333EE5547202D2048435352303420466C616794
S11333FE73205265736574004C494220444542550E
S113340E47202D2048435352303420496E69636956
S113341E61646F004C4942204445425547202D209B
S113342E4843535230342053746172743A205452C8
S113343E49474745525F414C4C4F5745442074729F
S113344E7565004C4942204445425547202D20487D
S113345E4353523034205374617274206661696C24
S113346E65643A20545249474745525F414C4C4F8C
S113347E5745442066616C7365004C4942204445AF
S113348E425547202D204843535230342053746103
S113349E7274206661696C65643A2077726F6E6728
S11334AE207374617465004C49422044454255476B
S11334BE202D20545249474745525F46494E4953A1
S11334CE48206C6962004C494220444542554720CD
S11334DE2D204543484F20524953494E472062619F
S11334EE6A6F004C4942204445425547202D2043E3
S11334FE414C43554C414E444F004C4942204445A7
S113350E425547202D2043616C63756C61646F2CAA
S113351E20706173616E646F2061206573746164E1
S10B352E6F206C6973746F00D7
S9030000FC
