S01700004763634170706C69636174696F6E312E737265635B
S11300000C9434000C9451000C9451000C94510045
S11300100C9451000C9451000C9451000C94EF0278
S11300200C9451000C9451000C9456000C94C7008D
S11300300C944A010C94B6000C9451000C94510099
S11300400C9451000C9451000C9451000C945100E8
S11300500C9451000C9451000C9451000C945100D8
S11300600C9451000C94510011241FBECFEFD8E022
S1130070DEBFCDBF15E0A0E0B1E0EAE8FCE102C0DC
S113008005900D92AC3DB107D9F726E0ACEDB5E093
S113009001C01D92A737B207E1F70E94DE030C945A
S11300A0430E0C9400000E944B0B08951F920F9274
S11300B00FB60F9211242F933F938F939F93AF9377
S11300C0BF93EF93FF9380916406823019F08330DD
S11300D019F13FC08091630684FF3BC020918600E4
S11300E0309187008091E20590E0A0E0B0E0DC016F
S11300F099278827820F931FA11DB11D809357064E
S113010090935806A0935906B0935A06E3E6F6E096
S113011080818F7E80831DC020918600309187006E
S11301208091E20590E0A0E0B0E0DC019927882707
S1130130820F931FA11DB11D80935B0690935C06F3
S1130140A0935D06B0935E06E3E6F6E080818064EA
S11301508083FF91EF91BF91AF919F918F913F91D8
S11301602F910F900FBE0F901F9018951F920F9212
S11301700FB60F9211248F938091E2058F5F8093C5
S1130180E2058F910F900FBE0F901F9018951F924C
S11301900F920FB60F921124EF92FF920F931F93B9
S11301A02F933F934F935F936F937F938F939F937B
S11301B0AF93BF93CF93EF93FF93E8E8F0E0808190
S11301C09181805C93469183808380913206826022
S11301D080933206C0E045C0EC2EF12CF701EE0FFF
S11301E0FF1FE25BF94F00811181F801818180FFDB
S11301F037C0818181FF08C0818182FD05C080EA0A
S11302009FE09383828307C0F80184810E942108C0
S1130210F80193838283C11123C0F701EE0FFF1FFE
S1130220E25BF94FA081B1812C9181E090E002C0A2
S1130230880F991F2A95E2F795B1892B85B92091EA
S11302408400309185000190F081E02D82819381BA
S1130250820F931F90938B0080938A001092DD0588
S1130260CF5FC33008F4B8CFFF91EF91CF91BF9126
S1130270AF919F918F917F916F915F914F913F913A
S11302802F911F910F91FF90EF900F900FBE0F9041
S11302901F9018951F920F920FB60F9211242F934F
S11302A03F934F935F936F937F938F939F93AF93FA
S11302B0BF93CF93DF93EF93FF93E091DD05F0E0DD
S11302C0EE0FFF1FE25BF94F0190F081E02D2081DA
S11302D081E090E002C0880F991F2A95E2F780958B
S11302E0909595B1892385B9E091DD05F0E0EE0F95
S11302F0FF1FE25BF94F0190F081E02D818181FFC6
S113030071C0E091DD05F0E0EE0FFF1FE25BF94FF5
S11303100190F081E02D818182FF64C0E091DD05D0
S1130320F0E0EE0FFF1FE25BF94F0190F081E02D4A
S113033081818B7F8183E091DD05F0E0EE0FFF1F6B
S1130340E25BF94F0190F081E02D81818D7F818303
S1130350E091DD05F0E0EE0FFF1FE25BF94F019045
S1130360F081E02D8AE58483E091DD05F0E0EE0F75
S1130370FF1FE25BF94FC081D181E091DD05F0E020
S1130380EE0FFF1FE25BF94F80810E9421089B83DF
S11303908A838091DD0581110AC0E8EFF5E082814E
S11303A08860828382E291E00E944B0B1BC08091A3
S11303B0DD05813051F4EEE6F6E0828188608283C7
S11303C08BE391E00E944B0B0DC08091DD058230E0
S11303D049F4E4E5F6E082818860828384E591E073
S11303E00E944B0B8091DD058F5F8093DD0580912A
S11303F0DD05833008F091C0E091DD05F0E0EE0FFB
S1130400FF1FE25BF94F0190F081E02D818180FFB5
S11304102CC0E091DD05F0E0EE0FFF1FE25BF94F29
S11304200190F081E02D208181E090E002C0880FEE
S1130430991F2A95E2F795B1892B85B920918400FB
S113044030918500E091DD05F0E0EE0FFF1FE25BE7
S1130450F94F0190F081E02D82819381820F931FE7
S113046090938B0080938A0058C0E091DD05F0E002
S1130470EE0FFF1FE25BF94F0190F081E02D208128
S113048081E090E002C0880F991F2A95E2F78095D9
S1130490909595B1892385B98091DD058F5F80930F
S11304A0DD058091DD058330C0F5E091DD05F0E0E8
S11304B0EE0FFF1FE25BF94F0190F081E02D818187
S11304C080FF2BC0E091DD05F0E0EE0FFF1FE25B43
S11304D0F94F0190F081E02D208181E090E002C08D
S11304E0880F991F2A95E2F795B1892B85B9209138
S11304F0840030918500E091DD05F0E0EE0FFF1FF0
S1130500E25BF94F0190F081E02D82819381820FAB
S1130510931F90938B0080938A00FF91EF91DF915A
S1130520CF91BF91AF919F918F917F916F915F9187
S11305304F913F912F910F900FBE0F901F901895E0
S1130540A4E8B0E011961C921E9286B3806286BB2A
S1130550EFE6F0E0808187628083E1E8F0E080816B
S1130560806480838081826080838D919C91805C93
S1130570934690938900809388000895E1EBF0E01E
S11305808081876080838BE98093B300E0E7F0E0AB
S11305908081826080831092B200089584B1806269
S11305A084B985B1806285B98AB188608AB984B119
S11305B08E7F84B98AB18F7E8AB984B1826084B90E
S11305C084B1846084B984B1886084B90E94580875
S11305D08BB1877F8BB98BB18F7E8BB908951F92B6
S11305E00F920FB60F9211242F933F934F935F9363
S11305F06F937F938F939F93AF93BF93EF93FF93E7
S113060080910A0681FFC9C080916406813051F54A
S11306108091330685FD0DC00E947509E3E6F6E07E
S11306208081816080838091330680628093330669
S113063019C00E947909E3E6F6E080818260808334
S1130640809133068D7D88608093330680818F7D11
S1130650808382E0809364068081806180838081CE
S11306608D7F8083809164068230D1F4809163060B
S113067084FF16C0809133068970883089F4809194
S1130680DE05811106C08091DE058F5F8093DE0553
S113069007C0809133068160809333061092DE0593
S11306A08091630685FD22C08091330684FD1EC0BF
S11306B08091E105873030F48091E1058F5F80936C
S11306C0E10507C080913306806180933306109260
S11306D0E1058091630683FF09C06091330666FBE0
S11306E0662760F987E596E00E944A0A8091DF0553
S11306F08A3030F48091DF058F5F8093DF0507C077
S113070080910A06886080930A061092DF05809122
S11307100A0686FF0EC08091E0058F3F29F4809180
S11307200A06846080930A068091E0058F5F8093B7
S1130730E0058091F30581FF0DC09091F7059A3093
S113074020F49F5F9093F70505C0E2EFF5E0158272
S1130750846081838091690681FF0DC090916D064C
S11307609A3020F49F5F90936D0605C0E8E6F6E0AA
S113077015828460818380913A0680FF05C083FDE1
S113078003C0886080933A068091E30580FF05C02A
S113079083FD03C088608093E305FF91EF91BF91CF
S11307A0AF919F918F917F916F915F914F913F9105
S11307B02F910F900FBE0F901F90189582E8809391
S11307C00A0680E8809333061092320688E090E0AF
S11307D00E948909E1E7F6E08EE091E09383828349
S11307E080E091E0918380831092DF050E94CE0225
S11307F00E94A0020E94BE020E947E0863E570E08F
S113080087E596E00E942B0A6091330666FB662713
S113081060F987E596E00E94B4094BEF55E067E57F
S113082076E089E496E00E9424058AE196E00E943D
S11308308B05809133068260809333068FEB94E0BE
S11308400E944B0B78948091320680FF05C08AE1A8
S113085096E00E946D0769C08091DC05811123C078
S11308608DE691E00E944B0B80913A0680FF03C015
S1130870846080933A068091E30580FF03C084601E
S11308808093E30580910B0680FF03C0846080930E
S11308900B068091FB0580FF03C084608093FB05F9
S11308A081E08093DC0580913A0682FF04C08AE3EC
S11308B096E00E94B7088091E30582FF04C083EEAE
S11308C095E00E94B7088091E30582FF04C083EE9F
S11308D095E00E94B7088091E30582FF04C083EE8F
S11308E095E00E94B70880913A0682FD06C0809187
S11308F0E30582FF04C080E003C080E001C081E022
S1130900882399F087E891E00E944B0B809132068E
S1130910816080933206109243061092EC05109287
S11309201406109204060E943E056AE176E089E40A
S113093096E00E943B060E9420084C9B0AC08091CE
S11309400A0686FD06C01092E005806480930A06BC
S113095028C080910A0686FF24C04C9922C08F7B50
S113096080930A0682FF04C089EA91E00E944B0B3F
S11309708091E0058A3030F480910A06982F9470B3
S113098082FF06C080910A06816080930A0609C02E
S11309901092E005992329F080910A068B7F8093B9
S11309A00A068091330684FF08C08F7E8093330645
S11309B0E3E6F6E080818062808380910A0683FF0B
S11309C008C0877F80930A068091330682608093F3
S11309D0330680910A0680FF03C08E7F80930A0647
S11309E08091320681FF2FCF8D7F809332068091D4
S11309F03A0680FF07C082FF05C083FD03C08860FC
S1130A0080933A068091E30580FF07C082FF05C00A
S1130A1083FD03C088608093E30580910B0680FF0B
S1130A2007C082FF05C083FD03C0886080930B0666
S1130A308091FB0580FF07CF82FF05CF83FD03CFA5
S1130A4088608093FB05FFCECF93DF9300D0CDB7B2
S1130A50DEB7FC015A83498387E596E0918380835E
S1130A60CE01019693838283148288EB91E00E94E5
S1130A704B0B0F900F90DF91CF910895CF93DF939D
S1130A802AE530E041E050E060E070E082EF95E07C
S1130A900E9434082AE530E042E050E061E070E072
S1130AA088E696E00E943408EEE4F6E082EF95E0F2
S1130AB09183808388E696E09383828384E396E03F
S1130AC0958384831092DD0589ED91E00E944B0BA0
S1130AD0C8EFD5E081E08983809142068883AEE641
S1130AE0B6E082E011968C9311978091EB058C937C
S1130AF0E4E5F6E083E0818380911306808388E057
S1130B008A8312968C93828385EE91E00E944B0B2C
S1130B10DF91CF910895FC018CE191E09183808372
S1130B2088EF95E0938382838EE696E095838483B1
S1130B3084E596E09783868380913306882344F482
S1130B4082EF91E00E944B0B84E292E00E944B0BF7
S1130B5008958E3B98F09091330699230CF083C04E
S1130B601F928F9389E492E09F938F930E94350B99
S1130B700F900F900F900F9084E008959EEB981BB8
S1130B80973398F480913306807809F473C01F92E8
S1130B909F9389E792E09F938F930E94350B0F9068
S1130BA00F900F900F9080E00895DB01ED91FC9180
S1130BB080819817B0F08181891798F0809133066D
S1130BC088230CF052C01F929F9382EA92E09F9375
S1130BD08F930E94350B0F900F900F900F9081E030
S1130BE0089582819817A8F08381891790F08091E5
S1130BF033068823E4F51F929F9387EB92E09F933B
S1130C008F930E94350B0F900F900F900F9082E0FE
S1130C10089584819817A8F08581891790F08091B0
S1130C203306882334F51F929F938CEC92E09F93B4
S1130C308F930E94350B0F900F900F900F9083E0CD
S1130C400895809133068078A9F01F929F9381EED6
S1130C5092E09F938F930E94350B0F900F900F900B
S1130C600F9080E0089584E0089581E0089582E083
S1130C70089583E00895FF920F931F93CF93DF931A
S1130C80EC018B0180910A068823A4F5E881F9819F
S1130C90848585FF2FC08091330681FF2BC0CF014F
S1130CA00E94670A8823C1F08091330686FF04C03E
S1130CB08FE093E00E944B0B80910A068F7780931C
S1130CC00A06809133068D7F80933306E881F9818B
S1130CD084858F7D84870EC08091330686FF04C08F
S1130CE08AE093E00E944B0B8091330684608D7FF1
S1130CF080933306888199810E94950AE881F9815D
S1130D008585853009F0B2C0848588230CF0AEC097
S1130D1084858F778487E881F98180859185A28590
S1130D20B3858F3B9105A105B105B0F08C8181603D
S1130D308C83982F92959F70923051F48F708C838E
S1130D4080913306882324F48AE193E00E944B0BBC
S1130D508C818F708C837EC08C81982F92959F702C
S1130D6009F078C08F7080618C8380859185A2851D
S1130D70B385B8010E94A905F82E84E0F81609F499
S1130D8065C0E881F98180859185A285B385E1E01C
S1130D90FE1649F0FE16B0F0F2E0FF1649F083E0CB
S1130DA0F81659F014C083E393E00E944B0B13C070
S1130DB08EE393E00E944B0B0EC089E493E00E9403
S1130DC04B0B09C084E593E00E944B0B04C082E600
S1130DD093E00E944B0BF1100DC0F80180899189BA
S1130DE0A289B3890196A11DB11D808B918BA28B21
S1130DF0B38B0CC0F80184859585A685B7850196CB
S1130E00A11DB11D84879587A687B787F8018085C2
S1130E109185A285B3850196A11DB11D8087918717
S1130E20A287B387EF2DF0E03596EE0FFF1FEE0F8C
S1130E30FF1FE00FF11F80819181A281B381019690
S1130E40A11DB11D80839183A283B3838C818F7094
S1130E5080628C83888199810E94060AE881F981E5
S1130E60158680910A06806880930A06809133066D
S1130E7080FF2DC086FF04C085E793E00E944B0BE2
S1130E80809133068E7F877F80933306E881F981D2
S1130E90848588608487E881F98186E0858760910C
S1130EA0330666FB662760F9888199810E944A0AA5
S1130EB0882341F08091330686FF04C088E893E0DC
S1130EC00E944B0B80910A06806880930A06DF918A
S1130ED0CF911F910F91FF90089580913A0680FF62
S1130EE009C083FF07C0877F80933A068AE396E0B0
S1130EF00E94F6088AE396E00E942709892B01F1F3
S1130F0080913A0682958F708230D1F48091FA05EF
S1130F1083FF0DC0877F8093FA05E2EFF5E08181BE
S1130F208260818315828AEA93E00E944B0BEAE394
S1130F30F6E080818F7080838FEC93E00E944B0BEE
S1130F408091E30580FF09C083FF07C0877F8093FA
S1130F50E30583EE95E00E94F60883EE95E00E9497
S1130F602709892B01F18091E30582958F708230E6
S1130F70D1F48091700683FF0DC0877F8093700643
S1130F80E8E6F6E081818260818315828FED93E04B
S1130F900E944B0BE3EEF5E080818F70808384E048
S1130FA094E00E944B0B80910B0680FF09C083FFE5
S1130FB007C0877F80930B068BE096E00E94F608BB
S1130FC08BE096E00E942709892B99F080910B060B
S1130FD0982F92959F70923061F4EEE6F6E092813C
S1130FE0926092838F7080930B0684E194E00E9458
S1130FF04B0B8091FB0580FF09C083FF07C0877FEF
S11310008093FB058BEF95E00E94F6088BEF95E04B
S11310100E942709892B99F08091FB05982F9295BE
S11310209F70923061F4EEE6F6E0928192609283D2
S11310308F708093FB0584E294E00E944B0B08952B
S11310400895853B08F084EB282F30E0A0EDB7E04D
S11310500E941B0B24EB30E040E050E00E94F90AB0
S1131060C9018053984F08950F931F93CF93DF9333
S1131070EC01042F122F1F926F9384E394E09F934B
S11310808F930E94350B1982812F0E9421089B8324
S11310908A8308831C831D828981816089830F90E0
S11310A00F900F900F90DF91CF911F910F910895A2
S11310B087B1807F87B988B1807F88B980E48093C5
S11310C07C0086E880937A0008958430A0F4ECE7ED
S11310D0F0E09081907F892B8083EAE7F0E08081C3
S11310E08064808380917A0086FDFCCF80917800B3
S11310F090917900089580E090E00895CF93DF9374
S1131100EAE3F6E0178210861282118216821582B3
S1131110C4E1C687D1E0D08383E494E00E944B0B02
S1131120E3EEF5E0D783D08712821182168215820E
S1131130C687D08382E594E00E944B0BEBE0F6E097
S1131140108282E087838087128211821682158240
S1131150C687EBEFF5E0108283E0878380871282F5
S1131160118216821582C687DF91CF910895CF939D
S1131170DF93EC01888183FF36C0877F888389856C
S1131180811102C01E821D828F810E9465082D81FB
S11311903E81280F391F3E832D8399859F5F998750
S11311A09A3008F1ADECBCEC0E941B0B9695879528
S11311B096958795969587959C838B831986288128
S11311C02B7F28832F819F938F931F922F9381E6E8
S11311D094E09F938F930E94350B0F900F900F9084
S11311E00F900F900F90DF91CF9108950F931F935D
S11311F0CF93DF93EC018F810E9465089E838D83DA
S11312004A855B856C857D858A019B01080F191FC2
S1131210211D311DC901B8010A871B872C873D8711
S113122029852F5F29872A3068F02AE030E040E0E2
S113123050E00E94F90A3A8329831A861B861C8689
S11312401D861986DF91CF911F910F910895CF923A
S1131250DF92EF92FF92CF93DF93EC01AB81BC81DD
S11312608E850F2EF4E6CF2ED12CE12CF12CF02D0F
S1131270A7019601281B3109410951090E942A0B33
S1131280A70196010E94F90A89819A816C01E12CD7
S1131290F12C81E0C216D306E406F50608F080E0DE
S11312A0C216D306E406F50650F49881E92FE295B8
S11312B0EF7029F49A609F70906198830FC0C216F2
S11312C0D306E406F50650F09881292F22952F7055
S11312D0213021F498609D7090629883DF91CF91C2
S11312E0FF90EF90DF90CF9008958BB188608BB919
S11312F008958BB1877F8BB90895E1E8F0E0808190
S1131300806480830895E1E8F0E080818F7B8083AE
S113131008959093C5008093C40088E18093C10030
S113132086E08093C20008959091C00095FFFCCFA1
S11313308093C60008958091C0008823E4F78091CB
S1131340C6000895CF93C82F8A3019F48DE00E9407
S113135094098C2F0E94940980E090E0CF91089525
S11313600E949B0990E00895FC01668708950F93FD
S11313701F93CF93DF93EC018C819D81AE81BF815C
S1131380488159816A817B818C019D01041B150B65
S1131390260B370BB901A801D901C801880F991F81
S11313A0AA1FBB1F880F991FAA1FBB1F880F991F55
S11313B0AA1FBB1F880F991FAA1FBB1F8C019D0169
S11313C0040F151F261F371FC901B801660F771FA9
S11313D0881F991F20E931E040E050E00E94F90A9B
S11313E0288739874A875B878C8580688C87DF915B
S11313F0CF911F910F910895DC011F96ED91FC91FF
S11314005097309711F0CB0109950895CF93DF934E
S1131410EC01188219821A821B821C821D821E8290
S11314201F82188619861A861B861C868C85806204
S11314308C871D860E947D098F859889892B41F0B0
S11314408E85882329F06DE874E0CE010E94FC09A2
S1131450DF91CF9108950F931F93CF93DF93EC0106
S11314608B010E94060A81E08E870115110519F48B
S1131470188A1F860AC0188B0F878E85882329F047
S11314806CEA74E0CE010E94FC09DF91CF911F91B8
S11314900F9108951F93CF93DF93FC012585263088
S11314A071F4162FEC010E94060A1E871E85112373
S11314B041F068E873E0CE010E94FC0903C010E02B
S11314C001C011E0812FDF91CF911F910895CF9337
S11314D0FC018585882319F085858530C1F48485D0
S11314E085FF0BC081E08587C685CC23D1F068ECED
S11314F074E0CF010E94FC0915C0C685CC2391F08D
S113150067EF74E0CF010E94FC09C0E00BC0C68500
S1131510CC2341F06EE275E0CF010E94FC09C0E0EB
S113152001C0C1E08C2FCF910895CF93DF93EC01DC
S11315308D85833071F128F4813049F08230A1F037
S113154055C08430E1F1863009F44DC04FC08C851C
S113155081FF4CC08E85882309F448C06BE575E093
S1131560CE010E94FC0942C08C8584FD0CC083E03E
S11315708D870E9483098E85882329F06AE775E0A8
S1131580CE010E94FC098C8583FF30C086E08D87E4
S11315902DC08C8586FF0DC084E08D878E858823C1
S11315A029F067E975E0CE010E94FC098C8584600E
S11315B08C878C8583FF1AC086E08D8717C08C8545
S11315C082FF14C0CE010E94B7098C858B7F8C8763
S11315D08E85882329F06EEA75E0CE010E94FC090D
S11315E085E08D8703C08C8588608C87DF91CF91DF
S11315F00895A1E21A2EAA1BBB1BFD010DC0AA1F50
S1131600BB1FEE1FFF1FA217B307E407F50720F067
S1131610A21BB30BE40BF50B661F771F881F991FE2
S11316201A9469F760957095809590959B01AC012B
S1131630BD01CF010895A29FB001B39FC001A39F34
S1131640700D811D1124911DB29F700D811D1124F7
S1131650911D08950E941B0BA59F900DB49F900DA2
S1131660A49F800D911D11240895A0E0B0E0EBE348
S1131670FBE00C941C0EAE014B5F5F4FFA016191CD
S11316807191AF0180917306909174060E947B0B57
S1131690E2E00C94380E0F931F93CF93DF93E09105
S11316A07306F0917406238121FF1BC08C01D0E0E6
S11316B0C0E0F80181918F01609173067091740606
S11316C0DB011896ED91FC911997882331F0099567
S11316D0892B79F3DFEFCFEFECCF8AE00995892BE3
S11316E019F08FEF9FEF02C08D2F9C2FDF91CF91C8
S11316F01F910F910895ABE0B0E0E1E8FBE00C949A
S11317000C0E6C017B018A01FC0117821682838115
S113171081FFCCC1CE0101963C01F6019381F70112
S113172093FD859193FF81917F01882309F4BAC1C8
S1131730853239F493FD859193FF81917F01853240
S113174029F4B60190E00E94720DE7CF912C212C70
S1131750312CFFE1F315D8F08B3279F038F4803274
S113176079F08332A1F4232D20611DC08D3261F004
S1131770803369F4232D216016C0832D8260382EB6
S1131780E32DE4603E2E2AC0F32DF8601DC037FC23
S11317902DC020ED280F2A3040F08E32B9F436FCEB
S11317A081C1232D2064322E19C036FE06C08AE082
S11317B0989E200D1124922E11C0EAE02E9E200D39
S11317C01124222EF32DF0623F2E08C08C3621F412
S11317D0832D8068382E02C0883641F4F70193FDCA
S11317E0859193FF81917F018111B3CF982F9F7DC4
S11317F09554933028F40C5F1F4F9FE399830DC0D9
S1131800833631F0833771F0833509F059C021C034
S1131810F801808189830E5F1F4F88248394912C63
S1131820530113C02801F2E04F0E511CF801A080AF
S1131830B18036FE03C0692D70E002C06FEF7FEF08
S1131840C5010E94670D4C018201F32DFF773F2EE5
S113185016C0280122E0420E511CF801A080B1807C
S113186036FE03C0692D70E002C06FEF7FEFC50143
S11318700E945C0D4C01F32DF0683F2E820133FC75
S11318801BC0822D90E088169906B0F4B60180E260
S113189090E00E94720D2A94F4CFF50137FC8591F3
S11318A037FE81915F01B60190E00E94720D211014
S11318B02A9421E0821A91088114910471F7E8C0F6
S11318C0843611F0893641F5F80137FE07C060818E
S11318D07181828193810C5F1F4F08C06081718187
S11318E0072E000C880B990B0E5F1F4FF32DFF760C
S11318F03F2E97FF09C090958095709561957F4F15
S11319008F4F9F4FF0683F2E2AE030E0A3010E94E2
S1131910AE0D882E861845C0853731F4232D2F7ED1
S1131920B22E2AE030E025C0932D997FB92E8F3650
S1131930C1F018F4883579F0B5C0803719F08837CC
S113194021F0B0C0E92FE061BE2EB4FE0DC0FB2D26
S1131950F460BF2E09C034FE0AC0292F2660B22EBF
S113196006C028E030E005C020E130E002C020E1FC
S113197032E0F801B7FE07C06081718182819381F2
S11319800C5F1F4F06C06081718180E090E00E5FA4
S11319901F4FA3010E94AE0D882E8618FB2DFF77E2
S11319A03F2E36FE0DC0232D2E7FA22E891458F40F
S11319B034FE0BC032FC09C0832D8E7EA82E05C0D8
S11319C0B82CA32C03C0B82C01C0B92CA4FE0FC0A2
S11319D0FE01E80DF11D8081803321F49A2D997E5A
S11319E0A92E09C0A2FE06C0B394B39404C08A2DE4
S11319F0867809F0B394A3FC11C0A0FE06C0B2140B
S1131A0088F4280C922C9B180EC0B21460F4B60112
S1131A1080E290E00E94720DB394F7CFB21418F4F0
S1131A202B1802C0982C212CA4FE10C0B60180E310
S1131A3090E00E94720DA2FE17C0A1FC03C088E7CB
S1131A4090E002C088E590E0B6010CC08A2D86784B
S1131A5059F0A1FE02C08BE201C080E2A7FC8DE236
S1131A60B60190E00E94720D891438F4B60180E347
S1131A7090E00E94720D9A94F7CF8A94F301E80DD6
S1131A80F11D8081B60190E00E94720D8110F5CFA6
S1131A90222009F442CEB60180E290E00E94720D49
S1131AA02A94F6CFF6018681978102C08FEF9FEFCB
S1131AB02B96E2E10C94280EFC01059061507040D5
S1131AC00110D8F7809590958E0F9F1F0895FC0103
S1131AD06150704001900110D8F7809590958E0F59
S1131AE09F1F08950F931F93CF93DF93FB012381CF
S1131AF021FD03C08FEF9FEF2CC022FF16C046814B
S1131B005781248135814217530744F4A081B18160
S1131B109D012F5F3F4F318320838C932681378132
S1131B202F5F3F4F3783268314C08B01EC01FB01E9
S1131B300084F185E02D0995892BE1F6D8011696EC
S1131B408D919C911797019617969C938E93169757
S1131B50CE01DF91CF911F910F910895FA01AA2729
S1131B60283051F1203181F1E8946F936E7F6E5FDC
S1131B707F4F8F4F9F4FAF4FB1E03ED0B4E03CD08A
S1131B80670F781F891F9A1FA11D680F791F8A1F6D
S1131B90911DA11D6A0F711D811D911DA11D20D0D4
S1131BA009F468943F912AE0269F11243019305D8E
S1131BB03193DEF6CF010895462F4770405D41937F
S1131BC0B3E00FD0C9F7F6CF462F4F70405D4A33CC
S1131BD018F0495D31FD4052419302D0A9F7EACF94
S1131BE0B4E0A6959795879577956795BA95C9F7C3
S1131BF000976105710508959B01AC010A2E0694B6
S1131C005795479537952795BA95C9F7620F731F6E
S1131C10841F951FA01D08952F923F924F925F92AB
S1131C206F927F928F929F92AF92BF92CF92DF92E8
S1131C30EF92FF920F931F93CF93DF93CDB7DEB74D
S1131C40CA1BDB0B0FB6F894DEBF0FBECDBF0994E1
S1131C502A88398848885F846E847D848C849B8438
S1131C60AA84B984C884DF80EE80FD800C811B8146
S1131C70AA81B981CE0FD11D0FB6F894DEBF0FBE75
S10D1C80CDBFED010895F894FFCFE5
S1131C8A00000001000000000000B009000000008C
S1131C9A000200000000A2090000000037414B5571
S1131CAA5F69566F6C76696F206120706F73696320
S1131CBA696F6E2049444C45204100566F6C766921
S1131CCA6F206120706F736963696F6E2049444C99
S1131CDA45204200566F6C76696F206120706F73DD
S1131CEA6963696F6E2049444C4520430043616C23
S1131CFA696272616E646F2073656E736F72657365
S1131D0A2049522E2E2E00546F646F73206C6F7309
S1131D1A2073656E736F7265732049522063616C18
S1131D2A69627261646F732E0042746E206F766505
S1131D3A72666C6F77656400496E697420686373B0
S1131D4A7230344465746563746F722C2073656EE3
S1131D5A736F722069646C6500496E6974207365D7
S1131D6A72766F7300496E6974206F757470757436
S1131D7A730053595320534F5254455220444542F9
S1131D8A5547202D204D617472697A206465206458
S1131D9A696D656E73696F6E657320696E696369CF
S1131DAA6164610053595320534F5254455220449D
S1131DBA45425547202D2053616C69646173206143
S1131DCA6772656761646173004E6F206861792088
S1131DDA63616A612070726573656E746520287028
S1131DEA6172656420646574656374616461206109
S1131DFA202575206D6D290A0043616A6120646596
S1131E0A6D61736961646F2062616A612028257556
S1131E1A206D6D292C206465736361727461646139
S1131E2A0A0043616A61207469706F204120282581
S1131E3A75206D6D290A0043616A61207469706FA7
S1131E4A204220282575206D6D290A0043616A61A4
S1131E5A207469706F204320282575206D6D290A26
S1131E6A0043616A61206675657261206465207247
S1131E7A616E676F20282575206D6D292C20646595
S1131E8A73636172746164610A004572726F7249A4
S1131E9A6E69744843535230340053656E736F72DB
S1131EAA206C6962657261646F206465206E756571
S1131EBA766F00424F585F53495A455F4100424F7B
S1131ECA585F53495A455F4200424F585F53495A33
S1131EDA455F4300424F585F444953434152444586
S1131EEA44005469706F206E6F207265636F6E6F61
S1131EFA6369646F004843535230342070657264D6
S1131F0A696F204543484F004C4942204445425595
S1131F1A47202D2048435352303420544D444F55C2
S1131F2A5420436C65617265640050757368656416
S1131F3A20736572766F204120616E64207A65721F
S1131F4A6F65642073746174652074696D650044F7
S1131F5A65746563746F20656E2049522041005090
S1131F6A757368656420736572766F204220616EAA
S1131F7A64207A65726F6564207374617465207471
S1131F8A696D65004465746563746F20656E2049E4
S1131F9A522042004465746563746F20656E20495B
S1131FAA522043004465746563746F20656E20494A
S1131FBA52205500496E697420536572766F202544
S1131FCA750A0054435254204120454E41424C451F
S1131FDA440054435254204220454E41424C454405
S1131FEA0053656E736F722063616E616C20257590
S1131FFA2063616C69627261646F20636F6E20741E
S113200A68726573686F6C642025750A004C4942CE
S113201A204445425547202D20484353523034200A
S113202A466C616773205265736574004C4942209B
S113203A4445425547202D204843535230342049C1
S113204A6E69636961646F004C4942204445425594
S113205A47202D20484353523034205374617274FC
S113206A3A20545249474745525F414C4C4F5745D1
S113207A442074727565004C4942204445425547D0
S113208A202D2048435352303420537461727420F3
S113209A6661696C65643A20545249474745525F00
S11320AA414C4C4F5745442066616C7365004C495A
S11320BA42204445425547202D2048435352303448
S11320CA205374617274206661696C65643A20777E
S11320DA726F6E67207374617465004C49422044C0
S11320EA45425547202D20545249474745525F4699
S11320FA494E495348206C6962004C494220444580
S113210A425547202D204543484F20524953494EB2
S113211A472062616A6F004C494220444542554750
S113212A202D2043414C43554C414E444F004C49C9
S113213A42204445425547202D2043616C63756C07
S113214A61646F2C20706173616E646F2061206515
S10F215A737461646F206C6973746F000F
S9030000FC
