S01700004763634170706C69636174696F6E312E737265635B
S11300000C94D2040C94EF040C94EF040C94EF04BD
S11300100C94EF040C94EF040C94EF040C942E084D
S11300200C94EF040C94EF040C94F4040C94650504
S11300300C9401060C9454050C94EF040C94EF04F6
S11300400C94EF040C94EF040C9475070C94D807EB
S11300500C94EF040C94EF040C94EF040C94EF0450
S11300600C94EF040C94EF0453118F128F128F121F
S11300708F128F128F128F128F128F128F128F1274
S11300808F128F128F128F128F12611161118F12C2
S11300908F128F128F128F128F128F128F128F1254
S11300A08F128F128F128F12901178118F128F125C
S11300B08F128F128F128F128F128F128F128F1234
S11300C08F128F128F128F128F128F128F128F1224
S11300D08F128F128F128F128F128F128F128F1214
S11300E08F128F128F128F128F1255126812721282
S11300F083128F128F128F128F128F128F128F1200
S11301008F128F128F128F120E12141222123812A3
S11301103E125C138A148A148A148A148A148A1468
S11301208A148A148A148A148A148A148A148A14DB
S11301308A148A1465136E138A148A148A148A140E
S11301408A148A148A148A148A148A148A148A14BB
S11301508A14771380138A148A148A148A148A14CA
S11301608A148A148A148A148A148A148A148A149B
S11301708A148A148A148A148A148A148A148A148B
S11301808A148A148A148A148A148A148A148A147B
S11301908A142914321448145E1474148A148A14A8
S11301A08A148A148A148A148A148A148A148A145B
S11301B08A14B613C51308141114201442746E2043
S11301C06F766572666C6F7765640A00436F6E665E
S11301D0696720677561726461646120656E20459A
S11301E04550524F4D0A00436F6D616E646F20613C
S11301F06365707461646F200A00496E69636961A4
S1130200646F0A00536572766F204320524553454C
S11302105400536572766F204320505553483A205A
S113022073746174655F74696D65203D2025640A8B
S113023000536572766F2042205245534554005353
S11302406572766F204220505553483A207374618A
S113025074655F74696D65203D2025640A005365EB
S113026072766F204120524553455400536572768F
S11302706F204120505553483A2073746174655F70
S113028074696D65203D2025640A00566F6C76699B
S11302906F206120706F736963696F6E2049444CED
S11302A04520430A00566F6C76696F206120706F99
S11302B0736963696F6E2049444C4520420A0056B5
S11302C06F6C76696F206120706F736963696F6EFC
S11302D02049444C4520410A0049535220434F4D84
S11302E0504120505553482025642E2E2E0A004399
S11302F06F6E6669677572616369F36E2076E16C8F
S113030069646120656E20454550524F4D0A004393
S11303106865636B73756D20454550524F4D206978
S11303206E76616C69646F0A004465746563746F0A
S113033020656E20495220550A0044657465637433
S11303406F20656E20495220430A0050757368651A
S11303506420736572766F204320616E64207A6531
S1130360726F65642073746174652074696D650AC5
S1130370004465746563746F20656E2049522042A1
S11303800A0050757368656420736572766F204245
S113039020616E64207A65726F6564207374617481
S11303A0652074696D650A004465746563746F2023
S11303B0656E20495220410A0050757368656420B7
S11303C0736572766F204120616E64207A65726F66
S11303D065642073746174652074696D650A0053E3
S11303E04552564F5F5055534820410A004C4942EC
S11303F0204445425547202D204843535230342051
S1130400544D444F555420436C65617265640A0031
S11304104843535230342070657264696F204543F9
S1130420484F0A00436F6E74616461733A20257506
S11304300A005469706F206E6F207265636F6E6F6F
S11304406369646F0A00424F585F44495343415201
S11304504445440A00424F585F53495A455F256357
S11304600A00424F585F4449534341524445440AA9
S11304700053616C69646120256320627573790A95
S1130480005469706F2064657465637461646F3AC5
S1130490202575202D2053616C69646120303A2039
S11304A025752C20313A2025752C20323A202575CB
S11304B00A0053656E736F72206C696265726164C1
S11304C06F206465206E7565766F0A004572726FE1
S11304D072496E69744843535230340A0043616A66
S11304E0612066756572612064652072616E676F54
S11304F020282575206D6D292C2064657363617235
S1130500746164610A0043616A61207469706F20D8
S11305104320282575206D6D290A0043616A6120F6
S11305207469706F204220282575206D6D290A009A
S113053043616A61207469706F2041202825752009
S11305406D6D290A0043616A612064656D61736998
S113055061646F2062616A6120282575206D6D29B0
S11305602C20646573636172746164610A004E6F68
S1130570206861792063616A612070726573656EB9
S113058074652028706172656420646574656374A1
S11305906164612061202575206D6D290A0053591D
S11305A05320534F52544552204445425547202D21
S11305B02053616C6964617320616772656761646B
S11305C061730A0053595320534F525445522044E7
S11305D045425547202D204D617472697A20646527
S11305E02064696D656E73696F6E657320696E69E9
S11305F06369616C697A6164610A005359532053D9
S11306004F52544552204445425547202D205369AA
S11306106E20636F6E66696775726163696F6E20C1
S113062067756172646164610A00436F6E6669672D
S113063020636172676164613A2053616C6964612B
S11306402030203D2025752C2053616C6964612085
S113065031203D2025752C2053616C696461203262
S1130660203D2025750A00436F6D616E646F206420
S11306706573636F6E6F6369646F0A0044656275C6
S11306806720454550524F4D2025730A004F46467A
S1130690004F4E00446562756720534F52544552D3
S11306A02025730A004F4646004F4E00446562758C
S11306B06720534552564F532025730A004F464630
S11306C0004F4E00446562756720554C54524120DA
S11306D025730A004F4646004F4E00436F6D616E0E
S11306E0646F20696E76616C69646F0A0052657389
S11306F0657465617220636F6E66696775726163A4
S1130700696F6E0A004F6274656E6572207265705F
S11307106F7369746F72696F3A2025530A006769B1
S1130720746875622E636F6D2F6B6F6261636861AD
S11307306A636869722F484353523034656E4300CC
S11307404C696D7069617220657374616469737456
S1130750696361730A005469706F20433A202575F8
S11307600A005469706F20423A2025750A005469C2
S1130770706F20413A2025750A00446573636172E5
S113078074616461733A2025750A004D6564696477
S113079061733A2025750A004F6274656E65722094
S11307A06573746164697374696361730A004F6289
S11307B074656E6572206669726D776172653A2040
S11307C025530A00312E302E300053616C69646168
S11307D020323A205469706F203D2025630A00536B
S11307E0616C69646120313A205469706F203D2046
S11307F025630A0053616C69646120303A205469AE
S1130800706F203D2025630A004F6274656E657227
S113081020636F6E6669677572616369F36E3A0A85
S113082000536574656172206E7565766120636F2F
S11308306E66696775726163696F6E0A00446574F8
S1130840656E6572206F706572616369F36E0A008C
S1130850496E6963696172206F706572616369F3DF
S11308606E0A00436F6D616E646F20414C495645BA
S113087020726563696269646F0A00436F6D616E1B
S1130880646F2072656368617A61646F0A00506105
S1130890796C6F61642067656E657269636F3A2075
S11308A025730A004F6274656E65722073746174F7
S11308B0730A00466F726D61746F20646520746FF3
S11308C06B656E20696E76616C69646F3A2025737E
S11308D00A0053616C6964612025643A2043616AAB
S11308E061207469706F203D2025630A0053746190
S11308F07475733A2025750A00414C4956450A001F
S1130900436B7320696E76616C69646F2C2063613C
S11309106C63756C61646F3A203078253032582CE2
S113092020726563696269646F3A203078253032D9
S1130930580A004C656E677468206D61796F722087
S1130940612025752C207365207065726465726959
S11309506120646174612064656C206275666665FB
S1130960720A00436F6D616E646F20696E76616C0C
S113097069646F0A00546F6B656E20696E76616CF2
S113098069646F0A00427974652025643A203078DE
S1130990253032582028446563696D616C3A2025FE
S11309A064290A0011241FBECFEFD8E0DEBFCDBFFB
S11309B013E0A0E0B1E0EEE8F5E302C005900D928B
S11309C0A030B107D9F723E0A0E0B3E001C01D9245
S11309D0A03FB207E1F70E94C0090C94C51A0C9419
S11309E000000E949B1708951F920F920FB60F925A
S11309F011242F933F938F939F93AF93BF93EF93C0
S1130A00FF9380918F03823019F0833019F13FC036
S1130A1080918E0384FF3BC0209186003091870033
S1130A208091070390E0A0E0B0E0DC0199278827DB
S1130A30820F931FA11DB11D8093820390938303A2
S1130A40A0938403B0938503EEE8F3E080818F7E66
S1130A5080831DC020918600309187008091070318
S1130A6090E0A0E0B0E0DC0199278827820F931F73
S1130A70A11DB11D8093860390938703A0938803DF
S1130A80B0938903EEE8F3E0808180648083FF9172
S1130A90EF91BF91AF919F918F913F912F910F90C3
S1130AA00FBE0F901F9018951F920F920FB60F92C2
S1130AB011248F93809107038F5F809307038F9195
S1130AC00F900FBE0F901F9018951F920F920FB6A4
S1130AD00F921124EF92FF920F931F932F933F9342
S1130AE04F935F936F937F938F939F93AF93BF9332
S1130AF0CF93EF93FF93E8E8F0E080819181805CED
S1130B009346918380838091330380618093330380
S1130B10C0E05EC0EC2EF12CF701EE0FFF1FE85889
S1130B20FC4F00811181F801818180FF50C08181D7
S1130B3081FF21C0818182FD1EC080EA9FE09383F2
S1130B40828380915B0380FF1DC0F701EE0FFF1FBE
S1130B50E858FC4F0190F081E02D80811F928F9323
S1130B6089ED92E09F938F930E9475170F900F90D9
S1130B700F900F9007C0F80184810E949514F8012A
S1130B8093838283C11123C0F701EE0FFF1FE8583E
S1130B90FC4FA081B1812C9181E090E002C0880FCC
S1130BA0991F2A95E2F795B1892B85B92091840084
S1130BB0309185000190F081E02D82819381820F34
S1130BC0931F90938B0080938A0010920203CF5F4F
S1130BD0C33008F49FCFFF91EF91CF91BF91AF91B4
S1130BE09F918F917F916F915F914F913F912F9141
S1130BF01F910F91FF90EF900F900FBE0F901F90D9
S1130C0018951F920F920FB60F9211242F933F93B2
S1130C104F935F936F937F938F939F93AF93BF9300
S1130C20CF93DF93EF93FF93E0910203F0E0EE0F95
S1130C30FF1FE858FC4F0190F081E02D208181E0F6
S1130C4090E002C0880F991F2A95E2F7809590954D
S1130C5095B1892385B9E0910203F0E0EE0FFF1FFF
S1130C60E858FC4F0190F081E02D818181FF8FC015
S1130C70E0910203F0E0EE0FFF1FE858FC4F0190F3
S1130C80F081E02D818182FF82C0E0910203F0E0D7
S1130C90EE0FFF1FE858FC4F0190F081E02D818199
S1130CA08B7F8183E0910203F0E0EE0FFF1FE85891
S1130CB0FC4F0190F081E02D81818D7F8183E09153
S1130CC00203F0E0EE0FFF1FE858FC4F0190F081A3
S1130CD0E02D8AE58483E0910203F0E0EE0FFF1F2C
S1130CE0E858FC4FC081D181E0910203F0E0EE0F9F
S1130CF0FF1FE858FC4F0190F081E02D84810E9491
S1130D0095149B838A8380910203811113C0EFE1C0
S1130D10F3E0828188608E7F828380915B0380FF11
S1130D2036C08FEB92E09F938F930E9475170F90BC
S1130D300F902DC080910203813099F4E6EEF3E028
S1130D40828188608E7F828380915B0380FF1FC0D5
S1130D5085EA92E09F938F930E9475170F900F90EE
S1130D6016C080910203823091F4EEE7F3E08281B1
S1130D7088608E7F828380915B0380FF08C08BE84C
S1130D8092E09F938F930E9475170F900F9080911C
S1130D9002038F5F8093020380910203833008F083
S1130DA091C0E0910203F0E0EE0FFF1FE858FC4F02
S1130DB00190F081E02D818180FF2CC0E09102033D
S1130DC0F0E0EE0FFF1FE858FC4F0190F081E02D9A
S1130DD0208181E090E002C0880F991F2A95E2F7F4
S1130DE095B1892B85B92091840030918500E091DB
S1130DF00203F0E0EE0FFF1FE858FC4F0190F08172
S1130E00E02D82819381820F931F90938B008093B6
S1130E108A0058C0E0910203F0E0EE0FFF1FE8588B
S1130E20FC4F0190F081E02D208181E090E002C030
S1130E30880F991F2A95E2F78095909595B189239B
S1130E4085B9809102038F5F80930203809102032E
S1130E508330C0F5E0910203F0E0EE0FFF1FE85885
S1130E60FC4F0190F081E02D818180FF2BC0E09147
S1130E700203F0E0EE0FFF1FE858FC4F0190F081F1
S1130E80E02D208181E090E002C0880F991F2A950F
S1130E90E2F795B1892B85B92091840030918500C2
S1130EA0E0910203F0E0EE0FFF1FE858FC4F0190C1
S1130EB0F081E02D82819381820F931F90938B00A8
S1130EC080938A00FF91EF91DF91CF91BF91AF9111
S1130ED09F918F917F916F915F914F913F912F914E
S1130EE00F900FBE0F901F9018951F920F920FB680
S1130EF00F9211242F933F934F938F939F93AF930C
S1130F00BF93EF93FF934091C6008091990390E0C3
S1130F1001968F739078992324F40197806C9F6FC6
S1130F20019690919A03891311C020919A0330E09D
S1130F302F5F3F4F2F733078332334F4215031091E
S1130F40206C3F6F2F5F3F4F20939A03A9E9B3E0D2
S1130F50EC91F0E0E756FC4F42838C939C91119600
S1130F608C911197981728F0FD0180819181891B3C
S1130F7006C0E9E9F3E080819181891B805C8630B9
S1130F8048F08091DB0381FD05C0EBEDF3E0808147
S1130F9082608083FF91EF91BF91AF919F918F9178
S1130FA04F913F912F910F900FBE0F901F90189566
S1130FB01F920F920FB60F9211242F933F938F938A
S1130FC09F93AF93BF93EF93FF9320911E0330E061
S1130FD08091E00390E0089628173907FCF480918B
S1130FE01E038F5F80931E03A9E9B3E01196EC9171
S1130FF01197F0E0E756FC4F82818093C60011966A
S11310008C9190E001968F739078992324F4019742
S1131010806C9F6F019680939A0313C0EBEDF3E00D
S113102080818F70806B8083E1ECF0E080818F7D24
S1131030808380915B03877F80935B0380818068DA
S11310408083FF91EF91BF91AF919F918F913F91D9
S11310502F910F900FBE0F901F9018951F920F9213
S11310600FB60F9211242F933F934F935F936F9377
S11310707F938F939F93AF93BF93EF93FF9380914D
S11310808F03813051F580915C0385FD0DC00E9472
S11310905215EEE8F3E080818160808380915C03E7
S11310A0806280935C0319C00E945615EEE8F3E059
S11310B080818260808380818F7D808382E08093C1
S11310C08F0380818061808380818D7F8083809184
S11310D05C038D7D886080935C0380918F038230F4
S11310E0D1F480918E0384FF16C080915C038970D3
S11310F0883089F480910303811106C08091030331
S11311008F5F8093030307C080915C0381608093A9
S11311105C031092030380918E0385FD22C08091AD
S11311205C0384FD1EC080910603863030F48091F8
S113113006038F5F8093060307C080915C03806180
S113114080935C031092060380918E0383FF09C091
S113115060915C0366FB662760F982E893E00E9475
S11311603216809104038A3030F4809104038F5F37
S11311708093040307C08091330388608093330312
S1131180109204038091330386FF0EC080910503FF
S11311908F3F29F4809133038460809333038091DB
S11311A005038F5F809305038091190381FF29C094
S11311B090911D039A30A0F49F5F90931D0380913A
S11311C05B0380FF1EC01F929F938CE692E09F9367
S11311D08F930E9475170F900F900F900F9011C06E
S11311E0E8E1F3E015828460818380915B0380FFF2
S11311F008C08EE592E09F938F930E9475170F901D
S11312000F908091940381FF29C0909198039A30A4
S1131210A0F49F5F9093980380915B0380FF1EC0AE
S11312201F929F938FE392E09F938F930E94751771
S11312300F900F900F900F9011C0E3E9F3E0158227
S11312408460818380915B0380FF08C081E392E026
S11312509F938F930E9475170F900F9080915E0358
S113126081FF29C0909162039A30A0F49F5F90930C
S1131270620380915B0380FF1EC01F929F9382E1F3
S113128092E09F938F930E9475170F900F900F9089
S11312900F9011C0EDE5F3E01582846081838091A5
S11312A05B0380FF08C084E092E09F938F930E94C9
S11312B075170F900F908091630380FF05C083FD25
S11312C003C08860809363038091080380FF05C096
S11312D083FD03C08860809308038091380380FFF6
S11312E007C083FD05C0E3E2F3E08081886080836A
S11312F08091230380FF05C083FD03C08860809331
S11313002303FF91EF91BF91AF919F918F917F91B3
S11313106F915F914F913F912F910F900FBE0F905E
S11313201F901895A4E8B0E011961C921E9286B303
S1131330806286BBEFE6F0E0808187628083E1E82B
S1131340F0E08081806480838081826080838D91DD
S11313509C91805C934690938900809388000895C3
S1131360E1EBF0E08081876080838BE98093B300B8
S1131370E0E7F0E08081826080831092B2000895FB
S11313801092040382E88093330380E880935C0323
S113139083E080935B0388E090E00E946615EAEEA8
S11313A0F3E08EE091E09383828380E091E0918387
S11313B0808389E993E00E943B1084B1806284B900
S11313C085B1806285B98AB188608AB984B18E7F1B
S11313D084B98AB18F7E8AB984B1826084B984B1B8
S11313E0846084B984B1886084B90E94C0148BB1CC
S11313F0877F8BB98BB18F7E8BB90E9492090E9433
S1131400B0090E94C71461EF74E082E893E00E947F
S1131410131660915C0366FB662760F982E893E02B
S11314200E949C1543E253E062E873E083E793E093
S11314300E94790B88E493E00E941D0C0E948D0B9E
S113144080915C03826080935C038AEF91E09F93B8
S11314508F930E94751780913303806280933303C6
S113146078940F900F908091330385FF04C088E433
S113147093E00E94950E68E473E083E793E00E9492
S1131480D50C0E94A30F4C9B0AC08091330386FDA8
S113149006C0109205038064809333032CC08091AE
S11314A0330386FF28C04C9926C08F7B8093330377
S11314B082FF08C08CEB91E09F938F930E94751775
S11314C00F900F90809105038A3030F4809133039C
S11314D0982F947082FF06C08091330381608093BB
S11314E0330309C010920503992329F08091330333
S11314F08B7F809333030E94AD1280915B0385FF41
S113150013C08F7D80935B0387EE91E09F938F934D
S11315100E94751780915A030E944E1380915A03BA
S11315200E9438110F900F9080915B0386FF1DC0BD
S11315308F7B80935B0380912203E4E3F3E0808359
S11315408091E9038183809181038283CF010E948A
S11315500F0B80915B0381FF08C08CEC91E09F939B
S11315608F930E9475170F900F9080915C0384FFF6
S113157008C08F7E80935C03EEE8F3E08081806294
S113158080838091330383FF08C0877F8093330374
S113159080915C03826080935C038091330380FFBD
S11315A003C08E7F809333038091330384FF5BCF2A
S11315B08F7E809333038091630380FF07C082FF93
S11315C005C083FD03C08860809363038091080392
S11315D080FF07C082FF05C083FD03C0886080933D
S11315E008038091380380FF07C082FF05C083FD94
S11315F003C08860809338038091230380FF33CF36
S113160082FF31CF83FD2FCF8860809323032BCFBC
S1131610FC01808191812281892782270895CF93BB
S1131620DF9300D000D0CDB7DEB7FC01808191817B
S1131630A281B38189839A83AB83BC83CE01019653
S11316400E94080B8C8344E050E060E070E0CE011F
S113165001960E946C1A0F900F900F900F90DF91DB
S1131660CF910895009731F044E050E060E070E0DD
S11316700E945C1A0895CF93DF9300D000D0CDB7B9
S1131680DEB744E050E060E070E0CE0101960E94D5
S11316905C1A89818F3F31F48A818F3F19F48B81E1
S11316A08F3FD9F0CE0101960E94080B9C818917C7
S11316B051F080915B0381FF12C08FE093E00E94A0
S11316C0751780E00FC080915B0381FF0AC08FEE25
S11316D092E00E94751781E005C080E003C080E0BD
S11316E001C081E00F900F900F900F90DF91CF9188
S11316F00895CF93DF9300D0CDB7DEB7FC0182E825
S113170093E091838083CE01019693838283148234
S11317100F900F90DF91CF910895CF93DF932AE537
S113172030E041E050E060E070E088E193E00E9446
S1131730A8142AE530E042E050E061E070E083E97B
S113174093E00E94A8142AE530E043E050E062E010
S113175070E08DE593E00E94A814E8E7F3E088E1E7
S113176093E09183808383E993E0938382838DE57F
S113177093E095838483109202030E943B0B892B90
S113178041F184E393E00E94320BE4E3F3E08081CF
S11317908093220391819093E90322812093810312
S11317A030915B0331FF2AC01F922F931F929F93A6
S11317B01F928F938AE296E09F938F930E947517EE
S11317C08DB79EB708960FB6F8949EBF0FBE8DBF17
S11317D015C081E08093220382E08093E90383E0D3
S11317E08093810380915C03882344F48BEF95E01C
S11317F09F938F930E9475170F900F90CFE1D3E0C2
S113180081E0898380916B038883A6EEB3E082E054
S113181011968C931197809110038C93EEE7F3E06B
S113182083E0818380914003808388E08A831296D9
S11318308C938283DF91CF910895FC018CE191E038
S1131840918380838FE193E09383828386EE93E098
S1131850958384838EE793E09783868380915C03EA
S1131860882384F484EC95E09F938F930E947517EA
S11318708EE995E09F938F930E9475170F900F90B8
S11318800F900F9008958E3B98F090915C039923EC
S11318900CF083C01F928F938EE695E09F938F93F5
S11318A00E9475170F900F900F900F9084E0089589
S11318B09EEB981B973398F480915C03807809F42D
S11318C073C01F929F9385E495E09F938F930E942A
S11318D075170F900F900F900F9080E00895DB0123
S11318E0ED91FC9180819817B0F08181891798F06F
S11318F080915C0388230CF052C01F929F9380E375
S113190095E09F938F930E9475170F900F900F90FF
S11319100F9081E0089582819817A8F08381891738
S113192090F080915C038823E4F51F929F938BE1F0
S113193095E09F938F930E9475170F900F900F90CF
S11319400F9082E0089584819817A8F08581891703
S113195090F080915C03882334F51F929F9386E076
S113196095E09F938F930E9475170F900F900F909F
S11319700F9083E0089580915C038078A9F01F9212
S11319809F938DED94E09F938F930E9475170F9012
S11319900F900F900F9080E0089584E0089581E007
S11319A0089582E0089583E00895DF92EF92FF9214
S11319B00F931F93CF93DF9300D000D000D0CDB707
S11319C0DEB78C017B01809133038823BCF5D801F9
S11319D0ED91FC911197848585FF30C080915C0363
S11319E081FF2CC014968C9181FD28C0CF010E94E8
S11319F04F16882389F0809133038F7780933303C4
S1131A0080915C038D7F80935C03D801ED91FC9100
S1131A1084858F7D848712C080915C03882344F47D
S1131A208CEC94E09F938F930E9475170F900F9006
S1131A3080915C0384608D7F80935C03F8018081D6
S1131A4091810E947D16D801ED91FC9111978585B5
S1131A50853009F020C1848588230CF01CC184855D
S1131A608F778487ED91FC9180859185A285B385DC
S1131A708F3B9105A105B105F8F0F80184818160DF
S1131A808483982F92959F70923071F48F70848321
S1131A9080915C03882344F482EB94E09F938F93BA
S1131AA00E9475170F900F90D80114968C9114977B
S1131AB08F7014968C93E1C0D80114968C9114976E
S1131AC0982F92959F7009F0D8C08F7080611496FA
S1131AD08C9380859185A285B385B7010E94430CC0
S1131AE0D82EB4E08B1709F4C0C080915C0388231E
S1131AF0CCF4209181039091E903809122031F92F9
S1131B002F931F929F931F928F931F92DF9281E8CE
S1131B1094E09F938F930E9475170FB6F894DEBFDD
S1131B200FBECDBFDD20B1F186E0E2E2F1E0DE01DF
S1131B30119601900D928A95E1F780E028C0282F34
S1131B4030E0F901EE0FFF1F41E050E04C0F5D1F44
S1131B50E40FF51F0190F081E02D9381D91216C096
S1131B6082818160828380915C038823FCF42F5BF3
S1131B703F4F3F932F9381E794E09F938F930E946D
S1131B8075170F900F900F900F9010C08F5F8330D8
S1131B90B0F20CC080915C03882344F482E694E0A4
S1131BA09F938F930E9475170F900F90DD2021F162
S1131BB053E05D15C0F18D2D90E0FC013496EE0FDD
S1131BC0FF1FEE0DFF1D208131812F5F3F4F3183B9
S1131BD0208320915C03222394F5805C9F4F9F9384
S1131BE08F9385E594E09F938F930E9475170F90D0
S1131BF00F900F900F9023C0D70150968D919C9118
S1131C005197019651969C938E93509780915C03C3
S1131C108823ACF486E494E09F938F930E94751715
S1131C200F900F900CC080915C03882344F482E3EE
S1131C3094E09F938F930E9475170F900F90F70174
S1131C408085918501969187808720915C0322236A
S1131C5064F49F938F9384E294E09F938F930E9404
S1131C6075170F900F900F900F90D80114968C91C8
S1131C7014978F70806214968C93F80180819181FF
S1131C800E94EE15D801ED91FC91158680913303E5
S1131C9080688093330380915C0380FF38C086FFA3
S1131CA008C080E194E09F938F930E9475170F9072
S1131CB00F9080915C038E7F877F80935C03D801B3
S1131CC0ED91FC911197848588608487ED91FC9156
S1131CD0119786E0858760915C0366FB662760F94F
S1131CE08D919C910E943216882361F080915C034F
S1131CF086FF08C08DEE93E09F938F930E94751723
S1131D000F900F908091330380688093330326965D
S1131D100FB6F894DEBF0FBECDBFDF91CF911F91F8
S1131D200F91FF90EF90DF9008958091630380FFFF
S1131D3009C083FF07C0877F8093630383E693E032
S1131D400E940A1583E693E00E9433158091630391
S1131D5082958F708230A1F58091210383FF1FC08B
S1131D6080FF1DC0877F80932103E8E1F3E0818138
S1131D7082608183158280915C03882384F48FEDD3
S1131D8093E09F938F930E94751789EB93E09F9341
S1131D908F930E9475170F900F900F900F90E3E6AA
S1131DA0F3E080818F70808380915C03882344F406
S1131DB088EA93E09F938F930E9475170F900F907A
S1131DC08091080380FF09C083FF07C0877F809349
S1131DD0080388E093E00E940A1588E093E00E94DB
S1131DE033158091080382958F70823061F580915C
S1131DF0E80383FF17C080FF15C0877F8093E80343
S1131E00E3E9F3E0818182608183158280915C0340
S1131E10882344F482E893E09F938F930E9475177C
S1131E200F900F90E8E0F3E080818F7080838091C1
S1131E305C03882344F481E793E09F938F930E948B
S1131E4075170F900F908091380380FF09C083FFAE
S1131E5007C0877F8093380388E393E00E940A15C4
S1131E6088E393E00E9433158091380382958F7044
S1131E70823061F58091800383FF17C080FF15C015
S1131E80877F80938003EDE5F3E081818260818325
S1131E90158280915C03882344F48BE493E09F9340
S1131EA08F930E9475170F900F90E8E3F3E0808101
S1131EB08F70808380915C03882344F48AE393E0E9
S1131EC09F938F930E9475170F900F908091230317
S1131ED080FF09C083FF07C0877F8093230383E2C9
S1131EE093E00E940A1583E293E00E9433158091E7
S1131EF02303982F92959F70913081F4209177035A
S1131F0021FD0CC022602093770389E293E09F9324
S1131F108F930E9475170F900F900895923059F483
S1131F209091770391FF07C09D7F909377038F7003
S1131F308093230308959091770391FD03C08F70DC
S1131F408093230308950895CF93DF93E9E9F3E0A1
S1131F5090818181981718F08081818104C0E9E91A
S1131F60F3E080818181E0919A03F0E0E756FC4F31
S1131F708281853509F05AC0E9E9F3E0A1818181C4
S1131F8090E001968F739078992324F40197806CE4
S1131F909F6F0196EC0180919A0390E002968F73F3
S1131FA09078992324F40197806C9F6F0196FC012B
S1131FB060919A0370E06D5F7F4F6F737078772341
S1131FC034F461507109606C7F6F6F5F7F4FB0E0D4
S1131FD0A756BC4F12964C9150E0DA01AA0FBB1FD2
S1131FE0AA0FBB1FDD27C756DC4F9A81292F30E08B
S1131FF0A901440F551F240F351FAD01420F531F74
S1132000FF27E756FC4F228130E0220F331FCA011D
S1132010820F931FFB01FF27E756FC4F9281890F24
S11320208A3131F460939A0381E003C080E001C0F7
S113203080E0DF91CF910895E9E9F3E09081818117
S1132040981720F080819181891B06C0E9E9F3E0AB
S113205080819181891B805C863018F00E94A40FD6
S1132060089580E008958AE0ECEDF3E0DF011D922D
S11320708A95E9F70895FC01128211821082EE5BC1
S1132080FF4F10820E94331008950F931F93CF9334
S1132090DF930091E00386E308278091E203082799
S11320A0C0E0D0E01DC0E091E303F091E403EC0F45
S11320B0FD1F10811F921F931F921F93DF93CF93D5
S11320C085E899E09F938F930E94751701272196C5
S11320D08DB79EB708960FB6F8949EBF0FBE8DBFFE
S11320E08091E00390E0C817D907ECF2E091E30394
S11320F0F091E4038091E003E80FF11D8081809367
S1132100E503802FDF91CF911F910F910895CF9315
S1132110DF93E9E9F3E0CBEDD3E088818F7080624F
S1132120888381818F5F8183A181B0E0A756BC4FF2
S113213012968C918093E00388818F7080638883EA
S113214081818F5F8183E181F0E0E756FC4F8281DA
S11321508A3351F085E799E09F938F930E94751716
S11321600F900F9080E081C0E9E9F3E0ABEDB3E0BC
S11321708C918F7080648C9381818F5F8183E181E6
S1132180F0E0E756FC4F8281E2EEF3E08083808149
S1132190803E51F483E699E09F938F930E947517D4
S11321A00F900F9080E061C08091E003893178F056
S11321B01F9288E18F9383E399E09F938F930E940A
S11321C075170F900F900F900F9080E04EC0A9E903
S11321D0B3E0EBEDF3E080818F708065808311962E
S11321E08C9111978F5F11968C93119711968C9106
S11321F0119790E085569C4F9093E4038093E303FA
S11322009091E00311968C911197890F11968C93FC
S1132210119780818F70806680831196AC91B0E0B5
S1132220A756BC4F12968C91C5EED3E0888380816B
S11322308F70806780830E94451098818917A1F070
S11322409091E5031F929F931F928F9380E099E0F2
S11322509F938F930E9475170F900F900F900F907C
S11322600F900F9080E001C081E0DF91CF9108953D
S1132270CF92DF92EF92FF921F93CF93DF93CDB76C
S1132280DEB769970FB6F894DEBF0FBECDBF90E0FE
S1132290FC01E05AF109E535F10508F040C1EC5CB8
S11322A0FF4F0C94031789EF98E09F938F930E943C
S11322B0751780915B03806180935B030F900F908F
S11322C03EC1E091E303F091E40380811F928F9378
S11322D08DEE98E09F938F930E94751780915B0316
S11322E0806180935B030F900F900F900F9027C134
S11322F080915B03806180935B0321C1282F30E0D0
S1132300E091E303F091E403E20FF31F9081E1E035
S1132310F0E0EC0FFD1FE20FF31F90838F5F01C00D
S113232080E09091E003891710F4883138F3E1E0FC
S1132330F0E0EC0FFD1FE80FF11D108268E271E080
S1132340CE0101960E9436177C0163C06AE370E0F7
S1132350C7010E943B176C01009709F441C0FC01BE
S11323601082C7010E941817F6012181223451F00E
S1132370233421F0213421F421E005C023E003C0FB
S113238020E001C022E08130910541F082309105C6
S113239041F0009741F42093220305C02093E90300
S11323A002C020938103223029F0233029F0213008
S11323B031F404C012E403C013E401C011E41F9219
S11323C01F939F938F9382ED98E09F938F930E9426
S11323D075170F900F900F900F900F900F900CC0E7
S11323E0FF92EF9283EB98E09F938F930E9475176F
S11323F00F900F900F900F9068E271E080E090E0F2
S11324000E9436177C0180915B0380618064809315
S11324105B03E114F10409F099CF91C080915B034F
S1132420806180935B038BC084EA98E09F938F93D1
S11324300E94751780915B03806180935B030F900A
S11324400F907DC083EE91E00E949B17E8E4F3E0D7
S1132450138612861586148617861686118A108AA4
S11324601186108680915B03806180935B0367C053
S113247080915B03806180935B0361C081E0809302
S11324802203E4E3F3E0808382E08093E903818321
S113249083E0809381038283CF010E940F0B80919C
S11324A05B03806180935B034AC080915C03282FA7
S11324B0229526952695237091E0922790FB86F924
S11324C080935C0380915B03806180935B0337C0DE
S11324D080915B0391E0982790FB80F98061809361
S11324E05B032DC080915C03982F9095991F9927C9
S11324F0991F90FB87F980935C0380915B03806153
S113250080935B031CC080915B03282F269591E088
S1132510922790FB81F9806180935B0310C08091C6
S1132520E3039091E4039F938F938EE898E09F9345
S11325308F930E9475170F900F900F900F906996CC
S11325400FB6F894DEBF0FBECDBFDF91CF911F91C0
S1132550FF90EF90DF90CF9008958091DB038295F8
S11325608F70D9F48091DB0381FF17C08091DB0366
S113257080FD13C00E941C10882351F0EBEDF3E0A2
S113258080818F708061808380818160808305C0B9
S1132590EBEDF3E08081846080838091DB0382FF34
S11325A020C0E9E9F3E091818081891718F48091D2
S11325B09A0302C0809199038F73E9E9F3E0818360
S11325C080830E943310EBEDF3E080818E7F808363
S11325D080818B7F808380818D7F808380818F70D9
S11325E080838091DB0380FF2AC00E9487108823A8
S11325F0B1F080915B03806280935B038091E2037E
S113260080935A03EBEDF3E080818F7080698083BF
S113261080818E7F808380818460808310C08BE77B
S113262098E09F938F930E947517EBEDF3E0808100
S11326308E7F80838081846080830F900F9080914F
S11326405B0384FF03C08F7E80935B038091DB0375
S113265082958F708A3099F480915B0383FD0FC05B
S113266010921E03E1ECF0E080818F7780838091EB
S11326705B03886080935B038081806280838091A8
S1132680DB0382958F708B3041F4EBEDF3E08081B6
S11326908460808380818F7080830895CF93DF93DB
S11326A090E0FC01E05AF109E535F10508F032C18A
S11326B0E757FF4F0C94031783E698E09F938F939B
S11326C00E9475170F900F902DC180E598E09F939D
S11326D08F930E9475170F900F9024C18DE398E09B
S11326E09F938F930E9475170F900F901BC181E2E7
S11326F098E09F938F930E9475170F900F9012C1CB
S113270089E098E09F938F930E947517809122032C
S113271090E0805C9F4F9F938F9384EF97E09F930B
S11327208F930E9475178091E90390E0805C9F4F1E
S11327309F938F938FED97E09F938F930E947517CC
S11327408091810390E0805C9F4F9F938F938AECEC
S113275097E09F938F930E9475178DB79EB70E963F
S11327600FB6F8949EBF0FBE8DBFDCC084EC97E01B
S11327709F938F938EEA97E09F938F930E94751790
S11327800F900F900F900F90CDC088E997E09F9322
S11327908F930E947517C8E4D3E089858F93888549
S11327A08F938BE897E09F938F930E947517898985
S11327B08F9388898F938AE797E09F938F930E94E2
S11327C075178B858F938A858F938EE697E09F93F9
S11327D08F930E9475178D858F938C858F9382E6D6
S11327E097E09F938F930E9475178F858F938E85A3
S11327F08F9386E597E09F938F930E9475178DB70B
S11328009EB746960FB6F8949EBF0FBE8DBF8AC082
S113281080E497E09F938F930E9475170F900F9019
S113282081C08EE197E09F938F9385E097E09F931B
S11328308F930E9475170F900F900F900F9072C096
S11328408DEE96E09F938F930E9475170F900F90D3
S113285069C08BED96E09F938F930E9475170F903C
S11328600F9060C080915C0386FF03C088ED96E002
S113287002C084ED96E09F938F9384EC96E09F933F
S11328808F930E9475170F900F900F900F904AC06E
S113289080915B0380FF03C081EC96E002C08DEB66
S11328A096E09F938F938CEA96E09F938F930E9478
S11328B075170F900F900F900F9034C080915C03A8
S11328C088231CF489EA96E002C085EA96E09F9387
S11328D08F9384E996E09F938F930E9475170F90CE
S11328E00F900F900F901EC080915B0381FF03C077
S11328F081E996E002C08DE896E09F938F938CE780
S113290096E09F938F930E9475170F900F900F90EE
S11329100F9008C087E696E09F938F930E947517E7
S11329200F900F90DF91CF910895853B08F084EBD1
S1132930282F30E0A0EDB7E00E94091724EB30E027
S113294040E050E00E94E116C9018053984F089579
S11329500F931F93CF93DF93EC01042F122F19824F
S1132960822F0E9495149B838A8308831C831D8273
S1132970898181608983DF91CF911F910F9108959F
S11329808AB18B718AB98BB18B718BB90895CF934E
S1132990DF93E3E6F3E0178685E0808712821182F5
S11329A016821582D4E1D687C1E0C08382E591E026
S11329B00E949B17E8E0F3E0178686E08087128286
S11329C0118216821582D687C08381E691E00E9427
S11329D09B17E8E3F3E0178687E080871282118271
S11329E016821582D687C08380E791E00E949B17E8
S11329F0E3E2F3E0178682E0808712821182168276
S1132A001582D687C0838FE791E00E949B17DF91E0
S1132A10CF910895FC0129B130E0008402C03595BE
S1132A2027950A94E2F7217042855385648575855C
S1132A30420F511D611D711D42875387648775873D
S1132A4081858F5F81878A3068F081E04530510548
S1132A506105710508F480E0878712861386148661
S1132A60158611860895FC01978581E0913009F05F
S1132A7080E0913051F42081322F32953F7029F457
S1132A802A602F70206120830895913051F0908145
S1132A90292F22952F70213021F498609D70906227
S1132AA0908308958BB188608BB908958BB1877F2B
S1132AB08BB90895E1E8F0E0808180648083089513
S1132AC0E1E8F0E080818F7B808308959093C500D6
S1132AD08093C40088E98093C10086E08093C2009B
S1132AE008959091C00095FFFCCF8093C60080E0CC
S1132AF090E00895E9E9F3E0918180819817C9F0A5
S1132B00DF01E181F0E0E756FC4F828111962C91C0
S1132B1030E02F5F3F4F2F733078332334F421504C
S1132B203109206C3F6F2F5F3F4F20939A0390E051
S1132B3008958FEF9FEF0895FC01668708950F9322
S1132B401F93CF93DF93EC018C819D81AE81BF8174
S1132B50488159816A817B818C019D01041B150B7D
S1132B60260B370BB901A801D901C801880F991F99
S1132B70AA1FBB1F880F991FAA1FBB1F880F991F6D
S1132B80AA1FBB1F880F991FAA1FBB1F8C019D0181
S1132B90040F151F261F371FC901B801660F771FC1
S1132BA0881F991F20E931E040E050E00E94E116BF
S1132BB0288739874A875B878C8580688C87DF9173
S1132BC0CF911F910F910895DC011F96ED91FC9117
S1132BD05097309711F0CB0109950895CF93DF9367
S1132BE0EC01188219821A821B821C821D821E82A9
S1132BF01F82188619861A861B861C868C8580621D
S1132C008C871D860E945A158F859889892B41F0DF
S1132C108E85882329F06EE871E0CE010E94E415C8
S1132C20DF91CF9108950F931F93CF93DF93EC011E
S1132C308B010E94EE1581E08E870115110519F4B0
S1132C40188A1F860AC0188B0F878E85882329F05F
S1132C506DEA71E0CE010E94E415DF91CF911F91DE
S1132C600F9108951F93CF93DF93FC0125852630A0
S1132C7071F4162FEC010E94EE151E871E85112398
S1132C8041F069EC71E0CE010E94E41503C010E04C
S1132C9001C011E0812FDF91CF911F910895CF934F
S1132CA0FC018585882319F085858530C1F48485E8
S1132CB085FF0BC081E08587C685CC23D1F06BEE00
S1132CC071E0CF010E94E41515C0C685CC2391F0B4
S1132CD06AE172E0CF010E94E415C0E00BC0C68532
S1132CE0CC2341F061E572E0CF010E94E415C0E01D
S1132CF001C0C1E08C2FCF910895CF93DF93EC01F5
S1132D008D85833071F128F4813049F08230A1F04F
S1132D1055C08430E1F1863009F44DC04FC08C8534
S1132D2081FF4CC08E85882309F448C06EE772E0A9
S1132D30CE010E94E41542C08C8584FD0CC083E062
S1132D408D870E9460158E85882329F06DE972E0D5
S1132D50CE010E94E4158C8583FF30C086E08D8708
S1132D602DC08C8586FF0DC084E08D878E858823D9
S1132D7029F06AEB72E0CE010E94E4158C85846030
S1132D808C878C8583FF1AC086E08D8717C08C855D
S1132D9082FF14C0CE010E949F158C858B7F8C8787
S1132DA08E85882329F061ED72E0CE010E94E4153E
S1132DB085E08D8703C08C8588608C87DF91CF91F7
S1132DC00895A1E21A2EAA1BBB1BFD010DC0AA1F68
S1132DD0BB1FEE1FFF1FA217B307E407F50720F080
S1132DE0A21BB30BE40BF50B661F771F881F991FFB
S1132DF01A9469F760957095809590959B01AC0144
S1132E00BD01CF010895EE0FFF1F0590F491E02D51
S1132E100994A29FB001B39FC001A39F700D811DAF
S1132E201124911DB29F700D811D1124911D0895CF
S1132E30FC0188279927E89421912032E9F329306D
S1132E4010F02E30C8F32B3241F02D3239F468944F
S1132E5004C00E946D17820F911D219120532A30C6
S1132E60C0F31EF4909581959F4F089540E053E080
S1132E700E9446170895FC018191861721F088234A
S1132E80D9F7992708953197CF010895FA01A191AF
S1132E90B081009719F41097E1F0CD01DC01CD0168
S1132EA00D90002011F4C00113C0FB0121912223D5
S1132EB019F02015D9F7F3CFFB012191201519F44E
S1132EC01E92119606C02223C1F70D900020A1F78F
S1132ED0D001FA01A193B08308957AE0979F902DD1
S1132EE0879F802D910D11240895A0E0B0E0EBE7B9
S1132EF0F7E10C949C1AAE01495F5F4FDA016D91C2
S1132F007D91AD010AEE13E0F80182819381DC0129
S1132F1013962C911397286013962C930E94CB1729
S1132F20D8011296ED91FC9113972381277F238377
S1132F30E4E00C94B81A0F931F93CF93DF93E091BE
S1132F40EC03F091ED03238121FF1BC08C01D0E041
S1132F50C0E0F80181918F016091EC037091ED0361
S1132F60DB011896ED91FC911997882331F00995AE
S1132F70892B79F3DFEFCFEFECCF8AE00995892B2A
S1132F8019F08FEF9FEF02C08D2F9C2FDF91CF910F
S1132F901F910F910895ABE0B0E0E1EDF7E10C94DF
S1132FA08E1A6C017B018A01FC01178216828381CF
S1132FB081FFCCC1CE0101963C01F6019381F7015A
S1132FC093FD859193FF81917F01882309F4BAC110
S1132FD0853239F493FD859193FF81917F01853288
S1132FE029F4B60190E00E94C219E7CF912C212C5C
S1132FF0312CFFE1F315D8F08B3279F038F48032BC
S113300079F08332A1F4232D20611DC08D3261F04B
S1133010803369F4232D216016C0832D8260382EFD
S1133020E32DE4603E2E2AC0F32DF8601DC037FC6A
S11330302DC020ED280F2A3040F08E32B9F436FC32
S113304081C1232D2064322E19C036FE06C08AE0C9
S1133050989E200D1124922E11C0EAE02E9E200D80
S11330601124222EF32DF0623F2E08C08C3621F459
S1133070832D8068382E02C0883641F4F70193FD11
S1133080859193FF81917F018111B3CF982F9F7D0B
S11330909554933028F40C5F1F4F9FE399830DC020
S11330A0833631F0833771F0833509F059C021C07C
S11330B0F801808189830E5F1F4F88248394912CAB
S11330C0530113C02801F2E04F0E511CF801A080F7
S11330D0B18036FE03C0692D70E002C06FEF7FEF50
S11330E0C5010E94B7194C018201F32DFF773F2ED1
S11330F016C0280122E0420E511CF801A080B180C4
S113310036FE03C0692D70E002C06FEF7FEFC5018A
S11331100E94AC194C01F32DF0683F2E820133FC60
S11331201BC0822D90E088169906B0F4B60180E2A7
S113313090E00E94C2192A94F4CFF50137FC8591DE
S113314037FE81915F01B60190E00E94C2192110FF
S11331502A9421E0821A91088114910471F7E8C03D
S1133160843611F0893641F5F80137FE07C06081D5
S11331707181828193810C5F1F4F08C060817181CE
S1133180072E000C880B990B0E5F1F4FF32DFF7653
S11331903F2E97FF09C090958095709561957F4F5C
S11331A08F4F9F4FF0683F2E2AE030E0A3010E942A
S11331B0FE19882E861845C0853731F4232D2F7EBD
S11331C0B22E2AE030E025C0932D997FB92E8F3698
S11331D0C1F018F4883579F0B5C0803719F0883714
S11331E021F0B0C0E92FE061BE2EB4FE0DC0FB2D6E
S11331F0F460BF2E09C034FE0AC0292F2660B22E07
S113320006C028E030E005C020E130E002C020E143
S113321032E0F801B7FE07C0608171818281938139
S11332200C5F1F4F06C06081718180E090E00E5FEB
S11332301F4FA3010E94FE19882E8618FB2DFF77CD
S11332403F2E36FE0DC0232D2E7FA22E891458F456
S113325034FE0BC032FC09C0832D8E7EA82E05C01F
S1133260B82CA32C03C0B82C01C0B92CA4FE0FC0E9
S1133270FE01E80DF11D8081803321F49A2D997EA1
S1133280A92E09C0A2FE06C0B394B39404C08A2D2B
S1133290867809F0B394A3FC11C0A0FE06C0B21452
S11332A088F4280C922C9B180EC0B21460F4B6015A
S11332B080E290E00E94C219B394F7CFB21418F4DC
S11332C02B1802C0982C212CA4FE10C0B60180E358
S11332D090E00E94C219A2FE17C0A1FC03C088E7B7
S11332E090E002C088E590E0B6010CC08A2D867893
S11332F059F0A1FE02C08BE201C080E2A7FC8DE27E
S1133300B60190E00E94C219891438F4B60180E332
S113331090E00E94C2199A94F7CF8A94F301E80DC1
S1133320F11D8081B60190E00E94C2198110F5CF91
S1133330222009F442CEB60180E290E00E94C21934
S11333402A94F6CFF6018681978102C08FEF9FEF12
S11333502B96E2E10C94AA1AFC010590615070408E
S11333600110D8F7809590958E0F9F1F0895FC014A
S11333706150704001900110D8F7809590958E0FA0
S11333809F1F08950F931F93CF93DF93FB01238116
S113339021FD03C08FEF9FEF2CC022FF16C0468192
S11333A05781248135814217530744F4A081B181A8
S11333B09D012F5F3F4F318320838C93268137817A
S11333C02F5F3F4F3783268314C08B01EC01FB0131
S11333D00084F185E02D0995892BE1F6D801169634
S11333E08D919C911797019617969C938E9316979F
S11333F0CE01DF91CF911F910F910895FA01AA2771
S1133400283051F1203181F1E8946F936E7F6E5F23
S11334107F4F8F4F9F4FAF4FB1E03ED0B4E03CD0D1
S1133420670F781F891F9A1FA11D680F791F8A1FB4
S1133430911DA11D6A0F711D811D911DA11D20D01B
S113344009F468943F912AE0269F11243019305DD5
S11334503193DEF6CF010895462F4770405D4193C6
S1133460B3E00FD0C9F7F6CF462F4F70405D4A3313
S113347018F0495D31FD4052419302D0A9F7EACFDB
S1133480B4E0A6959795879577956795BA95C9F70A
S113349000976105710508959B01AC010A2E0694FD
S11334A05795479537952795BA95C9F7620F731FB6
S11334B0841F951FA01D0895DC01CB01FC01F9991F
S11334C0FECF06C0F2BDE1BDF89A319600B40D926C
S11334D041505040B8F70895DC01A40FB51F415086
S11334E0504048F0CB01840F951F2E910E947D1A05
S11334F041505040D0F70895262FF999FECF92BD40
S113350081BDF89A019700B4021639F01FBA20BDA4
S11335100FB6F894FA9AF99A0FBE08952F923F9233
S11335204F925F926F927F928F929F92AF92BF92CF
S1133530CF92DF92EF92FF920F931F93CF93DF937B
S1133540CDB7DEB7CA1BDB0B0FB6F894DEBF0FBED8
S1133550CDBF09942A88398848885F846E847D8425
S11335608C849B84AA84B984C884DF80EE80FD8027
S11335700C811B81AA81B981CE0FD11D0FB6F8949D
S1113580DEBF0FBECDBFED010895F894FFCF5E
S113358E000000010000000000007A150000000099
S113359E00020000000071150000000037414B5579
S11335AE5F691F03E6037E032D00312E302E30009B
S11335BE6769746875622E636F6D2F6B6F626163DA
S11335CE68616A636869722F484353523034656E7A
S11335DE430054435254204120454E41424C4544ED
S11335EE0054435254204220454E41424C4544001F
S11335FE54435254204320454E41424C45440054BA
S113360E435254205520454E41424C4544004C49AA
S113361E42204445425547202D20484353523034CE
S113362E20466C616773205265736574004C494281
S113363E204445425547202D2048435352303420D0
S113364E496E69636961646F004C49422044454286
S113365E5547202D2048435352303420544D444F67
S113366E555420436C6561726564004C4942204494
S113367E45425547202D204843535230342053742D
S113368E6172743A20545249474745525F414C4C3B
S113369E4F5745442074727565004C494220444589
S11336AE425547202D2048435352303420537461E1
S11336BE7274206661696C65643A205452494747B6
S11336CE45525F414C4C4F5745442066616C7365BF
S11336DE004C4942204445425547202D204843532F
S11336EE523034205374617274206661696C65645F
S11336FE3A2077726F6E67207374617465004C495B
S113370E42204445425547202D20545249474745AF
S113371E525F46494E495348206C6962004C4942F7
S113372E204445425547202D204543484F205249B9
S113373E53494E472062616A6F004C49422044450A
S113374E425547202D2043414C43554C414E444F46
S113375E004C4942204445425547202D2043616C7C
S113376E63756C61646F2C20706173616E646F207D
S113377E612065737461646F206C6973746F0000EB
S9030000FC
