S01700004763634170706C69636174696F6E312E737265635B
S11300000C9434000C9451000C9451000C94510045
S11300100C9451000C9451000C9451000C946E03F8
S11300200C9451000C9451000C9456000C94C7008D
S11300300C944A010C94B6000C9451000C94510099
S11300400C9451000C9451000C949A020C94E70205
S11300500C9451000C9451000C9451000C945100D8
S11300600C9451000C94510011241FBECFEFD8E022
S1130070DEBFCDBF16E0A0E0B1E0EEEEF2E202C0DA
S113008005900D92A03FB107D9F727E0A0EFB6E0A5
S113009001C01D92A83BB207E1F70E9482040C94B0
S11300A075110C9400000E947D0E08951F920F920A
S11300B00FB60F9211242F933F938F939F93AF9377
S11300C0BF93EF93FF9380917807823019F08330C8
S11300D019F13FC08091770784FF3BC020918600CF
S11300E0309187008091F60690E0A0E0B0E0DC015A
S11300F099278827820F931FA11DB11D80936B0739
S113010090936C07A0936D07B0936E07E7E7F7E051
S113011080818F7E80831DC020918600309187006E
S11301208091F60690E0A0E0B0E0DC0199278827F2
S1130130820F931FA11DB11D80936F0790937007C9
S1130140A0937107B0937207E7E7F7E080818064BA
S11301508083FF91EF91BF91AF919F918F913F91D8
S11301602F910F900FBE0F901F9018951F920F9212
S11301700FB60F9211248F938091F6068F5F8093B0
S1130180F6068F910F900FBE0F901F9018951F9237
S11301900F920FB60F921124EF92FF920F931F93B9
S11301A02F933F934F935F936F937F938F939F937B
S11301B0AF93BF93CF93EF93FF93E8E8F0E0808190
S11301C09181805C93469183808380911E07806136
S11301D080931E07C0E045C0EC2EF12CF701EE0F12
S11301E0FF1FEE59F84F00811181F801818180FFD2
S11301F037C0818181FF08C0818182FD05C080EA0A
S11302009FE09383828307C0F80184810E94440B9A
S1130210F80193838283C11123C0F701EE0FFF1FFE
S1130220EE59F84FA081B1812C9181E090E002C099
S1130230880F991F2A95E2F795B1892B85B92091EA
S11302408400309185000190F081E02D82819381BA
S1130250820F931F90938B0080938A001092F10673
S1130260CF5FC33008F4B8CFFF91EF91CF91BF9126
S1130270AF919F918F917F916F915F914F913F913A
S11302802F911F910F91FF90EF900F900FBE0F9041
S11302901F9018951F920F920FB60F9211242F934F
S11302A03F934F935F936F937F938F939F93AF93FA
S11302B0BF93CF93DF93EF93FF93E091F106F0E0C8
S11302C0EE0FFF1FEE59F84F0190F081E02D2081D1
S11302D081E090E002C0880F991F2A95E2F780958B
S11302E0909595B1892385B9E091F106F0E0EE0F80
S11302F0FF1FEE59F84F0190F081E02D818181FFBD
S11303006BC0E091F106F0E0EE0FFF1FEE59F84FDD
S11303100190F081E02D818182FF5EC0E091F106C1
S1130320F0E0EE0FFF1FEE59F84F0190F081E02D41
S113033081818B7F8183E091F106F0E0EE0FFF1F56
S1130340EE59F84F0190F081E02D81818D7F8183FA
S1130350E091F106F0E0EE0FFF1FEE59F84F019027
S1130360F081E02D8AE58483E091F106F0E0EE0F60
S1130370FF1FEE59F84FC081D181E091F106F0E002
S1130380EE0FFF1FEE59F84F0190F081E02D8481AC
S11303900E94440B9B838A838091F106811107C0DC
S11303A0ECE0F7E0828188608E7F828315C08091C3
S11303B0F106813039F4EFEAF7E0828188608E7FBC
S11303C082830AC08091F106823031F4E8E6F7E0D6
S11303D0828188608E7F82838091F1068F5F809313
S11303E0F1068091F106833008F091C0E091F106A6
S11303F0F0E0EE0FFF1FEE59F84F0190F081E02D71
S1130400818180FF2CC0E091F106F0E0EE0FFF1F28
S1130410EE59F84F0190F081E02D208181E090E0C9
S113042002C0880F991F2A95E2F795B1892B85B9E7
S11304302091840030918500E091F106F0E0EE0F08
S1130440FF1FEE59F84F0190F081E02D82819381D6
S1130450820F931F90938B0080938A0058C0E09181
S1130460F106F0E0EE0FFF1FEE59F84F0190F08116
S1130470E02D208181E090E002C0880F991F2A9529
S1130480E2F78095909595B1892385B98091F1061D
S11304908F5F8093F1068091F1068330C0F5E0917F
S11304A0F106F0E0EE0FFF1FEE59F84F0190F081D6
S11304B0E02D818180FF2BC0E091F106F0E0EE0F8A
S11304C0FF1FEE59F84F0190F081E02D208181E06B
S11304D090E002C0880F991F2A95E2F795B1892B05
S11304E085B92091840030918500E091F106F0E017
S11304F0EE0FFF1FEE59F84F0190F081E02D82813D
S11305009381820F931F90938B0080938A00FF91B5
S1130510EF91DF91CF91BF91AF919F918F917F9197
S11305206F915F914F913F912F910F900FBE0F905C
S11305301F9018951F920F920FB60F9211242F93AC
S11305403F934F935F936F938F939F93EF93FF9397
S11305506091C6002091820730E0C90101968F7135
S11305609078992324F40197806E9F6F0196482F09
S113057050918307851308C08091A40781FD19C099
S113058082608093A40715C0F901EE57F84F628387
S113059080938207851710F0451B02C0451B405EFF
S11305A0463038F08091A40781FD03C082608093B7
S11305B0A407FF91EF919F918F916F915F914F915C
S11305C03F912F910F900FBE0F901F9018951F927F
S11305D00F920FB60F9211248F939F93AF93BF93F3
S11305E0EF93FF93A2E8B7E01196EC9111978C91E9
S11305F0E817A9F0F0E0EE57F84F82818093C60027
S11306008091830790E001968F719078992324F468
S11306100197806E9F6F01968093830705C0E1EC7C
S1130620F0E080818F7D8083FF91EF91BF91AF9146
S11306309F918F910F900FBE0F901F901895A4E873
S1130640B0E011961C921E9286B3806286BBEFE6E0
S1130650F0E0808187628083E1E8F0E0808180645B
S113066080838081826080838D919C91805C93469D
S113067090938900809388000895E1EBF0E08081F5
S1130680876080838BE98093B300E0E7F0E08081AA
S1130690826080831092B200089584B1806284B92C
S11306A085B1806285B98AB188608AB984B18E7F48
S11306B084B98AB18F7E8AB984B1826084B984B1E5
S11306C0846084B984B1886084B90E947B0B8BB147
S11306D0877F8BB98BB18F7E8BB908951F920F9250
S11306E00FB60F9211242F933F934F935F936F9301
S11306F07F938F939F93AF93BF93EF93FF938091D7
S11307001E0781FFEEC080917807813051F58091FA
S1130710470785FD0DC00E94980CE7E7F7E080814C
S1130720816080838091470780628093470719C066
S11307300E949C0CE7E7F7E08081826080838091CF
S113074047078D7D88608093470780818F7D8083F4
S113075082E08093780780818061808380818D7FAF
S11307608083809178078230D1F48091770784FF69
S113077016C0809147078970883089F48091F20609
S1130780811106C08091F2068F5F8093F20607C044
S1130790809147078160809347071092F206809109
S11307A0770785FD22C08091470784FD1EC0809194
S11307B0F506873030F48091F5068F5F8093F50657
S11307C007C0809147078061809347071092F50620
S11307D08091770783FF09C06091470766FB66270E
S11307E060F98BE697E00E947C0D8091F3068A30D5
S11307F030F48091F3068F5F8093F30607C08091F5
S11308001E07886080931E071092F30680911E07CE
S113081086FF0EC08091F4068F3F29F480911E0755
S1130820846080931E078091F4068F5F8093F406A2
S11308308091070781FF0DC090910B079A3020F437
S11308409F5F90930B0705C0E6E0F7E01582846094
S1130850818380917D0781FF0DC0909181079A303B
S113086020F49F5F9093810705C0ECE7F7E01582C1
S1130870846081838091490781FF0DC090914D0769
S11308809A3020F49F5F90934D0705C0E8E4F7E0A9
S113089015828460818380914E0780FF05C083FDAB
S11308A003C0886080934E078091F70680FF05C0DF
S11308B083FD03C088608093F70680911F0780FF43
S11308C007C083FD05C0EFE0F7E080818860808386
S11308D080910F0780FF05C083FD03C0886080936B
S11308E00F07FF91EF91BF91AF919F918F917F91EE
S11308F06F915F914F913F912F910F900FBE0F9089
S11309001F9018951092460780E88093470782E865
S113091080931E0788E090E00E94AC0CE2EBF7E0C5
S11309208EE091E09383828380E091E091838083E1
S113093082E897E00E94AA0A1092F3060E944D03EF
S11309400E941F030E943D030E94A10B63E570E017
S11309508BE697E00E945D0D6091470766FB662772
S113096060F98BE697E00E94E60C4FE057E06BE6F7
S113097077E08DE597E00E94DC068EE297E00E9426
S11309803B078091470782608093470782ED95E09B
S11309900E947D0E789480911E0785FF05C08EE22B
S11309A097E00E942F0975C08091F006811123C041
S11309B082E291E00E947D0E80914E0780FF03C089
S11309C0846080934E078091F70680FF03C08460A3
S11309D08093F70680911F0780FF03C08460809393
S11309E01F0780910F0780FF03C0846080930F0767
S11309F081E08093F00680914E0782FF04C08EE46C
S1130A0097E00E94DA0B8091F70682FF04C087EF1B
S1130A1096E00E94DA0B80911F0782FF04C08FE1E9
S1130A2097E00E94DA0B80910F0782FF04C08FE0E9
S1130A3097E00E94DA0B80914E0782FD0EC08091F0
S1130A40F70682FD0CC080911F0782FD0AC08091C9
S1130A500F0782FF08C080E007C080E005C080E087
S1130A6003C080E001C081E0882399F08CE391E029
S1130A700E947D0E80911E07806280931E07109253
S1130A8057071092000710922807109218070E9427
S1130A90F6066EE277E08DE597E00E94EB070E9490
S1130AA00A0A4C9B0AC080911E0786FD06C010925C
S1130AB0F406806480931E0728C080911E0786FF79
S1130AC024C04C9922C08F7B80931E0782FF04C0F0
S1130AD08EE591E00E947D0E8091F4068A3030F418
S1130AE080911E07982F947082FF06C080911E0784
S1130AF0816080931E0709C01092F406992329F09F
S1130B0080911E078B7F80931E078091A40781FF2D
S1130B1016C080FD14C08DE691E00E947D0E0E94F7
S1130B20640A882339F0E2E8F7E082A18F708161DA
S1130B3082A305C0E2E8F7E082A1846082A38091E9
S1130B40A40782FF15C0C2E8D7E0888189831F9279
S1130B508F938BE791E09F938F930E94670E8AA1F6
S1130B6088708AA30E949B0A0F900F900F900F9099
S1130B708091A40780FFABC0A2E8B7E01196EC9186
S1130B801197EF5FCE2FD0E0CE57D84F9A8197962A
S1130B909C9397978F70806392968C939297EF5F54
S1130BA01196EC93AE2FB0E0AE57B84F12962C913D
S1130BB02A3359F081E991E00E947D0EE2E8F7E0E2
S1130BC082A184608E7F82A382C0A2E8B7E08F7086
S1130BD0806492968C939297EF5F1196EC931197A1
S1130BE0F0E0EE57F84F828199968C93803E59F449
S1130BF080EA91E00E947D0EE2E8F7E082A18E7F18
S1130C00846082A364C01F929F9381EB91E09F93C1
S1130C108F930E94670E8091A9070F900F900F90F9
S1130C200F90893120F08BEB91E00E947D0EE2E879
S1130C30F7E082A18F70806582A391819F5F918389
S1130C40292F30E02C57384F33A722A727A122237E
S1130C5021F0920F915090938307C2E8D7E0E98185
S1130C60EF5FE983F0E0EE57F84F92819CA78F7015
S1130C7080678AA30E94B60A9CA5891749F08AEE68
S1130C8091E00E947D0E8AA18E7F84608AA31FC09A
S1130C9087EF91E00E947D0EC2E8D7E08AA18F70B1
S1130CA080688AA3E981F0E0EE57F84F828190E0F2
S1130CB00E94820A89A79AA198609AA340E060E002
S1130CC070E00E94190B8AA1867080698AA38091C2
S1130CD0A40782958F70893071F482E092E09F932B
S1130CE08F930E94670EE2E8F7E082A18F70806A1A
S1130CF082A30F900F908091A40782958F708A3001
S1130D0041F487E092E09F938F930E94670E0F90C7
S1130D100F908091470784FF08C08F7E8093470718
S1130D20E7E7F7E080818062808380911E0783FF7C
S1130D3008C0877F80931E07809147078260809355
S1130D40470780911E0780FF03C08E7F80931E0794
S1130D5080911E0784FF1FCE8F7E80931E07809193
S1130D604E0780FF07C082FF05C083FD03C0886073
S1130D7080934E078091F70680FF07C082FF05C06D
S1130D8083FD03C088608093F70680911F0780FF6E
S1130D9007C082FF05C083FD03C0886080931F07DE
S1130DA080910F0780FFF7CD82FFF5CD83FDF3CD52
S1130DB0886080930F07EFCDCF93DF9300D0CDB73A
S1130DC0DEB7FC015A8349838BE697E091838083E5
S1130DD0CE01019693838283148281E192E00E9482
S1130DE07D0E0F900F90DF91CF910895CF93DF93F5
S1130DF02AE530E041E050E060E070E086E097E012
S1130E000E94570B2AE530E042E050E061E070E0D8
S1130E108CE797E00E94570BE2E6F7E086E097E064
S1130E20918380838CE797E09383828388E497E0BF
S1130E30958384831092F106CCE0D7E081E0898326
S1130E40809156078883AFEAB7E082E011968C93CD
S1130E5011978091FF068C93E8E6F7E083E08183A5
S1130E6080912707808388E08A8312968C938283FB
S1130E70DF91CF910895FC018CE191E0918380830F
S1130E808CE097E0938382838FEA97E09583848351
S1130E9088E697E09783868380914707882344F404
S1130EA082E392E00E947D0E84E692E00E947D0E31
S1130EB008958E3B98F09091470799230CF083C0D6
S1130EC01F928F9389E892E09F938F930E94670EFD
S1130ED00F900F900F900F9084E008959EEB981B55
S1130EE0973398F480914707807809F473C01F9270
S1130EF09F9389EB92E09F938F930E94670E0F90CC
S1130F000F900F900F9080E00895DB01ED91FC911C
S1130F1080819817B0F08181891798F080914707F4
S1130F2088230CF052C01F929F9382EE92E09F930D
S1130F308F930E94670E0F900F900F900F9081E097
S1130F40089582819817A8F08381891790F0809181
S1130F5047078823E4F51F929F9387EF92E09F93BE
S1130F608F930E94670E0F900F900F900F9082E066
S1130F70089584819817A8F08581891790F080914D
S1130F804707882334F51F929F938CE093E09F9347
S1130F908F930E94670E0F900F900F900F9083E035
S1130FA00895809147078078A9F01F929F9381E26A
S1130FB093E09F938F930E94670E0F900F900F9072
S1130FC00F9080E0089584E0089581E0089582E020
S1130FD0089583E00895FF920F931F93CF93DF93B7
S1130FE0EC018B0180911E078823BCF5E881F9810F
S1130FF0848585FF32C08091470781FF2EC08C8194
S113100081FF2BC0CF010E94990D8823C1F08091EC
S1131010470786FF04C08FE493E00E947D0E809111
S11310201E078F7780931E07809147078D7F8093DB
S11310304707E881F98184858F7D84870EC080917C
S1131040470786FF04C08AE493E00E947D0E8091E6
S1131050470784608D7F80934707888199810E9428
S1131060C70DE881F9818585853009F0C1C0848583
S113107088230CF0BDC084858F778487E881F9814B
S113108080859185A285B3858F3B9105A105B10526
S1131090B0F08C8181608C83982F92959F709230F0
S11310A051F48F708C8380914707882324F48AE558
S11310B093E00E947D0E8C818F708C838DC08C8117
S11310C0982F92959F7009F087C08F7080618C83F0
S11310D080859185A285B385B8010E945907F82EB1
S11310E084E0F81609F474C0E881F981808591855B
S11310F0A285B385E1E0FE1649F0FE1628F1F2E080
S1131100FF1671F083E0F816A9F023C083E793E09B
S11311100E947D0EECE0F7E08281816082831DC035
S11311208EE793E00E947D0EEFEAF7E08281816012
S1131130828313C089E893E00E947D0EE8E6F7E01D
S113114082818160828309C084E993E00E947D0EDC
S113115004C082EA93E00E947D0EF1100DC0F801F4
S113116080899189A289B3890196A11DB11D808BC3
S1131170918BA28BB38B0CC0F80184859585A685D1
S1131180B7850196A11DB11D84879587A687B7876A
S1131190F80180859185A285B3850196A11DB11DB5
S11311A080879187A287B387EF2DF0E03596EE0F05
S11311B0FF1FEE0FFF1FE00FF11F80819181A281BD
S11311C0B3810196A11DB11D80839183A283B38352
S11311D08C818F7080628C83888199810E94380D04
S11311E0E881F981158680911E07806880931E0727
S11311F08091470780FF2DC086FF04C085EB93E0F4
S11312000E947D0E809147078E7F877F80934707DA
S1131210E881F981848588608487E881F98186E0A2
S113122085876091470766FB662760F98881998105
S11312300E947C0D882341F08091470786FF04C0FB
S113124088EC93E00E947D0E80911E078068809355
S11312501E07DF91CF911F910F91FF900895809108
S11312604E0780FF09C083FF07C0877F80934E0726
S11312708EE497E00E94190C8EE497E00E944A0CD9
S1131280892B11F180914E0782958F708230E1F4A1
S113129080910E0783FF0FC080FF0DC0877F80936E
S11312A00E07E6E0F7E081818260818315828AEE91
S11312B093E00E947D0EEEE4F7E080818F708083DE
S11312C08FE094E00E947D0E8091F70680FF09C0B4
S11312D083FF07C0877F8093F70687EF96E00E941D
S11312E0190C87EF96E00E944A0C892B11F180912A
S11312F0F70682958F708230E1F48091B10783FF05
S11313000FC080FF0DC0877F8093B107ECE7F7E043
S113131081818260818315828FE194E00E947D0E39
S1131320E7EFF6E080818F70808384E494E00E948C
S11313307D0E80911F0780FF09C083FF07C0877F50
S113134080931F078FE197E00E94190C8FE197E0CB
S11313500E944A0C892B11F180911F0782958F708E
S11313608230E1F480916A0783FF0FC080FF0DC0D3
S1131370877F80936A07E8E4F7E081818260818354
S1131380158284E594E00E947D0EEFE1F7E0808110
S11313908F70808389E794E00E947D0E80910F070F
S11313A080FF09C083FF07C0877F80930F078FE00A
S11313B097E00E94190C8FE097E00E944A0C892B59
S11313C0E1F090910F07892F82958F70813041F45D
S11313D02091610721FD04C02260209361070895D4
S11313E08230B9F48091610781FF13C08D7F8093AF
S11313F061079F7090930F0708958091610781FFA3
S113140008C08D7F80936107EFE0F7E080818F70E3
S11314108083089508958091830790E0FC01EE573E
S1131420F84F4281453509F04BC09C012F5F3F4F77
S11314302F713078332334F421503109206E3F6FFB
S11314402F5F3F4FF9019C012E5F3F4F2F71307882
S1131450332334F421503109206E3F6F2F5F3F4F07
S113146003968F719078992324F40197806E9F6F6F
S1131470019650E0440F551F440F551FFF27EE57A8
S1131480F84F628170E0FB01EE0FFF1F6E0F7F1FAC
S1131490460F571F3327F901EE57F84F228130E0EA
S11314A0220F331F420F531FFC01FF27EE57F84F43
S11314B02281420F4A3131F48093830781E00895F9
S11314C080E0089580E00895E2E8F7E0808191816A
S11314D0891710F0891B02C0891B805E863078F45E
S11314E01F9286E08F9389E894E09F938F930E94E4
S11314F0670E0F900F900F900F9080E008950E9458
S11315000B0A089520E030E011C0F901EE0FFF1F2F
S1131510E35CFA4F9081981307C0220F331FF9013F
S1131520E35CFA4F818108952F5F3F4F25303105E9
S113153060F380EA0895E2E8F7E014A611A617A282
S113154010A6A2A5B3A51C9213A286EA94E00E9459
S11315507D0E0895FC0112821182108212A20E9453
S11315609B0A8BEB94E00E947D0E08950F931F93CA
S1131570CF93DF93E2E8F7E007A186E3082781A58C
S1131580082781ED94E00E947D0EC0E0D0E01DC0EC
S1131590E091AC07F091AD07EC0FFD1F10811F9295
S11315A01F931F921F93DF93CF9381EE94E09F9339
S11315B08F930E94670E012721968DB79EB70896D8
S11315C00FB6F8949EBF0FBE8DBF8091A90790E01F
S11315D0C817D907ECF21F920F9380E095E09F9310
S11315E08F930E94670EC2E8D7E08CA51F928F9359
S11315F084E195E09F938F930E94670E8CA52DB78D
S11316003EB7285F3F4F0FB6F8943EBF0FBE2DBFC5
S1131610081305C087EF91E00E947D0E04C08AEE96
S113162091E00E947D0E802FDF91CF911F910F9149
S11316300895E2E8F7E095E593A39EE494A395E486
S113164095A392E596A347A39AE390A781A72CE0DC
S113165024279227892720E030E00AC0E091AC07D4
S1131660F091AD07E20FF31F908189272F5F3F4F61
S1131670642F70E0261737078CF38093AE078DE252
S113168095E00E947D0E0895853B08F084EB282F99
S113169030E0A0EDB7E00E944D0E24EB30E040E0D6
S11316A050E00E942B0EC9018053984F08950F9368
S11316B01F93CF93DF93EC01042F122F1F926F938C
S11316C087E495E09F938F930E94670E1982812F80
S11316D00E94440B9B838A8308831C831D82898117
S11316E0816089830F900F900F900F90DF91CF91BD
S11316F01F910F91089587B1807F87B988B1807F4A
S113170088B980E480937C0086E880937A00089509
S11317108430A0F4ECE7F0E09081907F892B808303
S1131720EAE7F0E080818064808380917A0086FD1E
S1131730FCCF8091780090917900089580E090E04A
S11317400895CF93DF93EEE4F7E0178210861282B8
S1131750118216821582D4E1D687C1E0C08386E562
S113176095E00E947D0EE7EFF6E01082C783C08704
S11317701282118216821582D687EFE1F7E0108279
S113178082E0878380871282118216821582D6872F
S1131790EFE0F7E083E0878380871282118216826C
S11317A01582D687C08385E695E00E947D0EDF9181
S11317B0CF910895CF93DF93EC01888183FF36C0E6
S11317C0877F88838985811102C01E821D828F8153
S11317D00E94880B2D813E81280F391F3E832D8363
S11317E099859F5F99879A3008F1ADECBCEC0E9413
S11317F04D0E9695879596958795969587959C8396
S11318008B83198628812B7F28832F819F938F9325
S11318101F922F9384E795E09F938F930E94670E06
S11318200F900F900F900F900F900F90DF91CF912A
S113183008950F931F93CF93DF93EC018F810E9440
S1131840880B9E838D834A855B856C857D858A01A3
S11318509B01080F191F211D311DC901B8010A87F9
S11318601B872C873D8729852F5F29872A3068F0BD
S11318702AE030E040E050E00E942B0E3A832983B6
S11318801A861B861C861D861986DF91CF911F91AF
S11318900F910895CF92DF92EF92FF92CF93DF934F
S11318A0EC01AB81BC818E850F2EF4E6CF2ED12CBA
S11318B0E12CF12CF02DA7019601281B31094109D7
S11318C051090E945C0EA70196010E942B0E89818A
S11318D09A816C01E12CF12C81E0C216D306E40656
S11318E0F50608F080E0C216D306E406F50650F4C7
S11318F09881E92FE295EF7029F49A609F709061C6
S113190098830FC0C216D306E406F50650F09881FA
S1131910292F22952F70213021F498609D709062B8
S11319209883DF91CF91FF90EF90DF90CF9008954F
S11319308BB188608BB908958BB1877F8BB908957B
S1131940E1E8F0E08081806480830895E1E8F0E0DC
S113195080818F7B808308959093C5008093C40019
S113196088E98093C10086E08093C2000895CF93F4
S1131970C82F8A3019F48DE00E94B70C8091C00002
S113198085FFFCCFC093C60080E090E0CF9108951E
S1131990E2E8F7E0218180812817A9F030E0F9011D
S11319A0EE57F84F82812F5F3F4F2F7130783323EA
S11319B034F421503109206E3F6F2F5F3F4F209345
S11319C0830790E008958FEF9FEF0895FC016687E9
S11319D008950F931F93CF93DF93EC018C819D8126
S11319E0AE81BF81488159816A817B818C019D01CF
S11319F0041B150B260B370BB901A801D901C8012B
S1131A00880F991FAA1FBB1F880F991FAA1FBB1FEE
S1131A10880F991FAA1FBB1F880F991FAA1FBB1FDE
S1131A208C019D01040F151F261F371FC901B80122
S1131A30660F771F881F991F20E931E040E050E0CE
S1131A400E942B0E288739874A875B878C8580689C
S1131A508C87DF91CF911F910F910895DC011F9620
S1131A60ED91FC915097309711F0CB0109950895B1
S1131A70CF93DF93EC01188219821A821B821C8295
S1131A801D821E821F82188619861A861B861C8652
S1131A908C8580628C871D860E94A00C8F85988916
S1131AA0892B41F08E85882329F060EA75E0CE0108
S1131AB00E942E0DDF91CF9108950F931F93CF9322
S1131AC0DF93EC018B010E94380D81E08E870115B4
S1131AD0110519F4188A1F860AC0188B0F878E8582
S1131AE0882329F06FEB75E0CE010E942E0DDF9163
S1131AF0CF911F910F9108951F93CF93DF93FC0112
S1131B002585263071F4162FEC010E94380D1E87AE
S1131B101E85112341F068EC73E0CE010E942E0D66
S1131B2003C010E001C011E0812FDF91CF911F911C
S1131B300895CF93FC018585882319F08585853028
S1131B40C1F4848585FF0BC081E08587C685CC23DD
S1131B50D1F06BED75E0CF010E942E0D15C0C68546
S1131B60CC2391F06AE076E0CF010E942E0DC0E014
S1131B700BC0C685CC2341F061E476E0CF010E941E
S1131B802E0DC0E001C0C1E08C2FCF910895CF93FA
S1131B90DF93EC018D85833071F128F4813049F0B5
S1131BA08230A1F055C08430E1F1863009F44DC093
S1131BB04FC08C8581FF4CC08E85882309F448C0B2
S1131BC06EE676E0CE010E942E0D42C08C8584FD27
S1131BD00CC083E08D870E94A60C8E85882329F093
S1131BE06DE876E0CE010E942E0D8C8583FF30C017
S1131BF086E08D872DC08C8586FF0DC084E08D879F
S1131C008E85882329F06AEA76E0CE010E942E0DA3
S1131C108C8584608C878C8583FF1AC086E08D87D1
S1131C2017C08C8582FF14C0CE010E94E90C8C85FC
S1131C308B7F8C878E85882329F061EC76E0CE013A
S1131C400E942E0D85E08D8703C08C8588608C876B
S1131C50DF91CF910895A1E21A2EAA1BBB1BFD01AF
S1131C600DC0AA1FBB1FEE1FFF1FA217B307E40777
S1131C70F50720F0A21BB30BE40BF50B661F771FCF
S1131C80881F991F1A9469F76095709580959095AF
S1131C909B01AC01BD01CF010895A29FB001B39F88
S1131CA0C001A39F700D811D1124911DB29F700D61
S1131CB0811D1124911D08950E944D0EA59F900D24
S1131CC0B49F900DA49F800D911D11240895A0E050
S1131CD0B0E0EDE6FEE00C944E11AE014B5F5F4FB9
S1131CE0FA0161917191AF018091B4079091B507A8
S1131CF00E94AD0EE2E00C946A110F931F93CF93F0
S1131D00DF93E091B407F091B507238121FF1BC055
S1131D108C01D0E0C0E0F80181918F016091B4079B
S1131D207091B507DB011896ED91FC911997882302
S1131D3031F00995892B79F3DFEFCFEFECCF8AE00F
S1131D400995892B19F08FEF9FEF02C08D2F9C2FDF
S1131D50DF91CF911F910F910895ABE0B0E0E3EBD9
S1131D60FEE00C943E116C017B018A01FC01178298
S1131D701682838181FFCCC1CE0101963C01F6011C
S1131D809381F70193FD859193FF81917F018823CE
S1131D9009F4BAC1853239F493FD859193FF819199
S1131DA07F01853229F4B60190E00E94A410E7CFA8
S1131DB0912C212C312CFFE1F315D8F08B3279F0E2
S1131DC038F4803279F08332A1F4232D20611DC0D0
S1131DD08D3261F0803369F4232D216016C0832D88
S1131DE08260382EE32DE4603E2E2AC0F32DF86085
S1131DF01DC037FC2DC020ED280F2A3040F08E3254
S1131E00B9F436FC81C1232D2064322E19C036FE6C
S1131E1006C08AE0989E200D1124922E11C0EAE09B
S1131E202E9E200D1124222EF32DF0623F2E08C089
S1131E308C3621F4832D8068382E02C0883641F414
S1131E40F70193FD859193FF81917F018111B3CFB8
S1131E50982F9F7D9554933028F40C5F1F4F9FE378
S1131E6099830DC0833631F0833771F0833509F0DF
S1131E7059C021C0F801808189830E5F1F4F8824D7
S1131E808394912C530113C02801F2E04F0E511C8E
S1131E90F801A080B18036FE03C0692D70E002C055
S1131EA06FEF7FEFC5010E9499104C018201F32D61
S1131EB0FF773F2E16C0280122E0420E511CF80184
S1131EC0A080B18036FE03C0692D70E002C06FEFC0
S1131ED07FEFC5010E948E104C01F32DF0683F2E58
S1131EE0820133FC1BC0822D90E088169906B0F461
S1131EF0B60180E290E00E94A4102A94F4CFF50188
S1131F0037FC859137FE81915F01B60190E00E9414
S1131F10A41021102A9421E0821A910881149104BA
S1131F2071F7E8C0843611F0893641F5F80137FEBF
S1131F3007C060817181828193810C5F1F4F08C04B
S1131F4060817181072E000C880B990B0E5F1F4F67
S1131F50F32DFF763F2E97FF09C0909580957095DD
S1131F6061957F4F8F4F9F4FF0683F2E2AE030E0FE
S1131F70A3010E94E010882E861845C0853731F4ED
S1131F80232D2F7EB22E2AE030E025C0932D997F99
S1131F90B92E8F36C1F018F4883579F0B5C0803782
S1131FA019F0883721F0B0C0E92FE061BE2EB4FEED
S1131FB00DC0FB2DF460BF2E09C034FE0AC0292FCA
S1131FC02660B22E06C028E030E005C020E130E0F3
S1131FD002C020E132E0F801B7FE07C060817181E0
S1131FE0828193810C5F1F4F06C06081718180E004
S1131FF090E00E5F1F4FA3010E94E010882E861808
S1132000FB2DFF773F2E36FE0DC0232D2E7FA22EF3
S1132010891458F434FE0BC032FC09C0832D8E7E23
S1132020A82E05C0B82CA32C03C0B82C01C0B92C11
S1132030A4FE0FC0FE01E80DF11D8081803321F460
S11320409A2D997EA92E09C0A2FE06C0B394B3941A
S113205004C08A2D867809F0B394A3FC11C0A0FEB5
S113206006C0B21488F4280C922C9B180EC0B2142B
S113207060F4B60180E290E00E94A410B394F7CF1C
S1132080B21418F42B1802C0982C212CA4FE10C0F2
S1132090B60180E390E00E94A410A2FE17C0A1FC48
S11320A003C088E790E002C088E590E0B6010CC068
S11320B08A2D867859F0A1FE02C08BE201C080E22D
S11320C0A7FC8DE2B60190E00E94A410891438F4B4
S11320D0B60180E390E00E94A4109A94F7CF8A940A
S11320E0F301E80DF11D8081B60190E00E94A41077
S11320F08110F5CF222009F442CEB60180E290E0AF
S11321000E94A4102A94F6CFF6018681978102C01A
S11321108FEF9FEF2B96E2E10C945A11FC0105908E
S1132120615070400110D8F7809590958E0F9F1FD5
S11321300895FC016150704001900110D8F780951A
S113214090958E0F9F1F08950F931F93CF93DF9346
S1132150FB01238121FD03C08FEF9FEF2CC022FFE1
S113216016C046815781248135814217530744F4B0
S1132170A081B1819D012F5F3F4F318320838C93D8
S1132180268137812F5F3F4F3783268314C08B010D
S1132190EC01FB010084F185E02D0995892BE1F622
S11321A0D80116968D919C911797019617969C933A
S11321B08E931697CE01DF91CF911F910F910895C1
S11321C0FA01AA27283051F1203181F1E8946F9364
S11321D06E7F6E5F7F4F8F4F9F4FAF4FB1E03ED00A
S11321E0B4E03CD0670F781F891F9A1FA11D680FA8
S11321F0791F8A1F911DA11D6A0F711D811D911DDB
S1132200A11D20D009F468943F912AE0269F11244F
S11322103019305D3193DEF6CF010895462F4770B3
S1132220405D4193B3E00FD0C9F7F6CF462F4F700E
S1132230405D4A3318F0495D31FD4052419302D06C
S1132240A9F7EACFB4E0A695979587957795679512
S1132250BA95C9F700976105710508959B01AC0112
S11322600A2E06945795479537952795BA95C9F739
S1132270620F731F841F951FA01D08952F923F9214
S11322804F925F926F927F928F929F92AF92BF9282
S1132290CF92DF92EF92FF920F931F93CF93DF932E
S11322A0CDB7DEB7CA1BDB0B0FB6F894DEBF0FBE8B
S11322B0CDBF09942A88398848885F846E847D84D8
S11322C08C849B84AA84B984C884DF80EE80FD80DA
S11322D00C811B81AA81B981CE0FD11D0FB6F89450
S11122E0DEBF0FBECDBFED010895F894FFCF11
S11322EE00000001000000000000C80C0000000007
S11322FE000200000000B70C0000000037414B55EF
S113230E5F6943616C696272616E646F2073656E9E
S113231E736F7265732049522E2E2E00546F646FA4
S113232E73206C6F732073656E736F7265732049BF
S113233E522063616C69627261646F732E00427421
S113234E6E206F766572666C6F7765640050726F7F
S113235E636573617220696E666F00496E64657899
S113236E2052203D20696E64657857203D202575E6
S113237E00546F6B656E20696E76616C69646F00D4
S113238E436F6D616E646F20696E76616C69646F04
S113239E004C656E677468202575004C656E677415
S11323AE68206D61796F7220612032342C20736540
S11323BE2070657264657269612064617461206461
S11323CE656C2062756666657200436B7320696E78
S11323DE76616C69646F00436B732076616C69641B
S11323EE6F0053656E640053656E6420646F6E6592
S11323FE00496E6974206863737230344465746581
S113240E63746F722C2073656E736F722069646CC3
S113241E650053595320534F52544552204445425C
S113242E5547202D204D617472697A2064652064AD
S113243E696D656E73696F6E657320696E69636924
S113244E6164610053595320534F525445522044F2
S113245E45425547202D2053616C69646173206198
S113246E6772656761646173004E6F2068617920DD
S113247E63616A612070726573656E74652028707D
S113248E617265642064657465637461646120615E
S113249E202575206D6D290A0043616A61206465EB
S11324AE6D61736961646F2062616A6120282575AC
S11324BE206D6D292C20646573636172746164618F
S11324CE0A0043616A61207469706F2041202825D7
S11324DE75206D6D290A0043616A61207469706FFD
S11324EE204220282575206D6D290A0043616A61FA
S11324FE207469706F204320282575206D6D290A7C
S113250E0043616A6120667565726120646520729C
S113251E616E676F20282575206D6D292C206465EA
S113252E73636172746164610A004572726F7249F9
S113253E6E69744843535230340053656E736F7230
S113254E206C6962657261646F206465206E7565C6
S113255E766F00424F585F53495A455F4100424FD0
S113256E585F53495A455F4200424F585F53495A88
S113257E455F4300424F585F4449534341524445DB
S113258E44005469706F206E6F207265636F6E6FB6
S113259E6369646F0048435352303420706572642B
S11325AE696F204543484F004C49422044454255EB
S11325BE47202D2048435352303420544D444F5518
S11325CE5420436C6561726564005075736865646C
S11325DE20736572766F204120616E64207A657275
S11325EE6F65642073746174652074696D6500444D
S11325FE65746563746F20656E20495220410050E6
S113260E757368656420736572766F204220616EFF
S113261E64207A65726F65642073746174652074C6
S113262E696D65004465746563746F20656E204939
S113263E5220420050757368656420736572766F1C
S113264E204320616E64207A65726F656420737412
S113265E6174652074696D65004465746563746F97
S113266E20656E2049522043004D656E6F732064C1
S113267E6520257520627974657320656E206275F8
S113268E666665720A005061717565746520524301
S113269E5620636C65617265642000496E6974200E
S11326AE70726F746F636F6C207365727669636595
S11326BE005061796C6F616420656E204865783ACC
S11326CE00427974652025643A20307825303258DA
S11326DE2028446563696D616C3A202564290A00DB
S11326EE434845434B53554D2043414C43202530DD
S11326FE32580A00434845434B53554D20455350D9
S113270E455241444F3A20253032580A00506171E7
S113271E756574652063726561646F2000A1A0A263
S113272EA0C0A0C1A0F0A0496E6974205365727652
S113273E6F2025750A0054435254204120454E41C2
S113274E424C45440054435254205520454E414278
S113275E4C45440053656E736F722063616E616CF9
S113276E2025752063616C69627261646F20636FEA
S113277E6E207468726573686F6C642025750A0028
S113278E4C4942204445425547202D20484353523C
S113279E303420466C616773205265736574004C47
S11327AE4942204445425547202D20484353523038
S11327BE3420496E69636961646F004C4942204458
S11327CE45425547202D20484353523034205374EC
S11327DE6172743A20545249474745525F414C4CFA
S11327EE4F5745442074727565004C494220444548
S11327FE425547202D2048435352303420537461A0
S113280E7274206661696C65643A20545249474774
S113281E45525F414C4C4F5745442066616C73657D
S113282E004C4942204445425547202D20484353ED
S113283E523034205374617274206661696C65641D
S113284E3A2077726F6E67207374617465004C4919
S113285E42204445425547202D205452494747456E
S113286E525F46494E495348206C6962004C4942B6
S113287E204445425547202D204543484F20524978
S113288E53494E472062616A6F004C4942204445C9
S113289E425547202D2043414C43554C414E444F05
S11328AE004C4942204445425547202D2043616C3B
S11328BE63756C61646F2C20706173616E646F203C
S11328CE612065737461646F206C6973746F0000AA
S9030000FC
