:100000000C9434000C9412010C9451000C94510087
:100010000C9451000C9451000C9451000C9451001C
:100020000C9451000C9451000C9451000C9451000C
:100030000C9451000C9453000C9451000C945100FA
:100040000C9451000C9451000C9451000C945100EC
:100050000C9451000C9451000C9451000C945100DC
:100060000C9451000C94510011241FBECFEFD8E026
:10007000DEBFCDBF11E0A0E0B1E0EEE2F9E002C0EA
:1000800005900D92A232B107D9F721E0A2E2B1E0CA
:1000900001C01D92A933B207E1F70E9480010C94C0
:1000A00095040C9400001F920F920FB60F9211242A
:1000B0008F939F93AF93BF938091230190912401DD
:1000C000A0912501B09126010196A11DB11D80933B
:1000D000230190932401A0932501B0932601BF91A1
:1000E000AF919F918F910F900FBE0F901F90189519
:1000F0009093C5008093C40088E18093C10086E09E
:100100008093C20008959091C00095FFFCCF80932A
:10011000C6000895CF93C82F8A3019F48DE00E944D
:1001200083008C2F0E94830080E090E0CF9108959F
:10013000E1E8F0E080818360808310928500109276
:100140008400EFE6F0E080818160808308958DB3C4
:1001500081608DBBE9E6F0E08081816080837894E6
:1001600008950F931F9380912B0190912C01A091E2
:100170002D01B0912E0140912F01509130016091DD
:100180003101709132018C019D01041B150B260B6E
:10019000370BB901A801D901C801880F991FAA1FFF
:1001A000BB1F880F991FAA1FBB1F880F991FAA1F6B
:1001B000BB1F880F991FAA1FBB1F8C019D01040F35
:1001C000151F261F371FC901B801660F771F881F2B
:1001D000991F28EC30E040E050E00E949501209308
:1001E0002701309328014093290150932A018091DF
:1001F000270190912801A0912901B0912A01BF9374
:10020000AF939F938F938EE091E09F938F930E9483
:10021000B7010F900F900F900F900F900F901F91BC
:100220000F9108951F920F920FB60F9211242F93E2
:100230003F934F935F936F937F938F939F93AF936E
:10024000BF93EF93FF9380912201811124C02091ED
:100250008400309185008091230190912401A09128
:100260002501B0912601DC0199278827820F931F71
:10027000A11DB11D80932F0190933001A0933101F6
:10028000B093320181E080932201E9E6F0E08081C1
:100290008260808324C02091840030918500809109
:1002A000230190912401A0912501B0912601DC0148
:1002B00099278827820F931FA11DB11D80932B01C1
:1002C00090932C01A0932D01B0932E010E94B100B8
:1002D00010922201E9E6F0E080818D7F8083FF911A
:1002E000EF91BF91AF919F918F917F916F915F91AE
:1002F0004F913F912F910F900FBE0F901F90189527
:100300008AB18B7F8AB98AB188608AB988E090E027
:100310000E94780080E091E090933601809335014F
:100320000E9498000E94A700FFCFA1E21A2EAA1BEC
:10033000BB1BFD010DC0AA1FBB1FEE1FFF1FA21795
:10034000B307E407F50720F0A21BB30BE40BF50B92
:10035000661F771F881F991F1A9469F7609570951B
:10036000809590959B01AC01BD01CF010895A0E05F
:10037000B0E0EDEBF1E00C946E04AE014B5F5F4F2B
:10038000FA0161917191AF0180913501909136012F
:100390000E94CD01E2E00C948A04ABE0B0E0E3ED12
:1003A000F1E00C945E046C017B018A01FC01178270
:1003B0001682838181FFCCC1CE0101963C01F601FA
:1003C0009381F70193FD859193FF81917F018823AC
:1003D00009F4BAC1853239F493FD859193FF819177
:1003E0007F01853229F4B60190E00E94C403E7CF73
:1003F000912C212C312CFFE1F315D8F08B3279F0C0
:1004000038F4803279F08332A1F4232D20611DC0AD
:100410008D3261F0803369F4232D216016C0832D65
:100420008260382EE32DE4603E2E2AC0F32DF86062
:100430001DC037FC2DC020ED280F2A3040F08E3231
:10044000B9F436FC81C1232D2064322E19C036FE4A
:1004500006C08AE0989E200D1124922E11C0EAE079
:100460002E9E200D1124222EF32DF0623F2E08C067
:100470008C3621F4832D8068382E02C0883641F4F2
:10048000F70193FD859193FF81917F018111B3CF96
:10049000982F9F7D9554933028F40C5F1F4F9FE356
:1004A00099830DC0833631F0833771F0833509F0BD
:1004B00059C021C0F801808189830E5F1F4F8824B5
:1004C0008394912C530113C02801F2E04F0E511C6C
:1004D000F801A080B18036FE03C0692D70E002C033
:1004E0006FEF7FEFC5010E94B9034C018201F32D2C
:1004F000FF773F2E16C0280122E0420E511CF80162
:10050000A080B18036FE03C0692D70E002C06FEF9D
:100510007FEFC5010E94AE034C01F32DF0683F2E22
:10052000820133FC1BC0822D90E088169906B0F43E
:10053000B60180E290E00E94C4032A94F4CFF50152
:1005400037FC859137FE81915F01B60190E00E94F2
:10055000C40321102A9421E0821A91088114910485
:1005600071F7E8C0843611F0893641F5F80137FE9D
:1005700007C060817181828193810C5F1F4F08C029
:1005800060817181072E000C880B990B0E5F1F4F45
:10059000F32DFF763F2E97FF09C0909580957095BB
:1005A00061957F4F8F4F9F4FF0683F2E2AE030E0DC
:1005B000A3010E940004882E861845C0853731F4B7
:1005C000232D2F7EB22E2AE030E025C0932D997F77
:1005D000B92E8F36C1F018F4883579F0B5C0803760
:1005E00019F0883721F0B0C0E92FE061BE2EB4FECB
:1005F0000DC0FB2DF460BF2E09C034FE0AC0292FA8
:100600002660B22E06C028E030E005C020E130E0D0
:1006100002C020E132E0F801B7FE07C060817181BD
:10062000828193810C5F1F4F06C06081718180E0E1
:1006300090E00E5F1F4FA3010E940004882E8618D1
:10064000FB2DFF773F2E36FE0DC0232D2E7FA22ED1
:10065000891458F434FE0BC032FC09C0832D8E7E01
:10066000A82E05C0B82CA32C03C0B82C01C0B92CEF
:10067000A4FE0FC0FE01E80DF11D8081803321F43E
:100680009A2D997EA92E09C0A2FE06C0B394B394F8
:1006900004C08A2D867809F0B394A3FC11C0A0FE93
:1006A00006C0B21488F4280C922C9B180EC0B21409
:1006B00060F4B60180E290E00E94C403B394F7CFE7
:1006C000B21418F42B1802C0982C212CA4FE10C0D0
:1006D000B60180E390E00E94C403A2FE17C0A1FC13
:1006E00003C088E790E002C088E590E0B6010CC046
:1006F0008A2D867859F0A1FE02C08BE201C080E20B
:10070000A7FC8DE2B60190E00E94C403891438F47E
:10071000B60180E390E00E94C4039A94F7CF8A94D4
:10072000F301E80DF11D8081B60190E00E94C40341
:100730008110F5CF222009F442CEB60180E290E08C
:100740000E94C4032A94F6CFF6018681978102C0E5
:100750008FEF9FEF2B96E2E10C947A04FC01059059
:10076000615070400110D8F7809590958E0F9F1FB3
:100770000895FC016150704001900110D8F78095F8
:1007800090958E0F9F1F08950F931F93CF93DF9324
:10079000FB01238121FD03C08FEF9FEF2CC022FFBF
:1007A00016C046815781248135814217530744F48E
:1007B000A081B1819D012F5F3F4F318320838C93B6
:1007C000268137812F5F3F4F3783268314C08B01EB
:1007D000EC01FB010084F185E02D0995892BE1F600
:1007E000D80116968D919C911797019617969C9318
:1007F0008E931697CE01DF91CF911F910F9108959F
:10080000FA01AA27283051F1203181F1E8946F9341
:100810006E7F6E5F7F4F8F4F9F4FAF4FB1E03ED0E7
:10082000B4E03CD0670F781F891F9A1FA11D680F85
:10083000791F8A1F911DA11D6A0F711D811D911DB8
:10084000A11D20D009F468943F912AE0269F11242D
:100850003019305D3193DEF6CF010895462F477091
:10086000405D4193B3E00FD0C9F7F6CF462F4F70EC
:10087000405D4A3318F0495D31FD4052419302D04A
:10088000A9F7EACFB4E0A6959795879577956795F0
:10089000BA95C9F700976105710508959B01AC01F0
:1008A0000A2E06945795479537952795BA95C9F717
:1008B000620F731F841F951FA01D08952F923F92F2
:1008C0004F925F926F927F928F929F92AF92BF9260
:1008D000CF92DF92EF92FF920F931F93CF93DF930C
:1008E000CDB7DEB7CA1BDB0B0FB6F894DEBF0FBE69
:1008F000CDBF09942A88398848885F846E847D84B6
:100900008C849B84AA84B984C884DF80EE80FD80B7
:100910000C811B81AA81B981CE0FD11D0FB6F8942D
:0E092000DEBF0FBECDBFED010895F894FFCFEE
:10092E0000000002000000008A0000000000446980
:10093E007374616E6369613A20256C75206D6D0A62
:02094E000000A7
:00000001FF
