S01700004763634170706C69636174696F6E312E737265635B
S11300000C9434000C9451000C9451000C94510045
S11300100C9451000C9451000C9451000C94040362
S11300200C9451000C9451000C9456000C94C7008D
S11300300C945F010C94B6000C9451000C94510084
S11300400C9451000C9451000C9451000C945100E8
S11300500C9451000C9451000C9451000C945100D8
S11300600C9451000C94510011241FBECFEFD8E022
S1130070DEBFCDBF15E0A0E0B1E0E4EBFCE102C0DF
S113008005900D92A23FB107D9F726E0A2EFB5E0A3
S113009001C01D92AD38B207E1F70E94F3030C943E
S11300A0580E0C9400000E94600B08951F920F924A
S11300B00FB60F9211242F933F938F939F93AF9377
S11300C0BF93EF93FF9380917A06823019F08330C7
S11300D019F13FC08091790684FF3BC020918600CE
S11300E0309187008091F80590E0A0E0B0E0DC0159
S11300F099278827820F931FA11DB11D80936D0638
S113010090936E06A0936F06B0937006E9E7F6E04D
S113011080818F7E80831DC020918600309187006E
S11301208091F80590E0A0E0B0E0DC0199278827F1
S1130130820F931FA11DB11D8093710690937206C7
S1130140A0937306B0937406E9E7F6E080818064B7
S11301508083FF91EF91BF91AF919F918F913F91D8
S11301602F910F900FBE0F901F9018951F920F9212
S11301700FB60F9211248F938091F8058F5F8093AF
S1130180F8058F910F900FBE0F901F9018951F9236
S11301900F920FB60F921124EF92FF920F931F93B9
S11301A02F933F934F935F936F937F938F939F937B
S11301B0AF93BF93CF93EF93FF93E8E8F0E0808190
S11301C09181805C9346918380838091480682600C
S11301D080934806C0E05AC0EC2EF12CF701EE0FD4
S11301E0FF1FEC59F94F00811181F801818180FFD3
S11301F04CC0818181FF1DC0818182FD1AC080EACB
S11302009FE093838283F701EE0FFF1FEC59F94FB0
S11302100190F081E02D80811F928F9382E291E022
S11302209F938F930E944A0B0F900F900F900F9003
S113023007C0F80184810E943608F8019383828301
S1130240C11123C0F701EE0FFF1FEC59F94FA08134
S1130250B1812C9181E090E002C0880F991F2A950A
S1130260E2F795B1892B85B92091840030918500FE
S11302700190F081E02D82819381820F931F9093EE
S11302808B0080938A001092F305CF5FC33008F48B
S1130290A3CFFF91EF91CF91BF91AF919F918F9198
S11302A07F916F915F914F913F912F911F910F918A
S11302B0FF90EF900F900FBE0F901F9018951F9214
S11302C00F920FB60F9211242F933F934F935F9386
S11302D06F937F938F939F93AF93BF93CF93DF934A
S11302E0EF93FF93E091F305F0E0EE0FFF1FEC595D
S11302F0F94F0190F081E02D208181E090E002C06F
S1130300880F991F2A95E2F78095909595B18923D6
S113031085B9E091F305F0E0EE0FFF1FEC59F94FBA
S11303200190F081E02D818181FF71C0E091F3059E
S1130330F0E0EE0FFF1FEC59F94F0190F081E02D32
S1130340818182FF64C0E091F305F0E0EE0FFF1FAE
S1130350EC59F94F0190F081E02D81818B7F8183ED
S1130360E091F305F0E0EE0FFF1FEC59F94F019017
S1130370F081E02D81818D7F8183E091F305F0E0B0
S1130380EE0FFF1FEC59F94F0190F081E02D8AE543
S11303908483E091F305F0E0EE0FFF1FEC59F94F71
S11303A0C081D181E091F305F0E0EE0FFF1FEC591D
S11303B0F94F80810E9436089B838A838091F305DC
S11303C081110AC0EEE0F6E082818860828388E3CE
S11303D091E00E94600B1BC08091F305813051F4C1
S11303E0E4E8F6E082818860828381E591E00E94FE
S11303F0600B0DC08091F305823049F4EAE6F6E023
S11304008281886082838AE691E00E94600B8091F9
S1130410F3058F5F8093F3058091F305833008F033
S113042091C0E091F305F0E0EE0FFF1FEC59F94F96
S11304300190F081E02D818180FF2CC0E091F305D3
S1130440F0E0EE0FFF1FEC59F94F0190F081E02D21
S1130450208181E090E002C0880F991F2A95E2F77D
S113046095B1892B85B92091840030918500E09164
S1130470F305F0E0EE0FFF1FEC59F94F0190F08106
S1130480E02D82819381820F931F90938B00809340
S11304908A0058C0E091F305F0E0EE0FFF1FEC591D
S11304A0F94F0190F081E02D208181E090E002C0BD
S11304B0880F991F2A95E2F78095909595B1892325
S11304C085B98091F3058F5F8093F3058091F305DF
S11304D08330C0F5E091F305F0E0EE0FFF1FEC5917
S11304E0F94F0190F081E02D818180FF2BC0E091D4
S11304F0F305F0E0EE0FFF1FEC59F94F0190F08186
S1130500E02D208181E090E002C0880F991F2A9598
S1130510E2F795B1892B85B920918400309185004B
S1130520E091F305F0E0EE0FFF1FEC59F94F019055
S1130530F081E02D82819381820F931F90938B0031
S113054080938A00FF91EF91DF91CF91BF91AF919A
S11305509F918F917F916F915F914F913F912F91D7
S11305600F900FBE0F901F901895A4E8B0E011965D
S11305701C921E9286B3806286BBEFE6F0E0808117
S113058087628083E1E8F0E08081806480838081F9
S1130590826080838D919C91805C934690938900C6
S11305A0809388000895E1EBF0E080818760808388
S11305B08BE98093B300E0E7F0E080818260808380
S11305C01092B200089584B1806284B985B18062CA
S11305D085B98AB188608AB984B18E7F84B98AB1B9
S11305E08F7E8AB984B1826084B984B1846084B90D
S11305F084B1886084B90E946D088BB1877F8BB900
S11306008BB18F7E8BB908951F920F920FB60F9204
S113061011242F933F934F935F936F937F938F9303
S11306209F93AF93BF93EF93FF938091200681FF35
S1130630C9C080917A06813051F58091490685FDC3
S11306400DC00E948A09E9E7F6E080818160808319
S11306508091490680628093490619C00E948E09E0
S1130660E9E7F6E0808182608083809149068D7D90
S113067088608093490680818F7D808382E08093A7
S11306807A0680818061808380818D7F80838091E0
S11306907A068230D1F48091790684FF16C0809165
S11306A049068970883089F48091F405811106C067
S11306B08091F4058F5F8093F40507C0809149060B
S11306C08160809349061092F4058091790685FD36
S11306D022C08091490684FD1EC08091F7058730B1
S11306E030F48091F7058F5F8093F70507C0809100
S11306F049068061809349061092F7058091790636
S113070083FF09C06091490666FB662760F98DE6A0
S113071096E00E945F0A8091F5058A3030F480915A
S1130720F5058F5F8093F50507C0809120068860EA
S1130730809320061092F5058091200686FF0EC056
S11307408091F6058F3F29F4809120068460809380
S113075020068091F6058F5F8093F6058091090647
S113076081FF0DC090910D069A3020F49F5F909305
S11307700D0605C0E8E0F6E015828460818380916F
S11307807F0681FF0DC0909183069A3020F49F5F0D
S11307909093830605C0EEE7F6E0158284608183BA
S11307A08091500680FF05C083FD03C0886080935C
S11307B050068091F90580FF05C083FD03C0886061
S11307C08093F905FF91EF91BF91AF919F918F9124
S11307D07F916F915F914F913F912F910F900FBE39
S11307E00F901F90189582E88093200680E88093EC
S11307F049061092480688E090E00E949E09E7E8C6
S1130800F6E08EE091E09383828380E091E091832F
S113081080831092F5050E94E3020E94B5020E94B3
S1130820D3020E94930863E570E08DE696E00E948F
S1130830400A6091490666FB662760F98DE696E0FA
S11308400E94C90941E156E06DE676E08FE596E045
S11308500E94390580E396E00E94A0058091490634
S113086082608093490685ED94E00E94600B789441
S11308708091480680FF05C080E396E00E948207CD
S113088069C08091F205811123C083E891E00E9440
S1130890600B8091500680FF03C0846080935006F3
S11308A08091F90580FF03C084608093F9058091ED
S11308B0210680FF03C08460809321068091110685
S11308C080FF03C084608093110681E08093F20569
S11308D08091500682FF04C080E596E00E94CC0817
S11308E08091F90582FF04C089EF95E00E94CC084D
S11308F08091F90582FF04C089EF95E00E94CC083D
S11309008091F90582FF04C089EF95E00E94CC082C
S11309108091500682FD06C08091F90582FF04C0D3
S113092080E003C080E001C081E0882399F08DE974
S113093091E00E94600B8091480681608093480694
S1130940109259061092020610922A0610921A0664
S11309500E94530560E376E08FE596E00E9450061E
S11309600E9435084C9B0AC08091200686FD06C073
S11309701092F60580648093200628C0809120069A
S113098086FF24C04C9922C08F7B8093200682FF6F
S113099004C08FEB91E00E94600B8091F6058A30D1
S11309A030F480912006982F947082FF06C08091C5
S11309B0200681608093200609C01092F6059923D1
S11309C029F0809120068B7F809320068091490630
S11309D084FF08C08F7E80934906E9E7F6E08081B2
S11309E0806280838091200683FF08C0877F809384
S11309F020068091490682608093490680912006F2
S1130A0080FF03C08E7F809320068091480681FF7B
S1130A102FCF8D7F809348068091500680FF07C0BA
S1130A2082FF05C083FD03C08860809350068091D7
S1130A30F90580FF07C082FF05C083FD03C08860FD
S1130A408093F9058091210680FF07C082FF05C0CD
S1130A5083FD03C08860809321068091110680FF86
S1130A6007CF82FF05CF83FD03CF886080931106F3
S1130A70FFCECF93DF9300D0CDB7DEB7FC015A830E
S1130A8049838DE696E091838083CE01019693831A
S1130A90828314828EEC91E00E94600B0F900F9081
S1130AA0DF91CF910895CF93DF932AE530E041E0C1
S1130AB050E060E070E088E096E00E9449082AE592
S1130AC030E042E050E061E070E08EE796E00E94A2
S1130AD04908E4E6F6E088E096E0918380838EE7B7
S1130AE096E0938382838AE496E0958384831092CC
S1130AF0F3058FEE91E00E94600BCEE0D6E081E03A
S1130B008983809158068883A4E8B6E082E0119630
S1130B108C931197809101068C93EAE6F6E083E0CA
S1130B20818380912906808388E08A8312968C933E
S1130B3082838BEF91E00E94600BDF91CF91089547
S1130B40FC018CE191E0918380838EE096E09383B5
S1130B50828384E896E0958384838AE696E097838B
S1130B60868380914906882344F488E092E00E94B9
S1130B70600B8AE392E00E94600B08958E3B98F02C
S1130B809091490699230CF083C01F928F938FE5AF
S1130B9092E09F938F930E944A0B0F900F900F90B7
S1130BA00F9084E008959EEB981B973398F48091FE
S1130BB04906807809F473C01F929F938FE892E0EE
S1130BC09F938F930E944A0B0F900F900F900F905A
S1130BD080E00895DB01ED91FC9180819817B0F0DD
S1130BE08181891798F08091490688230CF052C0BE
S1130BF01F929F9388EB92E09F938F930E944A0BDE
S1130C000F900F900F900F9081E0089582819817B4
S1130C10A8F08381891790F0809149068823E4F530
S1130C201F929F938DEC92E09F938F930E944A0BA7
S1130C300F900F900F900F9082E008958481981781
S1130C40A8F08581891790F080914906882334F5AE
S1130C501F929F9382EE92E09F938F930E944A0B80
S1130C600F900F900F900F9083E0089580914906A4
S1130C708078A9F01F929F9387EF92E09F938F93C0
S1130C800E944A0B0F900F900F900F9080E00895F0
S1130C9084E0089581E0089582E0089583E0089552
S1130CA0FF920F931F93CF93DF93EC018B018091FD
S1130CB020068823A4F5E881F981848585FF2FC067
S1130CC08091490681FF2BC0CF010E947C0A8823B2
S1130CD0C1F08091490686FF04C085E293E00E943A
S1130CE0600B809120068F778093200680914906BF
S1130CF08D7F80934906E881F98184858F7D84877F
S1130D000EC08091490686FF04C080E293E00E94F1
S1130D10600B8091490684608D7F809349068881A9
S1130D2099810E94AA0AE881F9818585853009F0B4
S1130D30B2C0848588230CF0AEC084858F77848705
S1130D40E881F98180859185A285B3858F3B9105E2
S1130D50A105B105B0F08C8181608C83982F9295A8
S1130D609F70923051F48F708C8380914906882350
S1130D7024F480E393E00E94600B8C818F708C8359
S1130D807EC08C81982F92959F7009F078C08F70E7
S1130D9080618C8380859185A285B385B8010E948A
S1130DA0BE05F82E84E0F81609F465C0E881F981DF
S1130DB080859185A285B385E1E0FE1649F0FE1693
S1130DC0B0F0F2E0FF1649F083E0F81659F014C0D1
S1130DD089E493E00E94600B13C084E593E00E94D1
S1130DE0600B0EC08FE593E00E94600B09C08AE699
S1130DF093E00E94600B04C088E793E00E94600BBC
S1130E00F1100DC0F80180899189A289B3890196F6
S1130E10A11DB11D808B918BA28BB38B0CC0F801EB
S1130E2084859585A685B7850196A11DB11D848706
S1130E309587A687B787F80180859185A285B385B4
S1130E400196A11DB11D80879187A287B387EF2DDD
S1130E50F0E03596EE0FFF1FEE0FFF1FE00FF11FBE
S1130E6080819181A281B3810196A11DB11D8083EE
S1130E709183A283B3838C818F7080628C838881F9
S1130E8099810E941B0AE881F981158680912006C8
S1130E908068809320068091490680FF2DC086FFDC
S1130EA004C08BE893E00E94600B809149068E7F1A
S1130EB0877F80934906E881F981848588608487E7
S1130EC0E881F98186E085876091490666FB66279B
S1130ED060F9888199810E945F0A882341F080919A
S1130EE0490686FF04C08EE993E00E94600B80915E
S1130EF02006806880932006DF91CF911F910F9187
S1130F00FF9008958091500680FF09C083FF07C0B9
S1130F10877F8093500680E596E00E940B0980E568
S1130F2096E00E943C09892B01F18091500682953C
S1130F308F708230D1F48091100683FF0DC0877FBB
S1130F4080931006E8E0F6E0818182608183158257
S1130F5080EC93E00E94600BE0E5F6E080818F7006
S1130F60808385EE93E00E94600B8091F90580FFF9
S1130F7009C083FF07C0877F8093F90589EF95E057
S1130F800E940B0989EF95E00E943C09892B01F12D
S1130F908091F90582958F708230D1F48091860614
S1130FA083FF0DC0877F80938606EEE7F6E081819C
S1130FB082608183158285EF93E00E94600BE9EFE4
S1130FC0F5E080818F7080838AE194E00E94600B59
S1130FD08091210680FF09C083FF07C0877F80932B
S1130FE0210681E296E00E940B0981E296E00E94CC
S1130FF03C09892B99F080912106982F92959F7036
S1131000923061F4E4E8F6E09281926092838F700A
S1131010809321068AE294E00E94600B809111067D
S113102080FF09C083FF07C0877F8093110681E199
S113103096E00E940B0981E196E00E943C09892B0D
S113104099F080911106982F92959F70923061F4D7
S1131050E4E8F6E09281926092838F7080931106A7
S11310608AE394E00E94600B08950895853B08F09C
S113107084EB282F30E0A0EDB7E00E94300B24EB86
S113108030E040E050E00E940E0BC9018053984FBD
S113109008950F931F93CF93DF93EC01042F122F26
S11310A01F926F938AE494E09F938F930E944A0B5C
S11310B01982812F0E9436089B838A8308831C83AC
S11310C01D828981816089830F900F900F900F900A
S11310D0DF91CF911F910F91089587B1807F87B9D8
S11310E088B1807F88B980E480937C0086E880930F
S11310F07A0008958430A0F4ECE7F0E09081907FCA
S1131100892B8083EAE7F0E080818064808380918A
S11311107A0086FDFCCF8091780090917900089543
S113112080E090E00895CF93DF93E0E5F6E0178246
S113113010861282118216821582C4E1C687D1E01C
S1131140D08389E594E00E94600BE9EFF5E0D78352
S1131150D0871282118216821582C687D08388E6D0
S113116094E00E94600BE1E2F6E0108282E0878363
S113117080871282118216821582C687E1E1F6E029
S1131180108283E0878380871282118216821582FF
S1131190C687DF91CF910895CF93DF93EC018881C7
S11311A083FF36C0877F88838985811102C01E82B0
S11311B01D828F810E947A082D813E81280F391F5C
S11311C03E832D8399859F5F99879A3008F1ADEC12
S11311D0BCEC0E94300B96958795969587959695CD
S11311E087959C838B83198628812B7F28832F8165
S11311F09F938F931F922F9387E794E09F938F93EE
S11312000E944A0B0F900F900F900F900F900F9029
S1131210DF91CF9108950F931F93CF93DF93EC0148
S11312208F810E947A089E838D834A855B856C85B5
S11312307D858A019B01080F191F211D311DC901DC
S1131240B8010A871B872C873D8729852F5F29874B
S11312502A3068F02AE030E040E050E00E940E0BB3
S11312603A8329831A861B861C861D861986DF917C
S1131270CF911F910F910895CF92DF92EF92FF9239
S1131280CF93DF93EC01AB81BC818E850F2EF4E606
S1131290CF2ED12CE12CF12CF02DA7019601281B87
S11312A03109410951090E943F0BA70196010E948F
S11312B00E0B89819A816C01E12CF12C81E0C2161C
S11312C0D306E406F50608F080E0C216D306E40669
S11312D0F50650F49881E92FE295EF7029F49A60AD
S11312E09F70906198830FC0C216D306E406F5067A
S11312F050F09881292F22952F70213021F4986085
S11313009D7090629883DF91CF91FF90EF90DF9072
S1131310CF9008958BB188608BB908958BB1877F86
S11313208BB90895E1E8F0E08081806480830895BA
S1131330E1E8F0E080818F7B808308959093C5007D
S11313408093C40088E18093C10086E08093C2004A
S113135008959091C00095FFFCCF8093C600089536
S11313608091C0008823E4F78091C6000895CF934C
S1131370C82F8A3019F48DE00E94A9098C2F0E948D
S1131380A90980E090E0CF9108950E94B00990E00F
S11313900895FC01668708950F931F93CF93DF93FD
S11313A0EC018C819D81AE81BF81488159816A8124
S11313B07B818C019D01041B150B260B370BB90196
S11313C0A801D901C801880F991FAA1FBB1F880F44
S11313D0991FAA1FBB1F880F991FAA1FBB1F880F25
S11313E0991FAA1FBB1F8C019D01040F151F261FE7
S11313F0371FC901B801660F771F881F991F20E99D
S113140031E040E050E00E940E0B288739874A877C
S11314105B878C8580688C87DF91CF911F910F91BA
S11314200895DC011F96ED91FC915097309711F0CF
S1131430CB0109950895CF93DF93EC0118821982AB
S11314401A821B821C821D821E821F8218861986A4
S11314501A861B861C868C8580628C871D860E945A
S113146092098F859889892B41F08E85882329F0EC
S113147063EA74E0CE010E94110ADF91CF910895CE
S11314800F931F93CF93DF93EC018B010E941B0AF0
S113149081E08E870115110519F4188A1F860AC088
S11314A0188B0F878E85882329F062EC74E0CE01B7
S11314B00E94110ADF91CF911F910F9108951F93FC
S11314C0CF93DF93FC012585263071F4162FEC01B0
S11314D00E941B0A1E871E85112341F06EE973E0EA
S11314E0CE010E94110A03C010E001C011E0812F57
S11314F0DF91CF911F910895CF93FC0185858823B7
S113150019F085858530C1F4848585FF0BC081E0A1
S11315108587C685CC23D1F06EED74E0CF010E949F
S1131520110A15C0C685CC2391F06DE075E0CF019A
S11315300E94110AC0E00BC0C685CC2341F064E4CC
S113154075E0CF010E94110AC0E001C0C1E08C2FF8
S1131550CF910895CF93DF93EC018D85833071F1A2
S113156028F4813049F08230A1F055C08430E1F193
S1131570863009F44DC04FC08C8581FF4CC08E85E8
S1131580882309F448C061E775E0CE010E94110A7E
S113159042C08C8584FD0CC083E08D870E9498092D
S11315A08E85882329F060E975E0CE010E94110A36
S11315B08C8583FF30C086E08D872DC08C8586FFA7
S11315C00DC084E08D878E85882329F06DEA75E04F
S11315D0CE010E94110A8C8584608C878C8583FFE0
S11315E01AC086E08D8717C08C8582FF14C0CE0197
S11315F00E94CC098C858B7F8C878E85882329F06B
S113160064EC75E0CE010E94110A85E08D8703C069
S11316108C8588608C87DF91CF910895A1E21A2E82
S1131620AA1BBB1BFD010DC0AA1FBB1FEE1FFF1F82
S1131630A217B307E407F50720F0A21BB30BE40BD2
S1131640F50B661F771F881F991F1A9469F7609519
S11316507095809590959B01AC01BD01CF010895D3
S1131660A29FB001B39FC001A39F700D811D1124DF
S1131670911DB29F700D811D1124911D08950E942A
S1131680300BA59F900DB49F900DA49F800D911DCC
S113169011240895A0E0B0E0E0E5FBE00C94310EE5
S11316A0AE014B5F5F4FFA0161917191AF0180917F
S11316B0890690918A060E94900BE2E00C944D0EEC
S11316C00F931F93CF93DF93E0918906F0918A06DD
S11316D0238121FF1BC08C01D0E0C0E0F80181917F
S11316E08F016091890670918A06DB011896ED914D
S11316F0FC911997882331F00995892B79F3DFEF51
S1131700CFEFECCF8AE00995892B19F08FEF9FEF8B
S113171002C08D2F9C2FDF91CF911F910F910895BF
S1131720ABE0B0E0E6E9FBE00C94210E6C017B0138
S11317308A01FC0117821682838181FFCCC1CE010C
S113174001963C01F6019381F70193FD859193FF86
S113175081917F01882309F4BAC1853239F493FD5C
S1131760859193FF81917F01853229F4B60190E040
S11317700E94870DE7CF912C212C312CFFE1F3152A
S1131780D8F08B3279F038F4803279F08332A1F4D6
S1131790232D20611DC08D3261F0803369F4232D27
S11317A0216016C0832D8260382EE32DE4603E2E26
S11317B02AC0F32DF8601DC037FC2DC020ED280F82
S11317C02A3040F08E32B9F436FC81C1232D2064D6
S11317D0322E19C036FE06C08AE0989E200D1124D0
S11317E0922E11C0EAE02E9E200D1124222EF32DFC
S11317F0F0623F2E08C08C3621F4832D8068382E89
S113180002C0883641F4F70193FD859193FF8191DD
S11318107F018111B3CF982F9F7D9554933028F485
S11318200C5F1F4F9FE399830DC0833631F08337DC
S113183071F0833509F059C021C0F8018081898392
S11318400E5F1F4F88248394912C530113C02801E9
S1131850F2E04F0E511CF801A080B18036FE03C0A7
S1131860692D70E002C06FEF7FEFC5010E947C0D0F
S11318704C018201F32DFF773F2E16C0280122E090
S1131880420E511CF801A080B18036FE03C0692DC0
S113189070E002C06FEF7FEFC5010E94710D4C0133
S11318A0F32DF0683F2E820133FC1BC0822D90E0A3
S11318B088169906B0F4B60180E290E00E94870D84
S11318C02A94F4CFF50137FC859137FE81915F01AD
S11318D0B60190E00E94870D21102A9421E0821A1B
S11318E091088114910471F7E8C0843611F08936A7
S11318F041F5F80137FE07C06081718182819381CF
S11319000C5F1F4F08C060817181072E000C880B8B
S1131910990B0E5F1F4FF32DFF763F2E97FF09C0E3
S113192090958095709561957F4F8F4F9F4FF0688C
S11319303F2E2AE030E0A3010E94C30D882E8618B2
S113194045C0853731F4232D2F7EB22E2AE030E0B6
S113195025C0932D997FB92E8F36C1F018F48835A0
S113196079F0B5C0803719F0883721F0B0C0E92F7D
S1131970E061BE2EB4FE0DC0FB2DF460BF2E09C085
S113198034FE0AC0292F2660B22E06C028E030E0BB
S113199005C020E130E002C020E132E0F801B7FEEA
S11319A007C060817181828193810C5F1F4F06C0E3
S11319B06081718180E090E00E5F1F4FA3010E945F
S11319C0C30D882E8618FB2DFF773F2E36FE0DC0E3
S11319D0232D2E7FA22E891458F434FE0BC032FC22
S11319E009C0832D8E7EA82E05C0B82CA32C03C05D
S11319F0B82C01C0B92CA4FE0FC0FE01E80DF11DE6
S1131A008081803321F49A2D997EA92E09C0A2FEEB
S1131A1006C0B394B39404C08A2D867809F0B394B5
S1131A20A3FC11C0A0FE06C0B21488F4280C922CAA
S1131A309B180EC0B21460F4B60180E290E00E94DC
S1131A40870DB394F7CFB21418F42B1802C0982C56
S1131A50212CA4FE10C0B60180E390E00E94870D03
S1131A60A2FE17C0A1FC03C088E790E002C088E58D
S1131A7090E0B6010CC08A2D867859F0A1FE02C010
S1131A808BE201C080E2A7FC8DE2B60190E00E94E7
S1131A90870D891438F4B60180E390E00E94870D25
S1131AA09A94F7CF8A94F301E80DF11D8081B60171
S1131AB090E00E94870D8110F5CF222009F442CED8
S1131AC0B60180E290E00E94870D2A94F6CFF601D9
S1131AD08681978102C08FEF9FEF2B96E2E10C94F1
S1131AE03D0EFC010590615070400110D8F78095BF
S1131AF090958E0F9F1F0895FC01615070400190D6
S1131B000110D8F7809590958E0F9F1F08950F931D
S1131B101F93CF93DF93FB01238121FD03C08FEF3C
S1131B209FEF2CC022FF16C0468157812481358146
S1131B304217530744F4A081B1819D012F5F3F4FA9
S1131B40318320838C93268137812F5F3F4F3783E6
S1131B50268314C08B01EC01FB010084F185E02D88
S1131B600995892BE1F6D80116968D919C911797CA
S1131B70019617969C938E931697CE01DF91CF9181
S1131B801F910F910895FA01AA27283051F12031AD
S1131B9081F1E8946F936E7F6E5F7F4F8F4F9F4FFD
S1131BA0AF4FB1E03ED0B4E03CD0670F781F891F3F
S1131BB09A1FA11D680F791F8A1F911DA11D6A0F0D
S1131BC0711D811D911DA11D20D009F468943F91C0
S1131BD02AE0269F11243019305D3193DEF6CF01BF
S1131BE00895462F4770405D4193B3E00FD0C9F785
S1131BF0F6CF462F4F70405D4A3318F0495D31FDF2
S1131C004052419302D0A9F7EACFB4E0A695979544
S1131C10879577956795BA95C9F70097610571051A
S1131C2008959B01AC010A2E069457954795379564
S1131C302795BA95C9F7620F731F841F951FA01DBE
S1131C4008952F923F924F925F926F927F928F925C
S1131C509F92AF92BF92CF92DF92EF92FF920F9337
S1131C601F93CF93DF93CDB7DEB7CA1BDB0B0FB641
S1131C70F894DEBF0FBECDBF09942A8839884888FE
S1131C805F846E847D848C849B84AA84B984C88494
S1131C90DF80EE80FD800C811B81AA81B981CE0F8B
S1131CA0D11D0FB6F894DEBF0FBECDBFED01089570
S1071CB0F894FFCFD2
S1131CB400000001000000000000C509000000004D
S1131CC4000200000000B7090000000037414B5532
S1131CD45F6949535220434F4D5041205055534856
S1131CE42025642E2E2E0A00566F6C76696F2061AF
S1131CF420706F736963696F6E2049444C452041B9
S1131D0400566F6C76696F206120706F7369636924
S1131D146F6E2049444C45204200566F6C76696FBF
S1131D24206120706F736963696F6E2049444C4568
S1131D3420430043616C696272616E646F20736551
S1131D446E736F7265732049522E2E2E00546F6485
S1131D546F73206C6F732073656E736F7265732079
S1131D6449522063616C69627261646F732E00422C
S1131D74746E206F766572666C6F77656400496E65
S1131D846974206863737230344465746563746F72
S1131D94722C2073656E736F722069646C650049DC
S1131DA46E697420736572766F7300496E6974206A
S1131DB46F7574707574730053595320534F525490
S1131DC44552204445425547202D204D6174726983
S1131DD47A2064652064696D656E73696F6E6573DA
S1131DE420696E6963696164610053595320534FD8
S1131DF452544552204445425547202D2053616C8A
S1131E046964617320616772656761646173004E1C
S1131E146F206861792063616A61207072657365FB
S1131E246E746520287061726564206465746563EA
S1131E34746164612061202575206D6D290A004355
S1131E44616A612064656D61736961646F206261B4
S1131E546A6120282575206D6D292C2064657363BF
S1131E646172746164610A0043616A612074697017
S1131E746F204120282575206D6D290A0043616A6D
S1131E8461207469706F204220282575206D6D29A6
S1131E940A0043616A61207469706F204320282515
S1131EA475206D6D290A0043616A61206675657247
S1131EB4612064652072616E676F20282575206D2A
S1131EC46D292C20646573636172746164610A0012
S1131ED44572726F72496E697448435352303400C8
S1131EE453656E736F72206C6962657261646F20EE
S1131EF46465206E7565766F00424F585F53495A86
S1131F04455F4100424F585F53495A455F4200427E
S1131F144F585F53495A455F4300424F585F444901
S1131F2453434152444544005469706F206E6F20FA
S1131F347265636F6E6F6369646F00484353523014
S1131F44342070657264696F204543484F004C49DE
S1131F5442204445425547202D20484353523034AF
S1131F6420544D444F555420436C6561726564009C
S1131F7450757368656420736572766F20412061BF
S1131F846E64207A65726F6564207374617465206D
S1131F9474696D65004465746563746F20656E20AF
S1131FA449522041005075736865642073657276E4
S1131FB46F204220616E64207A65726F65642073B9
S1131FC4746174652074696D650044657465637433
S1131FD46F20656E20495220420044657465637421
S1131FE46F20656E20495220430044657465637410
S1131FF46F20656E204952205500496E6974205340
S11320046572766F2025750A00544352542041208A
S1132014454E41424C4544005443525420422045C9
S11320244E41424C45440053656E736F72206361A4
S11320346E616C2025752063616C69627261646FE2
S113204420636F6E207468726573686F6C642025F6
S1132054750A004C4942204445425547202D2048E6
S1132064435352303420466C616773205265736560
S113207474004C4942204445425547202D2048438E
S11320845352303420496E69636961646F004C496A
S113209442204445425547202D204843535230346E
S11320A42053746172743A20545249474745525F2D
S11320B4414C4C4F5745442074727565004C494259
S11320C4204445425547202D204843535230342060
S11320D45374617274206661696C65643A20545265
S11320E449474745525F414C4C4F5745442066612C
S11320F46C7365004C4942204445425547202D20C9
S113210448435352303420537461727420666169B5
S11321146C65643A2077726F6E67207374617465BA
S1132124004C4942204445425547202D20545249ED
S1132134474745525F46494E495348206C696200FB
S11321444C4942204445425547202D204543484F9D
S113215420524953494E472062616A6F004C4942F8
S1132164204445425547202D2043414C43554C417E
S11321744E444F004C4942204445425547202D20AB
S113218443616C63756C61646F2C20706173616E60
S1132194646F20612065737461646F206C69737467
S10521A46F00C6
S9030000FC
