:100000000C9434000C9451000C9451000C94510049
:100010000C9451000C9451000C9451000C94640009
:100020000C9451000C9451000C9436010C94510026
:100030000C9451000C9453000C9451000C945100FA
:100040000C9451000C9451000C9451000C945100EC
:100050000C9451000C9451000C9451000C945100DC
:100060000C9451000C94510011241FBECFEFD8E026
:10007000DEBFCDBF11E0A0E0B1E0E4E6F9E002C0F0
:1000800005900D92A232B107D9F721E0A2E2B1E0CA
:1000900001C01D92A533B207E1F70E9487010C94BD
:1000A000B0040C9400001F920F920FB60F9211240F
:1000B0008F93809124018F5F809324018F910F9003
:1000C0000FBE0F901F9018951F920F920FB60F92B0
:1000D00011248F939F93EF93FF9380912D01982F7D
:1000E000917080FF15C0911113C091110AC08091C9
:1000F00023018A3030F4809123018F5F80932301A4
:1001000007C0EDE2F1E080818160808310922301DD
:10011000FF91EF919F918F910F900FBE0F901F90C5
:1001200018959093C5008093C40088E18093C10026
:1001300086E08093C20008959091C00095FFFCCFA7
:100140008093C6000895CF93C82F8A3019F48DE0AC
:100150000E949C008C2F0E949C0080E090E0CF9138
:100160000895E1E8F0E0808183608083109285004B
:1001700010928400EFE6F0E0808181608083089532
:10018000E1EBF0E080818D6080838BE98093B300A8
:10019000E0E7F0E08081826080831092B2000895F1
:1001A0008AB1877F8AB98AB184608AB98DB3816048
:1001B0008DBBE9E6F0E080818160808378940895CA
:1001C0000F931F938091290190912A0120912B0177
:1001D00030912C01821B930BAC0160E070E0DB01DD
:1001E000CA01880F991FAA1FBB1F880F991FAA1F3A
:1001F000BB1F880F991FAA1FBB1F880F991FAA1F1B
:10020000BB1F8C019D01040F151F261F371FC9013D
:10021000B801660F771F881F991F28EC30E040E077
:1002200050E00E94B00120932501309326014093B5
:100230002701509328018091250190912601A091DA
:100240002701B0912801BF93AF939F938F938EE0C6
:1002500091E09F938F930E94D2010F900F900F9087
:100260000F900F900F901F910F9108951F920F9272
:100270000FB60F9211242F933F934F935F936F9379
:100280007F938F939F93AF93BF93EF93FF9380914F
:100290002D0180FF18C080912401809186009091EB
:1002A000870090932C0180932B0181E080932201A1
:1002B000EDE2F1E080818E7F8083E1E8F0E08081F3
:1002C0008F7B808313C08091240180918600909160
:1002D000870090932A01809329010E94E0001092E8
:1002E0002201E1E8F0E0808180648083FF91EF915A
:1002F000BF91AF919F918F917F916F915F914F913E
:100300003F912F910F900FBE0F901F90189588E08E
:1003100090E00E949100CDE2D1E0888181608883E5
:1003200080E091E090933201809331010E94B1000E
:100330000E94C0000E94D000888180FF02C08160BE
:10034000888380912D0180FFFCCFEDE2F1E08E7F6C
:1003500080838BB18B7F8BB980818E7F8083F1CF3F
:10036000A1E21A2EAA1BBB1BFD010DC0AA1FBB1FB9
:10037000EE1FFF1FA217B307E407F50720F0A21B2B
:10038000B30BE40BF50B661F771F881F991F1A9498
:1003900069F760957095809590959B01AC01BD01C2
:1003A000CF010895A0E0B0E0E8EDF1E00C948904FD
:1003B000AE014B5F5F4FFA0161917191AF01809186
:1003C0003101909132010E94E801E2E00C94A50411
:1003D000ABE0B0E0EEEEF1E00C9479046C017B014F
:1003E0008A01FC0117821682838181FFCCC1CE0174
:1003F00001963C01F6019381F70193FD859193FFEE
:1004000081917F01882309F4BAC1853239F493FDC3
:10041000859193FF81917F01853229F4B60190E0A7
:100420000E94DF03E7CF912C212C312CFFE1F31543
:10043000D8F08B3279F038F4803279F08332A1F43D
:10044000232D20611DC08D3261F0803369F4232D8E
:10045000216016C0832D8260382EE32DE4603E2E8D
:100460002AC0F32DF8601DC037FC2DC020ED280FE9
:100470002A3040F08E32B9F436FC81C1232D20643D
:10048000322E19C036FE06C08AE0989E200D112437
:10049000922E11C0EAE02E9E200D1124222EF32D63
:1004A000F0623F2E08C08C3621F4832D8068382EF0
:1004B00002C0883641F4F70193FD859193FF819145
:1004C0007F018111B3CF982F9F7D9554933028F4ED
:1004D0000C5F1F4F9FE399830DC0833631F0833744
:1004E00071F0833509F059C021C0F80180818983FA
:1004F0000E5F1F4F88248394912C530113C0280151
:10050000F2E04F0E511CF801A080B18036FE03C00E
:10051000692D70E002C06FEF7FEFC5010E94D40328
:100520004C018201F32DFF773F2E16C0280122E0F7
:10053000420E511CF801A080B18036FE03C0692D27
:1005400070E002C06FEF7FEFC5010E94C9034C014C
:10055000F32DF0683F2E820133FC1BC0822D90E00A
:1005600088169906B0F4B60180E290E00E94DF039D
:100570002A94F4CFF50137FC859137FE81915F0114
:10058000B60190E00E94DF0321102A9421E0821A34
:1005900091088114910471F7E8C0843611F089360E
:1005A00041F5F80137FE07C0608171818281938136
:1005B0000C5F1F4F08C060817181072E000C880BF3
:1005C000990B0E5F1F4FF32DFF763F2E97FF09C04B
:1005D00090958095709561957F4F8F4F9F4FF068F4
:1005E0003F2E2AE030E0A3010E941B04882E8618CB
:1005F00045C0853731F4232D2F7EB22E2AE030E01E
:1006000025C0932D997FB92E8F36C1F018F4883507
:1006100079F0B5C0803719F0883721F0B0C0E92FE4
:10062000E061BE2EB4FE0DC0FB2DF460BF2E09C0EC
:1006300034FE0AC0292F2660B22E06C028E030E022
:1006400005C020E130E002C020E132E0F801B7FE51
:1006500007C060817181828193810C5F1F4F06C04A
:100660006081718180E090E00E5F1F4FA3010E94C6
:100670001B04882E8618FB2DFF773F2E36FE0DC0FB
:10068000232D2E7FA22E891458F434FE0BC032FC89
:1006900009C0832D8E7EA82E05C0B82CA32C03C0C4
:1006A000B82C01C0B92CA4FE0FC0FE01E80DF11D4D
:1006B0008081803321F49A2D997EA92E09C0A2FE53
:1006C00006C0B394B39404C08A2D867809F0B3941D
:1006D000A3FC11C0A0FE06C0B21488F4280C922C12
:1006E0009B180EC0B21460F4B60180E290E00E9444
:1006F000DF03B394F7CFB21418F42B1802C0982C70
:10070000212CA4FE10C0B60180E390E00E94DF031C
:10071000A2FE17C0A1FC03C088E790E002C088E5F4
:1007200090E0B6010CC08A2D867859F0A1FE02C077
:100730008BE201C080E2A7FC8DE2B60190E00E944E
:10074000DF03891438F4B60180E390E00E94DF03F0
:100750009A94F7CF8A94F301E80DF11D8081B601D8
:1007600090E00E94DF038110F5CF222009F442CEF1
:10077000B60180E290E00E94DF032A94F6CFF601F2
:100780008681978102C08FEF9FEF2B96E2E10C9458
:100790009504FC010590615070400110D8F78095D8
:1007A00090958E0F9F1F0895FC016150704001903D
:1007B0000110D8F7809590958E0F9F1F08950F9385
:1007C0001F93CF93DF93FB01238121FD03C08FEFA4
:1007D0009FEF2CC022FF16C04681578124813581AE
:1007E0004217530744F4A081B1819D012F5F3F4F11
:1007F000318320838C93268137812F5F3F4F37834E
:10080000268314C08B01EC01FB010084F185E02DEF
:100810000995892BE1F6D80116968D919C91179731
:10082000019617969C938E931697CE01DF91CF91E8
:100830001F910F910895FA01AA27283051F1203114
:1008400081F1E8946F936E7F6E5F7F4F8F4F9F4F64
:10085000AF4FB1E03ED0B4E03CD0670F781F891FA6
:100860009A1FA11D680F791F8A1F911DA11D6A0F74
:10087000711D811D911DA11D20D009F468943F9127
:100880002AE0269F11243019305D3193DEF6CF0126
:100890000895462F4770405D4193B3E00FD0C9F7EC
:1008A000F6CF462F4F70405D4A3318F0495D31FD59
:1008B0004052419302D0A9F7EACFB4E0A6959795AC
:1008C000879577956795BA95C9F700976105710582
:1008D00008959B01AC010A2E0694579547953795CC
:1008E0002795BA95C9F7620F731F841F951FA01D26
:1008F00008952F923F924F925F926F927F928F92C4
:100900009F92AF92BF92CF92DF92EF92FF920F939E
:100910001F93CF93DF93CDB7DEB7CA1BDB0B0FB6A8
:10092000F894DEBF0FBECDBF09942A883988488865
:100930005F846E847D848C849B84AA84B984C884FB
:10094000DF80EE80FD800C811B81AA81B981CE0FF2
:10095000D11D0FB6F894DEBF0FBECDBFED010895D7
:04096000F894FFCF39
:100964000000000200000000A30000000000446931
:100974007374616E6369613A20256C75206D6D0A2C
:02098400000071
:00000001FF
