:100000000C9497010C94B4010C94B4010C94B401B9
:100010000C94B4010C94B4010C94B4010C94E60457
:100020000C94B4010C94B4010C94B9010C942A0200
:100030000C94AD020C9419020C94B4010C94B4010C
:100040000C94B4010C94B4010C94FD030C9457046B
:100050000C94B4010C94B4010C94B4010C94B4014C
:100060000C94B4010C94B401800B820B820B820BB4
:10007000820B820B820B820B820B820B820B820B18
:10008000820B820B820B820B820B720B840B820B16
:10009000820B820B820B820B820B820B820B820BF8
:1000A000820B820B820B820B740B760B820B820B02
:1000B000820B820B820B820B820B820B820B820BD8
:1000C000820B820B820B820B820B820B820B820BC8
:1000D000820B820B820B820B820B820B820B820BB8
:1000E000820B820B820B820B820B820B820B820BA8
:1000F000820B820B820B820B820B820B820B820B98
:10010000820B820B820B820B7C0B780B7A0B7E0BA3
:100110005B0D560E560E560E560E560E560E560EBB
:10012000560E560E560E560E560E560E560E560EAF
:10013000560E6A0D6A0D560E560E560E560E560E79
:10014000560E560E560E560E560E560E560E560E8F
:100150009B0D820D560E560E560E560E560E560E10
:10016000560E560E560E560E560E560E560E560E6F
:10017000560E560E560E560E560E560E560E560E5F
:10018000560E560E560E560E560E560E560E560E4F
:10019000560E560E560E560E560E560E560E560E3F
:1001A000560E560E560E560E560E560E560E560E2F
:1001B000170E1E0E300E4F0E890E890E940E9B0EDA
:1001C000820E5E0F410F550F42746E206F7665727E
:1001D000666C6F7765640A0043616C696272616E78
:1001E000646F2073656E736F7265732049522E2E93
:1001F0002E0A00546F646F73206C6F732073656EEA
:10020000736F7265732049522063616C6962726119
:10021000646F732E0A00496E69636961646F0A0036
:1002200050726F636573617220696E666F0A005069
:1002300061796C6F61642067656E657269636F3A9E
:100240002025730A0045737461646973746963617E
:10025000733A2025730A00466F726D61746F2064D3
:100260006520746F6B656E20696E76616C69646F72
:100270003A2025730A00436F6E6669677572616381
:10028000696F6E2028726177293A2025730A004130
:100290004C4956452E0A00436B732076616C6964A5
:1002A0006F0A00436B7320696E76616C69646F0A34
:1002B000004C656E677468206D61796F72206120F3
:1002C00025752C20736520706572646572696120E4
:1002D000646174612064656C206275666665720A8B
:1002E00000436F6D616E646F20696E76616C696446
:1002F0006F0A00546F6B656E20696E76616C69647D
:100300006F0A00436B7320696E76616C69646F0AD3
:1003100000436B732076616C69646F0A00506179E9
:100320006C6F616420656E204865783A0A0011247C
:100330001FBECFEFD8E0DEBFCDBF17E0A0E0B1E039
:10034000E8EAFDE202C005900D92A634B107D9F7A4
:1003500028E0A6E4B7E001C01D92AD32B207E1F794
:100360000E94FA050C94D2160C9400000E94DA1335
:1003700008951F920F920FB60F9211242F933F935F
:100380008F939F93AF93BF93EF93FF938091CC078D
:10039000823019F0833019F13FC08091CB0784FF80
:1003A0003BC0209186003091870080914E0790E0FD
:1003B000A0E0B0E0DC0199278827820F931FA11DE0
:1003C000B11D8093BF079093C007A093C107B0935E
:1003D000C207EBECF7E080818F7E80831DC0209107
:1003E00086003091870080914E0790E0A0E0B0E059
:1003F000DC0199278827820F931FA11DB11D8093CF
:10040000C3079093C407A093C507B093C607EBEC4E
:10041000F7E0808180648083FF91EF91BF91AF917D
:100420009F918F913F912F910F900FBE0F901F9032
:1004300018951F920F920FB60F9211248F938091EF
:100440004E078F5F80934E078F910F900FBE0F90D6
:100450001F9018951F920F920FB60F921124EF92D2
:10046000FF920F931F932F933F934F935F936F933D
:100470007F938F939F93AF93BF93CF93EF93FF930C
:10048000E8E8F0E080819181805C934691838083ED
:1004900080917707806180937707C0E045C0EC2E9C
:1004A000F12CF701EE0FFF1FEB54F84F0081118183
:1004B000F801818180FF37C0818181FF08C081817F
:1004C00082FD05C080EA9FE09383828307C0F80124
:1004D00084810E941C10F80193838283C11123C080
:1004E000F701EE0FFF1FEB54F84FA081B1812C9163
:1004F00081E090E002C0880F991F2A95E2F795B13C
:10050000892B85B920918400309185000190F0817C
:10051000E02D82819381820F931F90938B008093B3
:100520008A0010924907CF5FC33008F4B8CFFF911B
:10053000EF91CF91BF91AF919F918F917F916F91EB
:100540005F914F913F912F911F910F91FF90EF90ED
:100550000F900FBE0F901F9018951F920F920FB61D
:100560000F9211242F933F934F935F936F937F9339
:100570008F939F93AF93BF93CF93DF93EF93FF93AB
:10058000E0914907F0E0EE0FFF1FEB54F84F0190A8
:10059000F081E02D208181E090E002C0880F991F5A
:1005A0002A95E2F78095909595B1892385B9E091D8
:1005B0004907F0E0EE0FFF1FEB54F84F0190F08178
:1005C000E02D818181FF6BC0E0914907F0E0EE0FE3
:1005D000FF1FEB54F84F0190F081E02D818182FFE5
:1005E0005EC0E0914907F0E0EE0FFF1FEB54F84FBB
:1005F0000190F081E02D81818B7F8183E09149071B
:10060000F0E0EE0FFF1FEB54F84F0190F081E02D6A
:1006100081818D7F8183E0914907F0E0EE0FFF1F1C
:10062000EB54F84F0190F081E02D8AE58483E0914E
:100630004907F0E0EE0FFF1FEB54F84FC081D18166
:10064000E0914907F0E0EE0FFF1FEB54F84F0190E7
:10065000F081E02D84810E941C109B838A8380910D
:100660004907811107C0E4E6F7E0828188608E7F48
:10067000828315C080914907813039F4E3E2F8E0C4
:10068000828188608E7F82830AC080914907823090
:1006900031F4EBEBF7E0828188608E7F828380917A
:1006A00049078F5F8093490780914907833008F09D
:1006B00091C0E0914907F0E0EE0FFF1FEB54F84FB7
:1006C0000190F081E02D818180FF2CC0E0914907ED
:1006D000F0E0EE0FFF1FEB54F84F0190F081E02D9A
:1006E000208181E090E002C0880F991F2A95E2F7EF
:1006F00095B1892B85B92091840030918500E091D6
:100700004907F0E0EE0FFF1FEB54F84F0190F08126
:10071000E02D82819381820F931F90938B008093B1
:100720008A0058C0E0914907F0E0EE0FFF1FEB543C
:10073000F84F0190F081E02D208181E090E002C02F
:10074000880F991F2A95E2F78095909595B1892396
:1007500085B9809149078F5F809349078091490748
:100760008330C0F5E0914907F0E0EE0FFF1FEB5436
:10077000F84F0190F081E02D818180FF2BC0E09146
:100780004907F0E0EE0FFF1FEB54F84F0190F081A6
:10079000E02D208181E090E002C0880F991F2A950A
:1007A000E2F795B1892B85B92091840030918500BD
:1007B000E0914907F0E0EE0FFF1FEB54F84F019076
:1007C000F081E02D82819381820F931F90938B00A3
:1007D00080938A00FF91EF91DF91CF91BF91AF910C
:1007E0009F918F917F916F915F914F913F912F9149
:1007F0000F900FBE0F901F9018951F920F920FB67B
:100800000F9211242F933F938F939F93AF93BF9396
:10081000EF93FF933091C6008091D60790E0019648
:100820008F739078992324F40197806C9F6F0196C1
:100830002091D70728130AC08091180881FD2AC08B
:10084000E8E1F8E080818260808324C0A6EDB7E013
:10085000EC91F0E0EA52F84F32838C939C91119620
:100860008C911197981728F0FD0180819181891B47
:1008700006C0E6EDF7E080819181891B805C8630BF
:1008800048F08091180881FD05C0E8E1F8E080811A
:1008900082608083FF91EF91BF91AF919F918F9183
:1008A0003F912F910F900FBE0F901F9018951F92A0
:1008B0000F920FB60F9211248F939F93AF93BF9314
:1008C000EF93FF93E6EDF7E0918180819817B9F0FF
:1008D000DF01E181F0E0EA52F84F82818093C600A7
:1008E00011968C9190E001968F739078992324F45F
:1008F0000197806C9F6F01968093D7070DC0E1EC44
:10090000F0E080818F7D808380919907877F80933D
:100910009907808180688083FF91EF91BF91AF91AB
:100920009F918F910F900FBE0F901F901895A4E884
:10093000B0E011961C921E9286B3806286BBEFE6F1
:10094000F0E0808187628083E1E8F0E0808180646C
:1009500080838081826080838D919C91805C9346AE
:1009600090938900809388000895E1EBF0E0808106
:10097000876080838BE98093B300E0E7F0E08081BB
:10098000826080831092B200089584B1806284B93D
:1009900085B1806285B98AB188608AB984B18E7F59
:1009A00084B98AB18F7E8AB984B1826084B984B1F6
:1009B000846084B984B1886084B90E9453108BB17B
:1009C000877F8BB98BB18F7E8BB908951F920F9261
:1009D0000FB60F9211242F933F934F935F936F9312
:1009E0007F938F939F93AF93BF93EF93FF938091E8
:1009F000770781FFEEC08091CC07813051F580915F
:100A00009A0785FD0DC00E947011EBECF7E0808124
:100A10008160808380919A07806280939A0719C0D1
:100A20000E947411EBECF7E08081826080838091FA
:100A30009A078D7D886080939A0780818F7D80835F
:100A400082E08093CC0780818061808380818D7F6C
:100A500080838091CC078230D1F48091CB0784FFD2
:100A600016C080919A078970883089F480914A076E
:100A7000811106C080914A078F5F80934A0707C0A3
:100A800080919A07816080939A0710924A0780911B
:100A9000CB0785FD22C080919A0784FD1EC08091FE
:100AA0004D07873030F480914D078F5F80934D075D
:100AB00007C080919A07806180939A0710924D0732
:100AC0008091CB0783FF09C060919A0766FB662778
:100AD00060F98FEB97E00E94501280914B078A30AB
:100AE00030F480914B078F5F80934B0707C0809154
:100AF000770788608093770710924B07809177077C
:100B000086FF0EC080914C078F3F29F480917707B4
:100B100084608093770780914C078F5F80934C07A8
:100B200080915F0781FF0DC0909163079A3020F498
:100B30009F5F9093630705C0EEE5F7E01582846040
:100B400081838091D10781FF0DC09091D5079A30A4
:100B500020F49F5F9093D50705C0E0EDF7E0158284
:100B60008460818380919C0781FF0DC09091A007D4
:100B70009A3020F49F5F9093A00705C0EBE9F7E05F
:100B80001582846081838091A10780FF05C083FD69
:100B900003C088608093A10780914F0780FF05C044
:100BA00083FD03C0886080934F078091780780FFA2
:100BB00007C083FD05C0E8E6F7E080818860808398
:100BC0008091680780FF05C083FD03C08860809323
:100BD0006807FF91EF91BF91AF919F918F917F91A6
:100BE0006F915F914F913F912F910F900FBE0F909A
:100BF0001F90189580E880939A0782E88093770782
:100C00001092990788E090E00E948411E7E2F8E0F2
:100C10008EE091E09383828380E091E091838083F2
:100C200086ED97E00E94AC0B10924B070E94C50422
:100C30000E9497040E94B5040E94791066EB71E04F
:100C40008FEB97E00E94311260919A0766FB66274E
:100C500060F98FEB97E00E94BA1148E657E06FEB1E
:100C600077E080EB97E00E94620787E897E00E94B8
:100C7000F10780919A07826080939A0786E192E05B
:100C80009F938F930E94B41378940F900F9080914C
:100C9000770785FF05C087E897E00E94ED097DC0D2
:100CA00080914807811127C088ED91E09F938F9331
:100CB0000E94B4138091A1070F900F9080FF03C092
:100CC00084608093A10780914F0780FF03C08460F8
:100CD00080934F078091780780FF03C084608093E2
:100CE00078078091680780FF03C08460809368075D
:100CF00081E0809348078091A10782FF04C081EAC8
:100D000097E00E94B21080914F0782FF04C08FE4E9
:100D100097E00E94B2108091780782FF04C088E7B4
:100D200097E00E94B2108091680782FF04C088E6B5
:100D300097E00E94B2108091A10782FD0EC08091C1
:100D40004F0782FD0CC08091780782FD0AC0809118
:100D5000680782FF08C080E007C080E005C080E02F
:100D600003C080E001C081E08823B9F083EF91E007
:100D70009F938F930E94B413809177078062809332
:100D800077071092AA0710925807109281071092C5
:100D900071070E947C070F900F9067E877E080EB67
:100DA00097E00E94A1080E94C80A4C9B0AC080914B
:100DB000770786FD06C010924C0780648093770702
:100DC0002CC08091770786FF28C04C9926C08F7B66
:100DD0008093770782FF08C088EC91E09F938F9300
:100DE0000E94B4130F900F9080914C078A3030F41A
:100DF00080917707982F947082FF06C080917707C3
:100E000081608093770709C010924C07992329F0DD
:100E1000809177078B7F809377070E94600F809186
:100E20009A0784FF08C08F7E80939A07EBECF7E067
:100E30008081806280838091770783FF08C0877FED
:100E40008093770780919A07826080939A078091B8
:100E5000770780FF03C08E7F8093770780917707A5
:100E600084FF15CF8F7E809377078091A10780FF45
:100E700007C082FF05C083FD03C088608093A1077F
:100E800080914F0780FF07C082FF05C083FD03C02C
:100E9000886080934F078091780780FF07C082FFAA
:100EA00005C083FD03C08860809378078091680740
:100EB00080FFEDCE82FFEBCE83FDE9CE886080938C
:100EC0006807E5CECF93DF9300D0CDB7DEB7FC0146
:100ED0005A8349838FEB97E091838083CE010196FB
:100EE00093838283148282E291E00E94DA130F904E
:100EF0000F90DF91CF910895CF93DF932AE530E0F3
:100F000041E050E060E070E08EE597E00E942F1035
:100F10002AE530E042E050E061E070E080ED97E0EB
:100F20000E942F10E5EBF7E08EE597E09183808338
:100F300080ED97E0938382838BE997E095838483A8
:100F4000109249078091990780FF05C083E491E0E2
:100F50000E94DA1307C089E591E00E94DA1381E06C
:100F6000809367078091990781FF05C08DE691E026
:100F70000E94DA1307C083E891E00E94DA1382E04E
:100F8000809326088091990782FF05C087E991E048
:100F90000E94DA1307C08DEA91E00E94DA1383E021
:100FA0008093BE07C4E6D7E081E089838091A907DA
:100FB0008883A3E2B8E082E011968C931197809128
:100FC00057078C93EBEBF7E083E0818380918007F8
:100FD000808388E08A8312968C938283DF91CF91FD
:100FE0000895FC018CE191E09183808384E697E091
:100FF0009383828383E298E0958384838BEB97E0ED
:101000009783868380919A07882344F481EC91E04A
:101010000E94DA1383EF91E00E94DA1308958E3B69
:1010200098F090919A0799230CF083C01F928F93A8
:1010300088E192E09F938F930E949E130F900F90F0
:101040000F900F9084E008959EEB981B973398F4CF
:1010500080919A07807809F473C01F929F9388E467
:1010600092E09F938F930E949E130F900F900F908A
:101070000F9080E00895DB01ED91FC91808198173D
:10108000B0F08181891798F080919A0788230CF03D
:1010900052C01F929F9381E792E09F938F930E948B
:1010A0009E130F900F900F900F9081E00895828112
:1010B0009817A8F08381891790F080919A07882368
:1010C000E4F51F929F9386E892E09F938F930E948E
:1010D0009E130F900F900F900F9082E008958481DF
:1010E0009817A8F08581891790F080919A07882336
:1010F00034F51F929F938BE992E09F938F930E9408
:101100009E130F900F900F900F9083E008958091A1
:101110009A078078A9F01F929F9380EB92E09F93AB
:101120008F930E949E130F900F900F900F9080E06E
:10113000089584E0089581E0089582E0089583E0B1
:101140000895FF920F931F93CF93DF93EC018B01D0
:10115000809177078823BCF5E881F981848585FF34
:1011600032C080919A0781FF2EC08C8181FF2BC0F5
:10117000CF010E946D128823C1F080919A0786FFEB
:1011800004C08EED92E00E94DA13809177078F778A
:101190008093770780919A078D7F80939A07E881E3
:1011A000F98184858F7D84870EC080919A0786FFA0
:1011B00004C089ED92E00E94DA1380919A0784605E
:1011C0008D7F80939A07888199810E949B12E88184
:1011D000F9818585853009F0C9C0848588230CF0A4
:1011E000C5C084858F778487E881F9818085918562
:1011F000A285B3858F3B9105A105B105B0F08C8127
:1012000081608C83982F92959F70923051F48F70EB
:101210008C8380919A07882324F489EE92E00E94BF
:10122000DA138C818F708C8395C08C81982F929566
:101230009F7009F08FC08F7080618C83808591854D
:10124000A285B385B8010E940F08F82E84E0F81635
:1012500009F47CC080916707F8120AC0E4E6F7E061
:1012600082818160828382E093E00E94DA1320C051
:1012700080912608F8120AC0E3E2F8E082818160DA
:10128000828380E193E00E94DA1312C08091BE074E
:10129000F8120AC0EBEBF7E08281816082838EE175
:1012A00093E00E94DA1304C08CE293E00E94DA1308
:1012B000E1E0FE1649F0FE1640F1F2E0FF1679F08B
:1012C00083E0F816B9F02CC08AE393E00E94DA13A9
:1012D000F8018285938501969387828725C085E4EE
:1012E00093E00E94DA13F80184859585019695872D
:1012F00084871AC080E593E00E94DA13F80186859E
:1013000097850196978786870FC08CE293E00E94AD
:10131000DA13F801808991890196918B808B04C042
:101320008BE593E00E94DA13F801808591850196A0
:10133000918780879F938F938EE693E09F938F93FF
:101340000E949E130F900F900F900F908C818F70C2
:1013500080628C83888199810E940C12E881F981D6
:1013600015868091770780688093770780919A0728
:1013700080FF2DC086FF04C08CE793E00E94DA1343
:1013800080919A078E7F877F80939A07E881F98101
:10139000848588608487E881F98186E0858760910B
:1013A0009A0766FB662760F9888199810E9450122E
:1013B000882341F080919A0786FF04C08FE893E06C
:1013C0000E94DA1380917707806880937707DF9116
:1013D000CF911F910F91FF9008958091A10780FFF9
:1013E00009C083FF07C0877F8093A10781EA97E048
:1013F0000E94F11081EA97E00E942211892B11F1DD
:101400008091A10782958F708230E1F48091660708
:1014100083FF0FC080FF0DC0877F80936607EEE5D6
:10142000F7E0818182608183158281EB93E00E94E5
:10143000DA13E1EAF7E080818F70808386ED93E034
:101440000E94DA1380914F0780FF09C083FF07C015
:10145000877F80934F078FE497E00E94F1108FE41D
:1014600097E00E942211892B11F180914F078295FC
:101470008F708230E1F48091250883FF0FC080FFD8
:101480000DC0877F80932508E0EDF7E081818260C1
:101490008183158286EE93E00E94DA13EFE4F7E091
:1014A00080818F7080838BE094E00E94DA138091BA
:1014B000780780FF09C083FF07C0877F8093780784
:1014C00088E797E00E94F11088E797E00E942211D8
:1014D000892B11F18091780782958F708230E1F429
:1014E0008091BD0783FF0FC080FF0DC0877F809371
:1014F000BD07EBE9F7E081818260818315828BE192
:1015000094E00E94DA13E8E7F7E080818F7080832F
:1015100080E494E00E94DA138091680780FF09C09C
:1015200083FF07C0877F8093680788E697E00E9463
:10153000F11088E697E00E942211892BE1F090914A
:101540006807892F82958F70813041F42091B4070C
:1015500021FD04C022602093B40708958230B9F4BD
:101560008091B40781FF13C08D7F8093B4079F7073
:101570009093680708958091B40781FF08C08D7F1C
:101580008093B407E8E6F7E080818F708083089548
:101590000895CF93DF93E6EDF7E09081818198176E
:1015A00018F08081818104C0E6EDF7E080818181BF
:1015B000E091D707F0E0EA52F84F8281853509F0D3
:1015C0005AC0E6EDF7E0A181818190E001968F732A
:1015D0009078992324F40197806C9F6F0196EC0119
:1015E0008091D70790E002968F739078992324F426
:1015F0000197806C9F6F0196FC016091D70770E0A6
:101600006D5F7F4F6F737078772334F46150710989
:10161000606C7F6F6F5F7F4FB0E0AA52B84F129639
:101620004C9150E0DA01AA0FBB1FAA0FBB1FDD27A8
:10163000CA52D84F9A81292F30E0A901440F551F73
:10164000240F351FAD01420F531FFF27EA52F84FF9
:10165000228130E0220F331FCA01820F931FFB014A
:10166000FF27EA52F84F9281890F8A3131F4609353
:10167000D70781E003C080E001C080E0DF91CF9117
:101680000895E6EDF7E090818181981720F0808140
:101690009181891B06C0E6EDF7E080819181891B6D
:1016A000805C863078F41F9286E08F9380E594E02A
:1016B0009F938F930E949E130F900F900F900F9007
:1016C00080E008950E94C90A0895CF93482F50E002
:1016D000FA01E05AF109E435F105A0F4EC5CFF4FA2
:1016E0000C942113C1E011C0C3E00FC0C4E00DC0D1
:1016F000C6E00BC0C5E009C0C7E007C0C8E005C030
:10170000C0EA03C0C0EE01C0C2E01F92CF931F9297
:101710008F938DE694E09F938F930E949E130F907A
:101720000F900F900F900F900F908C2FCF910895E6
:101730001092220810921F0810921D0810921E0885
:10174000E0912008F091210810821092190885E993
:1017500094E00E94DA130895FC0112821182108233
:10176000EE5BFF4F10820E94980B8AEA94E00E9481
:10177000DA1308950F931F93CF93DF9300911D0801
:1017800086E3082780911F0808278DE193E09F9347
:101790008F930E94B4130F900F90C0E0D0E01DC053
:1017A000E0912008F0912108EC0FFD1F10811F929D
:1017B0001F931F921F93DF93CF9380EC94E09F932E
:1017C0008F930E949E13012721968DB79EB708968E
:1017D0000FB6F8949EBF0FBE8DBF80911D0890E09C
:1017E000C817D907ECF21F920F938FED94E09F93E7
:1017F0008F930E949E13C2E2D8E088811F928F933C
:1018000083EF94E09F938F930E949E1388812DB75E
:101810003EB7285F3F4F0FB6F8943EBF0FBE2DBFB7
:10182000081309C081E193E09F938F930E94B41342
:101830000F900F9008C083E093E09F938F930E94D6
:10184000B4130F900F90802FDF91CF911F910F91C4
:10185000089595E5909319089EE490931A0895E4ED
:1018600090931B0892E590931C0840931D089AE3FF
:1018700090931E0880931F086115710521F07093E5
:101880002108609320084091190880911A08482780
:1018900080911B08482780911C08482780911D08CB
:1018A000482780911E08482780911F08482720E07C
:1018B00030E00AC0E0912008F0912108E20FF31F08
:1018C000808148272F5F3F4F80911D0890E02817A7
:1018D000390784F34093220880911F081F928F9349
:1018E0008CE095E09F938F930E949E130F900F9032
:1018F0000F900F900895EF92FF920F931F93CF9345
:10190000DF93CDB7DEB769970FB6F894DEBF0FBE91
:10191000CDBFE6EDF7E028E138E0D9018C918F707A
:1019200080628C9381818F5F8183A181B0E0AA5214
:10193000B84F12968C9180931D08D9018C918F70AD
:1019400080638C9381818F5F8183E181F0E0EA5233
:10195000F84F82818A3351F083EF92E09F938F9307
:101960000E94B4130F900F9080E0B1C1E6EDF7E054
:10197000A8E1B8E08C918F7080648C9381818F5F37
:101980008183E181F0E0EA52F84F8281EFE1F8E0F3
:1019900080838081803E51F481EE92E09F938F930B
:1019A0000E94B4130F900F9080E091C10DE118E0F8
:1019B000F80180811F928F938AE295E09F938F9325
:1019C0000E949E13D8018C910F900F900F900F9052
:1019D000893178F01F9288E18F9381EB92E09F9399
:1019E0008F930E94B4130F900F900F900F9080E090
:1019F0006EC1A6EDB7E0E8E1F8E080818F70806508
:101A0000808311968C9111978F5F11968C9311970B
:101A100011968C91119790E08852984F90932108DD
:101A20008093200890911D0811968C911197890F31
:101A300011968C93119780818F70806680831196A8
:101A4000AC91B0E0AA52B84F12968C9102E218E025
:101A5000D8018C9380818F70806780830E94BA0B3D
:101A6000F8019081891751F083EA92E09F938F9358
:101A70000E94B4130F900F9080E029C187E992E093
:101A80009F938F930E94B413E8E1F8E080818F70F8
:101A900080688083E0911F080F900F908E2F90E058
:101AA000FC01E05AF109E435F10508F0FFC0E85700
:101AB000FF4F0C9421138FE892E09F938F930E9425
:101AC000B413809199078061809399070F900F90CC
:101AD00081E0FDC0E0912008F091210880811F92F3
:101AE0008F9385E395E09F938F930E949E1380913F
:101AF00099078061809399070F900F900F900F9036
:101B000081E0E5C08091990780618093990781E029
:101B1000DEC0282F30E0E0912008F0912108E20F8C
:101B2000F31F9081E1E0F0E0EC0FFD1FE20FF31FE7
:101B300090838F5F01C080E090911D08891710F499
:101B4000883138F38E010F5F1F4FF801E80FF11D48
:101B500010821F930F9386E792E09F938F930E94CA
:101B6000B41361E475E0C8010E945F138C010F900B
:101B70000F900F900F9055C06AE370E0C8010E946B
:101B800064137C010097D1F1DC011C92C8010E9412
:101B90004113F7012181223451F0233421F0213403
:101BA00021F421E005C023E003C020E001C022E0D1
:101BB0008130910541F08230910541F0009741F468
:101BC0002093670705C02093260802C02093BE0714
:101BD0001F922F939F938F9383E495E09F938F930E
:101BE0000E949E13809199078061809399070F90BE
:101BF0000F900F900F900F900F900CC01F930F93AA
:101C000087E592E09F938F930E94B4130F900F90FB
:101C10000F900F9061E475E080E090E00E945F1308
:101C20008C010115110509F0A7CF81E050C080910A
:101C3000990780618093990781E049C080912008CD
:101C4000909121089F938F9385E492E09F938F93C7
:101C50000E94B4130F900F900F900F9081E037C047
:101C6000E0912008F091210880811F928F938DE5EB
:101C700095E09F938F930E949E13E7E8F7E0138609
:101C800012861586148617861686118A108A118682
:101C900010860F900F900F900F9081E018C08091E8
:101CA000990780618093990781E011C08091200895
:101CB000909121089F938F938FE292E09F938F934F
:101CC0000E94B4130F900F900F900F9081E06996CF
:101CD0000FB6F894DEBF0FBECDBFDF91CF911F913D
:101CE0000F91FF90EF9008959091D607482F50E004
:101CF000FA013197E830F10508F0E0C0E452FF4FF7
:101D00000C942113E92FF0E0EA52F84F81E082832E
:101D10000895E92FF0E091E0813009F090E0EA5277
:101D2000F84F928381E00895E92FF0E0EA52F84FEE
:101D300081E082830895892F90E0FC01EA52F84FF8
:101D400021E422839C012F5F3F4F2F733078332390
:101D500034F421503109206C3F6F2F5F3F4FF90160
:101D6000EA52F84F4AE342839C012E5F3F4F2F73A4
:101D70003078332334F421503109206C3F6F2F5FCA
:101D80003F4F40916707405DF901EA52F84F4283A7
:101D90009C012D5F3F4F2F733078332334F4215053
:101DA0003109206C3F6F2F5F3F4FF901EA52F84F26
:101DB00042E442839C012C5F3F4F2F7330783323E2
:101DC00034F421503109206C3F6F2F5F3F4FF901F0
:101DD000EA52F84F4AE342839C012B5F3F4F2F7337
:101DE0003078332334F421503109206C3F6F2F5F5A
:101DF0003F4F40912608405DF901EA52F84F428377
:101E00009C012A5F3F4F2F733078332334F42150E5
:101E10003109206C3F6F2F5F3F4FF901EA52F84FB5
:101E200043E442839C01295F3F4F2F733078332373
:101E300034F421503109206C3F6F2F5F3F4FF9017F
:101E4000EA52F84F4AE3428308968F7390789923B9
:101E500024F40197806C9F6F01962091BE07205D4E
:101E6000FC01EA52F84F228389E00895E82FF0E060
:101E7000E90FF11DEF73FF27EA52F84F22838F5FBE
:101E800001C080E0E82FF0E0EB58FA4F20812111EB
:101E9000EDCF0895E82FF0E0E90FF11DEF73FF2774
:101EA000EA52F84F22838F5F01C080E0E82FF0E014
:101EB000E558FA4F20812111EDCF089580E0089573
:101EC000EF92FF920F931F93CF93DF9380911808A7
:101ED00081FF1FC08091180880FD1BC080E292E046
:101EE0009F938F930E94B4130E94410B0F900F9009
:101EF000882351F0E8E1F8E080818F708061808371
:101F000080818160808305C0E8E1F8E080818460A1
:101F100080838091180882FF14C0E6EDF7E080818D
:101F20008183E8E1F8E080818E7F808380818B7FF0
:101F3000808380818D7F808380818F7080830E94E9
:101F4000980B8091180880FF16C00E947B0C882394
:101F500051F0E8E1F8E080818F70806980838081B2
:101F60008E7F808308C0E8E1F8E080818E7F8083E7
:101F70008081846080838091990784FF2EC08F7E4A
:101F8000809399070F2EF6EDEF2EF7E0FF2EF02D40
:101F90000FE118E0F80180810E94650BF801808351
:101FA000C8E1D8E088818860888380810E94740EAF
:101FB000482FF7019081980F9F739083608170E0A4
:101FC0006852784FF80180810E94290C8881877FB0
:101FD000888388818F70806A8883809118088295B1
:101FE0008F708A30B9F48091990783FD0DC0E1ECC0
:101FF000F0E080818F77808380919907886080935B
:102000009907808180628083E8E1F8E080818F70A9
:10201000806B80838091180882958F708B3029F4B3
:10202000E8E1F8E080818F708083DF91CF911F918C
:102030000F91FF90EF900895853B08F084EB282FD7
:1020400030E0A0EDB7E00E94271324EB30E040E041
:1020500050E00E94FF12C9018053984F08950F93DA
:102060001F93CF93DF93EC01042F122F1F926F93D6
:102070008DE995E09F938F930E949E131982812F83
:102080000E941C109B838A8308831C831D82898184
:10209000816089830F900F900F900F90DF91CF9107
:1020A0001F910F91089587B1807F87B988B1807F94
:1020B00088B980E480937C0086E880937A00089554
:1020C0008430A0F4ECE7F0E09081907F892B80834E
:1020D000EAE7F0E080818064808380917A0086FD69
:1020E000FCCF8091780090917900089580E090E095
:1020F0000895CF93DF93E1EAF7E01782108612820A
:10210000118216821582D4E1D687C1E0C0838CEAA1
:1021100095E00E94DA13EFE4F7E01082C783C087EE
:102120001282118216821582D687E8E7F7E01082C4
:1021300082E0878380871282118216821582D68779
:10214000E8E6F7E083E087838087128211821682B7
:102150001582D687C0838BEB95E00E94DA13DF915E
:10216000CF910895CF93DF93EC01888183FF36C030
:10217000877F88838985811102C01E821D828F819D
:102180000E9460102D813E81280F391F3E832D83D0
:1021900099859F5F99879A3008F1ADECBCEC0E945D
:1021A00027139695879596958795969587959C8301
:1021B0008B83198628812B7F28832F819F938F9370
:1021C0001F922F938AEC95E09F938F930E949E130A
:1021D0000F900F900F900F900F900F90DF91CF9175
:1021E00008950F931F93CF93DF93EC018F810E948B
:1021F00060109E838D834A855B856C857D858A0111
:102200009B01080F191F211D311DC901B8010A8743
:102210001B872C873D8729852F5F29872A3068F007
:102220002AE030E040E050E00E94FF123A83298328
:102230001A861B861C861D861986DF91CF911F91F9
:102240000F910895CF92DF92EF92FF92CF93DF9399
:10225000EC01AB81BC818E850F2EF4E6CF2ED12C04
:10226000E12CF12CF02DA7019601281B3109410921
:1022700051090E943613A70196010E94FF1289811D
:102280009A816C01E12CF12C81E0C216D306E406A0
:10229000F50608F080E0C216D306E406F50650F411
:1022A0009881E92FE295EF7029F49A609F70906110
:1022B00098830FC0C216D306E406F50650F0988145
:1022C000292F22952F70213021F498609D70906203
:1022D0009883DF91CF91FF90EF90DF90CF9008959A
:1022E0008BB188608BB908958BB1877F8BB90895C6
:1022F000E1E8F0E08081806480830895E1E8F0E027
:1023000080818F7B808308959093C5008093C40063
:1023100088E98093C10086E08093C200089590917F
:10232000C00095FFFCCF8093C60080E090E0089548
:10233000E6EDF7E0918180819817C9F0DF01E18136
:10234000F0E0EA52F84F828111962C9130E02F5F35
:102350003F4F2F733078332334F421503109206CF0
:102360003F6F2F5F3F4F2093D70790E008958FEF87
:102370009FEF0895FC01668708950F931F93CF93F5
:10238000DF93EC018C819D81AE81BF8148815981B1
:102390006A817B818C019D01041B150B260B370B79
:1023A000B901A801D901C801880F991FAA1FBB1F35
:1023B000880F991FAA1FBB1F880F991FAA1FBB1F39
:1023C000880F991FAA1FBB1F8C019D01040F151FA9
:1023D000261F371FC901B801660F771F881F991F75
:1023E00020E931E040E050E00E94FF122887398761
:1023F0004A875B878C8580688C87DF91CF911F919E
:102400000F910895DC011F96ED91FC915097309744
:1024100011F0CB0109950895CF93DF93EC01188259
:1024200019821A821B821C821D821E821F821886BC
:1024300019861A861B861C868C8580628C871D8671
:102440000E9478118F859889892B41F08E85882389
:1024500029F066EF75E0CE010E940212DF91CF9164
:1024600008950F931F93CF93DF93EC018B010E948C
:102470000C1281E08E870115110519F4188A1F8648
:102480000AC0188B0F878E85882329F065E176E0D6
:10249000CE010E940212DF91CF911F910F910895FA
:1024A0001F93CF93DF93FC012585263071F4162FFF
:1024B000EC010E940C121E871E85112341F06FE86B
:1024C00073E0CE010E94021203C010E001C011E0CF
:1024D000812FDF91CF911F910895CF93FC018585C6
:1024E000882319F085858530C1F4848585FF0BC06C
:1024F00081E08587C685CC23D1F061E376E0CF010A
:102500000E94021215C0C685CC2391F060E676E0E9
:10251000CF010E940212C0E00BC0C685CC2341F05F
:1025200067E976E0CF010E940212C0E001C0C1E07D
:102530008C2FCF910895CF93DF93EC018D8583305D
:1025400071F128F4813049F08230A1F055C0843017
:10255000E1F1863009F44DC04FC08C8581FF4CC03D
:102560008E85882309F448C064EC76E0CE010E9491
:10257000021242C08C8584FD0CC083E08D870E94CE
:102580007E118E85882329F063EE76E0CE010E94CD
:1025900002128C8583FF30C086E08D872DC08C852C
:1025A00086FF0DC084E08D878E85882329F060E04A
:1025B00077E0CE010E9402128C8584608C878C8526
:1025C00083FF1AC086E08D8717C08C8582FF14C0F8
:1025D000CE010E94BD118C858B7F8C878E858823D0
:1025E00029F067E177E0CE010E94021285E08D8735
:1025F00003C08C8588608C87DF91CF910895A1E21C
:102600001A2EAA1BBB1BFD010DC0AA1FBB1FEE1F6C
:10261000FF1FA217B307E407F50720F0A21BB30BB7
:10262000E40BF50B661F771F881F991F1A9469F733
:1026300060957095809590959B01AC01BD01CF018F
:102640000895EE0FFF1F0590F491E02D0994A29FCD
:10265000B001B39FC001A39F700D811D1124911D76
:10266000B29F700D811D1124911D08950E942713A2
:10267000A59F900DB49F900DA49F800D911D1124D6
:102680000895FC0188279927E89421912032E9F3E5
:10269000293010F02E30C8F32B3241F02D3239F4AE
:1026A000689404C00E949613820F911D21912053BB
:1026B0002A30C0F31EF4909581959F4F089546E40B
:1026C00057E00E946F130895FC018191861721F055
:1026D0008823D9F7992708953197CF010895FA01F2
:1026E000A191B081009719F41097E1F0CD01DC01C0
:1026F000CD010D90002011F4C00113C0FB01219108
:10270000222319F02015D9F7F3CFFB0121912015D1
:1027100019F41E92119606C02223C1F70D900020D5
:10272000A1F7D001FA01A193B08308957AE0979FB1
:10273000902D879F802D910D11240895A0E0B0E089
:10274000E4EAF3E10C94AB16AE014B5F5F4FFA0184
:1027500061917191AF018091290890912A080E949E
:102760000A14E2E00C94C716A0E0B0E0EAEBF3E153
:102770000C94A916AE01495F5F4FDA016D917D910E
:10278000AD0107E218E0F80182819381DC01139624
:102790002C911397286013962C930E940A14D80149
:1027A0001296ED91FC9113972381277F2383E4E018
:1027B0000C94C5160F931F93CF93DF93E0912908D4
:1027C000F0912A08238121FF1BC08C01D0E0C0E0DA
:1027D000F80181918F016091290870912A08DB012D
:1027E0001896ED91FC911997882331F00995892B62
:1027F00079F3DFEFCFEFECCF8AE00995892B19F061
:102800008FEF9FEF02C08D2F9C2FDF91CF911F91F3
:102810000F910895ABE0B0E0E0E1F4E10C949B1679
:102820006C017B018A01FC0117821682838181FF82
:10283000CCC1CE0101963C01F6019381F70193FDD5
:10284000859193FF81917F01882309F4BAC1853274
:1028500039F493FD859193FF81917F01853229F4AD
:10286000B60190E00E940116E7CF912C212C312C6B
:10287000FFE1F315D8F08B3279F038F4803279F03B
:102880008332A1F4232D20611DC08D3261F080338D
:1028900069F4232D216016C0832D8260382EE32D2C
:1028A000E4603E2E2AC0F32DF8601DC037FC2DC019
:1028B00020ED280F2A3040F08E32B9F436FC81C169
:1028C000232D2064322E19C036FE06C08AE0989E61
:1028D000200D1124922E11C0EAE02E9E200D11240D
:1028E000222EF32DF0623F2E08C08C3621F4832D6A
:1028F0008068382E02C0883641F4F70193FD859137
:1029000093FF81917F018111B3CF982F9F7D9554C3
:10291000933028F40C5F1F4F9FE399830DC08336DB
:1029200031F0833771F0833509F059C021C0F801C7
:10293000808189830E5F1F4F88248394912C5301DB
:1029400013C02801F2E04F0E511CF801A080B180A5
:1029500036FE03C0692D70E002C06FEF7FEFC50146
:102960000E94F6154C018201F32DFF773F2E16C011
:10297000280122E0420E511CF801A080B18036FEF1
:1029800003C0692D70E002C06FEF7FEFC5010E94A8
:10299000EB154C01F32DF0683F2E820133FC1BC078
:1029A000822D90E088169906B0F4B60180E290E09E
:1029B0000E9401162A94F4CFF50137FC859137FE69
:1029C00081915F01B60190E00E94011621102A94C6
:1029D00021E0821A91088114910471F7E8C08436CD
:1029E00011F0893641F5F80137FE07C06081718129
:1029F000828193810C5F1F4F08C060817181072E17
:102A0000000C880B990B0E5F1F4FF32DFF763F2EA6
:102A100097FF09C090958095709561957F4F8F4F76
:102A20009F4FF0683F2E2AE030E0A3010E943D1640
:102A3000882E861845C0853731F4232D2F7EB22E7F
:102A40002AE030E025C0932D997FB92E8F36C1F052
:102A500018F4883579F0B5C0803719F0883721F03F
:102A6000B0C0E92FE061BE2EB4FE0DC0FB2DF460B6
:102A7000BF2E09C034FE0AC0292F2660B22E06C020
:102A800028E030E005C020E130E002C020E132E083
:102A9000F801B7FE07C060817181828193810C5F6C
:102AA0001F4F06C06081718180E090E00E5F1F4F74
:102AB000A3010E943D16882E8618FB2DFF773F2E1E
:102AC00036FE0DC0232D2E7FA22E891458F434FE1D
:102AD0000BC032FC09C0832D8E7EA82E05C0B82CF9
:102AE000A32C03C0B82C01C0B92CA4FE0FC0FE015A
:102AF000E80DF11D8081803321F49A2D997EA92E55
:102B000009C0A2FE06C0B394B39404C08A2D86788F
:102B100009F0B394A3FC11C0A0FE06C0B21488F45F
:102B2000280C922C9B180EC0B21460F4B60180E2FF
:102B300090E00E940116B394F7CFB21418F42B184A
:102B400002C0982C212CA4FE10C0B60180E390E0B6
:102B50000E940116A2FE17C0A1FC03C088E790E006
:102B600002C088E590E0B6010CC08A2D867859F045
:102B7000A1FE02C08BE201C080E2A7FC8DE2B6019B
:102B800090E00E940116891438F4B60180E390E0C9
:102B90000E9401169A94F7CF8A94F301E80DF11D73
:102BA0008081B60190E00E9401168110F5CF2220AD
:102BB00009F442CEB60180E290E00E9401162A9408
:102BC000F6CFF6018681978102C08FEF9FEF2B969B
:102BD000E2E10C94B716FC010590615070400110C1
:102BE000D8F7809590958E0F9F1F0895FC01615036
:102BF000704001900110D8F7809590958E0F9F1F1F
:102C000008950F931F93CF93DF93FB01238121FD41
:102C100003C08FEF9FEF2CC022FF16C04681578163
:102C2000248135814217530744F4A081B1819D016D
:102C30002F5F3F4F318320838C93268137812F5F15
:102C40003F4F3783268314C08B01EC01FB010084C6
:102C5000F185E02D0995892BE1F6D80116968D9125
:102C60009C911797019617969C938E931697CE0179
:102C7000DF91CF911F910F910895FA01AA27283073
:102C800051F1203181F1E8946F936E7F6E5F7F4F39
:102C90008F4F9F4FAF4FB1E03ED0B4E03CD0670FB5
:102CA000781F891F9A1FA11D680F791F8A1F911D08
:102CB000A11D6A0F711D811D911DA11D20D009F458
:102CC00068943F912AE0269F11243019305D31939A
:102CD000DEF6CF010895462F4770405D4193B3E083
:102CE0000FD0C9F7F6CF462F4F70405D4A3318F02A
:102CF000495D31FD4052419302D0A9F7EACFB4E0DB
:102D0000A6959795879577956795BA95C9F7009792
:102D10006105710508959B01AC010A2E0694579533
:102D2000479537952795BA95C9F7620F731F841F8A
:102D3000951FA01D08952F923F924F925F926F9220
:102D40007F928F929F92AF92BF92CF92DF92EF923B
:102D5000FF920F931F93CF93DF93CDB7DEB7CA1BBC
:102D6000DB0B0FB6F894DEBF0FBECDBF09942A88E7
:102D7000398848885F846E847D848C849B84AA848F
:102D8000B984C884DF80EE80FD800C811B81AA811C
:102D9000B981CE0FD11D0FB6F894DEBF0FBECDBFE7
:082DA000ED010895F894FFCF46
:102DA8000000000100000000000098110000000071
:102DB8000002000000008F110000000037414B5551
:102DC8005F69496E6974206863737230344465744E
:102DD8006563746F722C2073656E736F72206964FB
:102DE8006C650053616C69646120412066696E649A
:102DF8002073657474696E670053616C696461203F
:102E080041206E6F2073657474696E670053616C3E
:102E180069646120422066696E6420736574746910
:102E28006E670053616C6964612042206E6F207385
:102E3800657474696E670053616C6964612043202E
:102E480066696E642073657474696E670053616C9B
:102E58006964612043206E6F2073657474696E67BE
:102E68000053595320534F5254455220444542551C
:102E780047202D204D617472697A20646520646949
:102E88006D656E73696F6E657320696E69636961DC
:102E980064610053595320534F52544552204445BE
:102EA800425547202D2053616C6964617320616726
:102EB80072656761646173004E6F20686179206391
:102EC800616A612070726573656E7465202870612F
:102ED800726564206465746563746164612061204F
:102EE8002575206D6D290A0043616A612064656D4E
:102EF80061736961646F2062616A612028257520A9
:102F08006D6D292C20646573636172746164610A54
:102F18000043616A61207469706F2041202825751B
:102F2800206D6D290A0043616A61207469706F2001
:102F38004220282575206D6D290A0043616A6120A9
:102F48007469706F204320282575206D6D290A004B
:102F580043616A61206675657261206465207261EB
:102F68006E676F20282575206D6D292C2064657388
:102F7800636172746164610A004572726F72496EAE
:102F880069744843535230340053656E736F72202E
:102F98006C6962657261646F206465206E75657620
:102FA8006F0053616C696461204120627573790018
:102FB80053616C69646120422062757379005361C2
:102FC8006C6964612043206275737900424F585FD1
:102FD80044495343415244454400424F585F534982
:102FE8005A455F4100424F585F53495A455F420076
:102FF800424F585F53495A455F43005469706F20E8
:103008006E6F207265636F6E6F6369646F00436FE4
:103018006E74616461733A2025750A0048435352FF
:1030280030342070657264696F204543484F004C06
:103038004942204445425547202D204843535230A9
:103048003420544D444F555420436C656172656477
:103058000050757368656420736572766F2041202F
:10306800616E64207A65726F65642073746174653B
:103078002074696D65004465746563746F20656EBE
:103088002049522041005075736865642073657249
:10309800766F204220616E64207A65726F656420C5
:1030A80073746174652074696D6500446574656343
:1030B800746F20656E204952204200507573686510
:1030C8006420736572766F204320616E64207A6590
:1030D800726F65642073746174652074696D65002E
:1030E8004465746563746F20656E204952204300FF
:1030F8004D656E6F7320646520257520627974654F
:103108007320656E206275666665720A00444542E2
:1031180055473A20526571756573743A20307825A1
:1031280058202D3E20526573706F6E73653A2030BB
:103138007825580A005061717565746520524356A8
:1031480020636C65617265642000496E6974207043
:10315800726F746F636F6C20736572766963650054
:10316800427974652025643A203078253032582019
:1031780028446563696D616C3A202564290A004317
:103188004845434B53554D2043414C43202530324D
:10319800580A00434845434B53554D204553504525
:1031A8005241444F3A20253032580A0056616C6F1C
:1031B8007220434D44207061717565746520637297
:1031C8006561646F202578200A004C656E67746815
:1031D8002025750A005374617475733A2025750AA1
:1031E800002D0053616C6964612025643A20426FA8
:1031F800782054797065203D2025750A00436C6558
:103208006172205374617473207374617475733AB6
:103218002025750A00302E382E30006769746875CD
:10322800622E636F6D2F6B6F62616368616A63689A
:1032380069722F484353523034656E4300496E69B2
:103248007420536572766F2025750A0054435254D2
:10325800204120454E41424C45440054435254209D
:103268005520454E41424C45440053656E736F727C
:103278002063616E616C2025752063616C696272E0
:1032880061646F20636F6E207468726573686F6C19
:10329800642025750A004C49422044454255472080
:1032A8002D2048435352303420466C6167732052B6
:1032B80065736574004C4942204445425547202DAA
:1032C8002048435352303420496E69636961646F02
:1032D800004C4942204445425547202D204843533D
:1032E8005230342053746172743A2054524947471B
:1032F80045525F414C4C4F574544207472756500E8
:103308004C4942204445425547202D2048435352BA
:103318003034205374617274206661696C65643A54
:1033280020545249474745525F414C4C4F574544FA
:103338002066616C7365004C4942204445425547FC
:10334800202D204843535230342053746172742026
:103358006661696C65643A2077726F6E6720737472
:10336800617465004C4942204445425547202D2050
:10337800545249474745525F46494E495348206C85
:103388006962004C4942204445425547202D20455A
:1033980043484F20524953494E472062616A6F00A3
:1033A8004C4942204445425547202D2043414C4337
:1033B800554C414E444F004C4942204445425547E4
:1033C800202D2043616C63756C61646F2C207061E3
:1033D80073616E646F20612065737461646F206C23
:0633E8006973746F000020
:00000001FF
