S01700004763634170706C69636174696F6E312E737265635B
S11300000C9434000C9451000C9451000C94510045
S11300100C9451000C9451000C9451000C94A900C0
S11300200C9451000C9451000C9453000C94510006
S11300300C9451000C9498000C9451000C945100B1
S11300400C9451000C9451000C9451000C945100E8
S11300500C9451000C9451000C9451000C945100D8
S11300600C9451000C94510011241FBECFEFD8E022
S1130070DEBFCDBF11E0A0E0B1E0E2E7FBE002C0EB
S113008005900D92A634B107D9F721E0A6E4B1E0BA
S113009001C01D92A836B207E1F70E9439010C9401
S11300A0B7050C9400001F920F920FB60F92112403
S11300B08F939F93EF93FF938091540182FF1AC013
S11300C080914901809186009091870090934F011F
S11300D080934E0180915401886080935401E1E83B
S11300E0F0E080818F7B8083809154018B7F8093AB
S11300F0540115C080914901809186009091870038
S113010090934D0180934C0180915401877F8064CA
S113011080935401E1E8F0E0808180648083FF9162
S1130120EF919F918F910F900FBE0F901F90189594
S11301301F920F920FB60F9211248F938091490151
S11301408F5F809349018F910F900FBE0F901F9086
S113015018951F920F920FB60F9211248F939F93AD
S113016080915D0181FF43C080915401982F927169
S1130170903121F482608093540118C084FD16C02C
S113018085FD0AC080914801873030F48091480190
S11301908F5F809348010AC08091540180628093EC
S11301A054011092480185B18F7D85B98091540125
S11301B0882374F4809147018F3F29F480915D0175
S11301C0846080935D01809147018F5F8093470134
S11301D080914601843130F4809146018F5F809391
S11301E0460105C080915D01886080935D019F9107
S11301F08F910F900FBE0F901F901895109285004D
S11302001092840086B3806286BBEFE6F0E08081C2
S113021081628083E1E8F0E0808180648083808172
S1130220826080830895E1EBF0E0808187608083C1
S11302308BE98093B300E0E7F0E080818260808303
S11302401092B200089584B1806284B985B180624D
S113025085B98AB188608AB984B18E7F84B98AB13C
S11302608F7E8AB98BB18F7E8BB98BB1877F8BB927
S1130270089580915D01826080935D0184E28093A2
S1130280540188E090E00E945C02E2E6F1E08EE036
S113029091E09383828380E091E0918380838CE179
S11302A091E00E94BF0210925E0110925F011092D1
S11302B0600110926101109250011092510110924C
S11302C05201109253011092590110925A01109246
S11302D05B0110925C01109255011092560110922C
S11302E05701109258010E9423010E94FE000E94AF
S11302F01301789480915401982F91739132A9F449
S11303008E7D80618D7F809354018BB188608BB921
S11303101092480180915401846080935401E1E873
S1130320F0E08081806480830EC08273823159F44E
S1130330809154018F7E809354018BB1877F8BB958
S113034085B1806285B94C9B0AC080915401882391
S113035034F0109247018068809354012EC080913C
S11303605401882354F54C9928C08F778093540105
S113037080915D0182FF08C085E291E09F938F9395
S11303800E94A9020F900F90809147018A3030F4A7
S113039080915D01982F947082FF06C080915D0169
S11303A0816080935D0109C010924701992329F06F
S11303B080915D018B7F80935D0180915D0183FF5E
S11303C00CC08091540181608093540180915D013F
S11303D0877F80935D011092460180915D0180FFCB
S11303E008C08E7F80935D01809154018160809369
S11303F054018091540186FF7DCF8F7B80935401FB
S11304000E94030277CF0F931F9380914C01909128
S11304104D0120914E0130914F01821B930BAC0191
S113042060E070E0DB01CA01880F991FAA1FBB1F9F
S1130430880F991FAA1FBB1F880F991FAA1FBB1FD4
S1130440880F991FAA1FBB1F8C019D01040F151F44
S1130450261F371FC901B801660F771F881F991F10
S113046020E931E040E050E00E94870230934B01E4
S113047020934A0180914A0190914B014E97B8F024
S113048080914A0190914B01813D974080F4809185
S11304904A0190914B019F938F9384E391E09F9342
S11304A08F930E94A9020F900F900F900F901092BB
S11304B049011F910F9108959093C5008093C40042
S11304C088E18093C10086E08093C20008959091F2
S11304D0C00095FFFCCF8093C60008958091C000B2
S11304E08823E4F78091C6000895CF93C82F8A30FB
S11304F019F48DE00E9467028C2F0E94670280E04D
S113050090E0CF9108950E946E0290E00895A1E2D8
S11305101A2EAA1BBB1BFD010DC0AA1FBB1FEE1F79
S1130520FF1FA217B307E407F50720F0A21BB30BC4
S1130530E40BF50B661F771F881F991F1A9469F740
S113054060957095809590959B01AC01BD01CF019C
S11305500895A0E0B0E0EFEAF2E00C949005AE015B
S11305604B5F5F4FFA0161917191AF01809164011A
S1130570909165010E94EF02E2E00C94AC050F93A8
S11305801F93CF93DF93E0916401F0916501238180
S113059021FF1BC08C01D0E0C0E0F80181918F01E4
S11305A06091640170916501DB011896ED91FC91F5
S11305B01997882331F00995892B79F3DFEFCFEF71
S11305C0ECCF8AE00995892B19F08FEF9FEF02C0D9
S11305D08D2F9C2FDF91CF911F910F910895ABE048
S11305E0B0E0E5EFF2E00C9480056C017B018A0138
S11305F0FC0117821682838181FFCCC1CE01019652
S11306003C01F6019381F70193FD859193FF81915C
S11306107F01882309F4BAC1853239F493FD8591A9
S113062093FF81917F01853229F4B60190E00E9405
S1130630E604E7CF912C212C312CFFE1F315D8F0FF
S11306408B3279F038F4803279F08332A1F4232D9F
S113065020611DC08D3261F0803369F4232D216047
S113066016C0832D8260382EE32DE4603E2E2AC00E
S1130670F32DF8601DC037FC2DC020ED280F2A3063
S113068040F08E32B9F436FC81C1232D2064322E21
S113069019C036FE06C08AE0989E200D1124922EC1
S11306A011C0EAE02E9E200D1124222EF32DF062BB
S11306B03F2E08C08C3621F4832D8068382E02C06A
S11306C0883641F4F70193FD859193FF81917F0171
S11306D08111B3CF982F9F7D9554933028F40C5FEC
S11306E01F4F9FE399830DC0833631F0833771F038
S11306F0833509F059C021C0F801808189830E5FD8
S11307001F4F88248394912C530113C02801F2E0D5
S11307104F0E511CF801A080B18036FE03C0692D34
S113072070E002C06FEF7FEFC5010E94DB044C0153
S11307308201F32DFF773F2E16C0280122E0420EDE
S1130740511CF801A080B18036FE03C0692D70E011
S113075002C06FEF7FEFC5010E94D0044C01F32D5E
S1130760F0683F2E820133FC1BC0822D90E0881676
S11307709906B0F4B60180E290E00E94E6042A945F
S1130780F4CFF50137FC859137FE81915F01B60105
S113079090E00E94E60421102A9421E0821A910834
S11307A08114910471F7E8C0843611F0893641F55B
S11307B0F80137FE07C060817181828193810C5FEB
S11307C01F4F08C060817181072E000C880B990BA4
S11307D00E5F1F4FF32DFF763F2E97FF09C09095B4
S11307E08095709561957F4F8F4F9F4FF0683F2E96
S11307F02AE030E0A3010E942205882E861845C015
S1130800853731F4232D2F7EB22E2AE030E025C027
S1130810932D997FB92E8F36C1F018F4883579F06D
S1130820B5C0803719F0883721F0B0C0E92FE061F6
S1130830BE2EB4FE0DC0FB2DF460BF2E09C034FEE5
S11308400AC0292F2660B22E06C028E030E005C079
S113085020E130E002C020E132E0F801B7FE07C039
S113086060817181828193810C5F1F4F06C060811A
S1130870718180E090E00E5F1F4FA3010E9422056A
S1130880882E8618FB2DFF773F2E36FE0DC0232DB4
S11308902E7FA22E891458F434FE0BC032FC09C0FA
S11308A0832D8E7EA82E05C0B82CA32C03C0B82C93
S11308B001C0B92CA4FE0FC0FE01E80DF11D80811A
S11308C0803321F49A2D997EA92E09C0A2FE06C078
S11308D0B394B39404C08A2D867809F0B394A3FC2E
S11308E011C0A0FE06C0B21488F4280C922C9B18E8
S11308F00EC0B21460F4B60180E290E00E94E604F7
S1130900B394F7CFB21418F42B1802C0982C212CEE
S1130910A4FE10C0B60180E390E00E94E604A2FEAB
S113092017C0A1FC03C088E790E002C088E590E00E
S1130930B6010CC08A2D867859F0A1FE02C08BE264
S113094001C080E2A7FC8DE2B60190E00E94E604BB
S1130950891438F4B60180E390E00E94E6049A9486
S1130960F7CF8A94F301E80DF11D8081B60190E080
S11309700E94E6048110F5CF222009F442CEB6018C
S113098080E290E00E94E6042A94F6CFF601868184
S1130990978102C08FEF9FEF2B96E2E10C949C05A8
S11309A0FC010590615070400110D8F78095909536
S11309B08E0F9F1F0895FC0161507040019001103B
S11309C0D8F7809590958E0F9F1F08950F931F93CE
S11309D0CF93DF93FB01238121FD03C08FEF9FEFB2
S11309E02CC022FF16C046815781248135814217CD
S11309F0530744F4A081B1819D012F5F3F4F3183A0
S1130A0020838C93268137812F5F3F4F3783268342
S1130A1014C08B01EC01FB010084F185E02D0995E4
S1130A20892BE1F6D80116968D919C911797019622
S1130A3017969C938E931697CE01DF91CF911F91B9
S1130A400F910895FA01AA27283051F1203181F13C
S1130A50E8946F936E7F6E5F7F4F8F4F9F4FAF4FC2
S1130A60B1E03ED0B4E03CD0670F781F891F9A1FD5
S1130A70A11D680F791F8A1F911DA11D6A0F711D89
S1130A80811D911DA11D20D009F468943F912AE095
S1130A90269F11243019305D3193DEF6CF0108957D
S1130AA0462F4770405D4193B3E00FD0C9F7F6CFAE
S1130AB0462F4F70405D4A3318F0495D31FD405276
S1130AC0419302D0A9F7EACFB4E0A695979587950C
S1130AD077956795BA95C9F70097610571050895EB
S1130AE09B01AC010A2E0694579547953795279597
S1130AF0BA95C9F7620F731F841F951FA01D08952F
S1130B002F923F924F925F926F927F928F929F9219
S1130B10AF92BF92CF92DF92EF92FF920F931F9307
S1130B20CF93DF93CDB7DEB7CA1BDB0B0FB6F894B8
S1130B30DEBF0FBECDBF09942A88398848885F84F8
S1130B406E847D848C849B84AA84B984C884DF8069
S1130B50EE80FD800C811B81AA81B981CE0FD11D4D
S1130B600FB6F894DEBF0FBECDBFED010895F89423
S1050B70FFCFB1
S1130B7200000001000000000000830200000000E9
S1130B82000200000000750200000000496E696363
S1130B926961646F0042746E206F766572666C6F71
S1130BA27765640044697374616E6369613A2025F0
S1090BB2756D6D0A0000E0
S9030000FC
